{
  "address": "0x81aB8F5d483Fd304c1688f3880887822F822380C",
  "abi": [
    {
      "inputs": [],
      "stateMutability": "nonpayable",
      "type": "constructor"
    },
    {
      "anonymous": false,
      "inputs": [
        {
          "indexed": true,
          "internalType": "address",
          "name": "_owner",
          "type": "address"
        },
        {
          "indexed": true,
          "internalType": "address",
          "name": "_spender",
          "type": "address"
        },
        {
          "indexed": false,
          "internalType": "uint256",
          "name": "_value",
          "type": "uint256"
        }
      ],
      "name": "Approval",
      "type": "event"
    },
    {
      "anonymous": false,
      "inputs": [
        {
          "indexed": true,
          "internalType": "address",
          "name": "previousOwner",
          "type": "address"
        },
        {
          "indexed": true,
          "internalType": "address",
          "name": "newOwner",
          "type": "address"
        }
      ],
      "name": "OwnershipTransferred",
      "type": "event"
    },
    {
      "anonymous": false,
      "inputs": [
        {
          "indexed": true,
          "internalType": "address",
          "name": "_from",
          "type": "address"
        },
        {
          "indexed": true,
          "internalType": "address",
          "name": "_to",
          "type": "address"
        },
        {
          "indexed": false,
          "internalType": "uint256",
          "name": "_value",
          "type": "uint256"
        }
      ],
      "name": "Transfer",
      "type": "event"
    },
    {
      "stateMutability": "payable",
      "type": "fallback"
    },
    {
      "inputs": [],
      "name": "DOMAIN_SEPARATOR",
      "outputs": [
        {
          "internalType": "bytes32",
          "name": "",
          "type": "bytes32"
        }
      ],
      "stateMutability": "view",
      "type": "function"
    },
    {
      "inputs": [],
      "name": "admin",
      "outputs": [
        {
          "internalType": "address",
          "name": "",
          "type": "address"
        }
      ],
      "stateMutability": "view",
      "type": "function"
    },
    {
      "inputs": [
        {
          "internalType": "address",
          "name": "target",
          "type": "address"
        },
        {
          "internalType": "bytes",
          "name": "data",
          "type": "bytes"
        }
      ],
      "name": "adminCall",
      "outputs": [],
      "stateMutability": "payable",
      "type": "function"
    },
    {
      "inputs": [
        {
          "internalType": "address",
          "name": "account",
          "type": "address"
        },
        {
          "internalType": "address",
          "name": "spender",
          "type": "address"
        }
      ],
      "name": "allowance",
      "outputs": [
        {
          "internalType": "uint256",
          "name": "",
          "type": "uint256"
        }
      ],
      "stateMutability": "view",
      "type": "function"
    },
    {
      "inputs": [
        {
          "internalType": "address",
          "name": "spender",
          "type": "address"
        },
        {
          "internalType": "uint256",
          "name": "amount",
          "type": "uint256"
        }
      ],
      "name": "approve",
      "outputs": [
        {
          "internalType": "bool",
          "name": "",
          "type": "bool"
        }
      ],
      "stateMutability": "nonpayable",
      "type": "function"
    },
    {
      "inputs": [
        {
          "internalType": "address",
          "name": "account",
          "type": "address"
        }
      ],
      "name": "balanceOf",
      "outputs": [
        {
          "internalType": "uint256",
          "name": "",
          "type": "uint256"
        }
      ],
      "stateMutability": "view",
      "type": "function"
    },
    {
      "inputs": [
        {
          "internalType": "uint32",
          "name": "fromChain",
          "type": "uint32"
        },
        {
          "internalType": "bytes",
          "name": "payload",
          "type": "bytes"
        }
      ],
      "name": "bridgeIn",
      "outputs": [
        {
          "internalType": "bytes4",
          "name": "",
          "type": "bytes4"
        }
      ],
      "stateMutability": "nonpayable",
      "type": "function"
    },
    {
      "inputs": [
        {
          "internalType": "uint32",
          "name": "toChain",
          "type": "uint32"
        },
        {
          "internalType": "address",
          "name": "sender",
          "type": "address"
        },
        {
          "internalType": "bytes",
          "name": "payload",
          "type": "bytes"
        }
      ],
      "name": "bridgeOut",
      "outputs": [
        {
          "internalType": "bytes4",
          "name": "selector",
          "type": "bytes4"
        },
        {
          "internalType": "bytes",
          "name": "data",
          "type": "bytes"
        }
      ],
      "stateMutability": "nonpayable",
      "type": "function"
    },
    {
      "inputs": [
        {
          "internalType": "uint256",
          "name": "amount",
          "type": "uint256"
        }
      ],
      "name": "burn",
      "outputs": [],
      "stateMutability": "nonpayable",
      "type": "function"
    },
    {
      "inputs": [
        {
          "internalType": "address",
          "name": "account",
          "type": "address"
        },
        {
          "internalType": "uint256",
          "name": "amount",
          "type": "uint256"
        }
      ],
      "name": "burnFrom",
      "outputs": [
        {
          "internalType": "bool",
          "name": "",
          "type": "bool"
        }
      ],
      "stateMutability": "nonpayable",
      "type": "function"
    },
    {
      "inputs": [],
      "name": "decimals",
      "outputs": [
        {
          "internalType": "uint8",
          "name": "",
          "type": "uint8"
        }
      ],
      "stateMutability": "view",
      "type": "function"
    },
    {
      "inputs": [
        {
          "internalType": "address",
          "name": "spender",
          "type": "address"
        },
        {
          "internalType": "uint256",
          "name": "subtractedValue",
          "type": "uint256"
        }
      ],
      "name": "decreaseAllowance",
      "outputs": [
        {
          "internalType": "bool",
          "name": "",
          "type": "bool"
        }
      ],
      "stateMutability": "nonpayable",
      "type": "function"
    },
    {
      "inputs": [],
      "name": "getAdmin",
      "outputs": [
        {
          "internalType": "address",
          "name": "adminAddress",
          "type": "address"
        }
      ],
      "stateMutability": "view",
      "type": "function"
    },
    {
      "inputs": [],
      "name": "getOwner",
      "outputs": [
        {
          "internalType": "address",
          "name": "ownerAddress",
          "type": "address"
        }
      ],
      "stateMutability": "view",
      "type": "function"
    },
    {
      "inputs": [
        {
          "internalType": "address",
          "name": "to",
          "type": "address"
        },
        {
          "internalType": "uint256",
          "name": "amount",
          "type": "uint256"
        }
      ],
      "name": "holographBridgeMint",
      "outputs": [
        {
          "internalType": "bytes4",
          "name": "",
          "type": "bytes4"
        }
      ],
      "stateMutability": "nonpayable",
      "type": "function"
    },
    {
      "inputs": [
        {
          "internalType": "address",
          "name": "spender",
          "type": "address"
        },
        {
          "internalType": "uint256",
          "name": "addedValue",
          "type": "uint256"
        }
      ],
      "name": "increaseAllowance",
      "outputs": [
        {
          "internalType": "bool",
          "name": "",
          "type": "bool"
        }
      ],
      "stateMutability": "nonpayable",
      "type": "function"
    },
    {
      "inputs": [
        {
          "internalType": "bytes",
          "name": "initPayload",
          "type": "bytes"
        }
      ],
      "name": "init",
      "outputs": [
        {
          "internalType": "bytes4",
          "name": "",
          "type": "bytes4"
        }
      ],
      "stateMutability": "nonpayable",
      "type": "function"
    },
    {
      "inputs": [],
      "name": "name",
      "outputs": [
        {
          "internalType": "string",
          "name": "",
          "type": "string"
        }
      ],
      "stateMutability": "view",
      "type": "function"
    },
    {
      "inputs": [
        {
          "internalType": "address",
          "name": "account",
          "type": "address"
        }
      ],
      "name": "nonces",
      "outputs": [
        {
          "internalType": "uint256",
          "name": "",
          "type": "uint256"
        }
      ],
      "stateMutability": "view",
      "type": "function"
    },
    {
      "inputs": [
        {
          "internalType": "address",
          "name": "account",
          "type": "address"
        },
        {
          "internalType": "address",
          "name": "sender",
          "type": "address"
        },
        {
          "internalType": "uint256",
          "name": "amount",
          "type": "uint256"
        },
        {
          "internalType": "bytes",
          "name": "data",
          "type": "bytes"
        }
      ],
      "name": "onERC20Received",
      "outputs": [
        {
          "internalType": "bytes4",
          "name": "",
          "type": "bytes4"
        }
      ],
      "stateMutability": "nonpayable",
      "type": "function"
    },
    {
      "inputs": [],
      "name": "owner",
      "outputs": [
        {
          "internalType": "address",
          "name": "",
          "type": "address"
        }
      ],
      "stateMutability": "view",
      "type": "function"
    },
    {
      "inputs": [
        {
          "internalType": "address",
          "name": "target",
          "type": "address"
        },
        {
          "internalType": "bytes",
          "name": "data",
          "type": "bytes"
        }
      ],
      "name": "ownerCall",
      "outputs": [],
      "stateMutability": "payable",
      "type": "function"
    },
    {
      "inputs": [
        {
          "internalType": "address",
          "name": "account",
          "type": "address"
        },
        {
          "internalType": "address",
          "name": "spender",
          "type": "address"
        },
        {
          "internalType": "uint256",
          "name": "amount",
          "type": "uint256"
        },
        {
          "internalType": "uint256",
          "name": "deadline",
          "type": "uint256"
        },
        {
          "internalType": "uint8",
          "name": "v",
          "type": "uint8"
        },
        {
          "internalType": "bytes32",
          "name": "r",
          "type": "bytes32"
        },
        {
          "internalType": "bytes32",
          "name": "s",
          "type": "bytes32"
        }
      ],
      "name": "permit",
      "outputs": [],
      "stateMutability": "nonpayable",
      "type": "function"
    },
    {
      "inputs": [
        {
          "internalType": "address",
          "name": "recipient",
          "type": "address"
        },
        {
          "internalType": "uint256",
          "name": "amount",
          "type": "uint256"
        }
      ],
      "name": "safeTransfer",
      "outputs": [
        {
          "internalType": "bool",
          "name": "",
          "type": "bool"
        }
      ],
      "stateMutability": "nonpayable",
      "type": "function"
    },
    {
      "inputs": [
        {
          "internalType": "address",
          "name": "recipient",
          "type": "address"
        },
        {
          "internalType": "uint256",
          "name": "amount",
          "type": "uint256"
        },
        {
          "internalType": "bytes",
          "name": "data",
          "type": "bytes"
        }
      ],
      "name": "safeTransfer",
      "outputs": [
        {
          "internalType": "bool",
          "name": "",
          "type": "bool"
        }
      ],
      "stateMutability": "nonpayable",
      "type": "function"
    },
    {
      "inputs": [
        {
          "internalType": "address",
          "name": "account",
          "type": "address"
        },
        {
          "internalType": "address",
          "name": "recipient",
          "type": "address"
        },
        {
          "internalType": "uint256",
          "name": "amount",
          "type": "uint256"
        }
      ],
      "name": "safeTransferFrom",
      "outputs": [
        {
          "internalType": "bool",
          "name": "",
          "type": "bool"
        }
      ],
      "stateMutability": "nonpayable",
      "type": "function"
    },
    {
      "inputs": [
        {
          "internalType": "address",
          "name": "account",
          "type": "address"
        },
        {
          "internalType": "address",
          "name": "recipient",
          "type": "address"
        },
        {
          "internalType": "uint256",
          "name": "amount",
          "type": "uint256"
        },
        {
          "internalType": "bytes",
          "name": "data",
          "type": "bytes"
        }
      ],
      "name": "safeTransferFrom",
      "outputs": [
        {
          "internalType": "bool",
          "name": "",
          "type": "bool"
        }
      ],
      "stateMutability": "nonpayable",
      "type": "function"
    },
    {
      "inputs": [
        {
          "internalType": "address",
          "name": "adminAddress",
          "type": "address"
        }
      ],
      "name": "setAdmin",
      "outputs": [],
      "stateMutability": "nonpayable",
      "type": "function"
    },
    {
      "inputs": [
        {
          "internalType": "address",
          "name": "ownerAddress",
          "type": "address"
        }
      ],
      "name": "setOwner",
      "outputs": [],
      "stateMutability": "nonpayable",
      "type": "function"
    },
    {
      "inputs": [
        {
          "internalType": "address",
          "name": "from",
          "type": "address"
        },
        {
          "internalType": "uint256",
          "name": "amount",
          "type": "uint256"
        }
      ],
      "name": "sourceBurn",
      "outputs": [],
      "stateMutability": "nonpayable",
      "type": "function"
    },
    {
      "inputs": [
        {
          "internalType": "address",
          "name": "to",
          "type": "address"
        },
        {
          "internalType": "uint256",
          "name": "amount",
          "type": "uint256"
        }
      ],
      "name": "sourceMint",
      "outputs": [],
      "stateMutability": "nonpayable",
      "type": "function"
    },
    {
      "inputs": [
        {
          "internalType": "address[]",
          "name": "wallets",
          "type": "address[]"
        },
        {
          "internalType": "uint256[]",
          "name": "amounts",
          "type": "uint256[]"
        }
      ],
      "name": "sourceMintBatch",
      "outputs": [],
      "stateMutability": "nonpayable",
      "type": "function"
    },
    {
      "inputs": [
        {
          "internalType": "address",
          "name": "from",
          "type": "address"
        },
        {
          "internalType": "address",
          "name": "to",
          "type": "address"
        },
        {
          "internalType": "uint256",
          "name": "amount",
          "type": "uint256"
        }
      ],
      "name": "sourceTransfer",
      "outputs": [],
      "stateMutability": "nonpayable",
      "type": "function"
    },
    {
      "inputs": [
        {
          "internalType": "address payable",
          "name": "destination",
          "type": "address"
        }
      ],
      "name": "sourceWithdraw",
      "outputs": [],
      "stateMutability": "nonpayable",
      "type": "function"
    },
    {
      "inputs": [
        {
          "internalType": "bytes4",
          "name": "interfaceId",
          "type": "bytes4"
        }
      ],
      "name": "supportsInterface",
      "outputs": [
        {
          "internalType": "bool",
          "name": "",
          "type": "bool"
        }
      ],
      "stateMutability": "view",
      "type": "function"
    },
    {
      "inputs": [],
      "name": "symbol",
      "outputs": [
        {
          "internalType": "string",
          "name": "",
          "type": "string"
        }
      ],
      "stateMutability": "view",
      "type": "function"
    },
    {
      "inputs": [],
      "name": "totalSupply",
      "outputs": [
        {
          "internalType": "uint256",
          "name": "",
          "type": "uint256"
        }
      ],
      "stateMutability": "view",
      "type": "function"
    },
    {
      "inputs": [
        {
          "internalType": "address",
          "name": "recipient",
          "type": "address"
        },
        {
          "internalType": "uint256",
          "name": "amount",
          "type": "uint256"
        }
      ],
      "name": "transfer",
      "outputs": [
        {
          "internalType": "bool",
          "name": "",
          "type": "bool"
        }
      ],
      "stateMutability": "nonpayable",
      "type": "function"
    },
    {
      "inputs": [
        {
          "internalType": "address",
          "name": "account",
          "type": "address"
        },
        {
          "internalType": "address",
          "name": "recipient",
          "type": "address"
        },
        {
          "internalType": "uint256",
          "name": "amount",
          "type": "uint256"
        }
      ],
      "name": "transferFrom",
      "outputs": [
        {
          "internalType": "bool",
          "name": "",
          "type": "bool"
        }
      ],
      "stateMutability": "nonpayable",
      "type": "function"
    },
    {
      "inputs": [
        {
          "internalType": "address",
          "name": "newOwner",
          "type": "address"
        }
      ],
      "name": "transferOwnership",
      "outputs": [],
      "stateMutability": "nonpayable",
      "type": "function"
    },
    {
      "stateMutability": "payable",
      "type": "receive"
    }
  ],
  "transactionHash": "0x66d78e9f42e2b9a0bb209a03a8a4e825de444d449c3ad461640e45b4ad8331d3",
  "args": [],
  "numDeployments": 4,
  "solcInputHash": "7d05ea834b97e35a74e57e99140c7c17",
  "bytecode": "0x608060405234801561001057600080fd5b50614ae6806100206000396000f3fe6080604052600436106102bf5760003560e01c8063704b6c021161016e578063b7e03661116100cb578063eb66dbcf1161007f578063f2fde38b11610064578063f2fde38b14610892578063f851a440146108b2578063fad66f92146108c7576102c6565b8063eb66dbcf1461085f578063eb79554914610872576102c6565b8063bf64a82d116100b0578063bf64a82d146107d9578063d505accf146107ec578063dd62ed3e1461080c576102c6565b8063b7e036611461078b578063b88d4fde146107b9576102c6565b80638da5cb5b11610122578063a457c2d711610107578063a457c2d71461072b578063a8eb29c91461074b578063a9059cbb1461076b576102c6565b80638da5cb5b1461070157806395d89b4114610716576102c6565b806379cc67901161015357806379cc67901461066a5780637ecebe001461068a578063893d20e8146106cd576102c6565b8063704b6c021461060757806370a0823114610627576102c6565b8063313ce5671161021c57806342966c68116101d05780634fc35859116101b55780634fc358591461057257806366bd3d45146105925780636e9960c3146105b2576102c6565b806342966c68146105325780634ddf47d414610552576102c6565b8063395093511161020157806339509351146104d2578063423f6cef146104f257806342842e0e14610512576102c6565b8063313ce5671461049b5780633644e515146104bd576102c6565b80630d5e2c1d1161027357806318160ddd1161025857806318160ddd1461043c57806323b872dd1461045b5780632711dbd61461047b576102c6565b80630d5e2c1d146103fc57806313af40351461041c576102c6565b806308a1eb20116102a457806308a1eb201461036b578063095ea7b3146103bc5780630d3ada54146103dc576102c6565b806301ffc9a71461031457806306fdde0314610349576102c6565b366102c657005b3660008037333652600080602036016000347f27d542086d1e831d40b749e7f5509a626c3047a36d160781c40d5acc83e5b074545af13d6000803e80801561030d573d6000f35b3d6000fd5b005b34801561032057600080fd5b5061033461032f366004613f4c565b6108e7565b60405190151581526020015b60405180910390f35b34801561035557600080fd5b5061035e610a7d565b6040516103409190613fdf565b34801561037757600080fd5b5061038b610386366004614054565b610b0f565b6040517fffffffff000000000000000000000000000000000000000000000000000000009091168152602001610340565b3480156103c857600080fd5b506103346103d73660046140c9565b610dab565b3480156103e857600080fd5b506103126103f736600461413a565b610ea5565b34801561040857600080fd5b506103126104173660046140c9565b610fb3565b34801561042857600080fd5b506103126104373660046141a6565b611063565b34801561044857600080fd5b506009545b604051908152602001610340565b34801561046757600080fd5b506103346104763660046141c3565b6111c6565b34801561048757600080fd5b506103126104963660046141a6565b61153f565b3480156104a757600080fd5b50600c5460405160ff9091168152602001610340565b3480156104c957600080fd5b5061044d611622565b3480156104de57600080fd5b506103346104ed3660046140c9565b611631565b3480156104fe57600080fd5b5061033461050d3660046140c9565b6117c9565b34801561051e57600080fd5b5061033461052d3660046141c3565b6117ec565b34801561053e57600080fd5b5061031261054d366004614204565b611811565b34801561055e57600080fd5b5061038b61056d366004614337565b6118ca565b34801561057e57600080fd5b5061038b61058d36600461436c565b611bdd565b34801561059e57600080fd5b506103126105ad3660046140c9565b611e00565b3480156105be57600080fd5b507f3f106594dc74eeef980dae234cde8324dc2497b13d27a0c59e55bd2ca10a07c9545b60405173ffffffffffffffffffffffffffffffffffffffff9091168152602001610340565b34801561061357600080fd5b506103126106223660046141a6565b611eab565b34801561063357600080fd5b5061044d6106423660046141a6565b73ffffffffffffffffffffffffffffffffffffffff1660009081526007602052604090205490565b34801561067657600080fd5b506103346106853660046140c9565b611f85565b34801561069657600080fd5b5061044d6106a53660046141a6565b73ffffffffffffffffffffffffffffffffffffffff166000908152600d602052604090205490565b3480156106d957600080fd5b507fb56711ba6bd3ded7639fc335ee7524fe668a79d7558c85992e3f8494cf772777546105e2565b34801561070d57600080fd5b506105e261212e565b34801561072257600080fd5b5061035e6121ca565b34801561073757600080fd5b506103346107463660046140c9565b6121d9565b34801561075757600080fd5b506103126107663660046141c3565b612281565b34801561077757600080fd5b506103346107863660046140c9565b612333565b34801561079757600080fd5b506107ab6107a63660046143df565b61241b565b604051610340929190614436565b3480156107c557600080fd5b506103346107d4366004614471565b6127c1565b6103126107e73660046144dd565b612ab3565b3480156107f857600080fd5b5061031261080736600461450c565b612b89565b34801561081857600080fd5b5061044d61082736600461457d565b73ffffffffffffffffffffffffffffffffffffffff918216600090815260086020908152604080832093909416825291909152205490565b61031261086d3660046144dd565b612e30565b34801561087e57600080fd5b5061033461088d3660046145b6565b612ee6565b34801561089e57600080fd5b506103126108ad3660046141a6565b612f5e565b3480156108be57600080fd5b506105e26130b5565b3480156108d357600080fd5b5061038b6108e23660046140c9565b6130df565b6000806108f261323d565b7f27d542086d1e831d40b749e7f5509a626c3047a36d160781c40d5acc83e5b074546040517f9fe7303f0000000000000000000000000000000000000000000000000000000081529192509073ffffffffffffffffffffffffffffffffffffffff831690639fe7303f9061096d90600190889060040161463e565b602060405180830381865afa15801561098a573d6000803e3d6000fd5b505050506040513d601f19601f820116820180604052508101906109ae91906146ba565b80610a6457506040517f01ffc9a70000000000000000000000000000000000000000000000000000000081527fffffffff000000000000000000000000000000000000000000000000000000008516600482015273ffffffffffffffffffffffffffffffffffffffff8216906301ffc9a790602401602060405180830381865afa158015610a40573d6000803e3d6000fd5b505050506040513d601f19601f82011682018060405250810190610a6491906146ba565b15610a73575060019392505050565b5060009392505050565b6060600a8054610a8c906146d5565b80601f0160208091040260200160405190810160405280929190818152602001828054610ab8906146d5565b8015610b055780601f10610ada57610100808354040283529160200191610b05565b820191906000526020600020905b815481529060010190602001808311610ae857829003601f168201915b5050505050905090565b6000610b397fb4107f746e9496e8452accc7de63d1c5e14c19f510932daa04077cd49e8bd77a5490565b73ffffffffffffffffffffffffffffffffffffffff16630fffbaf36040518163ffffffff1660e01b8152600401602060405180830381865afa158015610b83573d6000803e3d6000fd5b505050506040513d601f19601f82011682018060405250810190610ba79190614728565b73ffffffffffffffffffffffffffffffffffffffff163373ffffffffffffffffffffffffffffffffffffffff1614610c40576040517f08c379a000000000000000000000000000000000000000000000000000000000815260206004820152601760248201527f45524332303a20627269646765206f6e6c792063616c6c00000000000000000060448201526064015b60405180910390fd5b6000808080610c5186880188614471565b9350935093509350610c6383836132d5565b610c6d60016133f5565b15610d7e57610d1863f0f5407360e01b8986868686604051602401610c96959493929190614745565b604080517fffffffffffffffffffffffffffffffffffffffffffffffffffffffffffffffe08184030181529190526020810180517bffffffffffffffffffffffffffffffffffffffffffffffffffffffff167fffffffff0000000000000000000000000000000000000000000000000000000090931692909217909152613428565b610d7e576040517f08c379a000000000000000000000000000000000000000000000000000000000815260206004820152601b60248201527f484f4c4f47524150483a2062726964676520696e206661696c656400000000006044820152606401610c37565b507f08a1eb2000000000000000000000000000000000000000000000000000000000979650505050505050565b6000610db760046133f5565b15610e1f5760405133602482015273ffffffffffffffffffffffffffffffffffffffff8416604482015260648101839052610e16907f47abf3be0000000000000000000000000000000000000000000000000000000090608401610c96565b610e1f57600080fd5b610e2a338484613487565b610e3460036133f5565b15610e9c5760405133602482015273ffffffffffffffffffffffffffffffffffffffff8416604482015260648101839052610e93907f900f66ef0000000000000000000000000000000000000000000000000000000090608401610c96565b610e9c57600080fd5b50600192915050565b7f27d542086d1e831d40b749e7f5509a626c3047a36d160781c40d5acc83e5b074543373ffffffffffffffffffffffffffffffffffffffff821614610f46576040517f08c379a000000000000000000000000000000000000000000000000000000000815260206004820152601760248201527f45524332303a20736f75726365206f6e6c792063616c6c0000000000000000006044820152606401610c37565b60005b84811015610fab57610f99868683818110610f6657610f6661479b565b9050602002016020810190610f7b91906141a6565b858584818110610f8d57610f8d61479b565b905060200201356132d5565b80610fa3816147f9565b915050610f49565b505050505050565b7f27d542086d1e831d40b749e7f5509a626c3047a36d160781c40d5acc83e5b074543373ffffffffffffffffffffffffffffffffffffffff821614611054576040517f08c379a000000000000000000000000000000000000000000000000000000000815260206004820152601760248201527f45524332303a20736f75726365206f6e6c792063616c6c0000000000000000006044820152606401610c37565b61105e83836135f0565b505050565b7fb56711ba6bd3ded7639fc335ee7524fe668a79d7558c85992e3f8494cf7727775473ffffffffffffffffffffffffffffffffffffffff163373ffffffffffffffffffffffffffffffffffffffff1614611119576040517f08c379a000000000000000000000000000000000000000000000000000000000815260206004820152601e60248201527f484f4c4f47524150483a206f776e6572206f6e6c792066756e6374696f6e00006044820152606401610c37565b60006111437fb56711ba6bd3ded7639fc335ee7524fe668a79d7558c85992e3f8494cf7727775490565b9050817fb56711ba6bd3ded7639fc335ee7524fe668a79d7558c85992e3f8494cf772777558173ffffffffffffffffffffffffffffffffffffffff168173ffffffffffffffffffffffffffffffffffffffff167f8be0079c531659141344cd1fd0a4f28419497f9722a3daafe3b4186f6b6457e060405160405180910390a35050565b600073ffffffffffffffffffffffffffffffffffffffff84163314611442577fb4107f746e9496e8452accc7de63d1c5e14c19f510932daa04077cd49e8bd77a5473ffffffffffffffffffffffffffffffffffffffff16630fffbaf36040518163ffffffff1660e01b8152600401602060405180830381865afa158015611251573d6000803e3d6000fd5b505050506040513d601f19601f820116820180604052508101906112759190614728565b73ffffffffffffffffffffffffffffffffffffffff163373ffffffffffffffffffffffffffffffffffffffff161415801561136b57507fb4107f746e9496e8452accc7de63d1c5e14c19f510932daa04077cd49e8bd77a5473ffffffffffffffffffffffffffffffffffffffff1663e7f43c686040518163ffffffff1660e01b8152600401602060405180830381865afa158015611317573d6000803e3d6000fd5b505050506040513d601f19601f8201168201806040525081019061133b9190614728565b73ffffffffffffffffffffffffffffffffffffffff163373ffffffffffffffffffffffffffffffffffffffff1614155b156114425773ffffffffffffffffffffffffffffffffffffffff841660009081526008602090815260408083203384529091529020548281101561140b576040517f08c379a000000000000000000000000000000000000000000000000000000000815260206004820152601f60248201527f45524332303a20616d6f756e74206578636565647320616c6c6f77616e6365006044820152606401610c37565b73ffffffffffffffffffffffffffffffffffffffff8516600090815260086020908152604080832033845290915290209083900390555b61144c600e6133f5565b156114b65760405173ffffffffffffffffffffffffffffffffffffffff808616602483015284166044820152606481018390526114ad907f1ffb811f0000000000000000000000000000000000000000000000000000000090608401610c96565b6114b657600080fd5b6114c1848484613789565b6114cb600d6133f5565b156115355760405173ffffffffffffffffffffffffffffffffffffffff8086166024830152841660448201526064810183905261152c907ff49062ca0000000000000000000000000000000000000000000000000000000090608401610c96565b61153557600080fd5b5060019392505050565b7f27d542086d1e831d40b749e7f5509a626c3047a36d160781c40d5acc83e5b074543373ffffffffffffffffffffffffffffffffffffffff8216146115e0576040517f08c379a000000000000000000000000000000000000000000000000000000000815260206004820152601760248201527f45524332303a20736f75726365206f6e6c792063616c6c0000000000000000006044820152606401610c37565b60405173ffffffffffffffffffffffffffffffffffffffff8316904780156108fc02916000818181858888f1935050505015801561105e573d6000803e3d6000fd5b600061162c6139cb565b905090565b33600090815260086020908152604080832073ffffffffffffffffffffffffffffffffffffffff86168452909152812054828101818110156116cf576040517f08c379a000000000000000000000000000000000000000000000000000000000815260206004820181905260248201527f45524332303a20696e637265617365642061626f7665206d61782076616c75656044820152606401610c37565b6116d960046133f5565b156117415760405133602482015273ffffffffffffffffffffffffffffffffffffffff8616604482015260648101829052611738907f47abf3be0000000000000000000000000000000000000000000000000000000090608401610c96565b61174157600080fd5b61174c338683613487565b61175660036133f5565b156117be5760405133602482015273ffffffffffffffffffffffffffffffffffffffff86166044820152606481018290526117b5907f900f66ef0000000000000000000000000000000000000000000000000000000090608401610c96565b6117be57600080fd5b506001949350505050565b60006117e5838360405180602001604052806000815250612ee6565b9392505050565b6000611809848484604051806020016040528060008152506127c1565b949350505050565b61181b60086133f5565b15611867576040513360248201526044810182905261185e907f4a1fefbd0000000000000000000000000000000000000000000000000000000090606401610c96565b61186757600080fd5b61187133826135f0565b61187b60076133f5565b156118c757604051336024820152604481018290526118be907f971c34b40000000000000000000000000000000000000000000000000000000090606401610c96565b6118c757600080fd5b50565b60006118f47f4e5f991bca30eca2d4643aaefa807e88f96a4a97398933d572a3c0d973004a015490565b1561195b576040517f08c379a000000000000000000000000000000000000000000000000000000000815260206004820152601a60248201527f45524332303a20616c726561647920696e697469616c697a65640000000000006044820152606401610c37565b600060017f04b524dd539523930d3901481aa9455d7752b49add99e1647adb8b09a313727955337fb56711ba6bd3ded7639fc335ee7524fe668a79d7558c85992e3f8494cf772777557f27d542086d1e831d40b749e7f5509a626c3047a36d160781c40d5acc83e5b0745490506000806000806000806000808a8060200190518101906119e89190614881565b9750975097509750975097509750975087600a9080519060200190611a0e929190613e85565b508651611a2290600b9060208a0190613e85565b50600c80547fffffffffffffffffffffffffffffffffffffffffffffffffffffffffffffff001660ff8816179055600685905581611b7a576040517f4ddf47d4000000000000000000000000000000000000000000000000000000008082529073ffffffffffffffffffffffffffffffffffffffff8b1690634ddf47d490611aae908590600401613fdf565b6020604051808303816000875af1158015611acd573d6000803e3d6000fd5b505050506040513d601f19601f82011682018060405250810190611af1919061497e565b7fffffffff000000000000000000000000000000000000000000000000000000001614611b7a576040517f08c379a000000000000000000000000000000000000000000000000000000000815260206004820152601c60248201527f45524332303a20636f756c64206e6f7420696e697420736f75726365000000006044820152606401610c37565b611ba360017f4e5f991bca30eca2d4643aaefa807e88f96a4a97398933d572a3c0d973004a0155565b611bad8484613a57565b507f4ddf47d4000000000000000000000000000000000000000000000000000000009a9950505050505050505050565b6000611be886613b1f565b611c4e576040517f08c379a000000000000000000000000000000000000000000000000000000000815260206004820152601c60248201527f45524332303a206f70657261746f72206e6f7420636f6e7472616374000000006044820152606401610c37565b611c5860066133f5565b15611c8c57611c836395aae8bd60e01b878730888888604051602401610c969695949392919061499b565b611c8c57600080fd5b6040517f70a0823100000000000000000000000000000000000000000000000000000000815230600482015273ffffffffffffffffffffffffffffffffffffffff8716906370a0823190602401602060405180830381865afa925050508015611d30575060408051601f3d9081017fffffffffffffffffffffffffffffffffffffffffffffffffffffffffffffffe0168201909252611d2d91810190614a23565b60015b611d96576040517f08c379a000000000000000000000000000000000000000000000000000000000815260206004820152601d60248201527f45524332303a206661696c65642067657474696e672062616c616e63650000006044820152606401610c37565b50611da160056133f5565b15611dd557611dcc6345b5969960e01b878730888888604051602401610c969695949392919061499b565b611dd557600080fd5b507f4fc358590000000000000000000000000000000000000000000000000000000095945050505050565b7f27d542086d1e831d40b749e7f5509a626c3047a36d160781c40d5acc83e5b074543373ffffffffffffffffffffffffffffffffffffffff821614611ea1576040517f08c379a000000000000000000000000000000000000000000000000000000000815260206004820152601760248201527f45524332303a20736f75726365206f6e6c792063616c6c0000000000000000006044820152606401610c37565b61105e83836132d5565b7f3f106594dc74eeef980dae234cde8324dc2497b13d27a0c59e55bd2ca10a07c95473ffffffffffffffffffffffffffffffffffffffff163373ffffffffffffffffffffffffffffffffffffffff1614611f61576040517f08c379a000000000000000000000000000000000000000000000000000000000815260206004820152601e60248201527f484f4c4f47524150483a2061646d696e206f6e6c792066756e6374696f6e00006044820152606401610c37565b7f3f106594dc74eeef980dae234cde8324dc2497b13d27a0c59e55bd2ca10a07c955565b73ffffffffffffffffffffffffffffffffffffffff8216600090815260086020908152604080832033845290915281205482811015612020576040517f08c379a000000000000000000000000000000000000000000000000000000000815260206004820152601f60248201527f45524332303a20616d6f756e74206578636565647320616c6c6f77616e6365006044820152606401610c37565b73ffffffffffffffffffffffffffffffffffffffff84166000908152600860208181526040808420338552909152909120848303905561205f906133f5565b156120c15760405173ffffffffffffffffffffffffffffffffffffffff85166024820152604481018490526120b8907f4a1fefbd0000000000000000000000000000000000000000000000000000000090606401610c96565b6120c157600080fd5b6120cb84846135f0565b6120d560076133f5565b156115355760405173ffffffffffffffffffffffffffffffffffffffff851660248201526044810184905261152c907f971c34b40000000000000000000000000000000000000000000000000000000090606401610c96565b6000807f27d542086d1e831d40b749e7f5509a626c3047a36d160781c40d5acc83e5b0745490508073ffffffffffffffffffffffffffffffffffffffff16638da5cb5b6040518163ffffffff1660e01b8152600401602060405180830381865afa1580156121a0573d6000803e3d6000fd5b505050506040513d601f19601f820116820180604052508101906121c49190614728565b91505090565b6060600b8054610a8c906146d5565b33600090815260086020908152604080832073ffffffffffffffffffffffffffffffffffffffff8616845290915281205482811015612274576040517f08c379a000000000000000000000000000000000000000000000000000000000815260206004820152601b60248201527f45524332303a206465637265617365642062656c6f77207a65726f00000000006044820152606401610c37565b8281036116d960046133f5565b7f27d542086d1e831d40b749e7f5509a626c3047a36d160781c40d5acc83e5b074543373ffffffffffffffffffffffffffffffffffffffff821614612322576040517f08c379a000000000000000000000000000000000000000000000000000000000815260206004820152601760248201527f45524332303a20736f75726365206f6e6c792063616c6c0000000000000000006044820152606401610c37565b61232d848484613789565b50505050565b600061233f600e6133f5565b156123a75760405133602482015273ffffffffffffffffffffffffffffffffffffffff841660448201526064810183905261239e907f1ffb811f0000000000000000000000000000000000000000000000000000000090608401610c96565b6123a757600080fd5b6123b2338484613789565b6123bc600d6133f5565b15610e9c5760405133602482015273ffffffffffffffffffffffffffffffffffffffff8416604482015260648101839052610e93907ff49062ca0000000000000000000000000000000000000000000000000000000090608401610c96565b600060606124477fb4107f746e9496e8452accc7de63d1c5e14c19f510932daa04077cd49e8bd77a5490565b73ffffffffffffffffffffffffffffffffffffffff16630fffbaf36040518163ffffffff1660e01b8152600401602060405180830381865afa158015612491573d6000803e3d6000fd5b505050506040513d601f19601f820116820180604052508101906124b59190614728565b73ffffffffffffffffffffffffffffffffffffffff163373ffffffffffffffffffffffffffffffffffffffff1614612549576040517f08c379a000000000000000000000000000000000000000000000000000000000815260206004820152601760248201527f45524332303a20627269646765206f6e6c792063616c6c0000000000000000006044820152606401610c37565b60008080612559868801886141c3565b9250925092508273ffffffffffffffffffffffffffffffffffffffff168873ffffffffffffffffffffffffffffffffffffffff16146126685773ffffffffffffffffffffffffffffffffffffffff8084166000908152600860209081526040808320938c16835292905220548181101561262f576040517f08c379a000000000000000000000000000000000000000000000000000000000815260206004820152601f60248201527f45524332303a20616d6f756e74206578636565647320616c6c6f77616e6365006044820152606401610c37565b73ffffffffffffffffffffffffffffffffffffffff8085166000908152600860209081526040808320938d168352929052209082900390555b61267260026133f5565b1561275f576040805163ffffffff8b16602482015273ffffffffffffffffffffffffffffffffffffffff85811660448301528416606482015260848082018490528251808303909101815260a4909101909152602080820180517bffffffffffffffffffffffffffffffffffffffffffffffffffffffff167f8b1465c60000000000000000000000000000000000000000000000000000000017815282513390840183015282517f27d542086d1e831d40b749e7f5509a626c3047a36d160781c40d5acc83e5b0745460009384939201919034905af160203d036020873e808061275b573d6000fd5b5050505b61276983826135f0565b6040517fb7e0366100000000000000000000000000000000000000000000000000000000906127a2908590859085908990602001614a3c565b6040516020818303038152906040529450945050505094509492505050565b600073ffffffffffffffffffffffffffffffffffffffff85163314612a3d577fb4107f746e9496e8452accc7de63d1c5e14c19f510932daa04077cd49e8bd77a5473ffffffffffffffffffffffffffffffffffffffff16630fffbaf36040518163ffffffff1660e01b8152600401602060405180830381865afa15801561284c573d6000803e3d6000fd5b505050506040513d601f19601f820116820180604052508101906128709190614728565b73ffffffffffffffffffffffffffffffffffffffff163373ffffffffffffffffffffffffffffffffffffffff161415801561296657507fb4107f746e9496e8452accc7de63d1c5e14c19f510932daa04077cd49e8bd77a5473ffffffffffffffffffffffffffffffffffffffff1663e7f43c686040518163ffffffff1660e01b8152600401602060405180830381865afa158015612912573d6000803e3d6000fd5b505050506040513d601f19601f820116820180604052508101906129369190614728565b73ffffffffffffffffffffffffffffffffffffffff163373ffffffffffffffffffffffffffffffffffffffff1614155b15612a3d5773ffffffffffffffffffffffffffffffffffffffff8516600090815260086020908152604080832033845290915290205483811015612a06576040517f08c379a000000000000000000000000000000000000000000000000000000000815260206004820152601f60248201527f45524332303a20616d6f756e74206578636565647320616c6c6f77616e6365006044820152606401610c37565b73ffffffffffffffffffffffffffffffffffffffff8616600090815260086020908152604080832033845290915290209084900390555b612a47600c6133f5565b15612a7757612a6e632ca1667660e01b86868686604051602401610c969493929190614a3c565b612a7757600080fd5b612a82858585613789565b612a8c600b6133f5565b156117be576117b56336fff06260e01b86868686604051602401610c969493929190614a3c565b7f3f106594dc74eeef980dae234cde8324dc2497b13d27a0c59e55bd2ca10a07c95473ffffffffffffffffffffffffffffffffffffffff163373ffffffffffffffffffffffffffffffffffffffff1614612b69576040517f08c379a000000000000000000000000000000000000000000000000000000000815260206004820152601e60248201527f484f4c4f47524150483a2061646d696e206f6e6c792066756e6374696f6e00006044820152606401610c37565b808260003760008082600034875af13d6000803e80801561030d573d6000f35b83421115612bf3576040517f08c379a000000000000000000000000000000000000000000000000000000000815260206004820152601760248201527f45524332303a206578706972656420646561646c696e650000000000000000006044820152606401610c37565b60007f6e71edae12b1b97f4d1f60370fef10105fa2faae0126114a169c64845d6126c9888888612c228c613b56565b60408051602081019690965273ffffffffffffffffffffffffffffffffffffffff94851690860152929091166060840152608083015260a082015260c0810186905260e0016040516020818303038152906040528051906020012090506000612c8a82613b94565b90506000612c9a85858885613bfd565b90508973ffffffffffffffffffffffffffffffffffffffff168173ffffffffffffffffffffffffffffffffffffffff1614612d31576040517f08c379a000000000000000000000000000000000000000000000000000000000815260206004820152601860248201527f45524332303a20696e76616c6964207369676e617475726500000000000000006044820152606401610c37565b612d3b60046133f5565b15612da55760405173ffffffffffffffffffffffffffffffffffffffff808c1660248301528a16604482015260648101899052612d9c907f47abf3be0000000000000000000000000000000000000000000000000000000090608401610c96565b612da557600080fd5b612db08a8a8a613487565b612dba60036133f5565b15612e245760405173ffffffffffffffffffffffffffffffffffffffff808c1660248301528a16604482015260648101899052612e1b907f900f66ef0000000000000000000000000000000000000000000000000000000090608401610c96565b612e2457600080fd5b50505050505050505050565b7fb56711ba6bd3ded7639fc335ee7524fe668a79d7558c85992e3f8494cf7727775473ffffffffffffffffffffffffffffffffffffffff163373ffffffffffffffffffffffffffffffffffffffff1614612b69576040517f08c379a000000000000000000000000000000000000000000000000000000000815260206004820152601e60248201527f484f4c4f47524150483a206f776e6572206f6e6c792066756e6374696f6e00006044820152606401610c37565b6000612ef2600c6133f5565b15612f2257612f19632ca1667660e01b33868686604051602401610c969493929190614a3c565b612f2257600080fd5b612f2d338585613789565b612f37600b6133f5565b156115355761152c6336fff06260e01b33868686604051602401610c969493929190614a3c565b7fb56711ba6bd3ded7639fc335ee7524fe668a79d7558c85992e3f8494cf7727775473ffffffffffffffffffffffffffffffffffffffff163373ffffffffffffffffffffffffffffffffffffffff1614613014576040517f08c379a000000000000000000000000000000000000000000000000000000000815260206004820152601e60248201527f484f4c4f47524150483a206f776e6572206f6e6c792066756e6374696f6e00006044820152606401610c37565b73ffffffffffffffffffffffffffffffffffffffff8116613091576040517f08c379a000000000000000000000000000000000000000000000000000000000815260206004820152601760248201527f484f4c4f47524150483a207a65726f20616464726573730000000000000000006044820152606401610c37565b7fb56711ba6bd3ded7639fc335ee7524fe668a79d7558c85992e3f8494cf77277755565b600061162c7f3f106594dc74eeef980dae234cde8324dc2497b13d27a0c59e55bd2ca10a07c95490565b60006131097fb4107f746e9496e8452accc7de63d1c5e14c19f510932daa04077cd49e8bd77a5490565b73ffffffffffffffffffffffffffffffffffffffff16630fffbaf36040518163ffffffff1660e01b8152600401602060405180830381865afa158015613153573d6000803e3d6000fd5b505050506040513d601f19601f820116820180604052508101906131779190614728565b73ffffffffffffffffffffffffffffffffffffffff163373ffffffffffffffffffffffffffffffffffffffff161461320b576040517f08c379a000000000000000000000000000000000000000000000000000000000815260206004820152601760248201527f45524332303a20627269646765206f6e6c792063616c6c0000000000000000006044820152606401610c37565b61321583836132d5565b507ffad66f920000000000000000000000000000000000000000000000000000000092915050565b60006132677fb4107f746e9496e8452accc7de63d1c5e14c19f510932daa04077cd49e8bd77a5490565b73ffffffffffffffffffffffffffffffffffffffff1663ebac15f96040518163ffffffff1660e01b8152600401602060405180830381865afa1580156132b1573d6000803e3d6000fd5b505050506040513d601f19601f8201168201806040525081019061162c9190614728565b73ffffffffffffffffffffffffffffffffffffffff8216613352576040517f08c379a000000000000000000000000000000000000000000000000000000000815260206004820152601e60248201527f45524332303a206d696e74696e6720746f206275726e206164647265737300006044820152606401610c37565b80600960008282546133649190614a85565b909155505073ffffffffffffffffffffffffffffffffffffffff82166000908152600760205260408120805483929061339e908490614a85565b909155505060405181815273ffffffffffffffffffffffffffffffffffffffff8316906000907fddf252ad1be2c89b69c2b068fc378daa952ba7f163c4a11628f55a4df523b3ef9060200160405180910390a35050565b6000600182600e81111561340b5761340b61460f565b600654901c1660011461341f576000613422565b60015b92915050565b600060405160208101604052336020845101840152600080602085510160208601347f27d542086d1e831d40b749e7f5509a626c3047a36d160781c40d5acc83e5b074545af13d6000833e808061347e573d6000fd5b50505192915050565b73ffffffffffffffffffffffffffffffffffffffff8316613504576040517f08c379a000000000000000000000000000000000000000000000000000000000815260206004820152601e60248201527f45524332303a206163636f756e74206973207a65726f206164647265737300006044820152606401610c37565b73ffffffffffffffffffffffffffffffffffffffff8216613581576040517f08c379a000000000000000000000000000000000000000000000000000000000815260206004820152601e60248201527f45524332303a207370656e646572206973207a65726f206164647265737300006044820152606401610c37565b73ffffffffffffffffffffffffffffffffffffffff83811660008181526008602090815260408083209487168084529482529182902085905590518481527f8c5be1e5ebec7d5bd14f71427d1e84f3dd0314c0f7b2291e5b200ac8c7c3b92591015b60405180910390a3505050565b73ffffffffffffffffffffffffffffffffffffffff821661366d576040517f08c379a000000000000000000000000000000000000000000000000000000000815260206004820152601e60248201527f45524332303a206163636f756e74206973207a65726f206164647265737300006044820152606401610c37565b73ffffffffffffffffffffffffffffffffffffffff8216600090815260076020526040902054818110156136fd576040517f08c379a000000000000000000000000000000000000000000000000000000000815260206004820152601d60248201527f45524332303a20616d6f756e7420657863656564732062616c616e63650000006044820152606401610c37565b73ffffffffffffffffffffffffffffffffffffffff83166000908152600760205260408120838303905560098054849290613739908490614a9d565b909155505060405182815260009073ffffffffffffffffffffffffffffffffffffffff8516907fddf252ad1be2c89b69c2b068fc378daa952ba7f163c4a11628f55a4df523b3ef906020016135e3565b73ffffffffffffffffffffffffffffffffffffffff8316613806576040517f08c379a000000000000000000000000000000000000000000000000000000000815260206004820152601e60248201527f45524332303a206163636f756e74206973207a65726f206164647265737300006044820152606401610c37565b73ffffffffffffffffffffffffffffffffffffffff8216613883576040517f08c379a000000000000000000000000000000000000000000000000000000000815260206004820181905260248201527f45524332303a20726563697069656e74206973207a65726f20616464726573736044820152606401610c37565b73ffffffffffffffffffffffffffffffffffffffff831660009081526007602052604090205481811015613913576040517f08c379a000000000000000000000000000000000000000000000000000000000815260206004820152601d60248201527f45524332303a20616d6f756e7420657863656564732062616c616e63650000006044820152606401610c37565b73ffffffffffffffffffffffffffffffffffffffff808516600090815260076020526040808220858503905591851681529081208054849290613957908490614a85565b925050819055508273ffffffffffffffffffffffffffffffffffffffff168473ffffffffffffffffffffffffffffffffffffffff167fddf252ad1be2c89b69c2b068fc378daa952ba7f163c4a11628f55a4df523b3ef846040516139bd91815260200190565b60405180910390a350505050565b60025460009073ffffffffffffffffffffffffffffffffffffffff16301480156139f6575060015446145b15613a02575060005490565b61162c6005546003546004546040805160208101859052908101839052606081018290524660808201523060a082015260009060c0016040516020818303038152906040528051906020012090509392505050565b815160208084019190912082519183019190912060038290556004819055466001557f8b73c3c69bb8fe3d512ecc4cf759cc79239f7b179b0ffacaa9a75d522b39400f613ae98184846040805160208101859052908101839052606081018290524660808201523060a082015260009060c0016040516020818303038152906040528051906020012090509392505050565b600055600280547fffffffffffffffffffffffff0000000000000000000000000000000000000000163017905560055550505050565b6000813f80158015906117e557507fc5d2460186f7233c927e7db2dcc703c0e500b653ca82273b7bfad8045d85a470141592915050565b73ffffffffffffffffffffffffffffffffffffffff81166000908152600d60205260408120805491829190613b8a836147f9565b9190505550919050565b6000613422613ba16139cb565b836040517f19010000000000000000000000000000000000000000000000000000000000006020820152602281018390526042810182905260009060620160405160208183030381529060405280519060200120905092915050565b6000601b8360ff161015613c1957613c16601b84614ab4565b92505b8260ff16601b1480613c2e57508260ff16601c145b613c94576040517f08c379a000000000000000000000000000000000000000000000000000000000815260206004820152601660248201527f45524332303a20696e76616c696420762d76616c7565000000000000000000006044820152606401610c37565b7f7fffffffffffffffffffffffffffffff5d576e7357a4501ddfe92f46681b20a0841115613d8a57613ce6847ffffffffffffffffffffffffffffffffebaaedce6af48a03bbfd25e8cd0364141614a9d565b935060ff8316601b03613cfc57601c9250613d01565b601b92505b7f7fffffffffffffffffffffffffffffff5d576e7357a4501ddfe92f46681b20a08411613d8a576040517f08c379a000000000000000000000000000000000000000000000000000000000815260206004820152601660248201527f45524332303a20696e76616c696420732d76616c7565000000000000000000006044820152606401610c37565b60408051600081526020810180835284905260ff851691810191909152606081018690526080810185905260019060a0016020604051602081039080840390855afa158015613ddd573d6000803e3d6000fd5b50506040517fffffffffffffffffffffffffffffffffffffffffffffffffffffffffffffffe0015191505073ffffffffffffffffffffffffffffffffffffffff8116611809576040517f08c379a000000000000000000000000000000000000000000000000000000000815260206004820152601a60248201527f45524332303a207a65726f2061646472657373207369676e65720000000000006044820152606401610c37565b828054613e91906146d5565b90600052602060002090601f016020900481019282613eb35760008555613ef9565b82601f10613ecc57805160ff1916838001178555613ef9565b82800160010185558215613ef9579182015b82811115613ef9578251825591602001919060010190613ede565b50613f05929150613f09565b5090565b5b80821115613f055760008155600101613f0a565b7fffffffff00000000000000000000000000000000000000000000000000000000811681146118c757600080fd5b600060208284031215613f5e57600080fd5b81356117e581613f1e565b60005b83811015613f84578181015183820152602001613f6c565b8381111561232d5750506000910152565b60008151808452613fad816020860160208601613f69565b601f017fffffffffffffffffffffffffffffffffffffffffffffffffffffffffffffffe0169290920160200192915050565b6020815260006117e56020830184613f95565b803563ffffffff8116811461400657600080fd5b919050565b60008083601f84011261401d57600080fd5b50813567ffffffffffffffff81111561403557600080fd5b60208301915083602082850101111561404d57600080fd5b9250929050565b60008060006040848603121561406957600080fd5b61407284613ff2565b9250602084013567ffffffffffffffff81111561408e57600080fd5b61409a8682870161400b565b9497909650939450505050565b73ffffffffffffffffffffffffffffffffffffffff811681146118c757600080fd5b600080604083850312156140dc57600080fd5b82356140e7816140a7565b946020939093013593505050565b60008083601f84011261410757600080fd5b50813567ffffffffffffffff81111561411f57600080fd5b6020830191508360208260051b850101111561404d57600080fd5b6000806000806040858703121561415057600080fd5b843567ffffffffffffffff8082111561416857600080fd5b614174888389016140f5565b9096509450602087013591508082111561418d57600080fd5b5061419a878288016140f5565b95989497509550505050565b6000602082840312156141b857600080fd5b81356117e5816140a7565b6000806000606084860312156141d857600080fd5b83356141e3816140a7565b925060208401356141f3816140a7565b929592945050506040919091013590565b60006020828403121561421657600080fd5b5035919050565b7f4e487b7100000000000000000000000000000000000000000000000000000000600052604160045260246000fd5b604051601f82017fffffffffffffffffffffffffffffffffffffffffffffffffffffffffffffffe016810167ffffffffffffffff811182821017156142935761429361421d565b604052919050565b600067ffffffffffffffff8211156142b5576142b561421d565b50601f017fffffffffffffffffffffffffffffffffffffffffffffffffffffffffffffffe01660200190565b600082601f8301126142f257600080fd5b81356143056143008261429b565b61424c565b81815284602083860101111561431a57600080fd5b816020850160208301376000918101602001919091529392505050565b60006020828403121561434957600080fd5b813567ffffffffffffffff81111561436057600080fd5b611809848285016142e1565b60008060008060006080868803121561438457600080fd5b853561438f816140a7565b9450602086013561439f816140a7565b935060408601359250606086013567ffffffffffffffff8111156143c257600080fd5b6143ce8882890161400b565b969995985093965092949392505050565b600080600080606085870312156143f557600080fd5b6143fe85613ff2565b9350602085013561440e816140a7565b9250604085013567ffffffffffffffff81111561442a57600080fd5b61419a8782880161400b565b7fffffffff00000000000000000000000000000000000000000000000000000000831681526040602082015260006118096040830184613f95565b6000806000806080858703121561448757600080fd5b8435614492816140a7565b935060208501356144a2816140a7565b925060408501359150606085013567ffffffffffffffff8111156144c557600080fd5b6144d1878288016142e1565b91505092959194509250565b6000806000604084860312156144f257600080fd5b8335614072816140a7565b60ff811681146118c757600080fd5b600080600080600080600060e0888a03121561452757600080fd5b8735614532816140a7565b96506020880135614542816140a7565b955060408801359450606088013593506080880135614560816144fd565b9699959850939692959460a0840135945060c09093013592915050565b6000806040838503121561459057600080fd5b823561459b816140a7565b915060208301356145ab816140a7565b809150509250929050565b6000806000606084860312156145cb57600080fd5b83356145d6816140a7565b925060208401359150604084013567ffffffffffffffff8111156145f957600080fd5b614605868287016142e1565b9150509250925092565b7f4e487b7100000000000000000000000000000000000000000000000000000000600052602160045260246000fd5b6040810160068410614679577f4e487b7100000000000000000000000000000000000000000000000000000000600052602160045260246000fd5b9281527fffffffff000000000000000000000000000000000000000000000000000000009190911660209091015290565b8051801515811461400657600080fd5b6000602082840312156146cc57600080fd5b6117e5826146aa565b600181811c908216806146e957607f821691505b602082108103614722577f4e487b7100000000000000000000000000000000000000000000000000000000600052602260045260246000fd5b50919050565b60006020828403121561473a57600080fd5b81516117e5816140a7565b63ffffffff86168152600073ffffffffffffffffffffffffffffffffffffffff808716602084015280861660408401525083606083015260a0608083015261479060a0830184613f95565b979650505050505050565b7f4e487b7100000000000000000000000000000000000000000000000000000000600052603260045260246000fd5b7f4e487b7100000000000000000000000000000000000000000000000000000000600052601160045260246000fd5b60007fffffffffffffffffffffffffffffffffffffffffffffffffffffffffffffffff820361482a5761482a6147ca565b5060010190565b600082601f83011261484257600080fd5b81516148506143008261429b565b81815284602083860101111561486557600080fd5b611809826020830160208701613f69565b8051614006816144fd565b600080600080600080600080610100898b03121561489e57600080fd5b885167ffffffffffffffff808211156148b657600080fd5b6148c28c838d01614831565b995060208b01519150808211156148d857600080fd5b6148e48c838d01614831565b98506148f260408c01614876565b975060608b0151965060808b015191508082111561490f57600080fd5b61491b8c838d01614831565b955060a08b015191508082111561493157600080fd5b61493d8c838d01614831565b945061494b60c08c016146aa565b935060e08b015191508082111561496157600080fd5b5061496e8b828c01614831565b9150509295985092959890939650565b60006020828403121561499057600080fd5b81516117e581613f1e565b600073ffffffffffffffffffffffffffffffffffffffff8089168352808816602084015280871660408401525084606083015260a060808301528260a0830152828460c0840137600060c0848401015260c07fffffffffffffffffffffffffffffffffffffffffffffffffffffffffffffffe0601f8501168301019050979650505050505050565b600060208284031215614a3557600080fd5b5051919050565b600073ffffffffffffffffffffffffffffffffffffffff808716835280861660208401525083604083015260806060830152614a7b6080830184613f95565b9695505050505050565b60008219821115614a9857614a986147ca565b500190565b600082821015614aaf57614aaf6147ca565b500390565b600060ff821660ff84168060ff03821115614ad157614ad16147ca565b01939250505056fea164736f6c634300080d000a",
  "devdoc": {
    "author": "CXIP-Labs",
    "details": "The entire logic and functionality of the smart contract is self-contained.",
    "kind": "dev",
    "methods": {
      "DOMAIN_SEPARATOR()": {
        "details": "Returns the domain separator used in the encoding of the signature for {permit}, as defined by {EIP712}."
      },
      "constructor": {
        "details": "Constructor is left empty and init is used instead"
      },
      "holographBridgeMint(address,uint256)": {
        "details": "Allows the bridge to mint tokens (used for hTokens only)."
      },
      "init(bytes)": {
        "details": "This function is called by the deployer/factory when creating a contract",
        "params": {
          "initPayload": "abi encoded payload to use for contract initilaization"
        }
      },
      "nonces(address)": {
        "details": "Returns the current nonce for `account`. This value must be included whenever a signature is generated for {permit}. Every successful call to {permit} increases ``account``'s nonce by one. This prevents a signature from being used multiple times."
      },
      "sourceBurn(address,uint256)": {
        "details": "Allows for source smart contract to burn tokens."
      },
      "sourceMint(address,uint256)": {
        "details": "Allows for source smart contract to mint tokens."
      },
      "sourceMintBatch(address[],uint256[])": {
        "details": "Allows for source smart contract to mint a batch of token amounts."
      },
      "sourceTransfer(address,address,uint256)": {
        "details": "Allows for source smart contract to transfer tokens."
      },
      "sourceWithdraw(address)": {
        "details": "Allows for source smart contract to withdraw contract balance."
      },
      "supportsInterface(bytes4)": {
        "details": "Although EIP-165 is not required for ERC20 contracts, we still decided to implement it. This makes it easier for external smart contracts to easily identify a valid ERC20 token contract."
      }
    },
    "stateVariables": {
      "_allowances": {
        "details": "Mapping of all authorized operators, and capped amounts."
      },
      "_balances": {
        "details": "Mapping of all the addresse's balances."
      },
      "_decimals": {
        "details": "Token number of decimal places."
      },
      "_eventConfig": {
        "details": "Configuration for events to trigger for source smart contract."
      },
      "_holographSlot": {
        "details": "bytes32(uint256(keccak256('eip1967.Holograph.holograph')) - 1)"
      },
      "_name": {
        "details": "Token name."
      },
      "_nonces": {
        "details": "List of used up nonces. Used in the ERC20Permit interface functionality."
      },
      "_sourceContractSlot": {
        "details": "bytes32(uint256(keccak256('eip1967.Holograph.sourceContract')) - 1)"
      },
      "_symbol": {
        "details": "Token ticker symbol."
      },
      "_totalSupply": {
        "details": "Total number of token in circulation."
      }
    },
    "title": "Holograph Bridgeable ERC-20 Token",
    "version": 1
  },
  "userdoc": {
    "kind": "user",
    "methods": {
      "init(bytes)": {
        "notice": "Used internally to initialize the contract instead of through a constructor"
      }
    },
    "notice": "A smart contract for minting and managing Holograph Bridgeable ERC20 Tokens.",
    "version": 1
  },
  "storageLayout": {
    "storage": [
      {
        "astId": 4816,
        "contract": "contracts/enforcer/HolographERC20.sol:HolographERC20",
        "label": "_CACHED_DOMAIN_SEPARATOR",
        "offset": 0,
        "slot": "0",
        "type": "t_bytes32"
      },
      {
        "astId": 4818,
        "contract": "contracts/enforcer/HolographERC20.sol:HolographERC20",
        "label": "_CACHED_CHAIN_ID",
        "offset": 0,
        "slot": "1",
        "type": "t_uint256"
      },
      {
        "astId": 4820,
        "contract": "contracts/enforcer/HolographERC20.sol:HolographERC20",
        "label": "_CACHED_THIS",
        "offset": 0,
        "slot": "2",
        "type": "t_address"
      },
      {
        "astId": 4822,
        "contract": "contracts/enforcer/HolographERC20.sol:HolographERC20",
        "label": "_HASHED_NAME",
        "offset": 0,
        "slot": "3",
        "type": "t_bytes32"
      },
      {
        "astId": 4824,
        "contract": "contracts/enforcer/HolographERC20.sol:HolographERC20",
        "label": "_HASHED_VERSION",
        "offset": 0,
        "slot": "4",
        "type": "t_bytes32"
      },
      {
        "astId": 4826,
        "contract": "contracts/enforcer/HolographERC20.sol:HolographERC20",
        "label": "_TYPE_HASH",
        "offset": 0,
        "slot": "5",
        "type": "t_bytes32"
      },
      {
        "astId": 7154,
        "contract": "contracts/enforcer/HolographERC20.sol:HolographERC20",
        "label": "_eventConfig",
        "offset": 0,
        "slot": "6",
        "type": "t_uint256"
      },
      {
        "astId": 7159,
        "contract": "contracts/enforcer/HolographERC20.sol:HolographERC20",
        "label": "_balances",
        "offset": 0,
        "slot": "7",
        "type": "t_mapping(t_address,t_uint256)"
      },
      {
        "astId": 7166,
        "contract": "contracts/enforcer/HolographERC20.sol:HolographERC20",
        "label": "_allowances",
        "offset": 0,
        "slot": "8",
        "type": "t_mapping(t_address,t_mapping(t_address,t_uint256))"
      },
      {
        "astId": 7169,
        "contract": "contracts/enforcer/HolographERC20.sol:HolographERC20",
        "label": "_totalSupply",
        "offset": 0,
        "slot": "9",
        "type": "t_uint256"
      },
      {
        "astId": 7172,
        "contract": "contracts/enforcer/HolographERC20.sol:HolographERC20",
        "label": "_name",
        "offset": 0,
        "slot": "10",
        "type": "t_string_storage"
      },
      {
        "astId": 7175,
        "contract": "contracts/enforcer/HolographERC20.sol:HolographERC20",
        "label": "_symbol",
        "offset": 0,
        "slot": "11",
        "type": "t_string_storage"
      },
      {
        "astId": 7178,
        "contract": "contracts/enforcer/HolographERC20.sol:HolographERC20",
        "label": "_decimals",
        "offset": 0,
        "slot": "12",
        "type": "t_uint8"
      },
      {
        "astId": 7183,
        "contract": "contracts/enforcer/HolographERC20.sol:HolographERC20",
        "label": "_nonces",
        "offset": 0,
        "slot": "13",
        "type": "t_mapping(t_address,t_uint256)"
      }
    ],
    "types": {
      "t_address": {
        "encoding": "inplace",
        "label": "address",
        "numberOfBytes": "20"
      },
      "t_bytes32": {
        "encoding": "inplace",
        "label": "bytes32",
        "numberOfBytes": "32"
      },
      "t_mapping(t_address,t_mapping(t_address,t_uint256))": {
        "encoding": "mapping",
        "key": "t_address",
        "label": "mapping(address => mapping(address => uint256))",
        "numberOfBytes": "32",
        "value": "t_mapping(t_address,t_uint256)"
      },
      "t_mapping(t_address,t_uint256)": {
        "encoding": "mapping",
        "key": "t_address",
        "label": "mapping(address => uint256)",
        "numberOfBytes": "32",
        "value": "t_uint256"
      },
      "t_string_storage": {
        "encoding": "bytes",
        "label": "string",
        "numberOfBytes": "32"
      },
      "t_uint256": {
        "encoding": "inplace",
        "label": "uint256",
        "numberOfBytes": "32"
      },
      "t_uint8": {
        "encoding": "inplace",
        "label": "uint8",
        "numberOfBytes": "1"
      }
    }
  }
}