{
  "address": "0x54b0836e41fe056C97d641ACadC22124B7beC715",
  "abi": [
    {
      "inputs": [],
      "stateMutability": "nonpayable",
      "type": "constructor"
    },
    {
      "anonymous": false,
      "inputs": [
        {
          "indexed": true,
          "internalType": "address",
          "name": "",
          "type": "address"
        },
        {
          "indexed": true,
          "internalType": "uint256",
          "name": "",
          "type": "uint256"
        }
      ],
      "name": "FeeOverrideSet",
      "type": "event"
    },
    {
      "anonymous": false,
      "inputs": [
        {
          "indexed": true,
          "internalType": "address",
          "name": "previousOwner",
          "type": "address"
        },
        {
          "indexed": true,
          "internalType": "address",
          "name": "newOwner",
          "type": "address"
        }
      ],
      "name": "OwnershipTransferred",
      "type": "event"
    },
    {
      "inputs": [
        {
          "internalType": "address",
          "name": "target",
          "type": "address"
        }
      ],
      "name": "getWithdrawFeesBps",
      "outputs": [
        {
          "internalType": "address payable",
          "name": "",
          "type": "address"
        },
        {
          "internalType": "uint256",
          "name": "",
          "type": "uint256"
        }
      ],
      "stateMutability": "view",
      "type": "function"
    },
    {
      "inputs": [
        {
          "internalType": "bytes",
          "name": "data",
          "type": "bytes"
        }
      ],
      "name": "init",
      "outputs": [
        {
          "internalType": "bytes4",
          "name": "",
          "type": "bytes4"
        }
      ],
      "stateMutability": "nonpayable",
      "type": "function"
    },
    {
      "inputs": [],
      "name": "owner",
      "outputs": [
        {
          "internalType": "address",
          "name": "",
          "type": "address"
        }
      ],
      "stateMutability": "view",
      "type": "function"
    },
    {
      "inputs": [],
      "name": "renounceOwnership",
      "outputs": [],
      "stateMutability": "nonpayable",
      "type": "function"
    },
    {
      "inputs": [
        {
          "internalType": "address",
          "name": "target",
          "type": "address"
        },
        {
          "internalType": "uint256",
          "name": "amountBPS",
          "type": "uint256"
        }
      ],
      "name": "setFeeOverride",
      "outputs": [],
      "stateMutability": "nonpayable",
      "type": "function"
    },
    {
      "inputs": [
        {
          "internalType": "address",
          "name": "newOwner",
          "type": "address"
        }
      ],
      "name": "transferOwnership",
      "outputs": [],
      "stateMutability": "nonpayable",
      "type": "function"
    }
  ],
  "transactionHash": "0x8117e5bf5bcdd5b13168d00b7bce0cf941f07d546f21a8eb3922008cb08b3e6c",
  "args": [],
  "numDeployments": 1,
  "solcInputHash": "a42f08ea76b04294497c60b59ac0e07c",
  "bytecode": "0x608060405234801561001057600080fd5b5061001a3361001f565b61006f565b600080546001600160a01b038381166001600160a01b0319831681178455604051919092169283917f8be0079c531659141344cd1fd0a4f28419497f9722a3daafe3b4186f6b6457e09190a35050565b6107468061007e6000396000f3fe608060405234801561001057600080fd5b50600436106100725760003560e01c80638da5cb5b116100505780638da5cb5b146100dd578063db31de5914610105578063f2fde38b1461014457600080fd5b80632b933f81146100775780634ddf47d41461008c578063715018a6146100d5575b600080fd5b61008a6100853660046105bb565b610157565b005b61009f61009a366004610616565b610249565b6040517fffffffff0000000000000000000000000000000000000000000000000000000090911681526020015b60405180910390f35b61008a610356565b60005460405173ffffffffffffffffffffffffffffffffffffffff90911681526020016100cc565b6101186101133660046106e5565b61036a565b6040805173ffffffffffffffffffffffffffffffffffffffff90931683526020830191909152016100cc565b61008a6101523660046106e5565b6103ec565b61015f6104a3565b6107d181106101f5576040517f08c379a000000000000000000000000000000000000000000000000000000000815260206004820152602360248201527f46656520746f6f206869676820286e6f742067726561746572207468616e203260448201527f302529000000000000000000000000000000000000000000000000000000000060648201526084015b60405180910390fd5b73ffffffffffffffffffffffffffffffffffffffff8216600081815260016020526040808220849055518392917fcadc101c03be6a205eb345867605c4824dd58c1660c7c1b6ce4a92ad024c0a8b91a35050565b60006102737f4e5f991bca30eca2d4643aaefa807e88f96a4a97398933d572a3c0d973004a015490565b156102da576040517f08c379a000000000000000000000000000000000000000000000000000000000815260206004820152601e60248201527f484f4c4f47524150483a20616c726561647920696e697469616c697a6564000060448201526064016101ec565b600080838060200190518101906102f19190610709565b6002829055909250905061030481610524565b61032d60017f4e5f991bca30eca2d4643aaefa807e88f96a4a97398933d572a3c0d973004a0155565b507f4ddf47d4000000000000000000000000000000000000000000000000000000009392505050565b61035e6104a3565b6103686000610524565b565b73ffffffffffffffffffffffffffffffffffffffff81166000908152600160205260408120548190156103c75750506000805473ffffffffffffffffffffffffffffffffffffffff92831682526001602052604090912054911691565b60005473ffffffffffffffffffffffffffffffffffffffff1660025491509150915091565b6103f46104a3565b73ffffffffffffffffffffffffffffffffffffffff8116610497576040517f08c379a000000000000000000000000000000000000000000000000000000000815260206004820152602660248201527f4f776e61626c653a206e6577206f776e657220697320746865207a65726f206160448201527f646472657373000000000000000000000000000000000000000000000000000060648201526084016101ec565b6104a081610524565b50565b60005473ffffffffffffffffffffffffffffffffffffffff163314610368576040517f08c379a000000000000000000000000000000000000000000000000000000000815260206004820181905260248201527f4f776e61626c653a2063616c6c6572206973206e6f7420746865206f776e657260448201526064016101ec565b6000805473ffffffffffffffffffffffffffffffffffffffff8381167fffffffffffffffffffffffff0000000000000000000000000000000000000000831681178455604051919092169283917f8be0079c531659141344cd1fd0a4f28419497f9722a3daafe3b4186f6b6457e09190a35050565b73ffffffffffffffffffffffffffffffffffffffff811681146104a057600080fd5b600080604083850312156105ce57600080fd5b82356105d981610599565b946020939093013593505050565b7f4e487b7100000000000000000000000000000000000000000000000000000000600052604160045260246000fd5b60006020828403121561062857600080fd5b813567ffffffffffffffff8082111561064057600080fd5b818401915084601f83011261065457600080fd5b813581811115610666576106666105e7565b604051601f82017fffffffffffffffffffffffffffffffffffffffffffffffffffffffffffffffe0908116603f011681019083821181831017156106ac576106ac6105e7565b816040528281528760208487010111156106c557600080fd5b826020860160208301376000928101602001929092525095945050505050565b6000602082840312156106f757600080fd5b813561070281610599565b9392505050565b6000806040838503121561071c57600080fd5b82519150602083015161072e81610599565b80915050925092905056fea164736f6c634300080d000a",
  "devdoc": {
    "kind": "dev",
    "methods": {
      "owner()": {
        "details": "Returns the address of the current owner."
      },
      "renounceOwnership()": {
        "details": "Leaves the contract without owner. It will not be possible to call `onlyOwner` functions anymore. Can only be called by the current owner. NOTE: Renouncing ownership will leave the contract without an owner, thereby removing any functionality that is only available to the owner."
      },
      "transferOwnership(address)": {
        "details": "Transfers ownership of the contract to a new account (`newOwner`). Can only be called by the current owner."
      }
    },
    "version": 1
  },
  "userdoc": {
    "kind": "user",
    "methods": {},
    "version": 1
  },
  "storageLayout": {
    "storage": [
      {
        "astId": 9131,
        "contract": "contracts/drops/HolographFeeManager.sol:HolographFeeManager",
        "label": "_owner",
        "offset": 0,
        "slot": "0",
        "type": "t_address"
      },
      {
        "astId": 9246,
        "contract": "contracts/drops/HolographFeeManager.sol:HolographFeeManager",
        "label": "feeOverride",
        "offset": 0,
        "slot": "1",
        "type": "t_mapping(t_address,t_uint256)"
      },
      {
        "astId": 9248,
        "contract": "contracts/drops/HolographFeeManager.sol:HolographFeeManager",
        "label": "defaultFeeBPS",
        "offset": 0,
        "slot": "2",
        "type": "t_uint256"
      }
    ],
    "types": {
      "t_address": {
        "encoding": "inplace",
        "label": "address",
        "numberOfBytes": "20"
      },
      "t_mapping(t_address,t_uint256)": {
        "encoding": "mapping",
        "key": "t_address",
        "label": "mapping(address => uint256)",
        "numberOfBytes": "32",
        "value": "t_uint256"
      },
      "t_uint256": {
        "encoding": "inplace",
        "label": "uint256",
        "numberOfBytes": "32"
      }
    }
  }
}