{
  "address": "0x4dAbF22d61B7CF3941818f3Be9a42302753d0FDA",
  "abi": [
    {
      "inputs": [],
      "name": "Access_OnlyAdmin",
      "type": "error"
    },
    {
      "anonymous": false,
      "inputs": [
        {
          "indexed": true,
          "internalType": "address",
          "name": "target",
          "type": "address"
        },
        {
          "indexed": false,
          "internalType": "address",
          "name": "sender",
          "type": "address"
        },
        {
          "indexed": false,
          "internalType": "string",
          "name": "newDescription",
          "type": "string"
        }
      ],
      "name": "DescriptionUpdated",
      "type": "event"
    },
    {
      "anonymous": false,
      "inputs": [
        {
          "indexed": true,
          "internalType": "address",
          "name": "target",
          "type": "address"
        },
        {
          "indexed": false,
          "internalType": "string",
          "name": "description",
          "type": "string"
        },
        {
          "indexed": false,
          "internalType": "string",
          "name": "imageURI",
          "type": "string"
        },
        {
          "indexed": false,
          "internalType": "string",
          "name": "animationURI",
          "type": "string"
        }
      ],
      "name": "EditionInitialized",
      "type": "event"
    },
    {
      "anonymous": false,
      "inputs": [
        {
          "indexed": true,
          "internalType": "address",
          "name": "target",
          "type": "address"
        },
        {
          "indexed": false,
          "internalType": "address",
          "name": "sender",
          "type": "address"
        },
        {
          "indexed": false,
          "internalType": "string",
          "name": "imageURI",
          "type": "string"
        },
        {
          "indexed": false,
          "internalType": "string",
          "name": "animationURI",
          "type": "string"
        }
      ],
      "name": "MediaURIsUpdated",
      "type": "event"
    },
    {
      "inputs": [],
      "name": "contractURI",
      "outputs": [
        {
          "internalType": "string",
          "name": "",
          "type": "string"
        }
      ],
      "stateMutability": "view",
      "type": "function"
    },
    {
      "inputs": [
        {
          "internalType": "bytes",
          "name": "data",
          "type": "bytes"
        }
      ],
      "name": "initializeWithData",
      "outputs": [],
      "stateMutability": "nonpayable",
      "type": "function"
    },
    {
      "inputs": [
        {
          "internalType": "address",
          "name": "",
          "type": "address"
        }
      ],
      "name": "tokenInfos",
      "outputs": [
        {
          "internalType": "string",
          "name": "description",
          "type": "string"
        },
        {
          "internalType": "string",
          "name": "imageURI",
          "type": "string"
        },
        {
          "internalType": "string",
          "name": "animationURI",
          "type": "string"
        }
      ],
      "stateMutability": "view",
      "type": "function"
    },
    {
      "inputs": [
        {
          "internalType": "uint256",
          "name": "tokenId",
          "type": "uint256"
        }
      ],
      "name": "tokenURI",
      "outputs": [
        {
          "internalType": "string",
          "name": "",
          "type": "string"
        }
      ],
      "stateMutability": "view",
      "type": "function"
    },
    {
      "inputs": [
        {
          "internalType": "address",
          "name": "target",
          "type": "address"
        },
        {
          "internalType": "string",
          "name": "newDescription",
          "type": "string"
        }
      ],
      "name": "updateDescription",
      "outputs": [],
      "stateMutability": "nonpayable",
      "type": "function"
    },
    {
      "inputs": [
        {
          "internalType": "address",
          "name": "target",
          "type": "address"
        },
        {
          "internalType": "string",
          "name": "imageURI",
          "type": "string"
        },
        {
          "internalType": "string",
          "name": "animationURI",
          "type": "string"
        }
      ],
      "name": "updateMediaURIs",
      "outputs": [],
      "stateMutability": "nonpayable",
      "type": "function"
    }
  ],
  "transactionHash": "0x70c321d38c4650a6d963a0ae5a0cf6d160bec72027b38f354d894c3217870277",
  "args": [],
  "numDeployments": 1,
  "solcInputHash": "460c9c81ea6d5ccfd94ebee5fc859457",
  "bytecode": "0x608060405234801561001057600080fd5b506122dd806100206000396000f3fe608060405234801561001057600080fd5b50600436106100725760003560e01c8063ba46ae7211610050578063ba46ae72146100b2578063c87b56dd146100dd578063e8a3d485146100fd57600080fd5b80632f17b8f014610077578063856a7ffa1461008c5780638bbb2cf21461009f575b600080fd5b61008a61008536600461165d565b610105565b005b61008a61009a3660046116d3565b6102bc565b61008a6100ad366004611724565b61038b565b6100c56100c0366004611774565b6104fe565b6040516100d49392919061180b565b60405180910390f35b6100f06100eb366004611844565b6106b8565b6040516100d4919061185d565b6100f06109ea565b8273ffffffffffffffffffffffffffffffffffffffff811633148015906101b757506040517f24d7806c00000000000000000000000000000000000000000000000000000000815233600482015273ffffffffffffffffffffffffffffffffffffffff8216906324d7806c90602401602060405180830381865afa158015610191573d6000803e3d6000fd5b505050506040513d601f19601f820116820180604052508101906101b59190611885565b155b156101ee576040517f02bd6bd100000000000000000000000000000000000000000000000000000000815260040160405180910390fd5b73ffffffffffffffffffffffffffffffffffffffff8416600090815260208181526040909120845161022892600190920191860190611453565b5073ffffffffffffffffffffffffffffffffffffffff8416600090815260208181526040909120835161026392600290920191850190611453565b508373ffffffffffffffffffffffffffffffffffffffff167fc4c1b9223fcebe5f35b9030d3df655018c40e88d70b8a3c63ed851c5d972210f3385856040516102ae939291906118a0565b60405180910390a250505050565b6000806000838060200190518101906102d59190611926565b604080516060810182528481526020808201859052818301849052336000908152808252929092208151805196995094975092955093919261031d9284929190910190611453565b5060208281015180516103369260018501920190611453565b5060408201518051610352916002840191602090910190611453565b50506040513391507ff889a5cdc62274389379cbfade0f225b1d30b7395177fd6aeaab61662b1c6edf906102ae9086908690869061180b565b8173ffffffffffffffffffffffffffffffffffffffff8116331480159061043d57506040517f24d7806c00000000000000000000000000000000000000000000000000000000815233600482015273ffffffffffffffffffffffffffffffffffffffff8216906324d7806c90602401602060405180830381865afa158015610417573d6000803e3d6000fd5b505050506040513d601f19601f8201168201806040525081019061043b9190611885565b155b15610474576040517f02bd6bd100000000000000000000000000000000000000000000000000000000815260040160405180910390fd5b73ffffffffffffffffffffffffffffffffffffffff831660009081526020818152604090912083516104a892850190611453565b508273ffffffffffffffffffffffffffffffffffffffff167f36195b44a3184513e02477929207751ea9d67026b917ed74d374a7f9e8c5e4d133846040516104f19291906119a4565b60405180910390a2505050565b600060208190529081526040902080548190610519906119d3565b80601f0160208091040260200160405190810160405280929190818152602001828054610545906119d3565b80156105925780601f1061056757610100808354040283529160200191610592565b820191906000526020600020905b81548152906001019060200180831161057557829003601f168201915b5050505050908060010180546105a7906119d3565b80601f01602080910402602001604051908101604052809291908181526020018280546105d3906119d3565b80156106205780601f106105f557610100808354040283529160200191610620565b820191906000526020600020905b81548152906001019060200180831161060357829003601f168201915b505050505090806002018054610635906119d3565b80601f0160208091040260200160405190810160405280929190818152602001828054610661906119d3565b80156106ae5780601f10610683576101008083540402835291602001916106ae565b820191906000526020600020905b81548152906001019060200180831161069157829003601f168201915b5050505050905083565b3360008181526020819052604080822081516060818101909352815492949392909190829082906106e8906119d3565b80601f0160208091040260200160405190810160405280929190818152602001828054610714906119d3565b80156107615780601f1061073657610100808354040283529160200191610761565b820191906000526020600020905b81548152906001019060200180831161074457829003601f168201915b5050505050815260200160018201805461077a906119d3565b80601f01602080910402602001604051908101604052809291908181526020018280546107a6906119d3565b80156107f35780601f106107c8576101008083540402835291602001916107f3565b820191906000526020600020905b8154815290600101906020018083116107d657829003601f168201915b5050505050815260200160028201805461080c906119d3565b80601f0160208091040260200160405190810160405280929190818152602001828054610838906119d3565b80156108855780601f1061085a57610100808354040283529160200191610885565b820191906000526020600020905b81548152906001019060200180831161086857829003601f168201915b5050505050815250509050600082905060008173ffffffffffffffffffffffffffffffffffffffff16633474a4a66040518163ffffffff1660e01b815260040161016060405180830381865afa1580156108e3573d6000803e3d6000fd5b505050506040513d601f19601f820116820180604052508101906109079190611a3e565b610140015190507fffffffffffffffffffffffffffffffffffffffffffffffff00000000000000018101610939575060005b6109e08473ffffffffffffffffffffffffffffffffffffffff166306fdde036040518163ffffffff1660e01b8152600401600060405180830381865afa158015610987573d6000803e3d6000fd5b505050506040513d6000823e601f3d9081017fffffffffffffffffffffffffffffffffffffffffffffffffffffffffffffffe01682016040526109cd9190810190611af7565b8451602086015160408701518a86610cce565b9695505050505050565b3360008181526020819052604080822081517f79502c55000000000000000000000000000000000000000000000000000000008152915160609493919284916379502c55916004808201926080929091908290030181865afa158015610a54573d6000803e3d6000fd5b505050506040513d601f19601f82011682018060405250810190610a789190611b2c565b9050610cc68373ffffffffffffffffffffffffffffffffffffffff166306fdde036040518163ffffffff1660e01b8152600401600060405180830381865afa158015610ac8573d6000803e3d6000fd5b505050506040513d6000823e601f3d9081017fffffffffffffffffffffffffffffffffffffffffffffffffffffffffffffffe0168201604052610b0e9190810190611af7565b83548490610b1b906119d3565b80601f0160208091040260200160405190810160405280929190818152602001828054610b47906119d3565b8015610b945780601f10610b6957610100808354040283529160200191610b94565b820191906000526020600020905b815481529060010190602001808311610b7757829003601f168201915b5050505050846001018054610ba8906119d3565b80601f0160208091040260200160405190810160405280929190818152602001828054610bd4906119d3565b8015610c215780601f10610bf657610100808354040283529160200191610c21565b820191906000526020600020905b815481529060010190602001808311610c0457829003601f168201915b5050505050856002018054610c35906119d3565b80601f0160208091040260200160405190810160405280929190818152602001828054610c61906119d3565b8015610cae5780601f10610c8357610100808354040283529160200191610cae565b820191906000526020600020905b815481529060010190602001808311610c9157829003601f168201915b5050505050856040015161ffff168660600151610d05565b935050505090565b60606000610cdc8686610dd5565b90506000610ced8989848888610e65565b9050610cf881610ee1565b9998505050505050505050565b60408051602081019091526000815284516060919015610d425785604051602001610d309190611bd2565b60405160208183030381529060405290505b604080516020810190915260008152855115610d7b5785604051602001610d699190611c17565b60405160208183030381529060405290505b610cf88989610d8988610f12565b610daa8873ffffffffffffffffffffffffffffffffffffffff166014610fd0565b8686604051602001610dc196959493929190611c5c565b604051602081830303815290604052610ee1565b81518151606091158015911515908290610dec5750805b15610e1c578484604051602001610e04929190611db6565b60405160208183030381529060405292505050610e5f565b8115610e335784604051602001610e049190611e61565b8015610e4a5783604051602001610e049190611ecd565b60405180602001604052806000815250925050505b92915050565b6060808215610e9957610e7783610f12565b604051602001610e879190611f39565b60405160208183030381529060405290505b86610ea385610f12565b828888610eaf89610f12565b8c604051602001610ec69796959493929190611f7e565b60405160208183030381529060405291505095945050505050565b6060610eec8261121e565b604051602001610efc9190612128565b6040516020818303038152906040529050919050565b60606000610f1f83611371565b600101905060008167ffffffffffffffff811115610f3f57610f3f611511565b6040519080825280601f01601f191660200182016040528015610f69576020820181803683370190505b5090508181016020015b7fffffffffffffffffffffffffffffffffffffffffffffffffffffffffffffffff017f3031323334353637383961626364656600000000000000000000000000000000600a86061a8153600a8504945084610f7357509392505050565b60606000610fdf83600261219c565b610fea9060026121d9565b67ffffffffffffffff81111561100257611002611511565b6040519080825280601f01601f19166020018201604052801561102c576020820181803683370190505b5090507f300000000000000000000000000000000000000000000000000000000000000081600081518110611063576110636121f1565b60200101907effffffffffffffffffffffffffffffffffffffffffffffffffffffffffffff1916908160001a9053507f7800000000000000000000000000000000000000000000000000000000000000816001815181106110c6576110c66121f1565b60200101907effffffffffffffffffffffffffffffffffffffffffffffffffffffffffffff1916908160001a905350600061110284600261219c565b61110d9060016121d9565b90505b60018111156111aa577f303132333435363738396162636465660000000000000000000000000000000085600f166010811061114e5761114e6121f1565b1a60f81b828281518110611164576111646121f1565b60200101907effffffffffffffffffffffffffffffffffffffffffffffffffffffffffffff1916908160001a90535060049490941c936111a381612220565b9050611110565b508315611217576040517f08c379a000000000000000000000000000000000000000000000000000000000815260206004820181905260248201527f537472696e67733a20686578206c656e67746820696e73756666696369656e74604482015260640160405180910390fd5b9392505050565b6060815160000361123d57505060408051602081019091526000815290565b6000604051806060016040528060408152602001612291604091399050600060038451600261126c91906121d9565b6112769190612255565b61128190600461219c565b67ffffffffffffffff81111561129957611299611511565b6040519080825280601f01601f1916602001820160405280156112c3576020820181803683370190505b509050600182016020820185865187015b8082101561132f576003820191508151603f8160121c168501518453600184019350603f81600c1c168501518453600184019350603f8160061c168501518453600184019350603f81168501518453506001830192506112d4565b505060038651066001811461134b576002811461135e57611366565b603d6001830353603d6002830353611366565b603d60018303535b509195945050505050565b6000807a184f03e93ff9f4daa797ed6e38ed64bf6a1f01000000000000000083106113ba577a184f03e93ff9f4daa797ed6e38ed64bf6a1f010000000000000000830492506040015b6d04ee2d6d415b85acef810000000083106113e6576d04ee2d6d415b85acef8100000000830492506020015b662386f26fc10000831061140457662386f26fc10000830492506010015b6305f5e100831061141c576305f5e100830492506008015b612710831061143057612710830492506004015b60648310611442576064830492506002015b600a8310610e5f5760010192915050565b82805461145f906119d3565b90600052602060002090601f01602090048101928261148157600085556114c7565b82601f1061149a57805160ff19168380011785556114c7565b828001600101855582156114c7579182015b828111156114c75782518255916020019190600101906114ac565b506114d39291506114d7565b5090565b5b808211156114d357600081556001016114d8565b73ffffffffffffffffffffffffffffffffffffffff8116811461150e57600080fd5b50565b7f4e487b7100000000000000000000000000000000000000000000000000000000600052604160045260246000fd5b604051610160810167ffffffffffffffff8111828210171561156457611564611511565b60405290565b604051601f82017fffffffffffffffffffffffffffffffffffffffffffffffffffffffffffffffe016810167ffffffffffffffff811182821017156115b1576115b1611511565b604052919050565b600067ffffffffffffffff8211156115d3576115d3611511565b50601f017fffffffffffffffffffffffffffffffffffffffffffffffffffffffffffffffe01660200190565b600061161261160d846115b9565b61156a565b905082815283838301111561162657600080fd5b828260208301376000602084830101529392505050565b600082601f83011261164e57600080fd5b611217838335602085016115ff565b60008060006060848603121561167257600080fd5b833561167d816114ec565b9250602084013567ffffffffffffffff8082111561169a57600080fd5b6116a68783880161163d565b935060408601359150808211156116bc57600080fd5b506116c98682870161163d565b9150509250925092565b6000602082840312156116e557600080fd5b813567ffffffffffffffff8111156116fc57600080fd5b8201601f8101841361170d57600080fd5b61171c848235602084016115ff565b949350505050565b6000806040838503121561173757600080fd5b8235611742816114ec565b9150602083013567ffffffffffffffff81111561175e57600080fd5b61176a8582860161163d565b9150509250929050565b60006020828403121561178657600080fd5b8135611217816114ec565b60005b838110156117ac578181015183820152602001611794565b838111156117bb576000848401525b50505050565b600081518084526117d9816020860160208601611791565b601f017fffffffffffffffffffffffffffffffffffffffffffffffffffffffffffffffe0169290920160200192915050565b60608152600061181e60608301866117c1565b828103602084015261183081866117c1565b905082810360408401526109e081856117c1565b60006020828403121561185657600080fd5b5035919050565b60208152600061121760208301846117c1565b8051801515811461188057600080fd5b919050565b60006020828403121561189757600080fd5b61121782611870565b73ffffffffffffffffffffffffffffffffffffffff841681526060602082015260006118cf60608301856117c1565b82810360408401526109e081856117c1565b600082601f8301126118f257600080fd5b815161190061160d826115b9565b81815284602083860101111561191557600080fd5b61171c826020830160208701611791565b60008060006060848603121561193b57600080fd5b835167ffffffffffffffff8082111561195357600080fd5b61195f878388016118e1565b9450602086015191508082111561197557600080fd5b611981878388016118e1565b9350604086015191508082111561199757600080fd5b506116c9868287016118e1565b73ffffffffffffffffffffffffffffffffffffffff8316815260406020820152600061171c60408301846117c1565b600181811c908216806119e757607f821691505b602082108103611a20577f4e487b7100000000000000000000000000000000000000000000000000000000600052602260045260246000fd5b50919050565b805167ffffffffffffffff8116811461188057600080fd5b60006101608284031215611a5157600080fd5b611a59611540565b611a6283611870565b8152611a7060208401611870565b602082015260408301516040820152611a8b60608401611a26565b6060820152611a9c60808401611a26565b6080820152611aad60a08401611a26565b60a0820152611abe60c08401611a26565b60c082015260e0838101519082015261010080840151908201526101208084015190820152610140928301519281019290925250919050565b600060208284031215611b0957600080fd5b815167ffffffffffffffff811115611b2057600080fd5b61171c848285016118e1565b600060808284031215611b3e57600080fd5b6040516080810181811067ffffffffffffffff82111715611b6157611b61611511565b6040528251611b6f816114ec565b8152611b7d60208401611a26565b6020820152604083015161ffff81168114611b9757600080fd5b60408201526060830151611baa816114ec565b60608201529392505050565b60008151611bc8818560208601611791565b9290920192915050565b7f222c2022696d616765223a202200000000000000000000000000000000000000815260008251611c0a81600d850160208701611791565b91909101600d0192915050565b7f222c2022616e696d6174696f6e5f75726c223a20220000000000000000000000815260008251611c4f816015850160208701611791565b9190910160150192915050565b7f7b226e616d65223a2022000000000000000000000000000000000000000000008152600087516020611c9582600a8601838d01611791565b7f222c20226465736372697074696f6e223a202200000000000000000000000000600a928501928301528851611cd181601d8501848d01611791565b7f222c202273656c6c65725f6665655f62617369735f706f696e7473223a200000601d93909101928301528751611d0e81603b8501848c01611791565b7f2c20226665655f726563697069656e74223a2022000000000000000000000000603b93909101928301528651611d4b81604f8501848b01611791565b8651920191611d6081604f8501848a01611791565b8551920191611d7581604f8501848901611791565b611da7604f828501017f227d000000000000000000000000000000000000000000000000000000000000815260020190565b9b9a5050505050505050505050565b7f696d616765223a20220000000000000000000000000000000000000000000000815260008351611dee816009850160208801611791565b7f222c2022616e696d6174696f6e5f75726c223a202200000000000000000000006009918401918201528351611e2b81601e840160208801611791565b7f222c202200000000000000000000000000000000000000000000000000000000601e9290910191820152602201949350505050565b7f696d616765223a20220000000000000000000000000000000000000000000000815260008251611e99816009850160208701611791565b7f222c2022000000000000000000000000000000000000000000000000000000006009939091019283015250600d01919050565b7f616e696d6174696f6e5f75726c223a2022000000000000000000000000000000815260008251611f05816011850160208701611791565b7f222c2022000000000000000000000000000000000000000000000000000000006011939091019283015250601501919050565b7f2f00000000000000000000000000000000000000000000000000000000000000815260008251611f71816001850160208701611791565b9190910160010192915050565b7f7b226e616d65223a202200000000000000000000000000000000000000000000815260008851611fb681600a850160208d01611791565b7f2000000000000000000000000000000000000000000000000000000000000000600a918401918201528851611ff381600b840160208d01611791565b885191019061200981600b840160208c01611791565b8082019150507f222c20220000000000000000000000000000000000000000000000000000000080600b8301527f6465736372697074696f6e223a20220000000000000000000000000000000000600f830152875161206f81601e850160208c01611791565b601e92019182015261211a6120f16120eb6120c26120bc612093602287018c611bb6565b7f70726f70657274696573223a207b226e756d626572223a200000000000000000815260180190565b89611bb6565b7f2c20226e616d65223a20220000000000000000000000000000000000000000008152600b0190565b86611bb6565b7f227d7d0000000000000000000000000000000000000000000000000000000000815260030190565b9a9950505050505050505050565b7f646174613a6170706c69636174696f6e2f6a736f6e3b6261736536342c00000081526000825161216081601d850160208701611791565b91909101601d0192915050565b7f4e487b7100000000000000000000000000000000000000000000000000000000600052601160045260246000fd5b6000817fffffffffffffffffffffffffffffffffffffffffffffffffffffffffffffffff04831182151516156121d4576121d461216d565b500290565b600082198211156121ec576121ec61216d565b500190565b7f4e487b7100000000000000000000000000000000000000000000000000000000600052603260045260246000fd5b60008161222f5761222f61216d565b507fffffffffffffffffffffffffffffffffffffffffffffffffffffffffffffffff0190565b60008261228b577f4e487b7100000000000000000000000000000000000000000000000000000000600052601260045260246000fd5b50049056fe4142434445464748494a4b4c4d4e4f505152535455565758595a6162636465666768696a6b6c6d6e6f707172737475767778797a303132333435363738392b2fa164736f6c634300080d000a",
  "devdoc": {
    "events": {
      "DescriptionUpdated(address,address,string)": {
        "details": "admin function indexer feedback"
      },
      "EditionInitialized(address,string,string,string)": {
        "details": "admin function indexer feedback"
      }
    },
    "kind": "dev",
    "methods": {
      "contractURI()": {
        "returns": {
          "_0": "contract uri (if set)"
        }
      },
      "initializeWithData(bytes)": {
        "params": {
          "data": "data to init with"
        }
      },
      "tokenURI(uint256)": {
        "params": {
          "tokenId": "to get uri for"
        },
        "returns": {
          "_0": "contract uri (if set)"
        }
      },
      "updateDescription(address,string)": {
        "params": {
          "newDescription": "new description",
          "target": "target description"
        }
      },
      "updateMediaURIs(address,string,string)": {
        "params": {
          "animationURI": "new animation uri address",
          "imageURI": "new image uri address",
          "target": "target for contract to update metadata for"
        }
      }
    },
    "version": 1
  },
  "userdoc": {
    "events": {
      "DescriptionUpdated(address,address,string)": {
        "notice": "Description updated for this edition"
      },
      "EditionInitialized(address,string,string,string)": {
        "notice": "Event for a new edition initialized"
      },
      "MediaURIsUpdated(address,address,string,string)": {
        "notice": "Event for updated Media URIs"
      }
    },
    "kind": "user",
    "methods": {
      "contractURI()": {
        "notice": "Contract URI information getter"
      },
      "initializeWithData(bytes)": {
        "notice": "Default initializer for edition data from a specific contract"
      },
      "tokenInfos(address)": {
        "notice": "Token information mapping storage"
      },
      "tokenURI(uint256)": {
        "notice": "Token URI information getter"
      },
      "updateDescription(address,string)": {
        "notice": "Admin function to update description"
      },
      "updateMediaURIs(address,string,string)": {
        "notice": "Update media URIs"
      }
    },
    "notice": "EditionMetadataRenderer for editions support",
    "version": 1
  },
  "storageLayout": {
    "storage": [
      {
        "astId": 15278,
        "contract": "contracts/drops/metadata/EditionMetadataRenderer.sol:EditionMetadataRenderer",
        "label": "tokenInfos",
        "offset": 0,
        "slot": "0",
        "type": "t_mapping(t_address,t_struct(TokenEditionInfo)15241_storage)"
      }
    ],
    "types": {
      "t_address": {
        "encoding": "inplace",
        "label": "address",
        "numberOfBytes": "20"
      },
      "t_mapping(t_address,t_struct(TokenEditionInfo)15241_storage)": {
        "encoding": "mapping",
        "key": "t_address",
        "label": "mapping(address => struct EditionMetadataRenderer.TokenEditionInfo)",
        "numberOfBytes": "32",
        "value": "t_struct(TokenEditionInfo)15241_storage"
      },
      "t_string_storage": {
        "encoding": "bytes",
        "label": "string",
        "numberOfBytes": "32"
      },
      "t_struct(TokenEditionInfo)15241_storage": {
        "encoding": "inplace",
        "label": "struct EditionMetadataRenderer.TokenEditionInfo",
        "members": [
          {
            "astId": 15236,
            "contract": "contracts/drops/metadata/EditionMetadataRenderer.sol:EditionMetadataRenderer",
            "label": "description",
            "offset": 0,
            "slot": "0",
            "type": "t_string_storage"
          },
          {
            "astId": 15238,
            "contract": "contracts/drops/metadata/EditionMetadataRenderer.sol:EditionMetadataRenderer",
            "label": "imageURI",
            "offset": 0,
            "slot": "1",
            "type": "t_string_storage"
          },
          {
            "astId": 15240,
            "contract": "contracts/drops/metadata/EditionMetadataRenderer.sol:EditionMetadataRenderer",
            "label": "animationURI",
            "offset": 0,
            "slot": "2",
            "type": "t_string_storage"
          }
        ],
        "numberOfBytes": "96"
      }
    }
  }
}