{
  "address": "0x14311A89BC077353D4533F1B71Af0340D3136831",
  "abi": [
    {
      "inputs": [],
      "stateMutability": "nonpayable",
      "type": "constructor"
    },
    {
      "inputs": [
        {
          "internalType": "bytes32",
          "name": "role",
          "type": "bytes32"
        }
      ],
      "name": "Access_MissingRoleOrAdmin",
      "type": "error"
    },
    {
      "inputs": [],
      "name": "Access_OnlyAdmin",
      "type": "error"
    },
    {
      "inputs": [],
      "name": "Access_WithdrawNotAllowed",
      "type": "error"
    },
    {
      "inputs": [
        {
          "internalType": "address",
          "name": "newRecipientAddress",
          "type": "address"
        }
      ],
      "name": "Admin_InvalidFundRecipientAddress",
      "type": "error"
    },
    {
      "inputs": [
        {
          "internalType": "address",
          "name": "proposedAddress",
          "type": "address"
        }
      ],
      "name": "Admin_InvalidUpgradeAddress",
      "type": "error"
    },
    {
      "inputs": [],
      "name": "Admin_UnableToFinalizeNotOpenEdition",
      "type": "error"
    },
    {
      "inputs": [],
      "name": "ApprovalCallerNotOwnerNorApproved",
      "type": "error"
    },
    {
      "inputs": [],
      "name": "ApprovalQueryForNonexistentToken",
      "type": "error"
    },
    {
      "inputs": [],
      "name": "ApprovalToCurrentOwner",
      "type": "error"
    },
    {
      "inputs": [],
      "name": "ApproveToCaller",
      "type": "error"
    },
    {
      "inputs": [],
      "name": "BalanceQueryForZeroAddress",
      "type": "error"
    },
    {
      "inputs": [],
      "name": "MarketFilterAddressNotSupportedForChain",
      "type": "error"
    },
    {
      "inputs": [],
      "name": "MintToZeroAddress",
      "type": "error"
    },
    {
      "inputs": [],
      "name": "MintZeroQuantity",
      "type": "error"
    },
    {
      "inputs": [],
      "name": "Mint_SoldOut",
      "type": "error"
    },
    {
      "inputs": [],
      "name": "ONLY_OWNER",
      "type": "error"
    },
    {
      "inputs": [],
      "name": "ONLY_PENDING_OWNER",
      "type": "error"
    },
    {
      "inputs": [
        {
          "internalType": "address",
          "name": "operator",
          "type": "address"
        }
      ],
      "name": "OperatorNotAllowed",
      "type": "error"
    },
    {
      "inputs": [],
      "name": "OwnerQueryForNonexistentToken",
      "type": "error"
    },
    {
      "inputs": [],
      "name": "Presale_Inactive",
      "type": "error"
    },
    {
      "inputs": [],
      "name": "Presale_MerkleNotApproved",
      "type": "error"
    },
    {
      "inputs": [],
      "name": "Presale_TooManyForAddress",
      "type": "error"
    },
    {
      "inputs": [],
      "name": "Purchase_TooManyForAddress",
      "type": "error"
    },
    {
      "inputs": [
        {
          "internalType": "uint256",
          "name": "correctPrice",
          "type": "uint256"
        }
      ],
      "name": "Purchase_WrongPrice",
      "type": "error"
    },
    {
      "inputs": [],
      "name": "RemoteOperatorFilterRegistryCallFailed",
      "type": "error"
    },
    {
      "inputs": [],
      "name": "Sale_Inactive",
      "type": "error"
    },
    {
      "inputs": [
        {
          "internalType": "uint16",
          "name": "maxRoyaltyBPS",
          "type": "uint16"
        }
      ],
      "name": "Setup_RoyaltyPercentageTooHigh",
      "type": "error"
    },
    {
      "inputs": [],
      "name": "TransferCallerNotOwnerNorApproved",
      "type": "error"
    },
    {
      "inputs": [],
      "name": "TransferFromIncorrectOwner",
      "type": "error"
    },
    {
      "inputs": [],
      "name": "TransferToNonERC721ReceiverImplementer",
      "type": "error"
    },
    {
      "inputs": [],
      "name": "TransferToZeroAddress",
      "type": "error"
    },
    {
      "inputs": [],
      "name": "URIQueryForNonexistentToken",
      "type": "error"
    },
    {
      "inputs": [],
      "name": "Withdraw_FundsSendFailure",
      "type": "error"
    },
    {
      "anonymous": false,
      "inputs": [
        {
          "indexed": true,
          "internalType": "address",
          "name": "owner",
          "type": "address"
        },
        {
          "indexed": true,
          "internalType": "address",
          "name": "approved",
          "type": "address"
        },
        {
          "indexed": true,
          "internalType": "uint256",
          "name": "tokenId",
          "type": "uint256"
        }
      ],
      "name": "Approval",
      "type": "event"
    },
    {
      "anonymous": false,
      "inputs": [
        {
          "indexed": true,
          "internalType": "address",
          "name": "owner",
          "type": "address"
        },
        {
          "indexed": true,
          "internalType": "address",
          "name": "operator",
          "type": "address"
        },
        {
          "indexed": false,
          "internalType": "bool",
          "name": "approved",
          "type": "bool"
        }
      ],
      "name": "ApprovalForAll",
      "type": "event"
    },
    {
      "anonymous": false,
      "inputs": [
        {
          "indexed": true,
          "internalType": "address",
          "name": "source",
          "type": "address"
        },
        {
          "indexed": false,
          "internalType": "uint256",
          "name": "amount",
          "type": "uint256"
        }
      ],
      "name": "FundsReceived",
      "type": "event"
    },
    {
      "anonymous": false,
      "inputs": [
        {
          "indexed": true,
          "internalType": "address",
          "name": "newAddress",
          "type": "address"
        },
        {
          "indexed": true,
          "internalType": "address",
          "name": "changedBy",
          "type": "address"
        }
      ],
      "name": "FundsRecipientChanged",
      "type": "event"
    },
    {
      "anonymous": false,
      "inputs": [
        {
          "indexed": true,
          "internalType": "address",
          "name": "withdrawnBy",
          "type": "address"
        },
        {
          "indexed": true,
          "internalType": "address",
          "name": "withdrawnTo",
          "type": "address"
        },
        {
          "indexed": false,
          "internalType": "uint256",
          "name": "amount",
          "type": "uint256"
        },
        {
          "indexed": false,
          "internalType": "address",
          "name": "feeRecipient",
          "type": "address"
        },
        {
          "indexed": false,
          "internalType": "uint256",
          "name": "feeAmount",
          "type": "uint256"
        }
      ],
      "name": "FundsWithdrawn",
      "type": "event"
    },
    {
      "anonymous": false,
      "inputs": [
        {
          "indexed": true,
          "internalType": "address",
          "name": "sender",
          "type": "address"
        },
        {
          "indexed": false,
          "internalType": "uint256",
          "name": "numberOfMints",
          "type": "uint256"
        }
      ],
      "name": "OpenMintFinalized",
      "type": "event"
    },
    {
      "anonymous": false,
      "inputs": [
        {
          "indexed": true,
          "internalType": "address",
          "name": "previousOwner",
          "type": "address"
        },
        {
          "indexed": true,
          "internalType": "address",
          "name": "potentialNewOwner",
          "type": "address"
        }
      ],
      "name": "OwnerCanceled",
      "type": "event"
    },
    {
      "anonymous": false,
      "inputs": [
        {
          "indexed": true,
          "internalType": "address",
          "name": "previousOwner",
          "type": "address"
        },
        {
          "indexed": true,
          "internalType": "address",
          "name": "potentialNewOwner",
          "type": "address"
        }
      ],
      "name": "OwnerPending",
      "type": "event"
    },
    {
      "anonymous": false,
      "inputs": [
        {
          "indexed": true,
          "internalType": "address",
          "name": "previousOwner",
          "type": "address"
        },
        {
          "indexed": true,
          "internalType": "address",
          "name": "newOwner",
          "type": "address"
        }
      ],
      "name": "OwnershipTransferred",
      "type": "event"
    },
    {
      "anonymous": false,
      "inputs": [
        {
          "indexed": true,
          "internalType": "bytes32",
          "name": "role",
          "type": "bytes32"
        },
        {
          "indexed": true,
          "internalType": "bytes32",
          "name": "previousAdminRole",
          "type": "bytes32"
        },
        {
          "indexed": true,
          "internalType": "bytes32",
          "name": "newAdminRole",
          "type": "bytes32"
        }
      ],
      "name": "RoleAdminChanged",
      "type": "event"
    },
    {
      "anonymous": false,
      "inputs": [
        {
          "indexed": true,
          "internalType": "bytes32",
          "name": "role",
          "type": "bytes32"
        },
        {
          "indexed": true,
          "internalType": "address",
          "name": "account",
          "type": "address"
        },
        {
          "indexed": true,
          "internalType": "address",
          "name": "sender",
          "type": "address"
        }
      ],
      "name": "RoleGranted",
      "type": "event"
    },
    {
      "anonymous": false,
      "inputs": [
        {
          "indexed": true,
          "internalType": "bytes32",
          "name": "role",
          "type": "bytes32"
        },
        {
          "indexed": true,
          "internalType": "address",
          "name": "account",
          "type": "address"
        },
        {
          "indexed": true,
          "internalType": "address",
          "name": "sender",
          "type": "address"
        }
      ],
      "name": "RoleRevoked",
      "type": "event"
    },
    {
      "anonymous": false,
      "inputs": [
        {
          "indexed": true,
          "internalType": "address",
          "name": "to",
          "type": "address"
        },
        {
          "indexed": true,
          "internalType": "uint256",
          "name": "quantity",
          "type": "uint256"
        },
        {
          "indexed": true,
          "internalType": "uint256",
          "name": "pricePerToken",
          "type": "uint256"
        },
        {
          "indexed": false,
          "internalType": "uint256",
          "name": "firstPurchasedTokenId",
          "type": "uint256"
        }
      ],
      "name": "Sale",
      "type": "event"
    },
    {
      "anonymous": false,
      "inputs": [
        {
          "indexed": true,
          "internalType": "address",
          "name": "changedBy",
          "type": "address"
        }
      ],
      "name": "SalesConfigChanged",
      "type": "event"
    },
    {
      "anonymous": false,
      "inputs": [
        {
          "indexed": true,
          "internalType": "address",
          "name": "from",
          "type": "address"
        },
        {
          "indexed": true,
          "internalType": "address",
          "name": "to",
          "type": "address"
        },
        {
          "indexed": true,
          "internalType": "uint256",
          "name": "tokenId",
          "type": "uint256"
        }
      ],
      "name": "Transfer",
      "type": "event"
    },
    {
      "anonymous": false,
      "inputs": [
        {
          "indexed": false,
          "internalType": "address",
          "name": "sender",
          "type": "address"
        },
        {
          "indexed": false,
          "internalType": "contract IMetadataRenderer",
          "name": "renderer",
          "type": "address"
        }
      ],
      "name": "UpdatedMetadataRenderer",
      "type": "event"
    },
    {
      "inputs": [],
      "name": "DEFAULT_ADMIN_ROLE",
      "outputs": [
        {
          "internalType": "bytes32",
          "name": "",
          "type": "bytes32"
        }
      ],
      "stateMutability": "view",
      "type": "function"
    },
    {
      "inputs": [],
      "name": "MINTER_ROLE",
      "outputs": [
        {
          "internalType": "bytes32",
          "name": "",
          "type": "bytes32"
        }
      ],
      "stateMutability": "view",
      "type": "function"
    },
    {
      "inputs": [],
      "name": "SALES_MANAGER_ROLE",
      "outputs": [
        {
          "internalType": "bytes32",
          "name": "",
          "type": "bytes32"
        }
      ],
      "stateMutability": "view",
      "type": "function"
    },
    {
      "inputs": [
        {
          "internalType": "address",
          "name": "recipient",
          "type": "address"
        },
        {
          "internalType": "uint256",
          "name": "quantity",
          "type": "uint256"
        }
      ],
      "name": "adminMint",
      "outputs": [
        {
          "internalType": "uint256",
          "name": "",
          "type": "uint256"
        }
      ],
      "stateMutability": "nonpayable",
      "type": "function"
    },
    {
      "inputs": [
        {
          "internalType": "address[]",
          "name": "recipients",
          "type": "address[]"
        }
      ],
      "name": "adminMintAirdrop",
      "outputs": [
        {
          "internalType": "uint256",
          "name": "",
          "type": "uint256"
        }
      ],
      "stateMutability": "nonpayable",
      "type": "function"
    },
    {
      "inputs": [
        {
          "internalType": "address",
          "name": "to",
          "type": "address"
        },
        {
          "internalType": "uint256",
          "name": "tokenId",
          "type": "uint256"
        }
      ],
      "name": "approve",
      "outputs": [],
      "stateMutability": "nonpayable",
      "type": "function"
    },
    {
      "inputs": [
        {
          "internalType": "address",
          "name": "owner",
          "type": "address"
        }
      ],
      "name": "balanceOf",
      "outputs": [
        {
          "internalType": "uint256",
          "name": "",
          "type": "uint256"
        }
      ],
      "stateMutability": "view",
      "type": "function"
    },
    {
      "inputs": [
        {
          "internalType": "uint256",
          "name": "tokenId",
          "type": "uint256"
        }
      ],
      "name": "burn",
      "outputs": [],
      "stateMutability": "nonpayable",
      "type": "function"
    },
    {
      "inputs": [],
      "name": "config",
      "outputs": [
        {
          "internalType": "contract IMetadataRenderer",
          "name": "metadataRenderer",
          "type": "address"
        },
        {
          "internalType": "uint64",
          "name": "editionSize",
          "type": "uint64"
        },
        {
          "internalType": "uint16",
          "name": "royaltyBPS",
          "type": "uint16"
        },
        {
          "internalType": "address payable",
          "name": "fundsRecipient",
          "type": "address"
        }
      ],
      "stateMutability": "view",
      "type": "function"
    },
    {
      "inputs": [],
      "name": "contractURI",
      "outputs": [
        {
          "internalType": "string",
          "name": "",
          "type": "string"
        }
      ],
      "stateMutability": "view",
      "type": "function"
    },
    {
      "inputs": [],
      "name": "finalizeOpenEdition",
      "outputs": [],
      "stateMutability": "nonpayable",
      "type": "function"
    },
    {
      "inputs": [
        {
          "internalType": "uint256",
          "name": "tokenId",
          "type": "uint256"
        }
      ],
      "name": "getApproved",
      "outputs": [
        {
          "internalType": "address",
          "name": "",
          "type": "address"
        }
      ],
      "stateMutability": "view",
      "type": "function"
    },
    {
      "inputs": [
        {
          "internalType": "bytes32",
          "name": "role",
          "type": "bytes32"
        }
      ],
      "name": "getRoleAdmin",
      "outputs": [
        {
          "internalType": "bytes32",
          "name": "",
          "type": "bytes32"
        }
      ],
      "stateMutability": "view",
      "type": "function"
    },
    {
      "inputs": [
        {
          "internalType": "bytes32",
          "name": "role",
          "type": "bytes32"
        },
        {
          "internalType": "address",
          "name": "account",
          "type": "address"
        }
      ],
      "name": "grantRole",
      "outputs": [],
      "stateMutability": "nonpayable",
      "type": "function"
    },
    {
      "inputs": [
        {
          "internalType": "bytes32",
          "name": "role",
          "type": "bytes32"
        },
        {
          "internalType": "address",
          "name": "account",
          "type": "address"
        }
      ],
      "name": "hasRole",
      "outputs": [
        {
          "internalType": "bool",
          "name": "",
          "type": "bool"
        }
      ],
      "stateMutability": "view",
      "type": "function"
    },
    {
      "inputs": [],
      "name": "holographERC721TransferHelper",
      "outputs": [
        {
          "internalType": "address",
          "name": "",
          "type": "address"
        }
      ],
      "stateMutability": "view",
      "type": "function"
    },
    {
      "inputs": [
        {
          "internalType": "uint256",
          "name": "amount",
          "type": "uint256"
        }
      ],
      "name": "holographFeeForAmount",
      "outputs": [
        {
          "internalType": "address payable",
          "name": "",
          "type": "address"
        },
        {
          "internalType": "uint256",
          "name": "",
          "type": "uint256"
        }
      ],
      "stateMutability": "nonpayable",
      "type": "function"
    },
    {
      "inputs": [],
      "name": "holographFeeManager",
      "outputs": [
        {
          "internalType": "contract IHolographFeeManager",
          "name": "",
          "type": "address"
        }
      ],
      "stateMutability": "view",
      "type": "function"
    },
    {
      "inputs": [
        {
          "internalType": "bytes",
          "name": "initPayload",
          "type": "bytes"
        }
      ],
      "name": "init",
      "outputs": [
        {
          "internalType": "bytes4",
          "name": "",
          "type": "bytes4"
        }
      ],
      "stateMutability": "nonpayable",
      "type": "function"
    },
    {
      "inputs": [
        {
          "internalType": "address",
          "name": "user",
          "type": "address"
        }
      ],
      "name": "isAdmin",
      "outputs": [
        {
          "internalType": "bool",
          "name": "",
          "type": "bool"
        }
      ],
      "stateMutability": "view",
      "type": "function"
    },
    {
      "inputs": [
        {
          "internalType": "address",
          "name": "nftOwner",
          "type": "address"
        },
        {
          "internalType": "address",
          "name": "operator",
          "type": "address"
        }
      ],
      "name": "isApprovedForAll",
      "outputs": [
        {
          "internalType": "bool",
          "name": "",
          "type": "bool"
        }
      ],
      "stateMutability": "view",
      "type": "function"
    },
    {
      "inputs": [
        {
          "internalType": "bool",
          "name": "enable",
          "type": "bool"
        }
      ],
      "name": "manageMarketFilterSubscription",
      "outputs": [],
      "stateMutability": "nonpayable",
      "type": "function"
    },
    {
      "inputs": [],
      "name": "marketFilterAddress",
      "outputs": [
        {
          "internalType": "address",
          "name": "",
          "type": "address"
        }
      ],
      "stateMutability": "view",
      "type": "function"
    },
    {
      "inputs": [],
      "name": "metadataRenderer",
      "outputs": [
        {
          "internalType": "contract IMetadataRenderer",
          "name": "",
          "type": "address"
        }
      ],
      "stateMutability": "view",
      "type": "function"
    },
    {
      "inputs": [
        {
          "internalType": "address",
          "name": "minter",
          "type": "address"
        }
      ],
      "name": "mintedPerAddress",
      "outputs": [
        {
          "components": [
            {
              "internalType": "uint256",
              "name": "totalMints",
              "type": "uint256"
            },
            {
              "internalType": "uint256",
              "name": "presaleMints",
              "type": "uint256"
            },
            {
              "internalType": "uint256",
              "name": "publicMints",
              "type": "uint256"
            }
          ],
          "internalType": "struct IHolographERC721Drop.AddressMintDetails",
          "name": "",
          "type": "tuple"
        }
      ],
      "stateMutability": "view",
      "type": "function"
    },
    {
      "inputs": [
        {
          "internalType": "bytes[]",
          "name": "data",
          "type": "bytes[]"
        }
      ],
      "name": "multicall",
      "outputs": [
        {
          "internalType": "bytes[]",
          "name": "results",
          "type": "bytes[]"
        }
      ],
      "stateMutability": "nonpayable",
      "type": "function"
    },
    {
      "inputs": [],
      "name": "name",
      "outputs": [
        {
          "internalType": "string",
          "name": "",
          "type": "string"
        }
      ],
      "stateMutability": "view",
      "type": "function"
    },
    {
      "inputs": [],
      "name": "operatorFilterRegistry",
      "outputs": [
        {
          "internalType": "contract IOperatorFilterRegistry",
          "name": "",
          "type": "address"
        }
      ],
      "stateMutability": "view",
      "type": "function"
    },
    {
      "inputs": [],
      "name": "owner",
      "outputs": [
        {
          "internalType": "address",
          "name": "",
          "type": "address"
        }
      ],
      "stateMutability": "view",
      "type": "function"
    },
    {
      "inputs": [
        {
          "internalType": "uint256",
          "name": "tokenId",
          "type": "uint256"
        }
      ],
      "name": "ownerOf",
      "outputs": [
        {
          "internalType": "address",
          "name": "",
          "type": "address"
        }
      ],
      "stateMutability": "view",
      "type": "function"
    },
    {
      "inputs": [
        {
          "internalType": "address",
          "name": "",
          "type": "address"
        }
      ],
      "name": "presaleMintsByAddress",
      "outputs": [
        {
          "internalType": "uint256",
          "name": "",
          "type": "uint256"
        }
      ],
      "stateMutability": "view",
      "type": "function"
    },
    {
      "inputs": [
        {
          "internalType": "uint256",
          "name": "quantity",
          "type": "uint256"
        }
      ],
      "name": "purchase",
      "outputs": [
        {
          "internalType": "uint256",
          "name": "",
          "type": "uint256"
        }
      ],
      "stateMutability": "payable",
      "type": "function"
    },
    {
      "inputs": [
        {
          "internalType": "uint256",
          "name": "quantity",
          "type": "uint256"
        },
        {
          "internalType": "uint256",
          "name": "maxQuantity",
          "type": "uint256"
        },
        {
          "internalType": "uint256",
          "name": "pricePerToken",
          "type": "uint256"
        },
        {
          "internalType": "bytes32[]",
          "name": "merkleProof",
          "type": "bytes32[]"
        }
      ],
      "name": "purchasePresale",
      "outputs": [
        {
          "internalType": "uint256",
          "name": "",
          "type": "uint256"
        }
      ],
      "stateMutability": "payable",
      "type": "function"
    },
    {
      "inputs": [
        {
          "internalType": "bytes32",
          "name": "role",
          "type": "bytes32"
        },
        {
          "internalType": "address",
          "name": "account",
          "type": "address"
        }
      ],
      "name": "renounceRole",
      "outputs": [],
      "stateMutability": "nonpayable",
      "type": "function"
    },
    {
      "inputs": [
        {
          "internalType": "bytes32",
          "name": "role",
          "type": "bytes32"
        },
        {
          "internalType": "address",
          "name": "account",
          "type": "address"
        }
      ],
      "name": "revokeRole",
      "outputs": [],
      "stateMutability": "nonpayable",
      "type": "function"
    },
    {
      "inputs": [
        {
          "internalType": "uint256",
          "name": "",
          "type": "uint256"
        },
        {
          "internalType": "uint256",
          "name": "_salePrice",
          "type": "uint256"
        }
      ],
      "name": "royaltyInfo",
      "outputs": [
        {
          "internalType": "address",
          "name": "receiver",
          "type": "address"
        },
        {
          "internalType": "uint256",
          "name": "royaltyAmount",
          "type": "uint256"
        }
      ],
      "stateMutability": "view",
      "type": "function"
    },
    {
      "inputs": [
        {
          "internalType": "address",
          "name": "from",
          "type": "address"
        },
        {
          "internalType": "address",
          "name": "to",
          "type": "address"
        },
        {
          "internalType": "uint256",
          "name": "tokenId",
          "type": "uint256"
        }
      ],
      "name": "safeTransferFrom",
      "outputs": [],
      "stateMutability": "nonpayable",
      "type": "function"
    },
    {
      "inputs": [
        {
          "internalType": "address",
          "name": "from",
          "type": "address"
        },
        {
          "internalType": "address",
          "name": "to",
          "type": "address"
        },
        {
          "internalType": "uint256",
          "name": "tokenId",
          "type": "uint256"
        },
        {
          "internalType": "bytes",
          "name": "_data",
          "type": "bytes"
        }
      ],
      "name": "safeTransferFrom",
      "outputs": [],
      "stateMutability": "nonpayable",
      "type": "function"
    },
    {
      "inputs": [],
      "name": "saleDetails",
      "outputs": [
        {
          "components": [
            {
              "internalType": "bool",
              "name": "publicSaleActive",
              "type": "bool"
            },
            {
              "internalType": "bool",
              "name": "presaleActive",
              "type": "bool"
            },
            {
              "internalType": "uint256",
              "name": "publicSalePrice",
              "type": "uint256"
            },
            {
              "internalType": "uint64",
              "name": "publicSaleStart",
              "type": "uint64"
            },
            {
              "internalType": "uint64",
              "name": "publicSaleEnd",
              "type": "uint64"
            },
            {
              "internalType": "uint64",
              "name": "presaleStart",
              "type": "uint64"
            },
            {
              "internalType": "uint64",
              "name": "presaleEnd",
              "type": "uint64"
            },
            {
              "internalType": "bytes32",
              "name": "presaleMerkleRoot",
              "type": "bytes32"
            },
            {
              "internalType": "uint256",
              "name": "maxSalePurchasePerAddress",
              "type": "uint256"
            },
            {
              "internalType": "uint256",
              "name": "totalMinted",
              "type": "uint256"
            },
            {
              "internalType": "uint256",
              "name": "maxSupply",
              "type": "uint256"
            }
          ],
          "internalType": "struct IHolographERC721Drop.SaleDetails",
          "name": "",
          "type": "tuple"
        }
      ],
      "stateMutability": "view",
      "type": "function"
    },
    {
      "inputs": [],
      "name": "salesConfig",
      "outputs": [
        {
          "internalType": "uint104",
          "name": "publicSalePrice",
          "type": "uint104"
        },
        {
          "internalType": "uint32",
          "name": "maxSalePurchasePerAddress",
          "type": "uint32"
        },
        {
          "internalType": "uint64",
          "name": "publicSaleStart",
          "type": "uint64"
        },
        {
          "internalType": "uint64",
          "name": "publicSaleEnd",
          "type": "uint64"
        },
        {
          "internalType": "uint64",
          "name": "presaleStart",
          "type": "uint64"
        },
        {
          "internalType": "uint64",
          "name": "presaleEnd",
          "type": "uint64"
        },
        {
          "internalType": "bytes32",
          "name": "presaleMerkleRoot",
          "type": "bytes32"
        }
      ],
      "stateMutability": "view",
      "type": "function"
    },
    {
      "inputs": [
        {
          "internalType": "address",
          "name": "operator",
          "type": "address"
        },
        {
          "internalType": "bool",
          "name": "approved",
          "type": "bool"
        }
      ],
      "name": "setApprovalForAll",
      "outputs": [],
      "stateMutability": "nonpayable",
      "type": "function"
    },
    {
      "inputs": [
        {
          "internalType": "address payable",
          "name": "newRecipientAddress",
          "type": "address"
        }
      ],
      "name": "setFundsRecipient",
      "outputs": [],
      "stateMutability": "nonpayable",
      "type": "function"
    },
    {
      "inputs": [
        {
          "internalType": "contract IMetadataRenderer",
          "name": "newRenderer",
          "type": "address"
        },
        {
          "internalType": "bytes",
          "name": "setupRenderer",
          "type": "bytes"
        }
      ],
      "name": "setMetadataRenderer",
      "outputs": [],
      "stateMutability": "nonpayable",
      "type": "function"
    },
    {
      "inputs": [
        {
          "internalType": "address",
          "name": "newOwner",
          "type": "address"
        }
      ],
      "name": "setOwner",
      "outputs": [],
      "stateMutability": "nonpayable",
      "type": "function"
    },
    {
      "inputs": [
        {
          "internalType": "uint104",
          "name": "publicSalePrice",
          "type": "uint104"
        },
        {
          "internalType": "uint32",
          "name": "maxSalePurchasePerAddress",
          "type": "uint32"
        },
        {
          "internalType": "uint64",
          "name": "publicSaleStart",
          "type": "uint64"
        },
        {
          "internalType": "uint64",
          "name": "publicSaleEnd",
          "type": "uint64"
        },
        {
          "internalType": "uint64",
          "name": "presaleStart",
          "type": "uint64"
        },
        {
          "internalType": "uint64",
          "name": "presaleEnd",
          "type": "uint64"
        },
        {
          "internalType": "bytes32",
          "name": "presaleMerkleRoot",
          "type": "bytes32"
        }
      ],
      "name": "setSaleConfiguration",
      "outputs": [],
      "stateMutability": "nonpayable",
      "type": "function"
    },
    {
      "inputs": [
        {
          "internalType": "bytes4",
          "name": "interfaceId",
          "type": "bytes4"
        }
      ],
      "name": "supportsInterface",
      "outputs": [
        {
          "internalType": "bool",
          "name": "",
          "type": "bool"
        }
      ],
      "stateMutability": "view",
      "type": "function"
    },
    {
      "inputs": [],
      "name": "symbol",
      "outputs": [
        {
          "internalType": "string",
          "name": "",
          "type": "string"
        }
      ],
      "stateMutability": "view",
      "type": "function"
    },
    {
      "inputs": [
        {
          "internalType": "uint256",
          "name": "tokenId",
          "type": "uint256"
        }
      ],
      "name": "tokenURI",
      "outputs": [
        {
          "internalType": "string",
          "name": "",
          "type": "string"
        }
      ],
      "stateMutability": "view",
      "type": "function"
    },
    {
      "inputs": [],
      "name": "totalSupply",
      "outputs": [
        {
          "internalType": "uint256",
          "name": "",
          "type": "uint256"
        }
      ],
      "stateMutability": "view",
      "type": "function"
    },
    {
      "inputs": [
        {
          "internalType": "address",
          "name": "from",
          "type": "address"
        },
        {
          "internalType": "address",
          "name": "to",
          "type": "address"
        },
        {
          "internalType": "uint256",
          "name": "tokenId",
          "type": "uint256"
        }
      ],
      "name": "transferFrom",
      "outputs": [],
      "stateMutability": "nonpayable",
      "type": "function"
    },
    {
      "inputs": [
        {
          "internalType": "bytes",
          "name": "args",
          "type": "bytes"
        }
      ],
      "name": "updateMarketFilterSettings",
      "outputs": [
        {
          "internalType": "bytes",
          "name": "",
          "type": "bytes"
        }
      ],
      "stateMutability": "nonpayable",
      "type": "function"
    },
    {
      "inputs": [],
      "name": "withdraw",
      "outputs": [],
      "stateMutability": "nonpayable",
      "type": "function"
    },
    {
      "stateMutability": "payable",
      "type": "receive"
    }
  ],
  "transactionHash": "0x95fc217c2437b7e22165f1aa780bfacd4456372b7fd583f32dde3d71d83fd5d0",
  "args": [],
  "numDeployments": 1,
  "solcInputHash": "460c9c81ea6d5ccfd94ebee5fc859457",
  "bytecode": "0x608060405261010580546001600160a01b0319166daaeb6d7670e522a718067333cd4e17905534801561003157600080fd5b50615d3280620000426000396000f3fe6080604052600436106103435760003560e01c806370319970116101b0578063b8ae5a2c116100ec578063d58cc03f11610095578063e8a3d4851161006f578063e8a3d48514610c69578063e985e9c514610c7e578063efef39a114610c9e578063ffdb716314610cb157600080fd5b8063d58cc03f14610bf5578063e26bd34314610c15578063e58306f914610c4957600080fd5b8063d445b978116100c6578063d445b97814610b5f578063d539139314610ba1578063d547741f14610bd557600080fd5b8063b8ae5a2c14610aff578063bb20d85714610b1f578063c87b56dd14610b3f57600080fd5b806395d89b4111610159578063ac6be88011610133578063ac6be88014610a50578063ac9650d814610a84578063b0ccc31e14610ab1578063b88d4fde14610adf57600080fd5b806395d89b4114610a06578063a217fddf14610a1b578063a22cb46514610a3057600080fd5b80638a1968de1161018a5780638a1968de1461097e5780638da5cb5b1461099e57806391d14854146109b357600080fd5b8063703199701461086a57806370a082311461089557806379502c55146108b557600080fd5b80632a55205a1161027f5780633ccfd60b1161022857806342966c681161020257806342966c68146107ab5780634ddf47d4146107cb57806361fea7681461081c5780636352211e1461084a57600080fd5b80633ccfd60b1461076157806341e96eb11461077657806342842e0e1461078b57600080fd5b80633474a4a6116102595780633474a4a6146106ff57806336568abe146107215780633bcdcc871461074157600080fd5b80632a55205a146106655780632f0ae5fa146106b15780632f2ff15d146106df57600080fd5b806313af4035116102ec57806323b872dd116102c657806323b872dd146105e2578063248a9ca31461060257806324d7806c1461063257806325024a2b1461065257600080fd5b806313af40351461049057806318160ddd146104b05780631d2c0b38146104f557600080fd5b8063081812fc1161031d578063081812fc1461042e578063095ea7b31461044e57806310a7eb5d1461047057600080fd5b806301ffc9a71461038457806303ddad96146103b957806306fdde031461040c57600080fd5b3661037f5760405134815233907f8e47b87b0ef542cdfa1659c551d88bad38aa7f452d2bbb349ab7530dfec8be8f9060200160405180910390a2005b600080fd5b34801561039057600080fd5b506103a461039f366004614e9e565b610cd1565b60405190151581526020015b60405180910390f35b3480156103c557600080fd5b50610103546103e79073ffffffffffffffffffffffffffffffffffffffff1681565b60405173ffffffffffffffffffffffffffffffffffffffff90911681526020016103b0565b34801561041857600080fd5b50610421610dc6565b6040516103b09190614f31565b34801561043a57600080fd5b506103e7610449366004614f44565b610e58565b34801561045a57600080fd5b5061046e610469366004614f7f565b610ec2565b005b34801561047c57600080fd5b5061046e61048b366004614fab565b610fa8565b34801561049c57600080fd5b5061046e6104ab366004614fab565b61113a565b3480156104bc57600080fd5b50606654606554037fffffffffffffffffffffffffffffffffffffffffffffffffffffffffffffffff015b6040519081526020016103b0565b34801561050157600080fd5b5060fe5460ff5461010054610589926cffffffffffffffffffffffffff8116926d0100000000000000000000000000820463ffffffff16927101000000000000000000000000000000000090920467ffffffffffffffff9081169281831692680100000000000000008104831692700100000000000000000000000000000000909104169087565b604080516cffffffffffffffffffffffffff909816885263ffffffff909616602088015267ffffffffffffffff948516958701959095529183166060860152821660808501521660a083015260c082015260e0016103b0565b3480156105ee57600080fd5b5061046e6105fd366004614fc8565b6111ae565b34801561060e57600080fd5b506104e761061d366004614f44565b600090815260c9602052604090206001015490565b34801561063e57600080fd5b506103a461064d366004614fab565b6111b9565b6104e761066036600461504e565b611206565b34801561067157600080fd5b506106856106803660046150af565b61154a565b6040805173ffffffffffffffffffffffffffffffffffffffff90931683526020830191909152016103b0565b3480156106bd57600080fd5b50610104546103e79073ffffffffffffffffffffffffffffffffffffffff1681565b3480156106eb57600080fd5b5061046e6106fa3660046150d1565b6115f5565b34801561070b57600080fd5b5061071461161a565b6040516103b09190615101565b34801561072d57600080fd5b5061046e61073c3660046150d1565b611795565b34801561074d57600080fd5b5061046e61075c366004615310565b611848565b34801561076d57600080fd5b5061046e6119d1565b34801561078257600080fd5b5061046e611d59565b34801561079757600080fd5b5061046e6107a6366004614fc8565b611f5f565b3480156107b757600080fd5b5061046e6107c6366004614f44565b611f7a565b3480156107d757600080fd5b506107eb6107e6366004615360565b611f85565b6040517fffffffff0000000000000000000000000000000000000000000000000000000090911681526020016103b0565b34801561082857600080fd5b506104e7610837366004614fab565b6101016020526000908152604090205481565b34801561085657600080fd5b506103e7610865366004614f44565b6123d3565b34801561087657600080fd5b5060fc5473ffffffffffffffffffffffffffffffffffffffff166103e7565b3480156108a157600080fd5b506104e76108b0366004614fab565b6123e5565b3480156108c157600080fd5b5060fc5460fd546109319173ffffffffffffffffffffffffffffffffffffffff8082169274010000000000000000000000000000000000000000830467ffffffffffffffff16927c0100000000000000000000000000000000000000000000000000000000900461ffff16911684565b6040805173ffffffffffffffffffffffffffffffffffffffff958616815267ffffffffffffffff909416602085015261ffff909216918301919091529190911660608201526080016103b0565b34801561098a57600080fd5b5061046e6109993660046153a3565b612467565b3480156109aa57600080fd5b506103e76127ad565b3480156109bf57600080fd5b506103a46109ce3660046150d1565b600091825260c96020908152604080842073ffffffffffffffffffffffffffffffffffffffff93909316845291905290205460ff1690565b348015610a1257600080fd5b506104216127d3565b348015610a2757600080fd5b506104e7600081565b348015610a3c57600080fd5b5061046e610a4b3660046153c0565b6127e2565b348015610a5c57600080fd5b50610102546103e79062010000900473ffffffffffffffffffffffffffffffffffffffff1681565b348015610a9057600080fd5b50610aa4610a9f366004615412565b6128c8565b6040516103b091906154c3565b348015610abd57600080fd5b50610105546103e79073ffffffffffffffffffffffffffffffffffffffff1681565b348015610aeb57600080fd5b5061046e610afa366004615543565b61297f565b348015610b0b57600080fd5b506104e7610b1a3660046155af565b6129f6565b348015610b2b57600080fd5b50610421610b3a3660046155f1565b612ba1565b348015610b4b57600080fd5b50610421610b5a366004614f44565b612cc4565b348015610b6b57600080fd5b50610b7f610b7a366004614fab565b612dba565b60408051825181526020808401519082015291810151908201526060016103b0565b348015610bad57600080fd5b506104e77ff0887ba65ee2024ea881d91b74c2450ef19e1557f03bed3ea9f16b037cbe2dc981565b348015610be157600080fd5b5061046e610bf03660046150d1565b612e96565b348015610c0157600080fd5b50610685610c10366004614f44565b612ebb565b348015610c2157600080fd5b506104e77f5ebbf78043a2215b522b1366a193ec74dd1f54e441e841a87b9653246a9c49a681565b348015610c5557600080fd5b506104e7610c64366004614f7f565b612f80565b348015610c7557600080fd5b506104216130e4565b348015610c8a57600080fd5b506103a4610c99366004615663565b61319a565b6104e7610cac366004614f44565b61320d565b348015610cbd57600080fd5b5061046e610ccc3660046156a7565b6134bf565b6000610cdc826136e0565b80610d2857507f8da5cb5b000000000000000000000000000000000000000000000000000000007fffffffff000000000000000000000000000000000000000000000000000000008316145b80610d7457507f2a55205a000000000000000000000000000000000000000000000000000000007fffffffff000000000000000000000000000000000000000000000000000000008316145b80610dc057507f1a95c452000000000000000000000000000000000000000000000000000000007fffffffff000000000000000000000000000000000000000000000000000000008316145b92915050565b606060678054610dd59061574f565b80601f0160208091040260200160405190810160405280929190818152602001828054610e019061574f565b8015610e4e5780601f10610e2357610100808354040283529160200191610e4e565b820191906000526020600020905b815481529060010190602001808311610e3157829003601f168201915b5050505050905090565b6000610e6382613736565b610e99576040517fcf4700e400000000000000000000000000000000000000000000000000000000815260040160405180910390fd5b506000908152606b602052604090205473ffffffffffffffffffffffffffffffffffffffff1690565b6000610ecd826123d3565b90508073ffffffffffffffffffffffffffffffffffffffff168373ffffffffffffffffffffffffffffffffffffffff1603610f34576040517f943f7b8c00000000000000000000000000000000000000000000000000000000815260040160405180910390fd5b3373ffffffffffffffffffffffffffffffffffffffff821614801590610f615750610f5f813361319a565b155b15610f98576040517fcfb3b94200000000000000000000000000000000000000000000000000000000815260040160405180910390fd5b610fa3838383613788565b505050565b3360009081527f81fe90a866a48a634a12852c1be675b683a22307409932a7443b8029347be75660205260409020547f5ebbf78043a2215b522b1366a193ec74dd1f54e441e841a87b9653246a9c49a69060ff161580156110235750600081815260c96020908152604080832033845290915290205460ff16155b15611062576040517fcee8157c000000000000000000000000000000000000000000000000000000008152600481018290526024015b60405180910390fd5b73ffffffffffffffffffffffffffffffffffffffff82166110c7576040517f4fcf00aa00000000000000000000000000000000000000000000000000000000815273ffffffffffffffffffffffffffffffffffffffff83166004820152602401611059565b60fd80547fffffffffffffffffffffffff00000000000000000000000000000000000000001673ffffffffffffffffffffffffffffffffffffffff84169081179091556040513391907f70a7ea5c664ab9c21baf3da59bb2f1e1ca33557b08a0031fab4f17076744995190600090a35050565b3360009081527f81fe90a866a48a634a12852c1be675b683a22307409932a7443b8029347be756602052604090205460ff166111a2576040517f02bd6bd100000000000000000000000000000000000000000000000000000000815260040160405180910390fd5b6111ab81613809565b50565b610fa3838383613897565b73ffffffffffffffffffffffffffffffffffffffff811660009081527f81fe90a866a48a634a12852c1be675b683a22307409932a7443b8029347be756602052604081205460ff16610dc0565b6000600260975403611274576040517f08c379a000000000000000000000000000000000000000000000000000000000815260206004820152601f60248201527f5265656e7472616e637947756172643a207265656e7472616e742063616c6c006044820152606401611059565b600260975560fc54869074010000000000000000000000000000000000000000900467ffffffffffffffff166112cb6065547fffffffffffffffffffffffffffffffffffffffffffffffffffffffffffffffff0190565b6112d590836157cb565b111561130d576040517f717c513000000000000000000000000000000000000000000000000000000000815260040160405180910390fd5b611315613bdb565b61134b576040517f95ed3c1a00000000000000000000000000000000000000000000000000000000815260040160405180910390fd5b6113d3848480806020026020016040519081016040528093929190818152602001838360200280828437600092019190915250506101005491503390506040805173ffffffffffffffffffffffffffffffffffffffff909216602083015281018a90526060810189905260800160405160208183030381529060405280519060200120613c2a565b611409576040517f85b70e5200000000000000000000000000000000000000000000000000000000815260040160405180910390fd5b61141387866157e3565b34146114585761142387866157e3565b6040517f6a1c179e00000000000000000000000000000000000000000000000000000000815260040161105991815260200190565b3360009081526101016020526040812080548992906114789084906157cb565b909155505033600090815261010160205260409020548610156114c7576040517fa7b32bb100000000000000000000000000000000000000000000000000000000815260040160405180910390fd5b6114d13388613c40565b6000876114dc613c78565b6114e69190615820565b905085883373ffffffffffffffffffffffffffffffffffffffff167f4e26b0356a15833a75d497ecc40ebbb716b99466ed0dba9454f1fff451e25a908460405161153291815260200190565b60405180910390a46001609755979650505050505050565b60fd54600090819073ffffffffffffffffffffffffffffffffffffffff1661158e57505060fd5473ffffffffffffffffffffffffffffffffffffffff1660006115ee565b60fd5460fc5473ffffffffffffffffffffffffffffffffffffffff90911690612710906115df907c0100000000000000000000000000000000000000000000000000000000900461ffff16866157e3565b6115e99190615837565b915091505b9250929050565b600082815260c9602052604090206001015461161081613c89565b610fa38383613c93565b6040805161016081018252600080825260208201819052918101829052606081018290526080810182905260a0810182905260c0810182905260e0810182905261010081018290526101208101829052610140810191909152604051806101600160405280611687613d87565b15158152602001611696613bdb565b1515815260fe546cffffffffffffffffffffffffff8116602083015271010000000000000000000000000000000000810467ffffffffffffffff908116604084015260ff5480821660608501526801000000000000000081048216608085015270010000000000000000000000000000000090041660a0830152610100805460c08401526d010000000000000000000000000090910463ffffffff1660e0830152016117636065547fffffffffffffffffffffffffffffffffffffffffffffffffffffffffffffffff0190565b815260fc5474010000000000000000000000000000000000000000900467ffffffffffffffff16602090910152919050565b73ffffffffffffffffffffffffffffffffffffffff8116331461183a576040517f08c379a000000000000000000000000000000000000000000000000000000000815260206004820152602f60248201527f416363657373436f6e74726f6c3a2063616e206f6e6c792072656e6f756e636560448201527f20726f6c657320666f722073656c6600000000000000000000000000000000006064820152608401611059565b6118448282613dcc565b5050565b3360009081527f81fe90a866a48a634a12852c1be675b683a22307409932a7443b8029347be756602052604090205460ff166118b0576040517f02bd6bd100000000000000000000000000000000000000000000000000000000815260040160405180910390fd5b60fc80547fffffffffffffffffffffffff00000000000000000000000000000000000000001673ffffffffffffffffffffffffffffffffffffffff841617905580511561197c576040517f856a7ffa00000000000000000000000000000000000000000000000000000000815273ffffffffffffffffffffffffffffffffffffffff83169063856a7ffa90611949908490600401614f31565b600060405180830381600087803b15801561196357600080fd5b505af1158015611977573d6000803e3d6000fd5b505050505b7f046c5d913c35948c3e0e44c3599eb14bf33b73f141fa8bb282b300414998b868336040805173ffffffffffffffffffffffffffffffffffffffff928316815291851660208301520160405180910390a15050565b600260975403611a3d576040517f08c379a000000000000000000000000000000000000000000000000000000000815260206004820152601f60248201527f5265656e7472616e637947756172643a207265656e7472616e742063616c6c006044820152606401611059565b60026097553347600080611a5083612ebb565b73ffffffffffffffffffffffffffffffffffffffff861660009081527f81fe90a866a48a634a12852c1be675b683a22307409932a7443b8029347be7566020526040902054919350915060ff16158015611aef575073ffffffffffffffffffffffffffffffffffffffff841660009081527fd03cdf3c10c91dad37e9ca9c02fbe1f11ffc6444e6d8016f597109fa76c1648f602052604090205460ff16155b8015611b2757508173ffffffffffffffffffffffffffffffffffffffff168473ffffffffffffffffffffffffffffffffffffffff1614155b8015611b4e575060fd5473ffffffffffffffffffffffffffffffffffffffff858116911614155b15611b85576040517f1dab829b00000000000000000000000000000000000000000000000000000000815260040160405180910390fd5b8015611c395760008273ffffffffffffffffffffffffffffffffffffffff16826203345090604051600060405180830381858888f193505050503d8060008114611beb576040519150601f19603f3d011682016040523d82523d6000602084013e611bf0565b606091505b5050905080611c2b576040517f39debd5b00000000000000000000000000000000000000000000000000000000815260040160405180910390fd5b611c358285615820565b9350505b60fd5460405160009173ffffffffffffffffffffffffffffffffffffffff16906203345090869084818181858888f193505050503d8060008114611c99576040519150601f19603f3d011682016040523d82523d6000602084013e611c9e565b606091505b5050905080611cd9576040517f39debd5b00000000000000000000000000000000000000000000000000000000815260040160405180910390fd5b60fd5473ffffffffffffffffffffffffffffffffffffffff16336040805187815273ffffffffffffffffffffffffffffffffffffffff87811660208301529181018690529116907f8a95554e4c9dcaaf33f247387f2ee77390780487d3365e3a804788791a1df5009060600160405180910390a350506001609755505050565b3360009081527f81fe90a866a48a634a12852c1be675b683a22307409932a7443b8029347be75660205260409020547f5ebbf78043a2215b522b1366a193ec74dd1f54e441e841a87b9653246a9c49a69060ff16158015611dd45750600081815260c96020908152604080832033845290915290205460ff16155b15611e0e576040517fcee8157c00000000000000000000000000000000000000000000000000000000815260048101829052602401611059565b60fc5474010000000000000000000000000000000000000000900467ffffffffffffffff90811614611e6c576040517fe742c08400000000000000000000000000000000000000000000000000000000815260040160405180910390fd5b6065547fffffffffffffffffffffffffffffffffffffffffffffffffffffffffffffffff0160fc805467ffffffffffffffff9290921674010000000000000000000000000000000000000000027fffffffff0000000000000000ffffffffffffffffffffffffffffffffffffffff909216919091179055611eea3390565b60fc546040517401000000000000000000000000000000000000000090910467ffffffffffffffff16815273ffffffffffffffffffffffffffffffffffffffff91909116907fb6cc1e876b8d7479c8afe025a58658b0f3c3ec5bd0f28cb4261326b162069bf89060200160405180910390a250565b610fa38383836040518060200160405280600081525061297f565b6111ab816001613e87565b6000611faf7f4e5f991bca30eca2d4643aaefa807e88f96a4a97398933d572a3c0d973004a015490565b15612016576040517f08c379a000000000000000000000000000000000000000000000000000000000815260206004820152601e60248201527f484f4c4f47524150483a20616c726561647920696e697469616c697a656400006044820152606401611059565b61010280547fffffffffffffffffffffffffffffffffffffffffffffffffffffffffffff000016610100179055815160009061205b908401602090810190850161596f565b805161010380547fffffffffffffffffffffffff000000000000000000000000000000000000000090811673ffffffffffffffffffffffffffffffffffffffff9384161790915560208084015161010280547fffffffffffffffffffff0000000000000000000000000000000000000000ffff16620100009286169290920291909117905560408401516101048054909316931692909217905560608201518051929350612110926067929190910190614dd7565b506080810151805161212a91606891602090910190614dd7565b50600160655560a081015161214190600090614186565b61214e8160a00151613809565b610120810151511561217f57612165600033614186565b6121738161012001516128c8565b5061217f600033613dcc565b60fc546113887c010000000000000000000000000000000000000000000000000000000090910461ffff1611156121e6576040517f6680e9820000000000000000000000000000000000000000000000000000000081526113886004820152602401611059565b60e081015160fc805461014084015161010085015161ffff167c0100000000000000000000000000000000000000000000000000000000027fffff0000ffffffffffffffff000000000000000000000000000000000000000067ffffffffffffffff9095167401000000000000000000000000000000000000000002949094167fffff0000000000000000000000000000000000000000000000000000000000009092169190911773ffffffffffffffffffffffffffffffffffffffff9182169081179390931790915560c083015160fd8054919092167fffffffffffffffffffffffff0000000000000000000000000000000000000000919091161790556101608201516040517f856a7ffa00000000000000000000000000000000000000000000000000000000815263856a7ffa9161232391600401614f31565b600060405180830381600087803b15801561233d57600080fd5b505af1158015612351573d6000803e3d6000fd5b505061010280547fffffffffffffffffffffffffffffffffffffffffffffffffffffffffffff0000166001179055506123ab905060017f4e5f991bca30eca2d4643aaefa807e88f96a4a97398933d572a3c0d973004a0155565b507f4ddf47d40000000000000000000000000000000000000000000000000000000092915050565b60006123de82614190565b5192915050565b600073ffffffffffffffffffffffffffffffffffffffff8216612434576040517f8f4eb60400000000000000000000000000000000000000000000000000000000815260040160405180910390fd5b5073ffffffffffffffffffffffffffffffffffffffff166000908152606a602052604090205467ffffffffffffffff1690565b3360009081527f81fe90a866a48a634a12852c1be675b683a22307409932a7443b8029347be756602052604090205460ff166124cf576040517f02bd6bd100000000000000000000000000000000000000000000000000000000815260040160405180910390fd5b61010454309073ffffffffffffffffffffffffffffffffffffffff16612521576040517f707ff7e900000000000000000000000000000000000000000000000000000000815260040160405180910390fd5b610105546040517fc3c5a54700000000000000000000000000000000000000000000000000000000815273ffffffffffffffffffffffffffffffffffffffff83811660048301529091169063c3c5a547906024016020604051808303816000875af1158015612594573d6000803e3d6000fd5b505050506040513d601f19601f820116820180604052508101906125b89190615ad9565b1580156125c25750815b1561265d5761010554610104546040517f7d3e3dbe00000000000000000000000000000000000000000000000000000000815273ffffffffffffffffffffffffffffffffffffffff84811660048301529182166024820152911690637d3e3dbe906044015b600060405180830381600087803b15801561264157600080fd5b505af1158015612655573d6000803e3d6000fd5b505050505050565b81156126c75761010554610104546040517fb314d41400000000000000000000000000000000000000000000000000000000815273ffffffffffffffffffffffffffffffffffffffff8481166004830152918216602482015291169063b314d41490604401612627565b610105546040517f34a0dc1000000000000000000000000000000000000000000000000000000000815273ffffffffffffffffffffffffffffffffffffffff838116600483015260006024830152909116906334a0dc1090604401600060405180830381600087803b15801561273c57600080fd5b505af1158015612750573d6000803e3d6000fd5b5050610105546040517f2ec2c24600000000000000000000000000000000000000000000000000000000815273ffffffffffffffffffffffffffffffffffffffff85811660048301529091169250632ec2c2469150602401612627565b60006127ce60fb5473ffffffffffffffffffffffffffffffffffffffff1690565b905090565b606060688054610dd59061574f565b3373ffffffffffffffffffffffffffffffffffffffff831603612831576040517fb06307db00000000000000000000000000000000000000000000000000000000815260040160405180910390fd5b336000818152606c6020908152604080832073ffffffffffffffffffffffffffffffffffffffff87168085529083529281902080547fffffffffffffffffffffffffffffffffffffffffffffffffffffffffffffff001686151590811790915590519081529192917f17307eab39ab6107e8899845ad3d59bd9653f200f220920489ca2b5937696c31910160405180910390a35050565b6060815167ffffffffffffffff8111156128e4576128e46151cc565b60405190808252806020026020018201604052801561291757816020015b60608152602001906001900390816129025790505b50905060005b8251811015612979576129493084838151811061293c5761293c615af6565b602002602001015161436b565b82828151811061295b5761295b615af6565b6020026020010181905250808061297190615b25565b91505061291d565b50919050565b61298a848484613897565b73ffffffffffffffffffffffffffffffffffffffff83163b151580156129b957506129b784848484614390565b155b156129f0576040517fd1a57ed600000000000000000000000000000000000000000000000000000000815260040160405180910390fd5b50505050565b3360009081527f81fe90a866a48a634a12852c1be675b683a22307409932a7443b8029347be75660205260408120547ff0887ba65ee2024ea881d91b74c2450ef19e1557f03bed3ea9f16b037cbe2dc99060ff16158015612a715750600081815260c96020908152604080832033845290915290205460ff16155b15612aab576040517fcee8157c00000000000000000000000000000000000000000000000000000000815260048101829052602401611059565b60fc54839074010000000000000000000000000000000000000000900467ffffffffffffffff16612afd6065547fffffffffffffffffffffffffffffffffffffffffffffffffffffffffffffffff0190565b612b0790836157cb565b1115612b3f576040517f717c513000000000000000000000000000000000000000000000000000000000815260040160405180910390fd5b606554808581015b80831015612b8d57612b828888848603818110612b6657612b66615af6565b9050602002016020810190612b7b9190614fab565b6001613c40565b600190920191612b47565b50612b96613c78565b979650505050505050565b3360009081527f81fe90a866a48a634a12852c1be675b683a22307409932a7443b8029347be756602052604090205460609060ff16612c0c576040517f02bd6bd100000000000000000000000000000000000000000000000000000000815260040160405180910390fd5b61010554604051600091829173ffffffffffffffffffffffffffffffffffffffff90911690612c3e9087908790615b5d565b6000604051808303816000865af19150503d8060008114612c7b576040519150601f19603f3d011682016040523d82523d6000602084013e612c80565b606091505b509150915081612cbc576040517f25f3885400000000000000000000000000000000000000000000000000000000815260040160405180910390fd5b949350505050565b6060612ccf82613736565b612d05576040517fa14c4b5000000000000000000000000000000000000000000000000000000000815260040160405180910390fd5b60fc546040517fc87b56dd0000000000000000000000000000000000000000000000000000000081526004810184905273ffffffffffffffffffffffffffffffffffffffff9091169063c87b56dd90602401600060405180830381865afa158015612d74573d6000803e3d6000fd5b505050506040513d6000823e601f3d9081017fffffffffffffffffffffffffffffffffffffffffffffffffffffffffffffffe0168201604052610dc09190810190615b6d565b612dde60405180606001604052806000815260200160008152602001600081525090565b6040518060600160405280612e2c8473ffffffffffffffffffffffffffffffffffffffff166000908152606a602052604090205467ffffffffffffffff680100000000000000009091041690565b815273ffffffffffffffffffffffffffffffffffffffff841660008181526101016020908152604080832054828601819052938352606a909152908190205492019168010000000000000000900467ffffffffffffffff16612e8e9190615820565b905292915050565b600082815260c96020526040902060010154612eb181613c89565b610fa38383613dcc565b610103546040517fdb31de5900000000000000000000000000000000000000000000000000000000815230600482015260009182918291829173ffffffffffffffffffffffffffffffffffffffff9091169063db31de599060240160408051808303816000875af1158015612f34573d6000803e3d6000fd5b505050506040513d601f19601f82011682018060405250810190612f589190615ba2565b909250905081612710612f6b83886157e3565b612f759190615837565b935093505050915091565b3360009081527f81fe90a866a48a634a12852c1be675b683a22307409932a7443b8029347be75660205260408120547ff0887ba65ee2024ea881d91b74c2450ef19e1557f03bed3ea9f16b037cbe2dc99060ff16158015612ffb5750600081815260c96020908152604080832033845290915290205460ff16155b15613035576040517fcee8157c00000000000000000000000000000000000000000000000000000000815260048101829052602401611059565b60fc54839074010000000000000000000000000000000000000000900467ffffffffffffffff166130876065547fffffffffffffffffffffffffffffffffffffffffffffffffffffffffffffffff0190565b61309190836157cb565b11156130c9576040517f717c513000000000000000000000000000000000000000000000000000000000815260040160405180910390fd5b6130d38585613c40565b6130db613c78565b95945050505050565b60fc54604080517fe8a3d485000000000000000000000000000000000000000000000000000000008152905160609273ffffffffffffffffffffffffffffffffffffffff169163e8a3d4859160048083019260009291908290030181865afa158015613154573d6000803e3d6000fd5b505050506040513d6000823e601f3d9081017fffffffffffffffffffffffffffffffffffffffffffffffffffffffffffffffe01682016040526127ce9190810190615b6d565b6101025460009073ffffffffffffffffffffffffffffffffffffffff620100009091048116908316036131cf57506001610dc0565b73ffffffffffffffffffffffffffffffffffffffff8084166000908152606c602090815260408083209386168352929052205460ff165b9392505050565b600060026097540361327b576040517f08c379a000000000000000000000000000000000000000000000000000000000815260206004820152601f60248201527f5265656e7472616e637947756172643a207265656e7472616e742063616c6c006044820152606401611059565b600260975560fc54829074010000000000000000000000000000000000000000900467ffffffffffffffff166132d26065547fffffffffffffffffffffffffffffffffffffffffffffffffffffffffffffffff0190565b6132dc90836157cb565b1115613314576040517f717c513000000000000000000000000000000000000000000000000000000000815260040160405180910390fd5b61331c613d87565b613352576040517ff12dcc7f00000000000000000000000000000000000000000000000000000000815260040160405180910390fd5b60fe546cffffffffffffffffffffffffff1661336e84826157e3565b341461337e5761142384826157e3565b60fe546d0100000000000000000000000000900463ffffffff1615801590613408575060fe543360009081526101016020908152604080832054606a909252909120546d010000000000000000000000000090920463ffffffff1691869068010000000000000000900467ffffffffffffffff166133fc91906157cb565b6134069190615820565b115b1561343f576040517f220ae94c00000000000000000000000000000000000000000000000000000000815260040160405180910390fd5b6134493385613c40565b600084613454613c78565b61345e9190615820565b905081853373ffffffffffffffffffffffffffffffffffffffff167f4e26b0356a15833a75d497ecc40ebbb716b99466ed0dba9454f1fff451e25a90846040516134aa91815260200190565b60405180910390a46001609755949350505050565b3360009081527f81fe90a866a48a634a12852c1be675b683a22307409932a7443b8029347be75660205260409020547f5ebbf78043a2215b522b1366a193ec74dd1f54e441e841a87b9653246a9c49a69060ff1615801561353a5750600081815260c96020908152604080832033845290915290205460ff16155b15613574576040517fcee8157c00000000000000000000000000000000000000000000000000000000815260048101829052602401611059565b60fe80546cffffffffffffffffffffffffff8a167fffffffffffffffffffffffffffffff0000000000000000000000000000000000909116176d010000000000000000000000000063ffffffff8a1602177fffffffffffffff0000000000000000ffffffffffffffffffffffffffffffffff167101000000000000000000000000000000000067ffffffffffffffff898116919091029190911790915560ff80548783167fffffffffffffffffffffffffffffffff00000000000000000000000000000000909116176801000000000000000087841602177fffffffffffffffff0000000000000000ffffffffffffffffffffffffffffffff16700100000000000000000000000000000000928616929092029190911790556101008290553373ffffffffffffffffffffffffffffffffffffffff167fc1ff5e4744ac8dd2b8027a10e3723b165975297501c71c4e7dcb8796d96375db60405160405180910390a25050505050505050565b60007fffffffff0000000000000000000000000000000000000000000000000000000082167f7965db0b000000000000000000000000000000000000000000000000000000001480610dc05750610dc082614509565b60008160011115801561374a575060655482105b8015610dc05750506000908152606960205260409020547c0100000000000000000000000000000000000000000000000000000000900460ff161590565b6000828152606b602052604080822080547fffffffffffffffffffffffff00000000000000000000000000000000000000001673ffffffffffffffffffffffffffffffffffffffff87811691821790925591518593918516917f8c5be1e5ebec7d5bd14f71427d1e84f3dd0314c0f7b2291e5b200ac8c7c3b92591a4505050565b60fb5460405173ffffffffffffffffffffffffffffffffffffffff8084169216907f8be0079c531659141344cd1fd0a4f28419497f9722a3daafe3b4186f6b6457e090600090a360fb80547fffffffffffffffffffffffff00000000000000000000000000000000000000001673ffffffffffffffffffffffffffffffffffffffff92909216919091179055565b60006138a282614190565b90508373ffffffffffffffffffffffffffffffffffffffff16816000015173ffffffffffffffffffffffffffffffffffffffff161461390d576040517fa114810000000000000000000000000000000000000000000000000000000000815260040160405180910390fd5b60003373ffffffffffffffffffffffffffffffffffffffff861614806139385750613938853361319a565b8061396057503361394884610e58565b73ffffffffffffffffffffffffffffffffffffffff16145b905080613999576040517f59c896be00000000000000000000000000000000000000000000000000000000815260040160405180910390fd5b73ffffffffffffffffffffffffffffffffffffffff84166139e6576040517fea553b3400000000000000000000000000000000000000000000000000000000815260040160405180910390fd5b6139f385858560016145ec565b6139ff60008487613788565b73ffffffffffffffffffffffffffffffffffffffff8581166000908152606a6020908152604080832080547fffffffffffffffffffffffffffffffffffffffffffffffff000000000000000080821667ffffffffffffffff9283167fffffffffffffffffffffffffffffffffffffffffffffffffffffffffffffffff01831617909255898616808652838620805493841693831660019081018416949094179055898652606990945282852080547fffffffff00000000000000000000000000000000000000000000000000000000169094177401000000000000000000000000000000000000000042909216919091021783558701808452922080549193909116613b76576065548214613b76578054602086015167ffffffffffffffff1674010000000000000000000000000000000000000000027fffffffff0000000000000000000000000000000000000000000000000000000090911673ffffffffffffffffffffffffffffffffffffffff8a16171781555b505050828473ffffffffffffffffffffffffffffffffffffffff168673ffffffffffffffffffffffffffffffffffffffff167fddf252ad1be2c89b69c2b068fc378daa952ba7f163c4a11628f55a4df523b3ef60405160405180910390a45050505050565b60ff54600090426801000000000000000090910467ffffffffffffffff16118015906127ce57505060ff544270010000000000000000000000000000000090910467ffffffffffffffff161190565b600082613c378584614701565b14949350505050565b600060088211613c505781613c53565b60085b9050613c5f8382614775565b613c698183615820565b91505060008111613c40575050565b600060016065546127ce9190615820565b6111ab813361495e565b600082815260c96020908152604080832073ffffffffffffffffffffffffffffffffffffffff8516845290915290205460ff1661184457600082815260c96020908152604080832073ffffffffffffffffffffffffffffffffffffffff85168452909152902080547fffffffffffffffffffffffffffffffffffffffffffffffffffffffffffffff00166001179055613d293390565b73ffffffffffffffffffffffffffffffffffffffff168173ffffffffffffffffffffffffffffffffffffffff16837f2f8788117e7eff1d82e926ec794901d17c78024a50270940304540a733656f0d60405160405180910390a45050565b60fe54600090427101000000000000000000000000000000000090910467ffffffffffffffff16118015906127ce57505060ff544267ffffffffffffffff9091161190565b600082815260c96020908152604080832073ffffffffffffffffffffffffffffffffffffffff8516845290915290205460ff161561184457600082815260c96020908152604080832073ffffffffffffffffffffffffffffffffffffffff8516808552925280832080547fffffffffffffffffffffffffffffffffffffffffffffffffffffffffffffff0016905551339285917ff6391f5c32d9c69d2a47ea670b442974b53935d1edc7fd64eb21e047a839171b9190a45050565b6000613e9283614190565b80519091508215613f2b5760003373ffffffffffffffffffffffffffffffffffffffff83161480613ec85750613ec8823361319a565b80613ef0575033613ed886610e58565b73ffffffffffffffffffffffffffffffffffffffff16145b905080613f29576040517f59c896be00000000000000000000000000000000000000000000000000000000815260040160405180910390fd5b505b613f398160008660016145ec565b613f4560008583613788565b73ffffffffffffffffffffffffffffffffffffffff8082166000818152606a6020908152604080832080547001000000000000000000000000000000007fffffffffffffffffffffffffffffffffffffffffffffffffffffffffffffffff67ffffffffffffffff8084169190910181167fffffffffffffffffffffffffffffffffffffffffffffffff0000000000000000841681178390048216600190810183169093027fffffffffffffffff0000000000000000ffffffffffffffff0000000000000000909416179290921783558b8652606990945282852080547fffffff00ffffffffffffffffffffffffffffffffffffffffffffffffffffffff4290931674010000000000000000000000000000000000000000027fffffffff0000000000000000000000000000000000000000000000000000000090911690971796909617167c010000000000000000000000000000000000000000000000000000000017855591890180845292208054919490911661412e57606554821461412e578054602087015167ffffffffffffffff1674010000000000000000000000000000000000000000027fffffffff0000000000000000000000000000000000000000000000000000000090911673ffffffffffffffffffffffffffffffffffffffff8716171781555b50506040518692506000915073ffffffffffffffffffffffffffffffffffffffff8416907fddf252ad1be2c89b69c2b068fc378daa952ba7f163c4a11628f55a4df523b3ef908390a450506066805460010190555050565b6118448282613c93565b604080516060810182526000808252602082018190529181019190915281806001111580156141c0575060655481105b15614339576000818152606960209081526040918290208251606081018452905473ffffffffffffffffffffffffffffffffffffffff8116825274010000000000000000000000000000000000000000810467ffffffffffffffff16928201929092527c010000000000000000000000000000000000000000000000000000000090910460ff1615159181018290529061433757805173ffffffffffffffffffffffffffffffffffffffff1615614278579392505050565b507fffffffffffffffffffffffffffffffffffffffffffffffffffffffffffffffff016000818152606960209081526040918290208251606081018452905473ffffffffffffffffffffffffffffffffffffffff811680835274010000000000000000000000000000000000000000820467ffffffffffffffff16938301939093527c0100000000000000000000000000000000000000000000000000000000900460ff1615159281019290925215614332579392505050565b614278565b505b6040517fdf2d9b4200000000000000000000000000000000000000000000000000000000815260040160405180910390fd5b60606132068383604051806060016040528060278152602001615cff60279139614a30565b6040517f150b7a0200000000000000000000000000000000000000000000000000000000815260009073ffffffffffffffffffffffffffffffffffffffff85169063150b7a02906143eb903390899088908890600401615bd0565b6020604051808303816000875af1925050508015614444575060408051601f3d9081017fffffffffffffffffffffffffffffffffffffffffffffffffffffffffffffffe016820190925261444191810190615c0f565b60015b6144bb573d808015614472576040519150601f19603f3d011682016040523d82523d6000602084013e614477565b606091505b5080516000036144b3576040517fd1a57ed600000000000000000000000000000000000000000000000000000000815260040160405180910390fd5b805181602001fd5b7fffffffff00000000000000000000000000000000000000000000000000000000167f150b7a0200000000000000000000000000000000000000000000000000000000149050949350505050565b60007fffffffff0000000000000000000000000000000000000000000000000000000082167f80ac58cd00000000000000000000000000000000000000000000000000000000148061459c57507fffffffff0000000000000000000000000000000000000000000000000000000082167f5b5e139f00000000000000000000000000000000000000000000000000000000145b80610dc057507f01ffc9a7000000000000000000000000000000000000000000000000000000007fffffffff00000000000000000000000000000000000000000000000000000000831614610dc0565b73ffffffffffffffffffffffffffffffffffffffff8416331480159061462b57506101055473ffffffffffffffffffffffffffffffffffffffff163b15155b156129f057610105546040517fc617113400000000000000000000000000000000000000000000000000000000815230600482015233602482015273ffffffffffffffffffffffffffffffffffffffff9091169063c617113490604401602060405180830381865afa1580156146a5573d6000803e3d6000fd5b505050506040513d601f19601f820116820180604052508101906146c99190615ad9565b6129f0576040517fede71dcc000000000000000000000000000000000000000000000000000000008152336004820152602401611059565b600081815b845181101561476d57600085828151811061472357614723615af6565b60200260200101519050808311614749576000838152602082905260409020925061475a565b600081815260208490526040902092505b508061476581615b25565b915050614706565b509392505050565b60655473ffffffffffffffffffffffffffffffffffffffff83166147c5576040517f2e07630000000000000000000000000000000000000000000000000000000000815260040160405180910390fd5b816000036147ff576040517fb562e8dd00000000000000000000000000000000000000000000000000000000815260040160405180910390fd5b61480c60008483856145ec565b73ffffffffffffffffffffffffffffffffffffffff83166000818152606a6020908152604080832080547fffffffffffffffffffffffffffffffff00000000000000000000000000000000811667ffffffffffffffff8083168a018116918217680100000000000000007fffffffffffffffffffffffffffffffffffffffffffffffff000000000000000090941690921783900481168a01811690920217909155858452606990925290912080547fffffffff0000000000000000000000000000000000000000000000000000000016909217740100000000000000000000000000000000000000004290921691909102179055808083015b60405160018301929073ffffffffffffffffffffffffffffffffffffffff8716906000907fddf252ad1be2c89b69c2b068fc378daa952ba7f163c4a11628f55a4df523b3ef908290a48082036149055750606555505050565b600082815260c96020908152604080832073ffffffffffffffffffffffffffffffffffffffff8516845290915290205460ff16611844576149b68173ffffffffffffffffffffffffffffffffffffffff166014614ab5565b6149c1836020614ab5565b6040516020016149d2929190615c2c565b604080517fffffffffffffffffffffffffffffffffffffffffffffffffffffffffffffffe0818403018152908290527f08c379a000000000000000000000000000000000000000000000000000000000825261105991600401614f31565b60606000808573ffffffffffffffffffffffffffffffffffffffff1685604051614a5a9190615cad565b600060405180830381855af49150503d8060008114614a95576040519150601f19603f3d011682016040523d82523d6000602084013e614a9a565b606091505b5091509150614aab86838387614cf8565b9695505050505050565b60606000614ac48360026157e3565b614acf9060026157cb565b67ffffffffffffffff811115614ae757614ae76151cc565b6040519080825280601f01601f191660200182016040528015614b11576020820181803683370190505b5090507f300000000000000000000000000000000000000000000000000000000000000081600081518110614b4857614b48615af6565b60200101907effffffffffffffffffffffffffffffffffffffffffffffffffffffffffffff1916908160001a9053507f780000000000000000000000000000000000000000000000000000000000000081600181518110614bab57614bab615af6565b60200101907effffffffffffffffffffffffffffffffffffffffffffffffffffffffffffff1916908160001a9053506000614be78460026157e3565b614bf29060016157cb565b90505b6001811115614c8f577f303132333435363738396162636465660000000000000000000000000000000085600f1660108110614c3357614c33615af6565b1a60f81b828281518110614c4957614c49615af6565b60200101907effffffffffffffffffffffffffffffffffffffffffffffffffffffffffffff1916908160001a90535060049490941c93614c8881615cc9565b9050614bf5565b508315613206576040517f08c379a000000000000000000000000000000000000000000000000000000000815260206004820181905260248201527f537472696e67733a20686578206c656e67746820696e73756666696369656e746044820152606401611059565b60608315614d8e578251600003614d875773ffffffffffffffffffffffffffffffffffffffff85163b614d87576040517f08c379a000000000000000000000000000000000000000000000000000000000815260206004820152601d60248201527f416464726573733a2063616c6c20746f206e6f6e2d636f6e74726163740000006044820152606401611059565b5081612cbc565b612cbc8383815115614da35781518083602001fd5b806040517f08c379a00000000000000000000000000000000000000000000000000000000081526004016110599190614f31565b828054614de39061574f565b90600052602060002090601f016020900481019282614e055760008555614e4b565b82601f10614e1e57805160ff1916838001178555614e4b565b82800160010185558215614e4b579182015b82811115614e4b578251825591602001919060010190614e30565b50614e57929150614e5b565b5090565b5b80821115614e575760008155600101614e5c565b7fffffffff00000000000000000000000000000000000000000000000000000000811681146111ab57600080fd5b600060208284031215614eb057600080fd5b813561320681614e70565b60005b83811015614ed6578181015183820152602001614ebe565b838111156129f05750506000910152565b60008151808452614eff816020860160208601614ebb565b601f017fffffffffffffffffffffffffffffffffffffffffffffffffffffffffffffffe0169290920160200192915050565b6020815260006132066020830184614ee7565b600060208284031215614f5657600080fd5b5035919050565b73ffffffffffffffffffffffffffffffffffffffff811681146111ab57600080fd5b60008060408385031215614f9257600080fd5b8235614f9d81614f5d565b946020939093013593505050565b600060208284031215614fbd57600080fd5b813561320681614f5d565b600080600060608486031215614fdd57600080fd5b8335614fe881614f5d565b92506020840135614ff881614f5d565b929592945050506040919091013590565b60008083601f84011261501b57600080fd5b50813567ffffffffffffffff81111561503357600080fd5b6020830191508360208260051b85010111156115ee57600080fd5b60008060008060006080868803121561506657600080fd5b853594506020860135935060408601359250606086013567ffffffffffffffff81111561509257600080fd5b61509e88828901615009565b969995985093965092949392505050565b600080604083850312156150c257600080fd5b50508035926020909101359150565b600080604083850312156150e457600080fd5b8235915060208301356150f681614f5d565b809150509250929050565b8151151581526101608101602083015161511f602084018215159052565b50604083015160408301526060830151615145606084018267ffffffffffffffff169052565b506080830151615161608084018267ffffffffffffffff169052565b5060a083015161517d60a084018267ffffffffffffffff169052565b5060c083015161519960c084018267ffffffffffffffff169052565b5060e083810151908301526101008084015190830152610120808401519083015261014092830151929091019190915290565b7f4e487b7100000000000000000000000000000000000000000000000000000000600052604160045260246000fd5b604051610180810167ffffffffffffffff8111828210171561521f5761521f6151cc565b60405290565b604051601f82017fffffffffffffffffffffffffffffffffffffffffffffffffffffffffffffffe016810167ffffffffffffffff8111828210171561526c5761526c6151cc565b604052919050565b600067ffffffffffffffff82111561528e5761528e6151cc565b50601f017fffffffffffffffffffffffffffffffffffffffffffffffffffffffffffffffe01660200190565b600082601f8301126152cb57600080fd5b81356152de6152d982615274565b615225565b8181528460208386010111156152f357600080fd5b816020850160208301376000918101602001919091529392505050565b6000806040838503121561532357600080fd5b823561532e81614f5d565b9150602083013567ffffffffffffffff81111561534a57600080fd5b615356858286016152ba565b9150509250929050565b60006020828403121561537257600080fd5b813567ffffffffffffffff81111561538957600080fd5b612cbc848285016152ba565b80151581146111ab57600080fd5b6000602082840312156153b557600080fd5b813561320681615395565b600080604083850312156153d357600080fd5b82356153de81614f5d565b915060208301356150f681615395565b600067ffffffffffffffff821115615408576154086151cc565b5060051b60200190565b6000602080838503121561542557600080fd5b823567ffffffffffffffff8082111561543d57600080fd5b818501915085601f83011261545157600080fd5b813561545f6152d9826153ee565b81815260059190911b8301840190848101908883111561547e57600080fd5b8585015b838110156154b65780358581111561549a5760008081fd5b6154a88b89838a01016152ba565b845250918601918601615482565b5098975050505050505050565b6000602080830181845280855180835260408601915060408160051b870101925083870160005b82811015615536577fffffffffffffffffffffffffffffffffffffffffffffffffffffffffffffffc0888603018452615524858351614ee7565b945092850192908501906001016154ea565b5092979650505050505050565b6000806000806080858703121561555957600080fd5b843561556481614f5d565b9350602085013561557481614f5d565b925060408501359150606085013567ffffffffffffffff81111561559757600080fd5b6155a3878288016152ba565b91505092959194509250565b600080602083850312156155c257600080fd5b823567ffffffffffffffff8111156155d957600080fd5b6155e585828601615009565b90969095509350505050565b6000806020838503121561560457600080fd5b823567ffffffffffffffff8082111561561c57600080fd5b818501915085601f83011261563057600080fd5b81358181111561563f57600080fd5b86602082850101111561565157600080fd5b60209290920196919550909350505050565b6000806040838503121561567657600080fd5b823561568181614f5d565b915060208301356150f681614f5d565b67ffffffffffffffff811681146111ab57600080fd5b600080600080600080600060e0888a0312156156c257600080fd5b87356cffffffffffffffffffffffffff811681146156df57600080fd5b9650602088013563ffffffff811681146156f857600080fd5b9550604088013561570881615691565b9450606088013561571881615691565b9350608088013561572881615691565b925060a088013561573881615691565b8092505060c0880135905092959891949750929550565b600181811c9082168061576357607f821691505b602082108103612979577f4e487b7100000000000000000000000000000000000000000000000000000000600052602260045260246000fd5b7f4e487b7100000000000000000000000000000000000000000000000000000000600052601160045260246000fd5b600082198211156157de576157de61579c565b500190565b6000817fffffffffffffffffffffffffffffffffffffffffffffffffffffffffffffffff048311821515161561581b5761581b61579c565b500290565b6000828210156158325761583261579c565b500390565b60008261586d577f4e487b7100000000000000000000000000000000000000000000000000000000600052601260045260246000fd5b500490565b805161587d81614f5d565b919050565b600082601f83011261589357600080fd5b81516158a16152d982615274565b8181528460208386010111156158b657600080fd5b612cbc826020830160208701614ebb565b805161587d81615691565b805161ffff8116811461587d57600080fd5b600082601f8301126158f557600080fd5b815160206159056152d9836153ee565b82815260059290921b8401810191818101908684111561592457600080fd5b8286015b8481101561596457805167ffffffffffffffff8111156159485760008081fd5b6159568986838b0101615882565b845250918301918301615928565b509695505050505050565b60006020828403121561598157600080fd5b815167ffffffffffffffff8082111561599957600080fd5b9083019061018082860312156159ae57600080fd5b6159b66151fb565b6159bf83615872565b81526159cd60208401615872565b60208201526159de60408401615872565b60408201526060830151828111156159f557600080fd5b615a0187828601615882565b606083015250608083015182811115615a1957600080fd5b615a2587828601615882565b608083015250615a3760a08401615872565b60a0820152615a4860c08401615872565b60c0820152615a5960e084016158c7565b60e0820152610100615a6c8185016158d2565b908201526101208381015183811115615a8457600080fd5b615a90888287016158e4565b828401525050610140615aa4818501615872565b908201526101608381015183811115615abc57600080fd5b615ac888828701615882565b918301919091525095945050505050565b600060208284031215615aeb57600080fd5b815161320681615395565b7f4e487b7100000000000000000000000000000000000000000000000000000000600052603260045260246000fd5b60007fffffffffffffffffffffffffffffffffffffffffffffffffffffffffffffffff8203615b5657615b5661579c565b5060010190565b8183823760009101908152919050565b600060208284031215615b7f57600080fd5b815167ffffffffffffffff811115615b9657600080fd5b612cbc84828501615882565b60008060408385031215615bb557600080fd5b8251615bc081614f5d565b6020939093015192949293505050565b600073ffffffffffffffffffffffffffffffffffffffff808716835280861660208401525083604083015260806060830152614aab6080830184614ee7565b600060208284031215615c2157600080fd5b815161320681614e70565b7f416363657373436f6e74726f6c3a206163636f756e7420000000000000000000815260008351615c64816017850160208801614ebb565b7f206973206d697373696e6720726f6c65200000000000000000000000000000006017918401918201528351615ca1816028840160208801614ebb565b01602801949350505050565b60008251615cbf818460208701614ebb565b9190910192915050565b600081615cd857615cd861579c565b507fffffffffffffffffffffffffffffffffffffffffffffffffffffffffffffffff019056fe416464726573733a206c6f772d6c6576656c2064656c65676174652063616c6c206661696c6564a164736f6c634300080d000a",
  "devdoc": {
    "details": "For drops: assumes 1. linear mint order, 2. max number of mints needs to be less than max_uint64",
    "errors": {
      "MarketFilterAddressNotSupportedForChain()": [
        {
          "details": "Used for enabling and disabling filter for the given chain."
        }
      ],
      "OperatorNotAllowed(address)": [
        {
          "details": "Used when strict enforcement of marketplaces for creator royalties is desired."
        }
      ],
      "RemoteOperatorFilterRegistryCallFailed()": [
        {
          "details": "Used for bubbling error up to clients."
        }
      ]
    },
    "kind": "dev",
    "methods": {
      "adminMint(address,uint256)": {
        "params": {
          "quantity": "quantity to mint",
          "recipient": "recipient to mint to"
        }
      },
      "adminMintAirdrop(address[])": {
        "details": "Mints multiple editions to the given list of addresses.",
        "params": {
          "recipients": "list of addresses to send the newly minted editions to"
        }
      },
      "approve(address,uint256)": {
        "details": "See {IERC721-approve}."
      },
      "balanceOf(address)": {
        "details": "See {IERC721-balanceOf}."
      },
      "burn(uint256)": {
        "params": {
          "tokenId": "Token ID to burn"
        }
      },
      "contractURI()": {
        "returns": {
          "_0": "Contract URI"
        }
      },
      "getApproved(uint256)": {
        "details": "See {IERC721-getApproved}."
      },
      "getRoleAdmin(bytes32)": {
        "details": "Returns the admin role that controls `role`. See {grantRole} and {revokeRole}. To change a role's admin, use {_setRoleAdmin}."
      },
      "grantRole(bytes32,address)": {
        "details": "Grants `role` to `account`. If `account` had not been already granted `role`, emits a {RoleGranted} event. Requirements: - the caller must have ``role``'s admin role."
      },
      "hasRole(bytes32,address)": {
        "details": "Returns `true` if `account` has been granted `role`."
      },
      "holographFeeForAmount(uint256)": {
        "details": "Gets the holograph fee for amount of withdraw",
        "params": {
          "amount": "amount of funds to get fee for"
        }
      },
      "init(bytes)": {
        "details": "Initialize a new drop contract"
      },
      "isAdmin(address)": {
        "details": "Getter for admin role associated with the contract to handle metadata",
        "returns": {
          "_0": "boolean if address is admin"
        }
      },
      "isApprovedForAll(address,address)": {
        "details": "Setup auto-approval for marketplace access to sell NFT      Still requires approval for module",
        "params": {
          "nftOwner": "owner of the nft",
          "operator": "operator wishing to transfer/burn/etc the NFTs"
        }
      },
      "manageMarketFilterSubscription(bool)": {
        "params": {
          "enable": "Enable filtering to non-royalty payout marketplaces"
        }
      },
      "mintedPerAddress(address)": {
        "details": "Number of NFTs the user has minted per address",
        "params": {
          "minter": "to get counts for"
        }
      },
      "multicall(bytes[])": {
        "details": "Receives and executes a batch of function calls on this contract."
      },
      "name()": {
        "details": "See {IERC721Metadata-name}."
      },
      "owner()": {
        "returns": {
          "_0": "user owner address"
        }
      },
      "ownerOf(uint256)": {
        "details": "See {IERC721-ownerOf}."
      },
      "purchase(uint256)": {
        "details": "This allows the user to purchase/mint a edition at the given price in the contract."
      },
      "purchasePresale(uint256,uint256,uint256,bytes32[])": {
        "params": {
          "maxQuantity": "max quantity that can be purchased via merkle proof #",
          "merkleProof": "proof for presale mint",
          "pricePerToken": "price that each token is purchased at",
          "quantity": "quantity to purchase"
        }
      },
      "renounceRole(bytes32,address)": {
        "details": "Revokes `role` from the calling account. Roles are often managed via {grantRole} and {revokeRole}: this function's purpose is to provide a mechanism for accounts to lose their privileges if they are compromised (such as when a trusted device is misplaced). If the calling account had been revoked `role`, emits a {RoleRevoked} event. Requirements: - the caller must be `account`."
      },
      "revokeRole(bytes32,address)": {
        "details": "Revokes `role` from `account`. If `account` had been granted `role`, emits a {RoleRevoked} event. Requirements: - the caller must have ``role``'s admin role."
      },
      "royaltyInfo(uint256,uint256)": {
        "details": "Get royalty information for token",
        "params": {
          "_salePrice": "Sale price for the token"
        }
      },
      "safeTransferFrom(address,address,uint256)": {
        "details": "See {IERC721-safeTransferFrom}."
      },
      "safeTransferFrom(address,address,uint256,bytes)": {
        "details": "See {IERC721-safeTransferFrom}."
      },
      "saleDetails()": {
        "returns": {
          "_0": "IHolographERC721Drop.SaleDetails sale information details"
        }
      },
      "setApprovalForAll(address,bool)": {
        "details": "See {IERC721-setApprovalForAll}."
      },
      "setFundsRecipient(address)": {
        "params": {
          "newRecipientAddress": "new funds recipient address"
        }
      },
      "setMetadataRenderer(address,bytes)": {
        "params": {
          "newRenderer": "new renderer address to use",
          "setupRenderer": "data to setup new renderer with"
        }
      },
      "setOwner(address)": {
        "details": "Set new owner for royalties / opensea",
        "params": {
          "newOwner": "new owner to set"
        }
      },
      "setSaleConfiguration(uint104,uint32,uint64,uint64,uint64,uint64,bytes32)": {
        "details": "This sets the sales configuration",
        "params": {
          "maxSalePurchasePerAddress": "Max # of purchases (public) per address allowed",
          "presaleEnd": "unix timestamp when the presale ends",
          "presaleMerkleRoot": "merkle root for the presale information",
          "presaleStart": "unix timestamp when the presale starts",
          "publicSaleEnd": "unix timestamp when the public sale ends (set to 0 to disable)",
          "publicSalePrice": "New public sale price",
          "publicSaleStart": "unix timestamp when the public sale starts"
        }
      },
      "supportsInterface(bytes4)": {
        "params": {
          "interfaceId": "interface id to check if supported"
        }
      },
      "symbol()": {
        "details": "See {IERC721Metadata-symbol}."
      },
      "tokenURI(uint256)": {
        "params": {
          "tokenId": "id of token to get URI for"
        },
        "returns": {
          "_0": "Token URI"
        }
      },
      "totalSupply()": {
        "details": "Burned tokens are calculated here, use _totalMinted() if you want to count just minted tokens."
      },
      "transferFrom(address,address,uint256)": {
        "details": "See {IERC721-transferFrom}."
      },
      "updateMarketFilterSettings(bytes)": {
        "params": {
          "args": "Calldata args to pass to the registry"
        }
      }
    },
    "stateVariables": {
      "FUNDS_SEND_GAS_LIMIT": {
        "details": "Gas limit to send funds"
      },
      "MAX_MINT_BATCH_SIZE": {
        "details": "This is the max mint batch size for the optimized ERC721A mint contract"
      },
      "_initialized": {
        "details": "keep track of initialization state (Initializable)"
      },
      "holographERC721TransferHelper": {
        "details": "HOLOGRAPH transfer helper address for auto-approval"
      },
      "holographFeeManager": {
        "details": "Holograph Fee Manager address"
      }
    },
    "version": 1
  },
  "userdoc": {
    "errors": {
      "Access_MissingRoleOrAdmin(bytes32)": [
        {
          "notice": "Missing the given role or admin access"
        }
      ],
      "Access_OnlyAdmin()": [
        {
          "notice": "Only admin can access this function"
        }
      ],
      "Access_WithdrawNotAllowed()": [
        {
          "notice": "Withdraw is not allowed by this user"
        }
      ],
      "Admin_InvalidFundRecipientAddress(address)": [
        {
          "notice": "Invalid fund recipient adress"
        }
      ],
      "Admin_InvalidUpgradeAddress(address)": [
        {
          "notice": "Invalid admin upgrade address"
        }
      ],
      "Admin_UnableToFinalizeNotOpenEdition()": [
        {
          "notice": "Unable to finalize an edition not marked as open (size set to uint64_max_value)"
        }
      ],
      "ApprovalCallerNotOwnerNorApproved()": [
        {
          "notice": "The caller must own the token or be an approved operator."
        }
      ],
      "ApprovalQueryForNonexistentToken()": [
        {
          "notice": "The token does not exist."
        }
      ],
      "ApprovalToCurrentOwner()": [
        {
          "notice": "The caller cannot approve to the current owner."
        }
      ],
      "ApproveToCaller()": [
        {
          "notice": "The caller cannot approve to their own address."
        }
      ],
      "BalanceQueryForZeroAddress()": [
        {
          "notice": "Cannot query the balance for the zero address."
        }
      ],
      "MarketFilterAddressNotSupportedForChain()": [
        {
          "notice": "Thrown when there is no active market filter address supported for the current chain"
        }
      ],
      "MintToZeroAddress()": [
        {
          "notice": "Cannot mint to the zero address."
        }
      ],
      "MintZeroQuantity()": [
        {
          "notice": "The quantity of tokens minted must be more than zero."
        }
      ],
      "Mint_SoldOut()": [
        {
          "notice": "NFT sold out"
        }
      ],
      "OperatorNotAllowed(address)": [
        {
          "notice": "Thrown when the operator for the contract is not allowed"
        }
      ],
      "OwnerQueryForNonexistentToken()": [
        {
          "notice": "The token does not exist."
        }
      ],
      "Presale_Inactive()": [
        {
          "notice": "Presale is inactive"
        }
      ],
      "Presale_MerkleNotApproved()": [
        {
          "notice": "Presale merkle root is invalid"
        }
      ],
      "Presale_TooManyForAddress()": [
        {
          "notice": "Too many presale for address"
        }
      ],
      "Purchase_TooManyForAddress()": [
        {
          "notice": "Too many purchase for address"
        }
      ],
      "Purchase_WrongPrice(uint256)": [
        {
          "notice": "Wrong price for purchase"
        }
      ],
      "RemoteOperatorFilterRegistryCallFailed()": [
        {
          "notice": "Used when the operator filter registry external call fails"
        }
      ],
      "Sale_Inactive()": [
        {
          "notice": "Sale is inactive"
        }
      ],
      "Setup_RoyaltyPercentageTooHigh(uint16)": [
        {
          "notice": "Royalty percentage too high"
        }
      ],
      "TransferCallerNotOwnerNorApproved()": [
        {
          "notice": "The caller must own the token or be an approved operator."
        }
      ],
      "TransferFromIncorrectOwner()": [
        {
          "notice": "The token must be owned by `from`."
        }
      ],
      "TransferToNonERC721ReceiverImplementer()": [
        {
          "notice": "Cannot safely transfer to a contract that does not implement the ERC721Receiver interface."
        }
      ],
      "TransferToZeroAddress()": [
        {
          "notice": "Cannot transfer to the zero address."
        }
      ],
      "URIQueryForNonexistentToken()": [
        {
          "notice": "The token does not exist."
        }
      ],
      "Withdraw_FundsSendFailure()": [
        {
          "notice": "Cannot withdraw funds due to ETH send failure."
        }
      ]
    },
    "events": {
      "FundsRecipientChanged(address,address)": {
        "notice": "Event emitted when the funds recipient is changed"
      },
      "FundsWithdrawn(address,address,uint256,address,uint256)": {
        "notice": "Event emitted when the funds are withdrawn from the minting contract"
      },
      "OpenMintFinalized(address,uint256)": {
        "notice": "Event emitted when an open mint is finalized and further minting is closed forever on the contract."
      },
      "Sale(address,uint256,uint256,uint256)": {
        "notice": "Event emitted for each sale"
      },
      "SalesConfigChanged(address)": {
        "notice": "Sales configuration has been changed"
      },
      "UpdatedMetadataRenderer(address,address)": {
        "notice": "Event emitted when metadata renderer is updated."
      }
    },
    "kind": "user",
    "methods": {
      "MINTER_ROLE()": {
        "notice": "Access control roles"
      },
      "adminMint(address,uint256)": {
        "notice": "Admin mint tokens to a recipient for free"
      },
      "burn(uint256)": {
        "notice": "User burn function for token id"
      },
      "config()": {
        "notice": "Configuration for NFT minting contract storage"
      },
      "contractURI()": {
        "notice": "Contract URI Getter, proxies to metadataRenderer"
      },
      "finalizeOpenEdition()": {
        "notice": "Admin function to finalize and open edition sale"
      },
      "manageMarketFilterSubscription(bool)": {
        "notice": "Manage subscription for marketplace filtering based off royalty payouts."
      },
      "metadataRenderer()": {
        "notice": "Getter for metadataRenderer contract"
      },
      "owner()": {
        "notice": "Simple override for owner interface."
      },
      "purchasePresale(uint256,uint256,uint256,bytes32[])": {
        "notice": "Merkle-tree based presale purchase function"
      },
      "saleDetails()": {
        "notice": "Sale details"
      },
      "salesConfig()": {
        "notice": "Sales configuration"
      },
      "setFundsRecipient(address)": {
        "notice": "Set a different funds recipient"
      },
      "setMetadataRenderer(address,bytes)": {
        "notice": "Set a new metadata renderer"
      },
      "supportsInterface(bytes4)": {
        "notice": "ERC165 supports interface"
      },
      "tokenURI(uint256)": {
        "notice": "Token URI Getter, proxies to metadataRenderer"
      },
      "updateMarketFilterSettings(bytes)": {
        "notice": "Proxy to update market filter settings in the main registry contractsRequires admin permissions"
      },
      "withdraw()": {
        "notice": "This withdraws ETH from the contract to the contract owner."
      }
    },
    "notice": "HOLOGRAPH NFT contract for Drops and Editions",
    "version": 1
  },
  "storageLayout": {
    "storage": [
      {
        "astId": 11819,
        "contract": "contracts/drops/HolographERC721Drop.sol:HolographERC721Drop",
        "label": "_initialized",
        "offset": 0,
        "slot": "0",
        "type": "t_bool"
      },
      {
        "astId": 11822,
        "contract": "contracts/drops/HolographERC721Drop.sol:HolographERC721Drop",
        "label": "_initializing",
        "offset": 1,
        "slot": "0",
        "type": "t_bool"
      },
      {
        "astId": 14577,
        "contract": "contracts/drops/HolographERC721Drop.sol:HolographERC721Drop",
        "label": "__gap",
        "offset": 0,
        "slot": "1",
        "type": "t_array(t_uint256)50_storage"
      },
      {
        "astId": 14917,
        "contract": "contracts/drops/HolographERC721Drop.sol:HolographERC721Drop",
        "label": "__gap",
        "offset": 0,
        "slot": "51",
        "type": "t_array(t_uint256)50_storage"
      },
      {
        "astId": 9910,
        "contract": "contracts/drops/HolographERC721Drop.sol:HolographERC721Drop",
        "label": "_currentIndex",
        "offset": 0,
        "slot": "101",
        "type": "t_uint256"
      },
      {
        "astId": 9912,
        "contract": "contracts/drops/HolographERC721Drop.sol:HolographERC721Drop",
        "label": "_burnCounter",
        "offset": 0,
        "slot": "102",
        "type": "t_uint256"
      },
      {
        "astId": 9914,
        "contract": "contracts/drops/HolographERC721Drop.sol:HolographERC721Drop",
        "label": "_name",
        "offset": 0,
        "slot": "103",
        "type": "t_string_storage"
      },
      {
        "astId": 9916,
        "contract": "contracts/drops/HolographERC721Drop.sol:HolographERC721Drop",
        "label": "_symbol",
        "offset": 0,
        "slot": "104",
        "type": "t_string_storage"
      },
      {
        "astId": 9921,
        "contract": "contracts/drops/HolographERC721Drop.sol:HolographERC721Drop",
        "label": "_ownerships",
        "offset": 0,
        "slot": "105",
        "type": "t_mapping(t_uint256,t_struct(TokenOwnership)11338_storage)"
      },
      {
        "astId": 9926,
        "contract": "contracts/drops/HolographERC721Drop.sol:HolographERC721Drop",
        "label": "_addressData",
        "offset": 0,
        "slot": "106",
        "type": "t_mapping(t_address,t_struct(AddressData)11347_storage)"
      },
      {
        "astId": 9930,
        "contract": "contracts/drops/HolographERC721Drop.sol:HolographERC721Drop",
        "label": "_tokenApprovals",
        "offset": 0,
        "slot": "107",
        "type": "t_mapping(t_uint256,t_address)"
      },
      {
        "astId": 9936,
        "contract": "contracts/drops/HolographERC721Drop.sol:HolographERC721Drop",
        "label": "_operatorApprovals",
        "offset": 0,
        "slot": "108",
        "type": "t_mapping(t_address,t_mapping(t_address,t_bool))"
      },
      {
        "astId": 11282,
        "contract": "contracts/drops/HolographERC721Drop.sol:HolographERC721Drop",
        "label": "__gap",
        "offset": 0,
        "slot": "109",
        "type": "t_array(t_uint256)42_storage"
      },
      {
        "astId": 11895,
        "contract": "contracts/drops/HolographERC721Drop.sol:HolographERC721Drop",
        "label": "_status",
        "offset": 0,
        "slot": "151",
        "type": "t_uint256"
      },
      {
        "astId": 11939,
        "contract": "contracts/drops/HolographERC721Drop.sol:HolographERC721Drop",
        "label": "__gap",
        "offset": 0,
        "slot": "152",
        "type": "t_array(t_uint256)49_storage"
      },
      {
        "astId": 11394,
        "contract": "contracts/drops/HolographERC721Drop.sol:HolographERC721Drop",
        "label": "_roles",
        "offset": 0,
        "slot": "201",
        "type": "t_mapping(t_bytes32,t_struct(RoleData)11389_storage)"
      },
      {
        "astId": 11693,
        "contract": "contracts/drops/HolographERC721Drop.sol:HolographERC721Drop",
        "label": "__gap",
        "offset": 0,
        "slot": "202",
        "type": "t_array(t_uint256)49_storage"
      },
      {
        "astId": 15889,
        "contract": "contracts/drops/HolographERC721Drop.sol:HolographERC721Drop",
        "label": "_owner",
        "offset": 0,
        "slot": "251",
        "type": "t_address"
      },
      {
        "astId": 15544,
        "contract": "contracts/drops/HolographERC721Drop.sol:HolographERC721Drop",
        "label": "config",
        "offset": 0,
        "slot": "252",
        "type": "t_struct(Configuration)9489_storage"
      },
      {
        "astId": 15548,
        "contract": "contracts/drops/HolographERC721Drop.sol:HolographERC721Drop",
        "label": "salesConfig",
        "offset": 0,
        "slot": "254",
        "type": "t_struct(SalesConfiguration)9511_storage"
      },
      {
        "astId": 15553,
        "contract": "contracts/drops/HolographERC721Drop.sol:HolographERC721Drop",
        "label": "presaleMintsByAddress",
        "offset": 0,
        "slot": "257",
        "type": "t_mapping(t_address,t_uint256)"
      },
      {
        "astId": 7702,
        "contract": "contracts/drops/HolographERC721Drop.sol:HolographERC721Drop",
        "label": "_initialized",
        "offset": 0,
        "slot": "258",
        "type": "t_bool"
      },
      {
        "astId": 7704,
        "contract": "contracts/drops/HolographERC721Drop.sol:HolographERC721Drop",
        "label": "_initializing",
        "offset": 1,
        "slot": "258",
        "type": "t_bool"
      },
      {
        "astId": 7726,
        "contract": "contracts/drops/HolographERC721Drop.sol:HolographERC721Drop",
        "label": "holographERC721TransferHelper",
        "offset": 2,
        "slot": "258",
        "type": "t_address"
      },
      {
        "astId": 7730,
        "contract": "contracts/drops/HolographERC721Drop.sol:HolographERC721Drop",
        "label": "holographFeeManager",
        "offset": 0,
        "slot": "259",
        "type": "t_contract(IHolographFeeManager)9638"
      },
      {
        "astId": 7736,
        "contract": "contracts/drops/HolographERC721Drop.sol:HolographERC721Drop",
        "label": "marketFilterAddress",
        "offset": 0,
        "slot": "260",
        "type": "t_address"
      },
      {
        "astId": 7742,
        "contract": "contracts/drops/HolographERC721Drop.sol:HolographERC721Drop",
        "label": "operatorFilterRegistry",
        "offset": 0,
        "slot": "261",
        "type": "t_contract(IOperatorFilterRegistry)9852"
      }
    ],
    "types": {
      "t_address": {
        "encoding": "inplace",
        "label": "address",
        "numberOfBytes": "20"
      },
      "t_address_payable": {
        "encoding": "inplace",
        "label": "address payable",
        "numberOfBytes": "20"
      },
      "t_array(t_uint256)42_storage": {
        "base": "t_uint256",
        "encoding": "inplace",
        "label": "uint256[42]",
        "numberOfBytes": "1344"
      },
      "t_array(t_uint256)49_storage": {
        "base": "t_uint256",
        "encoding": "inplace",
        "label": "uint256[49]",
        "numberOfBytes": "1568"
      },
      "t_array(t_uint256)50_storage": {
        "base": "t_uint256",
        "encoding": "inplace",
        "label": "uint256[50]",
        "numberOfBytes": "1600"
      },
      "t_bool": {
        "encoding": "inplace",
        "label": "bool",
        "numberOfBytes": "1"
      },
      "t_bytes32": {
        "encoding": "inplace",
        "label": "bytes32",
        "numberOfBytes": "32"
      },
      "t_contract(IHolographFeeManager)9638": {
        "encoding": "inplace",
        "label": "contract IHolographFeeManager",
        "numberOfBytes": "20"
      },
      "t_contract(IMetadataRenderer)9658": {
        "encoding": "inplace",
        "label": "contract IMetadataRenderer",
        "numberOfBytes": "20"
      },
      "t_contract(IOperatorFilterRegistry)9852": {
        "encoding": "inplace",
        "label": "contract IOperatorFilterRegistry",
        "numberOfBytes": "20"
      },
      "t_mapping(t_address,t_bool)": {
        "encoding": "mapping",
        "key": "t_address",
        "label": "mapping(address => bool)",
        "numberOfBytes": "32",
        "value": "t_bool"
      },
      "t_mapping(t_address,t_mapping(t_address,t_bool))": {
        "encoding": "mapping",
        "key": "t_address",
        "label": "mapping(address => mapping(address => bool))",
        "numberOfBytes": "32",
        "value": "t_mapping(t_address,t_bool)"
      },
      "t_mapping(t_address,t_struct(AddressData)11347_storage)": {
        "encoding": "mapping",
        "key": "t_address",
        "label": "mapping(address => struct IERC721AUpgradeable.AddressData)",
        "numberOfBytes": "32",
        "value": "t_struct(AddressData)11347_storage"
      },
      "t_mapping(t_address,t_uint256)": {
        "encoding": "mapping",
        "key": "t_address",
        "label": "mapping(address => uint256)",
        "numberOfBytes": "32",
        "value": "t_uint256"
      },
      "t_mapping(t_bytes32,t_struct(RoleData)11389_storage)": {
        "encoding": "mapping",
        "key": "t_bytes32",
        "label": "mapping(bytes32 => struct AccessControlUpgradeable.RoleData)",
        "numberOfBytes": "32",
        "value": "t_struct(RoleData)11389_storage"
      },
      "t_mapping(t_uint256,t_address)": {
        "encoding": "mapping",
        "key": "t_uint256",
        "label": "mapping(uint256 => address)",
        "numberOfBytes": "32",
        "value": "t_address"
      },
      "t_mapping(t_uint256,t_struct(TokenOwnership)11338_storage)": {
        "encoding": "mapping",
        "key": "t_uint256",
        "label": "mapping(uint256 => struct IERC721AUpgradeable.TokenOwnership)",
        "numberOfBytes": "32",
        "value": "t_struct(TokenOwnership)11338_storage"
      },
      "t_string_storage": {
        "encoding": "bytes",
        "label": "string",
        "numberOfBytes": "32"
      },
      "t_struct(AddressData)11347_storage": {
        "encoding": "inplace",
        "label": "struct IERC721AUpgradeable.AddressData",
        "members": [
          {
            "astId": 11340,
            "contract": "contracts/drops/HolographERC721Drop.sol:HolographERC721Drop",
            "label": "balance",
            "offset": 0,
            "slot": "0",
            "type": "t_uint64"
          },
          {
            "astId": 11342,
            "contract": "contracts/drops/HolographERC721Drop.sol:HolographERC721Drop",
            "label": "numberMinted",
            "offset": 8,
            "slot": "0",
            "type": "t_uint64"
          },
          {
            "astId": 11344,
            "contract": "contracts/drops/HolographERC721Drop.sol:HolographERC721Drop",
            "label": "numberBurned",
            "offset": 16,
            "slot": "0",
            "type": "t_uint64"
          },
          {
            "astId": 11346,
            "contract": "contracts/drops/HolographERC721Drop.sol:HolographERC721Drop",
            "label": "aux",
            "offset": 24,
            "slot": "0",
            "type": "t_uint64"
          }
        ],
        "numberOfBytes": "32"
      },
      "t_struct(Configuration)9489_storage": {
        "encoding": "inplace",
        "label": "struct IHolographERC721Drop.Configuration",
        "members": [
          {
            "astId": 9479,
            "contract": "contracts/drops/HolographERC721Drop.sol:HolographERC721Drop",
            "label": "metadataRenderer",
            "offset": 0,
            "slot": "0",
            "type": "t_contract(IMetadataRenderer)9658"
          },
          {
            "astId": 9482,
            "contract": "contracts/drops/HolographERC721Drop.sol:HolographERC721Drop",
            "label": "editionSize",
            "offset": 20,
            "slot": "0",
            "type": "t_uint64"
          },
          {
            "astId": 9485,
            "contract": "contracts/drops/HolographERC721Drop.sol:HolographERC721Drop",
            "label": "royaltyBPS",
            "offset": 28,
            "slot": "0",
            "type": "t_uint16"
          },
          {
            "astId": 9488,
            "contract": "contracts/drops/HolographERC721Drop.sol:HolographERC721Drop",
            "label": "fundsRecipient",
            "offset": 0,
            "slot": "1",
            "type": "t_address_payable"
          }
        ],
        "numberOfBytes": "64"
      },
      "t_struct(RoleData)11389_storage": {
        "encoding": "inplace",
        "label": "struct AccessControlUpgradeable.RoleData",
        "members": [
          {
            "astId": 11386,
            "contract": "contracts/drops/HolographERC721Drop.sol:HolographERC721Drop",
            "label": "members",
            "offset": 0,
            "slot": "0",
            "type": "t_mapping(t_address,t_bool)"
          },
          {
            "astId": 11388,
            "contract": "contracts/drops/HolographERC721Drop.sol:HolographERC721Drop",
            "label": "adminRole",
            "offset": 0,
            "slot": "1",
            "type": "t_bytes32"
          }
        ],
        "numberOfBytes": "64"
      },
      "t_struct(SalesConfiguration)9511_storage": {
        "encoding": "inplace",
        "label": "struct IHolographERC721Drop.SalesConfiguration",
        "members": [
          {
            "astId": 9492,
            "contract": "contracts/drops/HolographERC721Drop.sol:HolographERC721Drop",
            "label": "publicSalePrice",
            "offset": 0,
            "slot": "0",
            "type": "t_uint104"
          },
          {
            "astId": 9495,
            "contract": "contracts/drops/HolographERC721Drop.sol:HolographERC721Drop",
            "label": "maxSalePurchasePerAddress",
            "offset": 13,
            "slot": "0",
            "type": "t_uint32"
          },
          {
            "astId": 9498,
            "contract": "contracts/drops/HolographERC721Drop.sol:HolographERC721Drop",
            "label": "publicSaleStart",
            "offset": 17,
            "slot": "0",
            "type": "t_uint64"
          },
          {
            "astId": 9501,
            "contract": "contracts/drops/HolographERC721Drop.sol:HolographERC721Drop",
            "label": "publicSaleEnd",
            "offset": 0,
            "slot": "1",
            "type": "t_uint64"
          },
          {
            "astId": 9504,
            "contract": "contracts/drops/HolographERC721Drop.sol:HolographERC721Drop",
            "label": "presaleStart",
            "offset": 8,
            "slot": "1",
            "type": "t_uint64"
          },
          {
            "astId": 9507,
            "contract": "contracts/drops/HolographERC721Drop.sol:HolographERC721Drop",
            "label": "presaleEnd",
            "offset": 16,
            "slot": "1",
            "type": "t_uint64"
          },
          {
            "astId": 9510,
            "contract": "contracts/drops/HolographERC721Drop.sol:HolographERC721Drop",
            "label": "presaleMerkleRoot",
            "offset": 0,
            "slot": "2",
            "type": "t_bytes32"
          }
        ],
        "numberOfBytes": "96"
      },
      "t_struct(TokenOwnership)11338_storage": {
        "encoding": "inplace",
        "label": "struct IERC721AUpgradeable.TokenOwnership",
        "members": [
          {
            "astId": 11333,
            "contract": "contracts/drops/HolographERC721Drop.sol:HolographERC721Drop",
            "label": "addr",
            "offset": 0,
            "slot": "0",
            "type": "t_address"
          },
          {
            "astId": 11335,
            "contract": "contracts/drops/HolographERC721Drop.sol:HolographERC721Drop",
            "label": "startTimestamp",
            "offset": 20,
            "slot": "0",
            "type": "t_uint64"
          },
          {
            "astId": 11337,
            "contract": "contracts/drops/HolographERC721Drop.sol:HolographERC721Drop",
            "label": "burned",
            "offset": 28,
            "slot": "0",
            "type": "t_bool"
          }
        ],
        "numberOfBytes": "32"
      },
      "t_uint104": {
        "encoding": "inplace",
        "label": "uint104",
        "numberOfBytes": "13"
      },
      "t_uint16": {
        "encoding": "inplace",
        "label": "uint16",
        "numberOfBytes": "2"
      },
      "t_uint256": {
        "encoding": "inplace",
        "label": "uint256",
        "numberOfBytes": "32"
      },
      "t_uint32": {
        "encoding": "inplace",
        "label": "uint32",
        "numberOfBytes": "4"
      },
      "t_uint64": {
        "encoding": "inplace",
        "label": "uint64",
        "numberOfBytes": "8"
      }
    }
  }
}