{
  "address": "0xd71985F8C3B92548eB1e3Eb6F7f4BC01e2E09fbA",
  "abi": [
    {
      "inputs": [],
      "stateMutability": "nonpayable",
      "type": "constructor"
    },
    {
      "inputs": [
        {
          "internalType": "bytes32",
          "name": "role",
          "type": "bytes32"
        }
      ],
      "name": "Access_MissingRoleOrAdmin",
      "type": "error"
    },
    {
      "inputs": [],
      "name": "Access_OnlyAdmin",
      "type": "error"
    },
    {
      "inputs": [],
      "name": "Access_WithdrawNotAllowed",
      "type": "error"
    },
    {
      "inputs": [
        {
          "internalType": "address",
          "name": "proposedAddress",
          "type": "address"
        }
      ],
      "name": "Admin_InvalidUpgradeAddress",
      "type": "error"
    },
    {
      "inputs": [],
      "name": "Admin_UnableToFinalizeNotOpenEdition",
      "type": "error"
    },
    {
      "inputs": [],
      "name": "ExternalMetadataRenderer_CallFailed",
      "type": "error"
    },
    {
      "inputs": [],
      "name": "MarketFilterAddressNotSupportedForChain",
      "type": "error"
    },
    {
      "inputs": [],
      "name": "MarketFilterDAOAddressNotSupportedForChain",
      "type": "error"
    },
    {
      "inputs": [],
      "name": "MintFee_FundsSendFailure",
      "type": "error"
    },
    {
      "inputs": [],
      "name": "Mint_SoldOut",
      "type": "error"
    },
    {
      "inputs": [
        {
          "internalType": "address",
          "name": "operator",
          "type": "address"
        }
      ],
      "name": "OperatorNotAllowed",
      "type": "error"
    },
    {
      "inputs": [],
      "name": "Presale_Inactive",
      "type": "error"
    },
    {
      "inputs": [],
      "name": "Presale_MerkleNotApproved",
      "type": "error"
    },
    {
      "inputs": [],
      "name": "Presale_TooManyForAddress",
      "type": "error"
    },
    {
      "inputs": [],
      "name": "Purchase_TooManyForAddress",
      "type": "error"
    },
    {
      "inputs": [
        {
          "internalType": "uint256",
          "name": "correctPrice",
          "type": "uint256"
        }
      ],
      "name": "Purchase_WrongPrice",
      "type": "error"
    },
    {
      "inputs": [],
      "name": "RemoteOperatorFilterRegistryCallFailed",
      "type": "error"
    },
    {
      "inputs": [],
      "name": "Sale_Inactive",
      "type": "error"
    },
    {
      "inputs": [
        {
          "internalType": "uint16",
          "name": "maxRoyaltyBPS",
          "type": "uint16"
        }
      ],
      "name": "Setup_RoyaltyPercentageTooHigh",
      "type": "error"
    },
    {
      "inputs": [],
      "name": "Withdraw_FundsSendFailure",
      "type": "error"
    },
    {
      "anonymous": false,
      "inputs": [
        {
          "indexed": true,
          "internalType": "address",
          "name": "source",
          "type": "address"
        },
        {
          "indexed": false,
          "internalType": "uint256",
          "name": "amount",
          "type": "uint256"
        }
      ],
      "name": "FundsReceived",
      "type": "event"
    },
    {
      "anonymous": false,
      "inputs": [
        {
          "indexed": true,
          "internalType": "address",
          "name": "newAddress",
          "type": "address"
        },
        {
          "indexed": true,
          "internalType": "address",
          "name": "changedBy",
          "type": "address"
        }
      ],
      "name": "FundsRecipientChanged",
      "type": "event"
    },
    {
      "anonymous": false,
      "inputs": [
        {
          "indexed": true,
          "internalType": "address",
          "name": "withdrawnBy",
          "type": "address"
        },
        {
          "indexed": true,
          "internalType": "address",
          "name": "withdrawnTo",
          "type": "address"
        },
        {
          "indexed": false,
          "internalType": "uint256",
          "name": "amount",
          "type": "uint256"
        },
        {
          "indexed": false,
          "internalType": "address",
          "name": "feeRecipient",
          "type": "address"
        },
        {
          "indexed": false,
          "internalType": "uint256",
          "name": "feeAmount",
          "type": "uint256"
        }
      ],
      "name": "FundsWithdrawn",
      "type": "event"
    },
    {
      "anonymous": false,
      "inputs": [
        {
          "indexed": false,
          "internalType": "uint256",
          "name": "mintFeeAmount",
          "type": "uint256"
        },
        {
          "indexed": false,
          "internalType": "address",
          "name": "mintFeeRecipient",
          "type": "address"
        },
        {
          "indexed": false,
          "internalType": "bool",
          "name": "success",
          "type": "bool"
        }
      ],
      "name": "MintFeePayout",
      "type": "event"
    },
    {
      "anonymous": false,
      "inputs": [
        {
          "indexed": true,
          "internalType": "address",
          "name": "sender",
          "type": "address"
        },
        {
          "indexed": false,
          "internalType": "uint256",
          "name": "numberOfMints",
          "type": "uint256"
        }
      ],
      "name": "OpenMintFinalized",
      "type": "event"
    },
    {
      "anonymous": false,
      "inputs": [
        {
          "indexed": true,
          "internalType": "address",
          "name": "to",
          "type": "address"
        },
        {
          "indexed": true,
          "internalType": "uint256",
          "name": "quantity",
          "type": "uint256"
        },
        {
          "indexed": true,
          "internalType": "uint256",
          "name": "pricePerToken",
          "type": "uint256"
        },
        {
          "indexed": false,
          "internalType": "uint256",
          "name": "firstPurchasedTokenId",
          "type": "uint256"
        }
      ],
      "name": "Sale",
      "type": "event"
    },
    {
      "anonymous": false,
      "inputs": [
        {
          "indexed": true,
          "internalType": "address",
          "name": "changedBy",
          "type": "address"
        }
      ],
      "name": "SalesConfigChanged",
      "type": "event"
    },
    {
      "anonymous": false,
      "inputs": [
        {
          "indexed": false,
          "internalType": "address",
          "name": "sender",
          "type": "address"
        },
        {
          "indexed": false,
          "internalType": "contract IMetadataRenderer",
          "name": "renderer",
          "type": "address"
        }
      ],
      "name": "UpdatedMetadataRenderer",
      "type": "event"
    },
    {
      "stateMutability": "payable",
      "type": "fallback"
    },
    {
      "inputs": [
        {
          "internalType": "address",
          "name": "recipient",
          "type": "address"
        },
        {
          "internalType": "uint256",
          "name": "quantity",
          "type": "uint256"
        }
      ],
      "name": "adminMint",
      "outputs": [
        {
          "internalType": "uint256",
          "name": "",
          "type": "uint256"
        }
      ],
      "stateMutability": "nonpayable",
      "type": "function"
    },
    {
      "inputs": [
        {
          "internalType": "address[]",
          "name": "recipients",
          "type": "address[]"
        }
      ],
      "name": "adminMintAirdrop",
      "outputs": [
        {
          "internalType": "uint256",
          "name": "",
          "type": "uint256"
        }
      ],
      "stateMutability": "nonpayable",
      "type": "function"
    },
    {
      "inputs": [],
      "name": "config",
      "outputs": [
        {
          "internalType": "contract IMetadataRenderer",
          "name": "metadataRenderer",
          "type": "address"
        },
        {
          "internalType": "uint64",
          "name": "editionSize",
          "type": "uint64"
        },
        {
          "internalType": "uint16",
          "name": "royaltyBPS",
          "type": "uint16"
        },
        {
          "internalType": "address payable",
          "name": "fundsRecipient",
          "type": "address"
        }
      ],
      "stateMutability": "view",
      "type": "function"
    },
    {
      "inputs": [],
      "name": "contractURI",
      "outputs": [
        {
          "internalType": "string",
          "name": "",
          "type": "string"
        }
      ],
      "stateMutability": "view",
      "type": "function"
    },
    {
      "inputs": [],
      "name": "erc721TransferHelper",
      "outputs": [
        {
          "internalType": "address",
          "name": "",
          "type": "address"
        }
      ],
      "stateMutability": "view",
      "type": "function"
    },
    {
      "inputs": [],
      "name": "finalizeOpenEdition",
      "outputs": [],
      "stateMutability": "nonpayable",
      "type": "function"
    },
    {
      "inputs": [
        {
          "internalType": "bytes",
          "name": "initPayload",
          "type": "bytes"
        }
      ],
      "name": "init",
      "outputs": [
        {
          "internalType": "bytes4",
          "name": "",
          "type": "bytes4"
        }
      ],
      "stateMutability": "nonpayable",
      "type": "function"
    },
    {
      "inputs": [
        {
          "internalType": "address",
          "name": "user",
          "type": "address"
        }
      ],
      "name": "isAdmin",
      "outputs": [
        {
          "internalType": "bool",
          "name": "",
          "type": "bool"
        }
      ],
      "stateMutability": "view",
      "type": "function"
    },
    {
      "inputs": [
        {
          "internalType": "address",
          "name": "wallet",
          "type": "address"
        }
      ],
      "name": "isOwner",
      "outputs": [
        {
          "internalType": "bool",
          "name": "",
          "type": "bool"
        }
      ],
      "stateMutability": "view",
      "type": "function"
    },
    {
      "inputs": [],
      "name": "isOwner",
      "outputs": [
        {
          "internalType": "bool",
          "name": "",
          "type": "bool"
        }
      ],
      "stateMutability": "view",
      "type": "function"
    },
    {
      "inputs": [
        {
          "internalType": "bool",
          "name": "enable",
          "type": "bool"
        }
      ],
      "name": "manageMarketFilterSubscription",
      "outputs": [],
      "stateMutability": "nonpayable",
      "type": "function"
    },
    {
      "inputs": [],
      "name": "marketFilterAddress",
      "outputs": [
        {
          "internalType": "address",
          "name": "",
          "type": "address"
        }
      ],
      "stateMutability": "view",
      "type": "function"
    },
    {
      "inputs": [],
      "name": "metadataRenderer",
      "outputs": [
        {
          "internalType": "contract IMetadataRenderer",
          "name": "",
          "type": "address"
        }
      ],
      "stateMutability": "view",
      "type": "function"
    },
    {
      "inputs": [
        {
          "internalType": "address",
          "name": "minter",
          "type": "address"
        }
      ],
      "name": "mintedPerAddress",
      "outputs": [
        {
          "components": [
            {
              "internalType": "uint256",
              "name": "totalMints",
              "type": "uint256"
            },
            {
              "internalType": "uint256",
              "name": "presaleMints",
              "type": "uint256"
            },
            {
              "internalType": "uint256",
              "name": "publicMints",
              "type": "uint256"
            }
          ],
          "internalType": "struct AddressMintDetails",
          "name": "",
          "type": "tuple"
        }
      ],
      "stateMutability": "view",
      "type": "function"
    },
    {
      "inputs": [
        {
          "internalType": "bytes[]",
          "name": "data",
          "type": "bytes[]"
        }
      ],
      "name": "multicall",
      "outputs": [
        {
          "internalType": "bytes[]",
          "name": "results",
          "type": "bytes[]"
        }
      ],
      "stateMutability": "nonpayable",
      "type": "function"
    },
    {
      "inputs": [
        {
          "internalType": "address",
          "name": "",
          "type": "address"
        },
        {
          "internalType": "address",
          "name": "_operator",
          "type": "address"
        }
      ],
      "name": "onIsApprovedForAll",
      "outputs": [
        {
          "internalType": "bool",
          "name": "approved",
          "type": "bool"
        }
      ],
      "stateMutability": "view",
      "type": "function"
    },
    {
      "inputs": [],
      "name": "operatorFilterRegistry",
      "outputs": [
        {
          "internalType": "contract IOperatorFilterRegistry",
          "name": "",
          "type": "address"
        }
      ],
      "stateMutability": "view",
      "type": "function"
    },
    {
      "inputs": [],
      "name": "owner",
      "outputs": [
        {
          "internalType": "address",
          "name": "",
          "type": "address"
        }
      ],
      "stateMutability": "view",
      "type": "function"
    },
    {
      "inputs": [
        {
          "internalType": "address",
          "name": "",
          "type": "address"
        }
      ],
      "name": "presaleMintsByAddress",
      "outputs": [
        {
          "internalType": "uint256",
          "name": "",
          "type": "uint256"
        }
      ],
      "stateMutability": "view",
      "type": "function"
    },
    {
      "inputs": [
        {
          "internalType": "uint256",
          "name": "quantity",
          "type": "uint256"
        }
      ],
      "name": "purchase",
      "outputs": [
        {
          "internalType": "uint256",
          "name": "",
          "type": "uint256"
        }
      ],
      "stateMutability": "payable",
      "type": "function"
    },
    {
      "inputs": [
        {
          "internalType": "uint256",
          "name": "quantity",
          "type": "uint256"
        },
        {
          "internalType": "uint256",
          "name": "maxQuantity",
          "type": "uint256"
        },
        {
          "internalType": "uint256",
          "name": "pricePerToken",
          "type": "uint256"
        },
        {
          "internalType": "bytes32[]",
          "name": "merkleProof",
          "type": "bytes32[]"
        }
      ],
      "name": "purchasePresale",
      "outputs": [
        {
          "internalType": "uint256",
          "name": "",
          "type": "uint256"
        }
      ],
      "stateMutability": "payable",
      "type": "function"
    },
    {
      "inputs": [],
      "name": "saleDetails",
      "outputs": [
        {
          "components": [
            {
              "internalType": "bool",
              "name": "publicSaleActive",
              "type": "bool"
            },
            {
              "internalType": "bool",
              "name": "presaleActive",
              "type": "bool"
            },
            {
              "internalType": "uint256",
              "name": "publicSalePrice",
              "type": "uint256"
            },
            {
              "internalType": "uint64",
              "name": "publicSaleStart",
              "type": "uint64"
            },
            {
              "internalType": "uint64",
              "name": "publicSaleEnd",
              "type": "uint64"
            },
            {
              "internalType": "uint64",
              "name": "presaleStart",
              "type": "uint64"
            },
            {
              "internalType": "uint64",
              "name": "presaleEnd",
              "type": "uint64"
            },
            {
              "internalType": "bytes32",
              "name": "presaleMerkleRoot",
              "type": "bytes32"
            },
            {
              "internalType": "uint256",
              "name": "maxSalePurchasePerAddress",
              "type": "uint256"
            },
            {
              "internalType": "uint256",
              "name": "totalMinted",
              "type": "uint256"
            },
            {
              "internalType": "uint256",
              "name": "maxSupply",
              "type": "uint256"
            }
          ],
          "internalType": "struct SaleDetails",
          "name": "",
          "type": "tuple"
        }
      ],
      "stateMutability": "view",
      "type": "function"
    },
    {
      "inputs": [],
      "name": "salesConfig",
      "outputs": [
        {
          "internalType": "uint104",
          "name": "publicSalePrice",
          "type": "uint104"
        },
        {
          "internalType": "uint32",
          "name": "maxSalePurchasePerAddress",
          "type": "uint32"
        },
        {
          "internalType": "uint64",
          "name": "publicSaleStart",
          "type": "uint64"
        },
        {
          "internalType": "uint64",
          "name": "publicSaleEnd",
          "type": "uint64"
        },
        {
          "internalType": "uint64",
          "name": "presaleStart",
          "type": "uint64"
        },
        {
          "internalType": "uint64",
          "name": "presaleEnd",
          "type": "uint64"
        },
        {
          "internalType": "bytes32",
          "name": "presaleMerkleRoot",
          "type": "bytes32"
        }
      ],
      "stateMutability": "view",
      "type": "function"
    },
    {
      "inputs": [
        {
          "internalType": "address payable",
          "name": "newRecipientAddress",
          "type": "address"
        }
      ],
      "name": "setFundsRecipient",
      "outputs": [],
      "stateMutability": "nonpayable",
      "type": "function"
    },
    {
      "inputs": [
        {
          "internalType": "contract IMetadataRenderer",
          "name": "newRenderer",
          "type": "address"
        },
        {
          "internalType": "bytes",
          "name": "setupRenderer",
          "type": "bytes"
        }
      ],
      "name": "setMetadataRenderer",
      "outputs": [],
      "stateMutability": "nonpayable",
      "type": "function"
    },
    {
      "inputs": [
        {
          "internalType": "uint104",
          "name": "publicSalePrice",
          "type": "uint104"
        },
        {
          "internalType": "uint32",
          "name": "maxSalePurchasePerAddress",
          "type": "uint32"
        },
        {
          "internalType": "uint64",
          "name": "publicSaleStart",
          "type": "uint64"
        },
        {
          "internalType": "uint64",
          "name": "publicSaleEnd",
          "type": "uint64"
        },
        {
          "internalType": "uint64",
          "name": "presaleStart",
          "type": "uint64"
        },
        {
          "internalType": "uint64",
          "name": "presaleEnd",
          "type": "uint64"
        },
        {
          "internalType": "bytes32",
          "name": "presaleMerkleRoot",
          "type": "bytes32"
        }
      ],
      "name": "setSaleConfiguration",
      "outputs": [],
      "stateMutability": "nonpayable",
      "type": "function"
    },
    {
      "inputs": [
        {
          "internalType": "bytes4",
          "name": "interfaceId",
          "type": "bytes4"
        }
      ],
      "name": "supportsInterface",
      "outputs": [
        {
          "internalType": "bool",
          "name": "",
          "type": "bool"
        }
      ],
      "stateMutability": "pure",
      "type": "function"
    },
    {
      "inputs": [
        {
          "internalType": "uint256",
          "name": "tokenId",
          "type": "uint256"
        }
      ],
      "name": "tokenURI",
      "outputs": [
        {
          "internalType": "string",
          "name": "",
          "type": "string"
        }
      ],
      "stateMutability": "view",
      "type": "function"
    },
    {
      "inputs": [
        {
          "internalType": "address",
          "name": "",
          "type": "address"
        }
      ],
      "name": "totalMintsByAddress",
      "outputs": [
        {
          "internalType": "uint256",
          "name": "",
          "type": "uint256"
        }
      ],
      "stateMutability": "view",
      "type": "function"
    },
    {
      "inputs": [
        {
          "internalType": "bytes",
          "name": "args",
          "type": "bytes"
        }
      ],
      "name": "updateMarketFilterSettings",
      "outputs": [
        {
          "internalType": "bytes",
          "name": "",
          "type": "bytes"
        }
      ],
      "stateMutability": "nonpayable",
      "type": "function"
    },
    {
      "inputs": [],
      "name": "withdraw",
      "outputs": [],
      "stateMutability": "nonpayable",
      "type": "function"
    },
    {
      "stateMutability": "payable",
      "type": "receive"
    }
  ],
  "transactionHash": "0xb52bc02457f80cb2c44b0502ef3d19269ed8d9d2e0897f1e9ce5ef13dff5c32d",
  "args": [],
  "numDeployments": 1,
  "solcInputHash": "285ef8111aaa274c180cccb6d1f3376b",
  "bytecode": "0x608060405234801561001057600080fd5b5061528a806100206000396000f3fe6080604052600436106101dc5760003560e01c806379502c5511610102578063bb20d85711610095578063e8a3d48511610064578063e8a3d48514610868578063efef39a11461087d578063f7cd1d9b14610890578063ffdb7163146108bd57610256565b8063bb20d857146107b9578063c87b56dd146107e6578063d445b97814610806578063e58306f91461084857610256565b80639123f01e116100d15780639123f01e14610712578063ac9650d81461073f578063b0ccc31e1461076c578063b8ae5a2c1461079957610256565b806379502c55146105ff5780638a1968de146106c85780638da5cb5b146106e85780638f32d59b146106fd57610256565b80632f54bf6e1161017a57806341e96eb11161014957806341e96eb1146105415780634ddf47d41461055657806361fea768146105a757806370319970146105d457610256565b80632f54bf6e146104ca5780633474a4a6146104ea5780633bcdcc871461050c5780633ccfd60b1461052c57610256565b80631d2c0b38116101b65780631d2c0b381461034b57806324d7806c1461043757806325024a2b146104575780632f0ae5fa1461047857610256565b8063015eaa7a1461029457806301ffc9a7146102c957806310a7eb5d1461032b57610256565b3661025657367fffffffffffffffffffffffffffffffffffffffffffffffffffffffffffffffe0013573ffffffffffffffffffffffffffffffffffffffff167f8e47b87b0ef542cdfa1659c551d88bad38aa7f452d2bbb349ab7530dfec8be8f3460405161024c91815260200190565b60405180910390a2005b337fe9fcff60011c1a99f7b7244d1f2d9da93d79ea8ef3654ce590d775575255b2bd54146001811461028757600080fd5b600160805260206080f35b005b3480156102a057600080fd5b506102b46102af36600461463d565b6108dd565b60405190151581526020015b60405180910390f35b3480156102d557600080fd5b506102b46102e4366004614676565b7fffffffff00000000000000000000000000000000000000000000000000000000167f1a95c452000000000000000000000000000000000000000000000000000000001490565b34801561033757600080fd5b506102926103463660046146b8565b610928565b34801561035757600080fd5b506006546007546008546103de926cffffffffffffffffffffffffff8116926d0100000000000000000000000000820463ffffffff16927101000000000000000000000000000000000090920467ffffffffffffffff9081169281831692680100000000000000008104831692700100000000000000000000000000000000909104169087565b604080516cffffffffffffffffffffffffff909816885263ffffffff909616602088015267ffffffffffffffff948516958701959095529183166060860152821660808501521660a083015260c082015260e0016102c0565b34801561044357600080fd5b506102b46104523660046146b8565b610bbf565b61046a610465366004614721565b610c1d565b6040519081526020016102c0565b34801561048457600080fd5b506002546104a59073ffffffffffffffffffffffffffffffffffffffff1681565b60405173ffffffffffffffffffffffffffffffffffffffff90911681526020016102c0565b3480156104d657600080fd5b506102b46104e53660046146b8565b6111ac565b3480156104f657600080fd5b506104ff61120b565b6040516102c09190614782565b34801561051857600080fd5b50610292610527366004614991565b611376565b34801561053857600080fd5b50610292611666565b34801561054d57600080fd5b50610292611b26565b34801561056257600080fd5b506105766105713660046149e1565b611e48565b6040517fffffffff0000000000000000000000000000000000000000000000000000000090911681526020016102c0565b3480156105b357600080fd5b5061046a6105c23660046146b8565b60096020526000908152604090205481565b3480156105e057600080fd5b5060045473ffffffffffffffffffffffffffffffffffffffff166104a5565b34801561060b57600080fd5b5060045460055461067b9173ffffffffffffffffffffffffffffffffffffffff8082169274010000000000000000000000000000000000000000830467ffffffffffffffff16927c0100000000000000000000000000000000000000000000000000000000900461ffff16911684565b6040805173ffffffffffffffffffffffffffffffffffffffff958616815267ffffffffffffffff909416602085015261ffff909216918301919091529190911660608201526080016102c0565b3480156106d457600080fd5b506102926106e3366004614a24565b6122d9565b3480156106f457600080fd5b506104a5612796565b34801561070957600080fd5b506102b46127c5565b34801561071e57600080fd5b5061046a61072d3660046146b8565b600a6020526000908152604090205481565b34801561074b57600080fd5b5061075f61075a366004614a41565b6128c1565b6040516102c09190614b7e565b34801561077857600080fd5b506003546104a59073ffffffffffffffffffffffffffffffffffffffff1681565b3480156107a557600080fd5b5061046a6107b4366004614bfe565b6129c2565b3480156107c557600080fd5b506107d96107d4366004614c40565b612cc5565b6040516102c09190614cb2565b3480156107f257600080fd5b506107d9610801366004614cc5565b612f56565b34801561081257600080fd5b506108266108213660046146b8565b61312d565b60408051825181526020808401519082015291810151908201526060016102c0565b34801561085457600080fd5b5061046a610863366004614cde565b6131b2565b34801561087457600080fd5b506107d961347a565b61046a61088b366004614cc5565b613531565b34801561089c57600080fd5b506001546104a59073ffffffffffffffffffffffffffffffffffffffff1681565b3480156108c957600080fd5b506102926108d8366004614d4d565b6139be565b60015460009073ffffffffffffffffffffffffffffffffffffffff1615801590610921575060015473ffffffffffffffffffffffffffffffffffffffff8381169116145b9392505050565b7fe9fcff60011c1a99f7b7244d1f2d9da93d79ea8ef3654ce590d775575255b2bd5473ffffffffffffffffffffffffffffffffffffffff163303610a49577fb56711ba6bd3ded7639fc335ee7524fe668a79d7558c85992e3f8494cf7727775473ffffffffffffffffffffffffffffffffffffffff16367fffffffffffffffffffffffffffffffffffffffffffffffffffffffffffffffe0013573ffffffffffffffffffffffffffffffffffffffff1614610a44576040517f08c379a000000000000000000000000000000000000000000000000000000000815260206004820152601b60248201527f4552433732313a206f776e6572206f6e6c792066756e6374696f6e000000000060448201526064015b60405180910390fd5b610aff565b7fb56711ba6bd3ded7639fc335ee7524fe668a79d7558c85992e3f8494cf7727775473ffffffffffffffffffffffffffffffffffffffff163373ffffffffffffffffffffffffffffffffffffffff1614610aff576040517f08c379a000000000000000000000000000000000000000000000000000000000815260206004820152601b60248201527f4552433732313a206f776e6572206f6e6c792066756e6374696f6e00000000006044820152606401610a3b565b600580547fffffffffffffffffffffffff00000000000000000000000000000000000000001673ffffffffffffffffffffffffffffffffffffffff8316179055367fffffffffffffffffffffffffffffffffffffffffffffffffffffffffffffffe0013573ffffffffffffffffffffffffffffffffffffffff168173ffffffffffffffffffffffffffffffffffffffff167f70a7ea5c664ab9c21baf3da59bb2f1e1ca33557b08a0031fab4f17076744995160405160405180910390a350565b60008173ffffffffffffffffffffffffffffffffffffffff16610c007fb56711ba6bd3ded7639fc335ee7524fe668a79d7558c85992e3f8494cf7727775490565b73ffffffffffffffffffffffffffffffffffffffff161492915050565b6000610c477f04b524dd539523930d3901481aa9455d7752b49add99e1647adb8b09a31372795490565b600203610cb0576040517f08c379a000000000000000000000000000000000000000000000000000000000815260206004820152601960248201527f484f4c4f47524150483a207265656e7472616e742063616c6c000000000000006044820152606401610a3b565b610cd960027f04b524dd539523930d3901481aa9455d7752b49add99e1647adb8b09a313727955565b600454869074010000000000000000000000000000000000000000900467ffffffffffffffff1615801590610d5d57506004546000547401000000000000000000000000000000000000000090910467ffffffffffffffff1690610d5b907bffffffffffffffffffffffffffffffffffffffffffffffffffffffff1683614e09565b115b15610d94576040517f717c513000000000000000000000000000000000000000000000000000000000815260040160405180910390fd5b610d9c613d1d565b610dd2576040517f95ed3c1a00000000000000000000000000000000000000000000000000000000815260040160405180910390fd5b610e7b84848080602002602001604051908101604052809392919081815260200183836020028082843760009201919091525050600854915050367fffffffffffffffffffffffffffffffffffffffffffffffffffffffffffffffe001356040805173ffffffffffffffffffffffffffffffffffffffff909216602083015281018a90526060810189905260800160405160208183030381529060405280519060200120613d6c565b610eb1576040517f85b70e5200000000000000000000000000000000000000000000000000000000815260040160405180910390fd5b6000610ebc86613d82565b9050610ec88882614e21565b341015610f0e57610ed98882614e21565b6040517f6a1c179e000000000000000000000000000000000000000000000000000000008152600401610a3b91815260200190565b73ffffffffffffffffffffffffffffffffffffffff7fffffffffffffffffffffffffffffffffffffffffffffffffffffffffffffffe036013516600090815260096020526040812080548a9290610f66908490614e09565b909155505073ffffffffffffffffffffffffffffffffffffffff7fffffffffffffffffffffffffffffffffffffffffffffffffffffffffffffffe036013516600090815260096020526040902054871015610fed576040517fa7b32bb100000000000000000000000000000000000000000000000000000000815260040160405180910390fd5b61101a367fffffffffffffffffffffffffffffffffffffffffffffffffffffffffffffffe0013589613e60565b60006110447fe9fcff60011c1a99f7b7244d1f2d9da93d79ea8ef3654ce590d775575255b2bd5490565b905060008173ffffffffffffffffffffffffffffffffffffffff166377dbd8636040518163ffffffff1660e01b8152600401602060405180830381865afa158015611093573d6000803e3d6000fd5b505050506040513d601f19601f820116820180604052508101906110b79190614e5e565b60008054919250906110e8908c907bffffffffffffffffffffffffffffffffffffffffffffffffffffffff16614e77565b6110f29083614e09565b6110fd906001614e09565b9050838b367fffffffffffffffffffffffffffffffffffffffffffffffffffffffffffffffe0013573ffffffffffffffffffffffffffffffffffffffff167f4e26b0356a15833a75d497ecc40ebbb716b99466ed0dba9454f1fff451e25a908460405161116c91815260200190565b60405180910390a49450505050506111a360017f04b524dd539523930d3901481aa9455d7752b49add99e1647adb8b09a313727955565b95945050505050565b60006111d67fb56711ba6bd3ded7639fc335ee7524fe668a79d7558c85992e3f8494cf7727775490565b73ffffffffffffffffffffffffffffffffffffffff168273ffffffffffffffffffffffffffffffffffffffff16149050919050565b6040805161016081018252600080825260208201819052918101829052606081018290526080810182905260a0810182905260c0810182905260e081018290526101008101829052610120810182905261014081019190915260405180610160016040528061127861422f565b15158152602001611287613d1d565b151581526006546cffffffffffffffffffffffffff8116602083015271010000000000000000000000000000000000810467ffffffffffffffff90811660408401526007548082166060850152680100000000000000008104821660808501527001000000000000000000000000000000009004811660a084015260085460c08401526d010000000000000000000000000090910463ffffffff1660e08301526000547bffffffffffffffffffffffffffffffffffffffffffffffffffffffff166101008301526004547401000000000000000000000000000000000000000090041661012090910152919050565b7fe9fcff60011c1a99f7b7244d1f2d9da93d79ea8ef3654ce590d775575255b2bd5473ffffffffffffffffffffffffffffffffffffffff163303611492577fb56711ba6bd3ded7639fc335ee7524fe668a79d7558c85992e3f8494cf7727775473ffffffffffffffffffffffffffffffffffffffff16367fffffffffffffffffffffffffffffffffffffffffffffffffffffffffffffffe0013573ffffffffffffffffffffffffffffffffffffffff161461148d576040517f08c379a000000000000000000000000000000000000000000000000000000000815260206004820152601b60248201527f4552433732313a206f776e6572206f6e6c792066756e6374696f6e00000000006044820152606401610a3b565b611548565b7fb56711ba6bd3ded7639fc335ee7524fe668a79d7558c85992e3f8494cf7727775473ffffffffffffffffffffffffffffffffffffffff163373ffffffffffffffffffffffffffffffffffffffff1614611548576040517f08c379a000000000000000000000000000000000000000000000000000000000815260206004820152601b60248201527f4552433732313a206f776e6572206f6e6c792066756e6374696f6e00000000006044820152606401610a3b565b600480547fffffffffffffffffffffffff00000000000000000000000000000000000000001673ffffffffffffffffffffffffffffffffffffffff8416179055805115611614576040517f856a7ffa00000000000000000000000000000000000000000000000000000000815273ffffffffffffffffffffffffffffffffffffffff83169063856a7ffa906115e1908490600401614cb2565b600060405180830381600087803b1580156115fb57600080fd5b505af115801561160f573d6000803e3d6000fd5b505050505b6040805133815273ffffffffffffffffffffffffffffffffffffffff841660208201527f046c5d913c35948c3e0e44c3599eb14bf33b73f141fa8bb282b300414998b868910160405180910390a15050565b7f04b524dd539523930d3901481aa9455d7752b49add99e1647adb8b09a3137279546002036116f1576040517f08c379a000000000000000000000000000000000000000000000000000000000815260206004820152601960248201527f484f4c4f47524150483a207265656e7472616e742063616c6c000000000000006044820152606401610a3b565b61171a60027f04b524dd539523930d3901481aa9455d7752b49add99e1647adb8b09a313727955565b60055473ffffffffffffffffffffffffffffffffffffffff16611799576040517f08c379a000000000000000000000000000000000000000000000000000000000815260206004820152601f60248201527f46756e647320526563697069656e742061646472657373206e6f7420736574006044820152606401610a3b565b7fe9fcff60011c1a99f7b7244d1f2d9da93d79ea8ef3654ce590d775575255b2bd547fffffffffffffffffffffffffffffffffffffffffffffffffffffffffffffffe036013590479060009073ffffffffffffffffffffffffffffffffffffffff16633b19e84a6040518163ffffffff1660e01b8152600401602060405180830381865afa15801561182f573d6000803e3d6000fd5b505050506040513d601f19601f820116820180604052508101906118539190614e99565b60055490915060009073ffffffffffffffffffffffffffffffffffffffff8581169116148015906118d157507fb56711ba6bd3ded7639fc335ee7524fe668a79d7558c85992e3f8494cf7727775473ffffffffffffffffffffffffffffffffffffffff168473ffffffffffffffffffffffffffffffffffffffff1614155b801561190957508173ffffffffffffffffffffffffffffffffffffffff168473ffffffffffffffffffffffffffffffffffffffff1614155b15611940576040517f1dab829b00000000000000000000000000000000000000000000000000000000815260040160405180910390fd5b80156119f45760008273ffffffffffffffffffffffffffffffffffffffff16826203345090604051600060405180830381858888f193505050503d80600081146119a6576040519150601f19603f3d011682016040523d82523d6000602084013e6119ab565b606091505b50509050806119e6576040517f39debd5b00000000000000000000000000000000000000000000000000000000815260040160405180910390fd5b6119f08285614e77565b9350505b60055460405160009173ffffffffffffffffffffffffffffffffffffffff16906203345090869084818181858888f193505050503d8060008114611a54576040519150601f19603f3d011682016040523d82523d6000602084013e611a59565b606091505b5050905080611a94576040517f39debd5b00000000000000000000000000000000000000000000000000000000815260040160405180910390fd5b6005546040805186815273ffffffffffffffffffffffffffffffffffffffff868116602083015291810185905291811691908716907f8a95554e4c9dcaaf33f247387f2ee77390780487d3365e3a804788791a1df5009060600160405180910390a35050505050611b2460017f04b524dd539523930d3901481aa9455d7752b49add99e1647adb8b09a313727955565b565b7fe9fcff60011c1a99f7b7244d1f2d9da93d79ea8ef3654ce590d775575255b2bd5473ffffffffffffffffffffffffffffffffffffffff163303611c42577fb56711ba6bd3ded7639fc335ee7524fe668a79d7558c85992e3f8494cf7727775473ffffffffffffffffffffffffffffffffffffffff16367fffffffffffffffffffffffffffffffffffffffffffffffffffffffffffffffe0013573ffffffffffffffffffffffffffffffffffffffff1614611c3d576040517f08c379a000000000000000000000000000000000000000000000000000000000815260206004820152601b60248201527f4552433732313a206f776e6572206f6e6c792066756e6374696f6e00000000006044820152606401610a3b565b611cf8565b7fb56711ba6bd3ded7639fc335ee7524fe668a79d7558c85992e3f8494cf7727775473ffffffffffffffffffffffffffffffffffffffff163373ffffffffffffffffffffffffffffffffffffffff1614611cf8576040517f08c379a000000000000000000000000000000000000000000000000000000000815260206004820152601b60248201527f4552433732313a206f776e6572206f6e6c792066756e6374696f6e00000000006044820152606401610a3b565b60045474010000000000000000000000000000000000000000900467ffffffffffffffff90811614611d56576040517fe742c08400000000000000000000000000000000000000000000000000000000815260040160405180910390fd5b6000546004805467ffffffffffffffff90921674010000000000000000000000000000000000000000027fffffffff0000000000000000ffffffffffffffffffffffffffffffffffffffff909216919091179055611dd47fffffffffffffffffffffffffffffffffffffffffffffffffffffffffffffffe036013590565b6004546040517401000000000000000000000000000000000000000090910467ffffffffffffffff16815273ffffffffffffffffffffffffffffffffffffffff91909116907fb6cc1e876b8d7479c8afe025a58658b0f3c3ec5bd0f28cb4261326b162069bf89060200160405180910390a2565b6000611e727f4e5f991bca30eca2d4643aaefa807e88f96a4a97398933d572a3c0d973004a015490565b15611ed9576040517f08c379a000000000000000000000000000000000000000000000000000000000815260206004820152601e60248201527f484f4c4f47524150483a20616c726561647920696e697469616c697a656400006044820152606401610a3b565b600082806020019051810190611eef9190614fd9565b80516001805473ffffffffffffffffffffffffffffffffffffffff9283167fffffffffffffffffffffffff0000000000000000000000000000000000000000918216179091556020830151600280549190931691161790556040810151909150611f77907fb56711ba6bd3ded7639fc335ee7524fe668a79d7558c85992e3f8494cf77277755565b604080516080808201835260e08401805173ffffffffffffffffffffffffffffffffffffffff9081168085528684015167ffffffffffffffff908116602080880182905260a0808b015161ffff16898b018190526060808d015188169a81018b9052600480547c01000000000000000000000000000000000000000000000000000000009093027fffff0000ffffffffffffffffffffffffffffffffffffffffffffffffffffffff740100000000000000000000000000000000000000009097027fffffffff00000000000000000000000000000000000000000000000000000000909416909817929092179490941695909517909455600580547fffffffffffffffffffffffff00000000000000000000000000000000000000001690981790975560c0808a01518051600680549a8301519b830151861671010000000000000000000000000000000000027fffffffffffffff0000000000000000ffffffffffffffffffffffffffffffffff63ffffffff909d166d0100000000000000000000000000027fffffffffffffffffffffffffffffff0000000000000000000000000000000000909c166cffffffffffffffffffffffffff909316929092179a909a179a909a16999099179097558701516007805496890151938901518316700100000000000000000000000000000000027fffffffffffffffff0000000000000000ffffffffffffffffffffffffffffffff94841668010000000000000000027fffffffffffffffffffffffffffffffff00000000000000000000000000000000909816929093169190911795909517919091161790925592909101516008559051161561226f5760e08101516101008201516040517f856a7ffa00000000000000000000000000000000000000000000000000000000815273ffffffffffffffffffffffffffffffffffffffff9092169163856a7ffa9161223c91600401614cb2565b600060405180830381600087803b15801561225657600080fd5b505af115801561226a573d6000803e3d6000fd5b505050505b600380547fffffffffffffffffffffffff0000000000000000000000000000000000000000166daaeb6d7670e522a718067333cd4e1790556122d060017f04b524dd539523930d3901481aa9455d7752b49add99e1647adb8b09a313727955565b61092183614274565b7fe9fcff60011c1a99f7b7244d1f2d9da93d79ea8ef3654ce590d775575255b2bd5473ffffffffffffffffffffffffffffffffffffffff1633036123f5577fb56711ba6bd3ded7639fc335ee7524fe668a79d7558c85992e3f8494cf7727775473ffffffffffffffffffffffffffffffffffffffff16367fffffffffffffffffffffffffffffffffffffffffffffffffffffffffffffffe0013573ffffffffffffffffffffffffffffffffffffffff16146123f0576040517f08c379a000000000000000000000000000000000000000000000000000000000815260206004820152601b60248201527f4552433732313a206f776e6572206f6e6c792066756e6374696f6e00000000006044820152606401610a3b565b6124ab565b7fb56711ba6bd3ded7639fc335ee7524fe668a79d7558c85992e3f8494cf7727775473ffffffffffffffffffffffffffffffffffffffff163373ffffffffffffffffffffffffffffffffffffffff16146124ab576040517f08c379a000000000000000000000000000000000000000000000000000000000815260206004820152601b60248201527f4552433732313a206f776e6572206f6e6c792066756e6374696f6e00000000006044820152606401610a3b565b600254309073ffffffffffffffffffffffffffffffffffffffff166124fc576040517f707ff7e900000000000000000000000000000000000000000000000000000000815260040160405180910390fd5b6003546040517fc3c5a54700000000000000000000000000000000000000000000000000000000815273ffffffffffffffffffffffffffffffffffffffff83811660048301529091169063c3c5a547906024016020604051808303816000875af115801561256e573d6000803e3d6000fd5b505050506040513d601f19601f8201168201806040525081019061259291906150d3565b15801561259c5750815b15612635576003546002546040517f7d3e3dbe00000000000000000000000000000000000000000000000000000000815273ffffffffffffffffffffffffffffffffffffffff84811660048301529182166024820152911690637d3e3dbe906044015b600060405180830381600087803b15801561261957600080fd5b505af115801561262d573d6000803e3d6000fd5b505050505050565b811561269d576003546002546040517fb314d41400000000000000000000000000000000000000000000000000000000815273ffffffffffffffffffffffffffffffffffffffff8481166004830152918216602482015291169063b314d414906044016125ff565b6003546040517f34a0dc1000000000000000000000000000000000000000000000000000000000815273ffffffffffffffffffffffffffffffffffffffff838116600483015260006024830152909116906334a0dc1090604401600060405180830381600087803b15801561271157600080fd5b505af1158015612725573d6000803e3d6000fd5b50506003546040517f2ec2c24600000000000000000000000000000000000000000000000000000000815273ffffffffffffffffffffffffffffffffffffffff85811660048301529091169250632ec2c2469150602401600060405180830381600087803b15801561261957600080fd5b60006127c07fb56711ba6bd3ded7639fc335ee7524fe668a79d7558c85992e3f8494cf7727775490565b905090565b60006127ef7fe9fcff60011c1a99f7b7244d1f2d9da93d79ea8ef3654ce590d775575255b2bd5490565b73ffffffffffffffffffffffffffffffffffffffff163303612883577fb56711ba6bd3ded7639fc335ee7524fe668a79d7558c85992e3f8494cf7727775473ffffffffffffffffffffffffffffffffffffffff16367fffffffffffffffffffffffffffffffffffffffffffffffffffffffffffffffe0013573ffffffffffffffffffffffffffffffffffffffff1614905090565b507fb56711ba6bd3ded7639fc335ee7524fe668a79d7558c85992e3f8494cf7727775473ffffffffffffffffffffffffffffffffffffffff16331490565b6060815167ffffffffffffffff8111156128dd576128dd61484d565b60405190808252806020026020018201604052801561291057816020015b60608152602001906001900390816128fb5790505b50905060005b82518110156129bc5761298c30848381518110612935576129356150f0565b60200260200101516129677fffffffffffffffffffffffffffffffffffffffffffffffffffffffffffffffe036013590565b60405160200161297892919061511f565b60405160208183030381529060405261441b565b82828151811061299e5761299e6150f0565b602002602001018190525080806129b490615169565b915050612916565b50919050565b60006129ec7fe9fcff60011c1a99f7b7244d1f2d9da93d79ea8ef3654ce590d775575255b2bd5490565b73ffffffffffffffffffffffffffffffffffffffff163303612ae6577fb56711ba6bd3ded7639fc335ee7524fe668a79d7558c85992e3f8494cf7727775473ffffffffffffffffffffffffffffffffffffffff16367fffffffffffffffffffffffffffffffffffffffffffffffffffffffffffffffe0013573ffffffffffffffffffffffffffffffffffffffff1614612ae1576040517f08c379a000000000000000000000000000000000000000000000000000000000815260206004820152601b60248201527f4552433732313a206f776e6572206f6e6c792066756e6374696f6e00000000006044820152606401610a3b565b612b9c565b7fb56711ba6bd3ded7639fc335ee7524fe668a79d7558c85992e3f8494cf7727775473ffffffffffffffffffffffffffffffffffffffff163373ffffffffffffffffffffffffffffffffffffffff1614612b9c576040517f08c379a000000000000000000000000000000000000000000000000000000000815260206004820152601b60248201527f4552433732313a206f776e6572206f6e6c792066756e6374696f6e00000000006044820152606401610a3b565b600454829074010000000000000000000000000000000000000000900467ffffffffffffffff1615801590612c2057506004546000547401000000000000000000000000000000000000000090910467ffffffffffffffff1690612c1e907bffffffffffffffffffffffffffffffffffffffffffffffffffffffff1683614e09565b115b15612c57576040517f717c513000000000000000000000000000000000000000000000000000000000815260040160405180910390fd5b60005b83811015612c9b57612c93858583818110612c7757612c776150f0565b9050602002016020810190612c8c91906146b8565b6001613e60565b600101612c5a565b50506000547bffffffffffffffffffffffffffffffffffffffffffffffffffffffff169392505050565b6060612cef7fe9fcff60011c1a99f7b7244d1f2d9da93d79ea8ef3654ce590d775575255b2bd5490565b73ffffffffffffffffffffffffffffffffffffffff163303612de9577fb56711ba6bd3ded7639fc335ee7524fe668a79d7558c85992e3f8494cf7727775473ffffffffffffffffffffffffffffffffffffffff16367fffffffffffffffffffffffffffffffffffffffffffffffffffffffffffffffe0013573ffffffffffffffffffffffffffffffffffffffff1614612de4576040517f08c379a000000000000000000000000000000000000000000000000000000000815260206004820152601b60248201527f4552433732313a206f776e6572206f6e6c792066756e6374696f6e00000000006044820152606401610a3b565b612e9f565b7fb56711ba6bd3ded7639fc335ee7524fe668a79d7558c85992e3f8494cf7727775473ffffffffffffffffffffffffffffffffffffffff163373ffffffffffffffffffffffffffffffffffffffff1614612e9f576040517f08c379a000000000000000000000000000000000000000000000000000000000815260206004820152601b60248201527f4552433732313a206f776e6572206f6e6c792066756e6374696f6e00000000006044820152606401610a3b565b600354604051600091829173ffffffffffffffffffffffffffffffffffffffff90911690612ed090879087906151a1565b6000604051808303816000865af19150503d8060008114612f0d576040519150601f19603f3d011682016040523d82523d6000602084013e612f12565b606091505b509150915081612f4e576040517f25f3885400000000000000000000000000000000000000000000000000000000815260040160405180910390fd5b949350505050565b60606000612f827fe9fcff60011c1a99f7b7244d1f2d9da93d79ea8ef3654ce590d775575255b2bd5490565b6040517f4f558e790000000000000000000000000000000000000000000000000000000081526004810185905290915073ffffffffffffffffffffffffffffffffffffffff821690634f558e7990602401602060405180830381865afa158015612ff0573d6000803e3d6000fd5b505050506040513d601f19601f8201168201806040525081019061301491906150d3565b61307a576040517f08c379a000000000000000000000000000000000000000000000000000000000815260206004820152601c60248201527f4552433732313a20746f6b656e20646f6573206e6f74206578697374000000006044820152606401610a3b565b600480546040517fc87b56dd00000000000000000000000000000000000000000000000000000000815291820185905273ffffffffffffffffffffffffffffffffffffffff169063c87b56dd90602401600060405180830381865afa1580156130e7573d6000803e3d6000fd5b505050506040513d6000823e601f3d9081017fffffffffffffffffffffffffffffffffffffffffffffffffffffffffffffffe016820160405261092191908101906151b1565b61315160405180606001604052806000815260200160008152602001600081525090565b6040805160608101825273ffffffffffffffffffffffffffffffffffffffff84166000818152600a6020818152858320548086528484526009825286842054828701819052949093525291928301916131aa9190614e77565b905292915050565b60006131dc7fe9fcff60011c1a99f7b7244d1f2d9da93d79ea8ef3654ce590d775575255b2bd5490565b73ffffffffffffffffffffffffffffffffffffffff1633036132d6577fb56711ba6bd3ded7639fc335ee7524fe668a79d7558c85992e3f8494cf7727775473ffffffffffffffffffffffffffffffffffffffff16367fffffffffffffffffffffffffffffffffffffffffffffffffffffffffffffffe0013573ffffffffffffffffffffffffffffffffffffffff16146132d1576040517f08c379a000000000000000000000000000000000000000000000000000000000815260206004820152601b60248201527f4552433732313a206f776e6572206f6e6c792066756e6374696f6e00000000006044820152606401610a3b565b61338c565b7fb56711ba6bd3ded7639fc335ee7524fe668a79d7558c85992e3f8494cf7727775473ffffffffffffffffffffffffffffffffffffffff163373ffffffffffffffffffffffffffffffffffffffff161461338c576040517f08c379a000000000000000000000000000000000000000000000000000000000815260206004820152601b60248201527f4552433732313a206f776e6572206f6e6c792066756e6374696f6e00000000006044820152606401610a3b565b600454829074010000000000000000000000000000000000000000900467ffffffffffffffff161580159061341057506004546000547401000000000000000000000000000000000000000090910467ffffffffffffffff169061340e907bffffffffffffffffffffffffffffffffffffffffffffffffffffffff1683614e09565b115b15613447576040517f717c513000000000000000000000000000000000000000000000000000000000815260040160405180910390fd5b6134518484613e60565b50506000547bffffffffffffffffffffffffffffffffffffffffffffffffffffffff1692915050565b60048054604080517fe8a3d485000000000000000000000000000000000000000000000000000000008152905160609373ffffffffffffffffffffffffffffffffffffffff9093169263e8a3d485928082019260009290918290030181865afa1580156134eb573d6000803e3d6000fd5b505050506040513d6000823e601f3d9081017fffffffffffffffffffffffffffffffffffffffffffffffffffffffffffffffe01682016040526127c091908101906151b1565b600061355b7f04b524dd539523930d3901481aa9455d7752b49add99e1647adb8b09a31372795490565b6002036135c4576040517f08c379a000000000000000000000000000000000000000000000000000000000815260206004820152601960248201527f484f4c4f47524150483a207265656e7472616e742063616c6c000000000000006044820152606401610a3b565b6135ed60027f04b524dd539523930d3901481aa9455d7752b49add99e1647adb8b09a313727955565b600454829074010000000000000000000000000000000000000000900467ffffffffffffffff161580159061367157506004546000547401000000000000000000000000000000000000000090910467ffffffffffffffff169061366f907bffffffffffffffffffffffffffffffffffffffffffffffffffffffff1683614e09565b115b156136a8576040517f717c513000000000000000000000000000000000000000000000000000000000815260040160405180910390fd5b6136b061422f565b6136e6576040517ff12dcc7f00000000000000000000000000000000000000000000000000000000815260040160405180910390fd5b600654600090613704906cffffffffffffffffffffffffff16613d82565b90506137108482614e21565b34101561372157610ed98482614e21565b6006546d0100000000000000000000000000900463ffffffff16158015906137cc5750600654367fffffffffffffffffffffffffffffffffffffffffffffffffffffffffffffffe0013573ffffffffffffffffffffffffffffffffffffffff16600090815260096020908152604080832054600a909252909120546d010000000000000000000000000090920463ffffffff16916137c0908790614e09565b6137ca9190614e77565b115b15613803576040517f220ae94c00000000000000000000000000000000000000000000000000000000815260040160405180910390fd5b613830367fffffffffffffffffffffffffffffffffffffffffffffffffffffffffffffffe0013585613e60565b600061385a7fe9fcff60011c1a99f7b7244d1f2d9da93d79ea8ef3654ce590d775575255b2bd5490565b905060008173ffffffffffffffffffffffffffffffffffffffff166377dbd8636040518163ffffffff1660e01b8152600401602060405180830381865afa1580156138a9573d6000803e3d6000fd5b505050506040513d601f19601f820116820180604052508101906138cd9190614e5e565b60008054919250906138fe9088907bffffffffffffffffffffffffffffffffffffffffffffffffffffffff16614e77565b6139089083614e09565b613913906001614e09565b90508387367fffffffffffffffffffffffffffffffffffffffffffffffffffffffffffffffe0013573ffffffffffffffffffffffffffffffffffffffff167f4e26b0356a15833a75d497ecc40ebbb716b99466ed0dba9454f1fff451e25a908460405161398291815260200190565b60405180910390a49450505050506139b960017f04b524dd539523930d3901481aa9455d7752b49add99e1647adb8b09a313727955565b919050565b7fe9fcff60011c1a99f7b7244d1f2d9da93d79ea8ef3654ce590d775575255b2bd5473ffffffffffffffffffffffffffffffffffffffff163303613ada577fb56711ba6bd3ded7639fc335ee7524fe668a79d7558c85992e3f8494cf7727775473ffffffffffffffffffffffffffffffffffffffff16367fffffffffffffffffffffffffffffffffffffffffffffffffffffffffffffffe0013573ffffffffffffffffffffffffffffffffffffffff1614613ad5576040517f08c379a000000000000000000000000000000000000000000000000000000000815260206004820152601b60248201527f4552433732313a206f776e6572206f6e6c792066756e6374696f6e00000000006044820152606401610a3b565b613b90565b7fb56711ba6bd3ded7639fc335ee7524fe668a79d7558c85992e3f8494cf7727775473ffffffffffffffffffffffffffffffffffffffff163373ffffffffffffffffffffffffffffffffffffffff1614613b90576040517f08c379a000000000000000000000000000000000000000000000000000000000815260206004820152601b60248201527f4552433732313a206f776e6572206f6e6c792066756e6374696f6e00000000006044820152606401610a3b565b600680546cffffffffffffffffffffffffff89167fffffffffffffffffffffffffffffff0000000000000000000000000000000000909116176d010000000000000000000000000063ffffffff891602177fffffffffffffff0000000000000000ffffffffffffffffffffffffffffffffff167101000000000000000000000000000000000067ffffffffffffffff8881169190910291909117909155600780548683167fffffffffffffffffffffffffffffffff00000000000000000000000000000000909116176801000000000000000086841602177fffffffffffffffff0000000000000000ffffffffffffffffffffffffffffffff16700100000000000000000000000000000000928516929092029190911790556008819055367fffffffffffffffffffffffffffffffffffffffffffffffffffffffffffffffe0013573ffffffffffffffffffffffffffffffffffffffff167fc1ff5e4744ac8dd2b8027a10e3723b165975297501c71c4e7dcb8796d96375db60405160405180910390a250505050505050565b600754600090426801000000000000000090910467ffffffffffffffff16118015906127c05750506007544270010000000000000000000000000000000090910467ffffffffffffffff161190565b600082613d798584614440565b14949350505050565b7f26600f0171e5a2b86874be26285c66444b2a6fa5f62114757214d5e732aded365460009073ffffffffffffffffffffffffffffffffffffffff811615613e59576040517ff5d781610000000000000000000000000000000000000000000000000000000081526004810184905273ffffffffffffffffffffffffffffffffffffffff82169063f5d7816190602401602060405180830381865afa158015613e2e573d6000803e3d6000fd5b505050506040513d601f19601f82011682018060405250810190613e529190614e5e565b91506129bc565b5090919050565b6000613e8a7fe9fcff60011c1a99f7b7244d1f2d9da93d79ea8ef3654ce590d775575255b2bd5490565b905060008173ffffffffffffffffffffffffffffffffffffffff166377dbd8636040518163ffffffff1660e01b8152600401602060405180830381865afa158015613ed9573d6000803e3d6000fd5b505050506040513d601f19601f82011682018060405250810190613efd9190614e5e565b90506000805b8481101561262d5760008054600191908190613f3e9084907bffffffffffffffffffffffffffffffffffffffffffffffffffffffff166151fa565b92506101000a8154817bffffffffffffffffffffffffffffffffffffffffffffffffffffffff02191690837bffffffffffffffffffffffffffffffffffffffffffffffffffffffff1602179055505b60005473ffffffffffffffffffffffffffffffffffffffff851690634f558e7990613fd6907bffffffffffffffffffffffffffffffffffffffffffffffffffffffff1686614e09565b6040518263ffffffff1660e01b8152600401613ff491815260200190565b602060405180830381865afa158015614011573d6000803e3d6000fd5b505050506040513d601f19601f8201168201806040525081019061403591906150d3565b806140e3575060005473ffffffffffffffffffffffffffffffffffffffff8516906323250cae90614084907bffffffffffffffffffffffffffffffffffffffffffffffffffffffff1686614e09565b6040518263ffffffff1660e01b81526004016140a291815260200190565b602060405180830381865afa1580156140bf573d6000803e3d6000fd5b505050506040513d601f19601f820116820180604052508101906140e391906150d3565b1561416e576000805460019190819061411b9084907bffffffffffffffffffffffffffffffffffffffffffffffffffffffff166151fa565b92506101000a8154817bffffffffffffffffffffffffffffffffffffffffffffffffffffffff02191690837bffffffffffffffffffffffffffffffffffffffffffffffffffffffff160217905550613f8d565b6000546040517f3b4f1b2600000000000000000000000000000000000000000000000000000000815273ffffffffffffffffffffffffffffffffffffffff88811660048301527bffffffffffffffffffffffffffffffffffffffffffffffffffffffff90921660248201819052935090851690633b4f1b2690604401600060405180830381600087803b15801561420457600080fd5b505af1158015614218573d6000803e3d6000fd5b50505050808061422790615169565b915050613f03565b600654600090427101000000000000000000000000000000000090910467ffffffffffffffff16118015906127c05750506007544267ffffffffffffffff9091161190565b600061429e7f4e5f991bca30eca2d4643aaefa807e88f96a4a97398933d572a3c0d973004a015490565b15614305576040517f08c379a000000000000000000000000000000000000000000000000000000000815260206004820152601b60248201527f4552433732313a20616c726561647920696e697469616c697a656400000000006044820152606401610a3b565b337fe9fcff60011c1a99f7b7244d1f2d9da93d79ea8ef3654ce590d775575255b2bd8190557fb56711ba6bd3ded7639fc335ee7524fe668a79d7558c85992e3f8494cf7727775473ffffffffffffffffffffffffffffffffffffffff81166143c9576040517f08c379a000000000000000000000000000000000000000000000000000000000815260206004820152601860248201527f484f4c4f47524150483a206f776e6572206e6f742073657400000000000000006044820152606401610a3b565b6143f260017f4e5f991bca30eca2d4643aaefa807e88f96a4a97398933d572a3c0d973004a0155565b507f4ddf47d4000000000000000000000000000000000000000000000000000000009392505050565b60606109218383604051806060016040528060278152602001615257602791396144b4565b600081815b84518110156144ac576000858281518110614462576144626150f0565b602002602001015190508083116144885760008381526020829052604090209250614499565b600081815260208490526040902092505b50806144a481615169565b915050614445565b509392505050565b60606000808573ffffffffffffffffffffffffffffffffffffffff16856040516144de919061523a565b600060405180830381855af49150503d8060008114614519576040519150601f19603f3d011682016040523d82523d6000602084013e61451e565b606091505b509150915061452f86838387614539565b9695505050505050565b606083156145cf5782516000036145c85773ffffffffffffffffffffffffffffffffffffffff85163b6145c8576040517f08c379a000000000000000000000000000000000000000000000000000000000815260206004820152601d60248201527f416464726573733a2063616c6c20746f206e6f6e2d636f6e74726163740000006044820152606401610a3b565b5081612f4e565b612f4e83838151156145e45781518083602001fd5b806040517f08c379a0000000000000000000000000000000000000000000000000000000008152600401610a3b9190614cb2565b73ffffffffffffffffffffffffffffffffffffffff8116811461463a57600080fd5b50565b6000806040838503121561465057600080fd5b823561465b81614618565b9150602083013561466b81614618565b809150509250929050565b60006020828403121561468857600080fd5b81357fffffffff000000000000000000000000000000000000000000000000000000008116811461092157600080fd5b6000602082840312156146ca57600080fd5b813561092181614618565b60008083601f8401126146e757600080fd5b50813567ffffffffffffffff8111156146ff57600080fd5b6020830191508360208260051b850101111561471a57600080fd5b9250929050565b60008060008060006080868803121561473957600080fd5b853594506020860135935060408601359250606086013567ffffffffffffffff81111561476557600080fd5b614771888289016146d5565b969995985093965092949392505050565b815115158152610160810160208301516147a0602084018215159052565b506040830151604083015260608301516147c6606084018267ffffffffffffffff169052565b5060808301516147e2608084018267ffffffffffffffff169052565b5060a08301516147fe60a084018267ffffffffffffffff169052565b5060c083015161481a60c084018267ffffffffffffffff169052565b5060e083810151908301526101008084015190830152610120808401519083015261014092830151929091019190915290565b7f4e487b7100000000000000000000000000000000000000000000000000000000600052604160045260246000fd5b604051610120810167ffffffffffffffff811182821017156148a0576148a061484d565b60405290565b604051601f82017fffffffffffffffffffffffffffffffffffffffffffffffffffffffffffffffe016810167ffffffffffffffff811182821017156148ed576148ed61484d565b604052919050565b600067ffffffffffffffff82111561490f5761490f61484d565b50601f017fffffffffffffffffffffffffffffffffffffffffffffffffffffffffffffffe01660200190565b600082601f83011261494c57600080fd5b813561495f61495a826148f5565b6148a6565b81815284602083860101111561497457600080fd5b816020850160208301376000918101602001919091529392505050565b600080604083850312156149a457600080fd5b82356149af81614618565b9150602083013567ffffffffffffffff8111156149cb57600080fd5b6149d78582860161493b565b9150509250929050565b6000602082840312156149f357600080fd5b813567ffffffffffffffff811115614a0a57600080fd5b612f4e8482850161493b565b801515811461463a57600080fd5b600060208284031215614a3657600080fd5b813561092181614a16565b60006020808385031215614a5457600080fd5b823567ffffffffffffffff80821115614a6c57600080fd5b818501915085601f830112614a8057600080fd5b813581811115614a9257614a9261484d565b8060051b614aa18582016148a6565b9182528381018501918581019089841115614abb57600080fd5b86860192505b83831015614af757823585811115614ad95760008081fd5b614ae78b89838a010161493b565b8352509186019190860190614ac1565b9998505050505050505050565b60005b83811015614b1f578181015183820152602001614b07565b83811115614b2e576000848401525b50505050565b60008151808452614b4c816020860160208601614b04565b601f017fffffffffffffffffffffffffffffffffffffffffffffffffffffffffffffffe0169290920160200192915050565b6000602080830181845280855180835260408601915060408160051b870101925083870160005b82811015614bf1577fffffffffffffffffffffffffffffffffffffffffffffffffffffffffffffffc0888603018452614bdf858351614b34565b94509285019290850190600101614ba5565b5092979650505050505050565b60008060208385031215614c1157600080fd5b823567ffffffffffffffff811115614c2857600080fd5b614c34858286016146d5565b90969095509350505050565b60008060208385031215614c5357600080fd5b823567ffffffffffffffff80821115614c6b57600080fd5b818501915085601f830112614c7f57600080fd5b813581811115614c8e57600080fd5b866020828501011115614ca057600080fd5b60209290920196919550909350505050565b6020815260006109216020830184614b34565b600060208284031215614cd757600080fd5b5035919050565b60008060408385031215614cf157600080fd5b8235614cfc81614618565b946020939093013593505050565b6cffffffffffffffffffffffffff8116811461463a57600080fd5b63ffffffff8116811461463a57600080fd5b67ffffffffffffffff8116811461463a57600080fd5b600080600080600080600060e0888a031215614d6857600080fd5b8735614d7381614d0a565b96506020880135614d8381614d25565b95506040880135614d9381614d37565b94506060880135614da381614d37565b93506080880135614db381614d37565b925060a0880135614dc381614d37565b8092505060c0880135905092959891949750929550565b7f4e487b7100000000000000000000000000000000000000000000000000000000600052601160045260246000fd5b60008219821115614e1c57614e1c614dda565b500190565b6000817fffffffffffffffffffffffffffffffffffffffffffffffffffffffffffffffff0483118215151615614e5957614e59614dda565b500290565b600060208284031215614e7057600080fd5b5051919050565b600082821015614e8957614e89614dda565b500390565b80516139b981614618565b600060208284031215614eab57600080fd5b815161092181614618565b80516139b981614d37565b805161ffff811681146139b957600080fd5b600060e08284031215614ee557600080fd5b60405160e0810181811067ffffffffffffffff82111715614f0857614f0861484d565b80604052508091508251614f1b81614d0a565b81526020830151614f2b81614d25565b60208201526040830151614f3e81614d37565b60408201526060830151614f5181614d37565b6060820152614f6260808401614eb6565b6080820152614f7360a08401614eb6565b60a082015260c083015160c08201525092915050565b6000614f9761495a846148f5565b9050828152838383011115614fab57600080fd5b610921836020830184614b04565b600082601f830112614fca57600080fd5b61092183835160208501614f89565b600060208284031215614feb57600080fd5b815167ffffffffffffffff8082111561500357600080fd5b908301906101e0828603121561501857600080fd5b61502061487c565b61502983614e8e565b815261503760208401614e8e565b602082015261504860408401614e8e565b604082015261505960608401614e8e565b606082015261506a60808401614eb6565b608082015261507b60a08401614ec1565b60a082015261508d8660c08501614ed3565b60c082015261509f6101a08401614e8e565b60e08201526101c0830151828111156150b757600080fd5b6150c387828601614fb9565b6101008301525095945050505050565b6000602082840312156150e557600080fd5b815161092181614a16565b7f4e487b7100000000000000000000000000000000000000000000000000000000600052603260045260246000fd5b60008351615131818460208801614b04565b60609390931b7fffffffffffffffffffffffffffffffffffffffff000000000000000000000000169190920190815260140192915050565b60007fffffffffffffffffffffffffffffffffffffffffffffffffffffffffffffffff820361519a5761519a614dda565b5060010190565b8183823760009101908152919050565b6000602082840312156151c357600080fd5b815167ffffffffffffffff8111156151da57600080fd5b8201601f810184136151eb57600080fd5b612f4e84825160208401614f89565b60007bffffffffffffffffffffffffffffffffffffffffffffffffffffffff80831681851680830382111561523157615231614dda565b01949350505050565b6000825161524c818460208701614b04565b919091019291505056fe416464726573733a206c6f772d6c6576656c2064656c65676174652063616c6c206661696c6564a164736f6c634300080d000a",
  "devdoc": {
    "details": "This contract subscribes to the following HolographERC721 events:       - onIsApprovedForAll       - customContractURI       Do not enable or subscribe to any other events unless you modified your source code for them.",
    "errors": {
      "MarketFilterAddressNotSupportedForChain()": [
        {
          "details": "Used for enabling and disabling filter for the given chain."
        }
      ],
      "MarketFilterDAOAddressNotSupportedForChain()": [
        {
          "details": "Used for enabling and disabling filter for the given chain."
        }
      ],
      "OperatorNotAllowed(address)": [
        {
          "details": "Used when strict enforcement of marketplaces for creator royalties is desired."
        }
      ],
      "RemoteOperatorFilterRegistryCallFailed()": [
        {
          "details": "Used for bubbling error up to clients."
        }
      ]
    },
    "kind": "dev",
    "methods": {
      "adminMint(address,uint256)": {
        "params": {
          "quantity": "quantity to mint",
          "recipient": "recipient to mint to"
        }
      },
      "adminMintAirdrop(address[])": {
        "details": "Mints multiple editions to the given list of addresses.",
        "params": {
          "recipients": "list of addresses to send the newly minted editions to"
        }
      },
      "constructor": {
        "details": "Constructor is left empty and init is used instead"
      },
      "contractURI()": {
        "returns": {
          "_0": "Contract URI"
        }
      },
      "init(bytes)": {
        "details": "This function is called by the deployer/factory when creating a contract",
        "params": {
          "initPayload": "abi encoded payload to use for contract initilaization"
        }
      },
      "isAdmin(address)": {
        "details": "Getter for admin role associated with the contract to handle metadata",
        "returns": {
          "_0": "boolean if address is admin"
        }
      },
      "manageMarketFilterSubscription(bool)": {
        "params": {
          "enable": "Enable filtering to non-royalty payout marketplaces"
        }
      },
      "mintedPerAddress(address)": {
        "details": "Number of NFTs the user has minted per address",
        "params": {
          "minter": "to get counts for"
        }
      },
      "purchase(uint256)": {
        "details": "This allows the user to purchase/mint a edition at the given price in the contract."
      },
      "purchasePresale(uint256,uint256,uint256,bytes32[])": {
        "params": {
          "maxQuantity": "max quantity that can be purchased via merkle proof #",
          "merkleProof": "proof for presale mint",
          "pricePerToken": "price that each token is purchased at",
          "quantity": "quantity to purchase"
        }
      },
      "saleDetails()": {
        "returns": {
          "_0": "SaleDetails sale information details"
        }
      },
      "setFundsRecipient(address)": {
        "params": {
          "newRecipientAddress": "new funds recipient address"
        }
      },
      "setMetadataRenderer(address,bytes)": {
        "params": {
          "newRenderer": "new renderer address to use",
          "setupRenderer": "data to setup new renderer with"
        }
      },
      "setSaleConfiguration(uint104,uint32,uint64,uint64,uint64,uint64,bytes32)": {
        "details": "This sets the sales configuration",
        "params": {
          "maxSalePurchasePerAddress": "Max # of purchases (public) per address allowed",
          "presaleEnd": "unix timestamp when the presale ends",
          "presaleMerkleRoot": "merkle root for the presale information",
          "presaleStart": "unix timestamp when the presale starts",
          "publicSaleEnd": "unix timestamp when the public sale ends (set to 0 to disable)",
          "publicSalePrice": "New public sale price",
          "publicSaleStart": "unix timestamp when the public sale starts"
        }
      },
      "tokenURI(uint256)": {
        "params": {
          "tokenId": "id of token to get URI for"
        },
        "returns": {
          "_0": "Token URI"
        }
      },
      "updateMarketFilterSettings(bytes)": {
        "params": {
          "args": "Calldata args to pass to the registry"
        }
      }
    },
    "stateVariables": {
      "_currentTokenId": {
        "details": "Internal reference used for minting incremental token ids."
      },
      "_dropsPriceOracleSlot": {
        "details": "bytes32(uint256(keccak256('eip1967.Holograph.dropsPriceOracle')) - 1)"
      },
      "erc721TransferHelper": {
        "details": "HOLOGRAPH transfer helper address for auto-approval"
      },
      "marketFilterAddress": {
        "details": "Address of the market filter registry"
      },
      "operatorFilterRegistry": {
        "details": "Address of the operator filter registry"
      },
      "presaleMintsByAddress": {
        "details": "Mapping for presale mint counts by address to allow public mint limit"
      },
      "totalMintsByAddress": {
        "details": "Mapping for presale mint counts by address to allow public mint limit"
      }
    },
    "version": 1
  },
  "userdoc": {
    "errors": {
      "Access_MissingRoleOrAdmin(bytes32)": [
        {
          "notice": "Missing the given role or admin access"
        }
      ],
      "Access_OnlyAdmin()": [
        {
          "notice": "Only admin can access this function"
        }
      ],
      "Access_WithdrawNotAllowed()": [
        {
          "notice": "Withdraw is not allowed by this user"
        }
      ],
      "Admin_InvalidUpgradeAddress(address)": [
        {
          "notice": "Invalid admin upgrade address"
        }
      ],
      "Admin_UnableToFinalizeNotOpenEdition()": [
        {
          "notice": "Unable to finalize an edition not marked as open (size set to uint64_max_value)"
        }
      ],
      "ExternalMetadataRenderer_CallFailed()": [
        {
          "notice": "Call to external metadata renderer failed."
        }
      ],
      "MarketFilterAddressNotSupportedForChain()": [
        {
          "notice": "Thrown when there is no active market filter address supported for the current chain"
        }
      ],
      "MarketFilterDAOAddressNotSupportedForChain()": [
        {
          "notice": "Thrown when there is no active market filter DAO address supported for the current chain"
        }
      ],
      "MintFee_FundsSendFailure()": [
        {
          "notice": "Mint fee send failure"
        }
      ],
      "Mint_SoldOut()": [
        {
          "notice": "NFT sold out"
        }
      ],
      "OperatorNotAllowed(address)": [
        {
          "notice": "Thrown when the operator for the contract is not allowed"
        }
      ],
      "Presale_Inactive()": [
        {
          "notice": "Presale is inactive"
        }
      ],
      "Presale_MerkleNotApproved()": [
        {
          "notice": "Presale merkle root is invalid"
        }
      ],
      "Presale_TooManyForAddress()": [
        {
          "notice": "Too many presale for address"
        }
      ],
      "Purchase_TooManyForAddress()": [
        {
          "notice": "Too many purchase for address"
        }
      ],
      "Purchase_WrongPrice(uint256)": [
        {
          "notice": "Wrong price for purchase"
        }
      ],
      "RemoteOperatorFilterRegistryCallFailed()": [
        {
          "notice": "Used when the operator filter registry external call fails"
        }
      ],
      "Sale_Inactive()": [
        {
          "notice": "Sale is inactive"
        }
      ],
      "Setup_RoyaltyPercentageTooHigh(uint16)": [
        {
          "notice": "Royalty percentage too high"
        }
      ],
      "Withdraw_FundsSendFailure()": [
        {
          "notice": "Cannot withdraw funds due to ETH send failure."
        }
      ]
    },
    "events": {
      "FundsRecipientChanged(address,address)": {
        "notice": "Event emitted when the funds recipient is changed"
      },
      "FundsWithdrawn(address,address,uint256,address,uint256)": {
        "notice": "Event emitted when the funds are withdrawn from the minting contract"
      },
      "MintFeePayout(uint256,address,bool)": {
        "notice": "Event emitted for mint fee payout"
      },
      "OpenMintFinalized(address,uint256)": {
        "notice": "Event emitted when an open mint is finalized and further minting is closed forever on the contract."
      },
      "Sale(address,uint256,uint256,uint256)": {
        "notice": "Event emitted for each sale"
      },
      "SalesConfigChanged(address)": {
        "notice": "Sales configuration has been changed"
      },
      "UpdatedMetadataRenderer(address,address)": {
        "notice": "Event emitted when metadata renderer is updated."
      }
    },
    "kind": "user",
    "methods": {
      "adminMint(address,uint256)": {
        "notice": "Admin mint tokens to a recipient for free"
      },
      "config()": {
        "notice": "Configuration for NFT minting contract storage"
      },
      "contractURI()": {
        "notice": "Contract URI Getter, proxies to metadataRenderer"
      },
      "finalizeOpenEdition()": {
        "notice": "Admin function to finalize and open edition sale"
      },
      "init(bytes)": {
        "notice": "Used internally to initialize the contract instead of through a constructor"
      },
      "manageMarketFilterSubscription(bool)": {
        "notice": "Manage subscription for marketplace filtering based off royalty payouts."
      },
      "metadataRenderer()": {
        "notice": "Getter for metadataRenderer contract"
      },
      "multicall(bytes[])": {
        "notice": "PUBLIC STATE CHANGING FUNCTIONS available to all"
      },
      "owner()": {
        "notice": "PUBLIC NON STATE CHANGING FUNCTIONS dynamic"
      },
      "purchasePresale(uint256,uint256,uint256,bytes32[])": {
        "notice": "Merkle-tree based presale purchase function"
      },
      "saleDetails()": {
        "notice": "Sale details"
      },
      "salesConfig()": {
        "notice": "Sales configuration"
      },
      "setFundsRecipient(address)": {
        "notice": "Set a different funds recipient"
      },
      "setMetadataRenderer(address,bytes)": {
        "notice": "Set a new metadata renderer"
      },
      "supportsInterface(bytes4)": {
        "notice": "PUBLIC NON STATE CHANGING FUNCTIONS static"
      },
      "tokenURI(uint256)": {
        "notice": "Token URI Getter, proxies to metadataRenderer"
      },
      "updateMarketFilterSettings(bytes)": {
        "notice": "Proxy to update market filter settings in the main registry contractsRequires admin permissions"
      },
      "withdraw()": {
        "notice": "This withdraws ETH from the contract to the contract owner."
      }
    },
    "version": 1
  },
  "storageLayout": {
    "storage": [
      {
        "astId": 9409,
        "contract": "contracts/drops/token/HolographDropsEditionsV1.sol:HolographDropsEditionsV1",
        "label": "_currentTokenId",
        "offset": 0,
        "slot": "0",
        "type": "t_uint224"
      },
      {
        "astId": 9412,
        "contract": "contracts/drops/token/HolographDropsEditionsV1.sol:HolographDropsEditionsV1",
        "label": "erc721TransferHelper",
        "offset": 0,
        "slot": "1",
        "type": "t_address"
      },
      {
        "astId": 9415,
        "contract": "contracts/drops/token/HolographDropsEditionsV1.sol:HolographDropsEditionsV1",
        "label": "marketFilterAddress",
        "offset": 0,
        "slot": "2",
        "type": "t_address"
      },
      {
        "astId": 9419,
        "contract": "contracts/drops/token/HolographDropsEditionsV1.sol:HolographDropsEditionsV1",
        "label": "operatorFilterRegistry",
        "offset": 0,
        "slot": "3",
        "type": "t_contract(IOperatorFilterRegistry)7640"
      },
      {
        "astId": 9423,
        "contract": "contracts/drops/token/HolographDropsEditionsV1.sol:HolographDropsEditionsV1",
        "label": "config",
        "offset": 0,
        "slot": "4",
        "type": "t_struct(Configuration)9290_storage"
      },
      {
        "astId": 9427,
        "contract": "contracts/drops/token/HolographDropsEditionsV1.sol:HolographDropsEditionsV1",
        "label": "salesConfig",
        "offset": 0,
        "slot": "6",
        "type": "t_struct(SalesConfiguration)9363_storage"
      },
      {
        "astId": 9432,
        "contract": "contracts/drops/token/HolographDropsEditionsV1.sol:HolographDropsEditionsV1",
        "label": "presaleMintsByAddress",
        "offset": 0,
        "slot": "9",
        "type": "t_mapping(t_address,t_uint256)"
      },
      {
        "astId": 9437,
        "contract": "contracts/drops/token/HolographDropsEditionsV1.sol:HolographDropsEditionsV1",
        "label": "totalMintsByAddress",
        "offset": 0,
        "slot": "10",
        "type": "t_mapping(t_address,t_uint256)"
      }
    ],
    "types": {
      "t_address": {
        "encoding": "inplace",
        "label": "address",
        "numberOfBytes": "20"
      },
      "t_address_payable": {
        "encoding": "inplace",
        "label": "address payable",
        "numberOfBytes": "20"
      },
      "t_bytes32": {
        "encoding": "inplace",
        "label": "bytes32",
        "numberOfBytes": "32"
      },
      "t_contract(IMetadataRenderer)7446": {
        "encoding": "inplace",
        "label": "contract IMetadataRenderer",
        "numberOfBytes": "20"
      },
      "t_contract(IOperatorFilterRegistry)7640": {
        "encoding": "inplace",
        "label": "contract IOperatorFilterRegistry",
        "numberOfBytes": "20"
      },
      "t_mapping(t_address,t_uint256)": {
        "encoding": "mapping",
        "key": "t_address",
        "label": "mapping(address => uint256)",
        "numberOfBytes": "32",
        "value": "t_uint256"
      },
      "t_struct(Configuration)9290_storage": {
        "encoding": "inplace",
        "label": "struct Configuration",
        "members": [
          {
            "astId": 9280,
            "contract": "contracts/drops/token/HolographDropsEditionsV1.sol:HolographDropsEditionsV1",
            "label": "metadataRenderer",
            "offset": 0,
            "slot": "0",
            "type": "t_contract(IMetadataRenderer)7446"
          },
          {
            "astId": 9283,
            "contract": "contracts/drops/token/HolographDropsEditionsV1.sol:HolographDropsEditionsV1",
            "label": "editionSize",
            "offset": 20,
            "slot": "0",
            "type": "t_uint64"
          },
          {
            "astId": 9286,
            "contract": "contracts/drops/token/HolographDropsEditionsV1.sol:HolographDropsEditionsV1",
            "label": "royaltyBPS",
            "offset": 28,
            "slot": "0",
            "type": "t_uint16"
          },
          {
            "astId": 9289,
            "contract": "contracts/drops/token/HolographDropsEditionsV1.sol:HolographDropsEditionsV1",
            "label": "fundsRecipient",
            "offset": 0,
            "slot": "1",
            "type": "t_address_payable"
          }
        ],
        "numberOfBytes": "64"
      },
      "t_struct(SalesConfiguration)9363_storage": {
        "encoding": "inplace",
        "label": "struct SalesConfiguration",
        "members": [
          {
            "astId": 9344,
            "contract": "contracts/drops/token/HolographDropsEditionsV1.sol:HolographDropsEditionsV1",
            "label": "publicSalePrice",
            "offset": 0,
            "slot": "0",
            "type": "t_uint104"
          },
          {
            "astId": 9347,
            "contract": "contracts/drops/token/HolographDropsEditionsV1.sol:HolographDropsEditionsV1",
            "label": "maxSalePurchasePerAddress",
            "offset": 13,
            "slot": "0",
            "type": "t_uint32"
          },
          {
            "astId": 9350,
            "contract": "contracts/drops/token/HolographDropsEditionsV1.sol:HolographDropsEditionsV1",
            "label": "publicSaleStart",
            "offset": 17,
            "slot": "0",
            "type": "t_uint64"
          },
          {
            "astId": 9353,
            "contract": "contracts/drops/token/HolographDropsEditionsV1.sol:HolographDropsEditionsV1",
            "label": "publicSaleEnd",
            "offset": 0,
            "slot": "1",
            "type": "t_uint64"
          },
          {
            "astId": 9356,
            "contract": "contracts/drops/token/HolographDropsEditionsV1.sol:HolographDropsEditionsV1",
            "label": "presaleStart",
            "offset": 8,
            "slot": "1",
            "type": "t_uint64"
          },
          {
            "astId": 9359,
            "contract": "contracts/drops/token/HolographDropsEditionsV1.sol:HolographDropsEditionsV1",
            "label": "presaleEnd",
            "offset": 16,
            "slot": "1",
            "type": "t_uint64"
          },
          {
            "astId": 9362,
            "contract": "contracts/drops/token/HolographDropsEditionsV1.sol:HolographDropsEditionsV1",
            "label": "presaleMerkleRoot",
            "offset": 0,
            "slot": "2",
            "type": "t_bytes32"
          }
        ],
        "numberOfBytes": "96"
      },
      "t_uint104": {
        "encoding": "inplace",
        "label": "uint104",
        "numberOfBytes": "13"
      },
      "t_uint16": {
        "encoding": "inplace",
        "label": "uint16",
        "numberOfBytes": "2"
      },
      "t_uint224": {
        "encoding": "inplace",
        "label": "uint224",
        "numberOfBytes": "28"
      },
      "t_uint256": {
        "encoding": "inplace",
        "label": "uint256",
        "numberOfBytes": "32"
      },
      "t_uint32": {
        "encoding": "inplace",
        "label": "uint32",
        "numberOfBytes": "4"
      },
      "t_uint64": {
        "encoding": "inplace",
        "label": "uint64",
        "numberOfBytes": "8"
      }
    }
  }
}