{
  "address": "0xf489A09556289d78E9135C401580bD59c956c1DB",
  "abi": [
    {
      "inputs": [],
      "stateMutability": "nonpayable",
      "type": "constructor"
    },
    {
      "inputs": [],
      "name": "faucetCooldown",
      "outputs": [
        {
          "internalType": "uint256",
          "name": "",
          "type": "uint256"
        }
      ],
      "stateMutability": "view",
      "type": "function"
    },
    {
      "inputs": [],
      "name": "faucetDripAmount",
      "outputs": [
        {
          "internalType": "uint256",
          "name": "",
          "type": "uint256"
        }
      ],
      "stateMutability": "view",
      "type": "function"
    },
    {
      "inputs": [
        {
          "internalType": "address",
          "name": "address_",
          "type": "address"
        }
      ],
      "name": "grantTokens",
      "outputs": [],
      "stateMutability": "nonpayable",
      "type": "function"
    },
    {
      "inputs": [
        {
          "internalType": "address",
          "name": "address_",
          "type": "address"
        },
        {
          "internalType": "uint256",
          "name": "amountWei_",
          "type": "uint256"
        }
      ],
      "name": "grantTokens",
      "outputs": [],
      "stateMutability": "nonpayable",
      "type": "function"
    },
    {
      "inputs": [
        {
          "internalType": "bytes",
          "name": "data",
          "type": "bytes"
        }
      ],
      "name": "init",
      "outputs": [
        {
          "internalType": "bytes4",
          "name": "",
          "type": "bytes4"
        }
      ],
      "stateMutability": "nonpayable",
      "type": "function"
    },
    {
      "inputs": [
        {
          "internalType": "address",
          "name": "address_",
          "type": "address"
        }
      ],
      "name": "isAllowedToWithdraw",
      "outputs": [
        {
          "internalType": "bool",
          "name": "",
          "type": "bool"
        }
      ],
      "stateMutability": "view",
      "type": "function"
    },
    {
      "inputs": [],
      "name": "owner",
      "outputs": [
        {
          "internalType": "address",
          "name": "",
          "type": "address"
        }
      ],
      "stateMutability": "view",
      "type": "function"
    },
    {
      "inputs": [],
      "name": "requestTokens",
      "outputs": [],
      "stateMutability": "nonpayable",
      "type": "function"
    },
    {
      "inputs": [
        {
          "internalType": "uint256",
          "name": "amountWei_",
          "type": "uint256"
        }
      ],
      "name": "setWithdrawAmount",
      "outputs": [],
      "stateMutability": "nonpayable",
      "type": "function"
    },
    {
      "inputs": [
        {
          "internalType": "uint256",
          "name": "waitTimeSeconds_",
          "type": "uint256"
        }
      ],
      "name": "setWithdrawCooldown",
      "outputs": [],
      "stateMutability": "nonpayable",
      "type": "function"
    },
    {
      "inputs": [],
      "name": "token",
      "outputs": [
        {
          "internalType": "contract ERC20Holograph",
          "name": "",
          "type": "address"
        }
      ],
      "stateMutability": "view",
      "type": "function"
    },
    {
      "inputs": [
        {
          "internalType": "address",
          "name": "receiver_",
          "type": "address"
        }
      ],
      "name": "withdrawAllTokens",
      "outputs": [],
      "stateMutability": "nonpayable",
      "type": "function"
    },
    {
      "inputs": [
        {
          "internalType": "address",
          "name": "receiver_",
          "type": "address"
        },
        {
          "internalType": "uint256",
          "name": "amountWei_",
          "type": "uint256"
        }
      ],
      "name": "withdrawTokens",
      "outputs": [],
      "stateMutability": "nonpayable",
      "type": "function"
    }
  ],
  "transactionHash": "0xda5e7dc8092322d71557c5024db9244dab43a6ed4762a163a36cdd3870c64877",
  "args": [],
  "numDeployments": 1,
  "solcInputHash": "cecc75f63a02770160a315284b2c8084",
  "bytecode": "0x608060405268056bc75e2d631000006002556201518060035534801561002457600080fd5b50610f59806100346000396000f3fe608060405234801561001057600080fd5b50600436106100df5760003560e01c80638da5cb5b1161008c578063b3d2b44111610066578063b3d2b441146101f8578063c94e643c146100e4578063ceb04e291461020b578063fc0c546a1461021e57600080fd5b80638da5cb5b14610197578063905467f6146101dc578063a878aee6146101e557600080fd5b806344feed29116100bd57806344feed29146101295780634ddf47d41461013c5780637e36320b1461018057600080fd5b806306b091f9146100e45780632a4c80a4146100f9578063359cf2b714610121575b600080fd5b6100f76100f2366004610d31565b61023e565b005b61010c610107366004610d5d565b610460565b60405190151581526020015b60405180910390f35b6100f76104dd565b6100f7610137366004610d81565b610701565b61014f61014a366004610dc9565b610787565b6040517fffffffff000000000000000000000000000000000000000000000000000000009091168152602001610118565b61018960035481565b604051908152602001610118565b6000546101b79073ffffffffffffffffffffffffffffffffffffffff1681565b60405173ffffffffffffffffffffffffffffffffffffffff9091168152602001610118565b61018960025481565b6100f76101f3366004610d5d565b6108f3565b6100f7610206366004610d5d565b610aa9565b6100f7610219366004610d81565b610c89565b6001546101b79073ffffffffffffffffffffffffffffffffffffffff1681565b60005473ffffffffffffffffffffffffffffffffffffffff1633146102c4576040517f08c379a000000000000000000000000000000000000000000000000000000000815260206004820152601760248201527f43616c6c6572206973206e6f7420746865206f776e657200000000000000000060448201526064015b60405180910390fd5b6001546040517f70a08231000000000000000000000000000000000000000000000000000000008152306004820152829173ffffffffffffffffffffffffffffffffffffffff16906370a0823190602401602060405180830381865afa158015610332573d6000803e3d6000fd5b505050506040513d601f19601f820116820180604052508101906103569190610e98565b10156103be576040517f08c379a000000000000000000000000000000000000000000000000000000000815260206004820152601260248201527f496e73756666696369656e742066756e6473000000000000000000000000000060448201526064016102bb565b6001546040517fa9059cbb00000000000000000000000000000000000000000000000000000000815273ffffffffffffffffffffffffffffffffffffffff8481166004830152602482018490529091169063a9059cbb906044016020604051808303816000875af1158015610437573d6000803e3d6000fd5b505050506040513d601f19601f8201168201806040525081019061045b9190610eb1565b505050565b73ffffffffffffffffffffffffffffffffffffffff8116600090815260046020526040812054810361049457506001919050565b60035473ffffffffffffffffffffffffffffffffffffffff83166000908152600460205260409020546104c79190610ed3565b42106104d557506001919050565b506000919050565b6104e633610460565b61054c576040517f08c379a000000000000000000000000000000000000000000000000000000000815260206004820152600f60248201527f436f6d65206261636b206c61746572000000000000000000000000000000000060448201526064016102bb565b6002546001546040517f70a0823100000000000000000000000000000000000000000000000000000000815230600482015273ffffffffffffffffffffffffffffffffffffffff909116906370a0823190602401602060405180830381865afa1580156105bd573d6000803e3d6000fd5b505050506040513d601f19601f820116820180604052508101906105e19190610e98565b1015610649576040517f08c379a000000000000000000000000000000000000000000000000000000000815260206004820152600f60248201527f46617563657420697320656d707479000000000000000000000000000000000060448201526064016102bb565b3360008181526004602081905260409182902042905560015460025492517fa9059cbb00000000000000000000000000000000000000000000000000000000815291820193909352602481019190915273ffffffffffffffffffffffffffffffffffffffff9091169063a9059cbb906044016020604051808303816000875af11580156106da573d6000803e3d6000fd5b505050506040513d601f19601f820116820180604052508101906106fe9190610eb1565b50565b60005473ffffffffffffffffffffffffffffffffffffffff163314610782576040517f08c379a000000000000000000000000000000000000000000000000000000000815260206004820152601760248201527f43616c6c6572206973206e6f7420746865206f776e657200000000000000000060448201526064016102bb565b600355565b60006107b17f4e5f991bca30eca2d4643aaefa807e88f96a4a97398933d572a3c0d973004a015490565b1561083e576040517f08c379a000000000000000000000000000000000000000000000000000000000815260206004820152602660248201527f46617563657420636f6e747261637420697320616c726561647920696e69746960448201527f616c697a6564000000000000000000000000000000000000000000000000000060648201526084016102bb565b600080838060200190518101906108559190610f12565b6001805473ffffffffffffffffffffffffffffffffffffffff9283167fffffffffffffffffffffffff0000000000000000000000000000000000000000918216178255600080549490931693169290921790557f4e5f991bca30eca2d4643aaefa807e88f96a4a97398933d572a3c0d973004a0155507f4ddf47d4000000000000000000000000000000000000000000000000000000009392505050565b60005473ffffffffffffffffffffffffffffffffffffffff163314610974576040517f08c379a000000000000000000000000000000000000000000000000000000000815260206004820152601760248201527f43616c6c6572206973206e6f7420746865206f776e657200000000000000000060448201526064016102bb565b6001546040517f70a0823100000000000000000000000000000000000000000000000000000000815230600482015273ffffffffffffffffffffffffffffffffffffffff9091169063a9059cbb90839083906370a0823190602401602060405180830381865afa1580156109ec573d6000803e3d6000fd5b505050506040513d601f19601f82011682018060405250810190610a109190610e98565b6040517fffffffff0000000000000000000000000000000000000000000000000000000060e085901b16815273ffffffffffffffffffffffffffffffffffffffff909216600483015260248201526044015b6020604051808303816000875af1158015610a81573d6000803e3d6000fd5b505050506040513d601f19601f82011682018060405250810190610aa59190610eb1565b5050565b60005473ffffffffffffffffffffffffffffffffffffffff163314610b2a576040517f08c379a000000000000000000000000000000000000000000000000000000000815260206004820152601760248201527f43616c6c6572206973206e6f7420746865206f776e657200000000000000000060448201526064016102bb565b6002546001546040517f70a0823100000000000000000000000000000000000000000000000000000000815230600482015273ffffffffffffffffffffffffffffffffffffffff909116906370a0823190602401602060405180830381865afa158015610b9b573d6000803e3d6000fd5b505050506040513d601f19601f82011682018060405250810190610bbf9190610e98565b1015610c27576040517f08c379a000000000000000000000000000000000000000000000000000000000815260206004820152600f60248201527f46617563657420697320656d707479000000000000000000000000000000000060448201526064016102bb565b6001546002546040517fa9059cbb00000000000000000000000000000000000000000000000000000000815273ffffffffffffffffffffffffffffffffffffffff8481166004830152602482019290925291169063a9059cbb90604401610a62565b60005473ffffffffffffffffffffffffffffffffffffffff163314610d0a576040517f08c379a000000000000000000000000000000000000000000000000000000000815260206004820152601760248201527f43616c6c6572206973206e6f7420746865206f776e657200000000000000000060448201526064016102bb565b600255565b73ffffffffffffffffffffffffffffffffffffffff811681146106fe57600080fd5b60008060408385031215610d4457600080fd5b8235610d4f81610d0f565b946020939093013593505050565b600060208284031215610d6f57600080fd5b8135610d7a81610d0f565b9392505050565b600060208284031215610d9357600080fd5b5035919050565b7f4e487b7100000000000000000000000000000000000000000000000000000000600052604160045260246000fd5b600060208284031215610ddb57600080fd5b813567ffffffffffffffff80821115610df357600080fd5b818401915084601f830112610e0757600080fd5b813581811115610e1957610e19610d9a565b604051601f82017fffffffffffffffffffffffffffffffffffffffffffffffffffffffffffffffe0908116603f01168101908382118183101715610e5f57610e5f610d9a565b81604052828152876020848701011115610e7857600080fd5b826020860160208301376000928101602001929092525095945050505050565b600060208284031215610eaa57600080fd5b5051919050565b600060208284031215610ec357600080fd5b81518015158114610d7a57600080fd5b60008219821115610f0d577f4e487b7100000000000000000000000000000000000000000000000000000000600052601160045260246000fd5b500190565b60008060408385031215610f2557600080fd5b8251610f3081610d0f565b6020840151909250610f4181610d0f565b80915050925092905056fea164736f6c634300080d000a",
  "devdoc": {
    "kind": "dev",
    "methods": {
      "constructor": {
        "details": "To make exact CREATE2 deployment possible, constructor is left empty. We utilize the \"init\" function instead."
      },
      "init(bytes)": {
        "details": "Special function to allow a one time initialisation on deployment."
      }
    },
    "version": 1
  },
  "userdoc": {
    "kind": "user",
    "methods": {
      "constructor": {
        "notice": "Constructor is empty and not utilised."
      },
      "grantTokens(address)": {
        "notice": "Grant tokens to receiver from faucet's own balance. Not rate limited."
      },
      "init(bytes)": {
        "notice": "Initializes the token."
      },
      "isAllowedToWithdraw(address)": {
        "notice": "Check whether an address can request drip and is not on cooldown."
      },
      "requestTokens()": {
        "notice": "Get tokens from faucet's own balance. Rate limited."
      },
      "setWithdrawAmount(uint256)": {
        "notice": "Configure the drip request amount. Amount is in wei."
      },
      "setWithdrawCooldown(uint256)": {
        "notice": "Configure the time between two drip requests. Time is in seconds."
      },
      "withdrawAllTokens(address)": {
        "notice": "Withdraw all funds from the faucet."
      },
      "withdrawTokens(address,uint256)": {
        "notice": "Withdraw amount of funds from the faucet. Amount is in wei."
      }
    },
    "version": 1
  },
  "storageLayout": {
    "storage": [
      {
        "astId": 12743,
        "contract": "contracts/faucet/Faucet.sol:Faucet",
        "label": "owner",
        "offset": 0,
        "slot": "0",
        "type": "t_address"
      },
      {
        "astId": 12746,
        "contract": "contracts/faucet/Faucet.sol:Faucet",
        "label": "token",
        "offset": 0,
        "slot": "1",
        "type": "t_contract(ERC20Holograph)13221"
      },
      {
        "astId": 12749,
        "contract": "contracts/faucet/Faucet.sol:Faucet",
        "label": "faucetDripAmount",
        "offset": 0,
        "slot": "2",
        "type": "t_uint256"
      },
      {
        "astId": 12752,
        "contract": "contracts/faucet/Faucet.sol:Faucet",
        "label": "faucetCooldown",
        "offset": 0,
        "slot": "3",
        "type": "t_uint256"
      },
      {
        "astId": 12756,
        "contract": "contracts/faucet/Faucet.sol:Faucet",
        "label": "lastAccessTime",
        "offset": 0,
        "slot": "4",
        "type": "t_mapping(t_address,t_uint256)"
      }
    ],
    "types": {
      "t_address": {
        "encoding": "inplace",
        "label": "address",
        "numberOfBytes": "20"
      },
      "t_contract(ERC20Holograph)13221": {
        "encoding": "inplace",
        "label": "contract ERC20Holograph",
        "numberOfBytes": "20"
      },
      "t_mapping(t_address,t_uint256)": {
        "encoding": "mapping",
        "key": "t_address",
        "label": "mapping(address => uint256)",
        "numberOfBytes": "32",
        "value": "t_uint256"
      },
      "t_uint256": {
        "encoding": "inplace",
        "label": "uint256",
        "numberOfBytes": "32"
      }
    }
  }
}