{
  "address": "0x6256a077F0F9db63Ff80fA7CC10A75a40F554edF",
  "abi": [
    {
      "inputs": [],
      "stateMutability": "nonpayable",
      "type": "constructor"
    },
    {
      "inputs": [
        {
          "internalType": "bytes32",
          "name": "role",
          "type": "bytes32"
        }
      ],
      "name": "Access_MissingRoleOrAdmin",
      "type": "error"
    },
    {
      "inputs": [],
      "name": "Access_OnlyAdmin",
      "type": "error"
    },
    {
      "inputs": [],
      "name": "Access_WithdrawNotAllowed",
      "type": "error"
    },
    {
      "inputs": [
        {
          "internalType": "address",
          "name": "proposedAddress",
          "type": "address"
        }
      ],
      "name": "Admin_InvalidUpgradeAddress",
      "type": "error"
    },
    {
      "inputs": [],
      "name": "Admin_UnableToFinalizeNotOpenEdition",
      "type": "error"
    },
    {
      "inputs": [],
      "name": "ExternalMetadataRenderer_CallFailed",
      "type": "error"
    },
    {
      "inputs": [],
      "name": "FeePaymentFailed",
      "type": "error"
    },
    {
      "inputs": [],
      "name": "MintFee_FundsSendFailure",
      "type": "error"
    },
    {
      "inputs": [],
      "name": "Mint_SoldOut",
      "type": "error"
    },
    {
      "inputs": [],
      "name": "Presale_Inactive",
      "type": "error"
    },
    {
      "inputs": [],
      "name": "Presale_MerkleNotApproved",
      "type": "error"
    },
    {
      "inputs": [],
      "name": "Presale_TooManyForAddress",
      "type": "error"
    },
    {
      "inputs": [],
      "name": "Purchase_TooManyForAddress",
      "type": "error"
    },
    {
      "inputs": [
        {
          "internalType": "uint256",
          "name": "correctPrice",
          "type": "uint256"
        }
      ],
      "name": "Purchase_WrongPrice",
      "type": "error"
    },
    {
      "inputs": [],
      "name": "Sale_Inactive",
      "type": "error"
    },
    {
      "inputs": [
        {
          "internalType": "uint16",
          "name": "maxRoyaltyBPS",
          "type": "uint16"
        }
      ],
      "name": "Setup_RoyaltyPercentageTooHigh",
      "type": "error"
    },
    {
      "inputs": [],
      "name": "Withdraw_FundsSendFailure",
      "type": "error"
    },
    {
      "anonymous": false,
      "inputs": [
        {
          "indexed": true,
          "internalType": "address",
          "name": "source",
          "type": "address"
        },
        {
          "indexed": false,
          "internalType": "uint256",
          "name": "amount",
          "type": "uint256"
        }
      ],
      "name": "FundsReceived",
      "type": "event"
    },
    {
      "anonymous": false,
      "inputs": [
        {
          "indexed": true,
          "internalType": "address",
          "name": "newAddress",
          "type": "address"
        },
        {
          "indexed": true,
          "internalType": "address",
          "name": "changedBy",
          "type": "address"
        }
      ],
      "name": "FundsRecipientChanged",
      "type": "event"
    },
    {
      "anonymous": false,
      "inputs": [
        {
          "indexed": true,
          "internalType": "address",
          "name": "withdrawnBy",
          "type": "address"
        },
        {
          "indexed": true,
          "internalType": "address",
          "name": "withdrawnTo",
          "type": "address"
        },
        {
          "indexed": false,
          "internalType": "uint256",
          "name": "amount",
          "type": "uint256"
        }
      ],
      "name": "FundsWithdrawn",
      "type": "event"
    },
    {
      "anonymous": false,
      "inputs": [
        {
          "indexed": false,
          "internalType": "uint256",
          "name": "mintFeeAmount",
          "type": "uint256"
        },
        {
          "indexed": false,
          "internalType": "address",
          "name": "mintFeeRecipient",
          "type": "address"
        },
        {
          "indexed": false,
          "internalType": "bool",
          "name": "success",
          "type": "bool"
        }
      ],
      "name": "MintFeePayout",
      "type": "event"
    },
    {
      "anonymous": false,
      "inputs": [
        {
          "indexed": true,
          "internalType": "address",
          "name": "sender",
          "type": "address"
        },
        {
          "indexed": false,
          "internalType": "uint256",
          "name": "numberOfMints",
          "type": "uint256"
        }
      ],
      "name": "OpenMintFinalized",
      "type": "event"
    },
    {
      "anonymous": false,
      "inputs": [
        {
          "indexed": true,
          "internalType": "address",
          "name": "to",
          "type": "address"
        },
        {
          "indexed": true,
          "internalType": "uint256",
          "name": "quantity",
          "type": "uint256"
        },
        {
          "indexed": true,
          "internalType": "uint256",
          "name": "pricePerToken",
          "type": "uint256"
        },
        {
          "indexed": false,
          "internalType": "uint256",
          "name": "firstPurchasedTokenId",
          "type": "uint256"
        }
      ],
      "name": "Sale",
      "type": "event"
    },
    {
      "anonymous": false,
      "inputs": [
        {
          "indexed": true,
          "internalType": "address",
          "name": "changedBy",
          "type": "address"
        }
      ],
      "name": "SalesConfigChanged",
      "type": "event"
    },
    {
      "anonymous": false,
      "inputs": [
        {
          "indexed": false,
          "internalType": "address",
          "name": "sender",
          "type": "address"
        },
        {
          "indexed": false,
          "internalType": "contract IMetadataRenderer",
          "name": "renderer",
          "type": "address"
        }
      ],
      "name": "UpdatedMetadataRenderer",
      "type": "event"
    },
    {
      "stateMutability": "payable",
      "type": "fallback"
    },
    {
      "inputs": [],
      "name": "HOLOGRAPH_MINT_FEE",
      "outputs": [
        {
          "internalType": "uint256",
          "name": "",
          "type": "uint256"
        }
      ],
      "stateMutability": "view",
      "type": "function"
    },
    {
      "inputs": [
        {
          "internalType": "address",
          "name": "recipient",
          "type": "address"
        },
        {
          "internalType": "uint256",
          "name": "quantity",
          "type": "uint256"
        }
      ],
      "name": "adminMint",
      "outputs": [
        {
          "internalType": "uint256",
          "name": "",
          "type": "uint256"
        }
      ],
      "stateMutability": "nonpayable",
      "type": "function"
    },
    {
      "inputs": [
        {
          "internalType": "address[]",
          "name": "recipients",
          "type": "address[]"
        }
      ],
      "name": "adminMintAirdrop",
      "outputs": [
        {
          "internalType": "uint256",
          "name": "",
          "type": "uint256"
        }
      ],
      "stateMutability": "nonpayable",
      "type": "function"
    },
    {
      "inputs": [],
      "name": "config",
      "outputs": [
        {
          "internalType": "contract IMetadataRenderer",
          "name": "metadataRenderer",
          "type": "address"
        },
        {
          "internalType": "uint64",
          "name": "editionSize",
          "type": "uint64"
        },
        {
          "internalType": "uint16",
          "name": "royaltyBPS",
          "type": "uint16"
        },
        {
          "internalType": "address payable",
          "name": "fundsRecipient",
          "type": "address"
        }
      ],
      "stateMutability": "view",
      "type": "function"
    },
    {
      "inputs": [],
      "name": "contractURI",
      "outputs": [
        {
          "internalType": "string",
          "name": "",
          "type": "string"
        }
      ],
      "stateMutability": "view",
      "type": "function"
    },
    {
      "inputs": [],
      "name": "dropsPriceOracle",
      "outputs": [
        {
          "internalType": "contract IDropsPriceOracle",
          "name": "",
          "type": "address"
        }
      ],
      "stateMutability": "view",
      "type": "function"
    },
    {
      "inputs": [],
      "name": "erc721TransferHelper",
      "outputs": [
        {
          "internalType": "address",
          "name": "",
          "type": "address"
        }
      ],
      "stateMutability": "view",
      "type": "function"
    },
    {
      "inputs": [],
      "name": "finalizeOpenEdition",
      "outputs": [],
      "stateMutability": "nonpayable",
      "type": "function"
    },
    {
      "inputs": [
        {
          "internalType": "uint256",
          "name": "quantity",
          "type": "uint256"
        }
      ],
      "name": "getHolographFeeUsd",
      "outputs": [
        {
          "internalType": "uint256",
          "name": "fee",
          "type": "uint256"
        }
      ],
      "stateMutability": "view",
      "type": "function"
    },
    {
      "inputs": [
        {
          "internalType": "uint256",
          "name": "quantity",
          "type": "uint256"
        }
      ],
      "name": "getHolographFeeWei",
      "outputs": [
        {
          "internalType": "uint256",
          "name": "",
          "type": "uint256"
        }
      ],
      "stateMutability": "view",
      "type": "function"
    },
    {
      "inputs": [],
      "name": "getNativePrice",
      "outputs": [
        {
          "internalType": "uint256",
          "name": "",
          "type": "uint256"
        }
      ],
      "stateMutability": "view",
      "type": "function"
    },
    {
      "inputs": [
        {
          "internalType": "bytes",
          "name": "initPayload",
          "type": "bytes"
        }
      ],
      "name": "init",
      "outputs": [
        {
          "internalType": "bytes4",
          "name": "",
          "type": "bytes4"
        }
      ],
      "stateMutability": "nonpayable",
      "type": "function"
    },
    {
      "inputs": [
        {
          "internalType": "address",
          "name": "user",
          "type": "address"
        }
      ],
      "name": "isAdmin",
      "outputs": [
        {
          "internalType": "bool",
          "name": "",
          "type": "bool"
        }
      ],
      "stateMutability": "view",
      "type": "function"
    },
    {
      "inputs": [
        {
          "internalType": "address",
          "name": "wallet",
          "type": "address"
        }
      ],
      "name": "isOwner",
      "outputs": [
        {
          "internalType": "bool",
          "name": "",
          "type": "bool"
        }
      ],
      "stateMutability": "view",
      "type": "function"
    },
    {
      "inputs": [],
      "name": "isOwner",
      "outputs": [
        {
          "internalType": "bool",
          "name": "",
          "type": "bool"
        }
      ],
      "stateMutability": "view",
      "type": "function"
    },
    {
      "inputs": [],
      "name": "metadataRenderer",
      "outputs": [
        {
          "internalType": "contract IMetadataRenderer",
          "name": "",
          "type": "address"
        }
      ],
      "stateMutability": "view",
      "type": "function"
    },
    {
      "inputs": [
        {
          "internalType": "address",
          "name": "minter",
          "type": "address"
        }
      ],
      "name": "mintedPerAddress",
      "outputs": [
        {
          "components": [
            {
              "internalType": "uint256",
              "name": "totalMints",
              "type": "uint256"
            },
            {
              "internalType": "uint256",
              "name": "presaleMints",
              "type": "uint256"
            },
            {
              "internalType": "uint256",
              "name": "publicMints",
              "type": "uint256"
            }
          ],
          "internalType": "struct AddressMintDetails",
          "name": "",
          "type": "tuple"
        }
      ],
      "stateMutability": "view",
      "type": "function"
    },
    {
      "inputs": [
        {
          "internalType": "bytes[]",
          "name": "data",
          "type": "bytes[]"
        }
      ],
      "name": "multicall",
      "outputs": [
        {
          "internalType": "bytes[]",
          "name": "results",
          "type": "bytes[]"
        }
      ],
      "stateMutability": "nonpayable",
      "type": "function"
    },
    {
      "inputs": [],
      "name": "name",
      "outputs": [
        {
          "internalType": "string",
          "name": "",
          "type": "string"
        }
      ],
      "stateMutability": "view",
      "type": "function"
    },
    {
      "inputs": [
        {
          "internalType": "address",
          "name": "",
          "type": "address"
        },
        {
          "internalType": "address",
          "name": "_operator",
          "type": "address"
        }
      ],
      "name": "onIsApprovedForAll",
      "outputs": [
        {
          "internalType": "bool",
          "name": "approved",
          "type": "bool"
        }
      ],
      "stateMutability": "view",
      "type": "function"
    },
    {
      "inputs": [],
      "name": "owner",
      "outputs": [
        {
          "internalType": "address",
          "name": "",
          "type": "address"
        }
      ],
      "stateMutability": "view",
      "type": "function"
    },
    {
      "inputs": [
        {
          "internalType": "address",
          "name": "",
          "type": "address"
        }
      ],
      "name": "presaleMintsByAddress",
      "outputs": [
        {
          "internalType": "uint256",
          "name": "",
          "type": "uint256"
        }
      ],
      "stateMutability": "view",
      "type": "function"
    },
    {
      "inputs": [
        {
          "internalType": "uint256",
          "name": "quantity",
          "type": "uint256"
        }
      ],
      "name": "purchase",
      "outputs": [
        {
          "internalType": "uint256",
          "name": "",
          "type": "uint256"
        }
      ],
      "stateMutability": "payable",
      "type": "function"
    },
    {
      "inputs": [
        {
          "internalType": "uint256",
          "name": "quantity",
          "type": "uint256"
        },
        {
          "internalType": "uint256",
          "name": "maxQuantity",
          "type": "uint256"
        },
        {
          "internalType": "uint256",
          "name": "pricePerToken",
          "type": "uint256"
        },
        {
          "internalType": "bytes32[]",
          "name": "merkleProof",
          "type": "bytes32[]"
        }
      ],
      "name": "purchasePresale",
      "outputs": [
        {
          "internalType": "uint256",
          "name": "",
          "type": "uint256"
        }
      ],
      "stateMutability": "payable",
      "type": "function"
    },
    {
      "inputs": [],
      "name": "saleDetails",
      "outputs": [
        {
          "components": [
            {
              "internalType": "bool",
              "name": "publicSaleActive",
              "type": "bool"
            },
            {
              "internalType": "bool",
              "name": "presaleActive",
              "type": "bool"
            },
            {
              "internalType": "uint256",
              "name": "publicSalePrice",
              "type": "uint256"
            },
            {
              "internalType": "uint64",
              "name": "publicSaleStart",
              "type": "uint64"
            },
            {
              "internalType": "uint64",
              "name": "publicSaleEnd",
              "type": "uint64"
            },
            {
              "internalType": "uint64",
              "name": "presaleStart",
              "type": "uint64"
            },
            {
              "internalType": "uint64",
              "name": "presaleEnd",
              "type": "uint64"
            },
            {
              "internalType": "bytes32",
              "name": "presaleMerkleRoot",
              "type": "bytes32"
            },
            {
              "internalType": "uint256",
              "name": "maxSalePurchasePerAddress",
              "type": "uint256"
            },
            {
              "internalType": "uint256",
              "name": "totalMinted",
              "type": "uint256"
            },
            {
              "internalType": "uint256",
              "name": "maxSupply",
              "type": "uint256"
            }
          ],
          "internalType": "struct SaleDetails",
          "name": "",
          "type": "tuple"
        }
      ],
      "stateMutability": "view",
      "type": "function"
    },
    {
      "inputs": [],
      "name": "salesConfig",
      "outputs": [
        {
          "internalType": "uint104",
          "name": "publicSalePrice",
          "type": "uint104"
        },
        {
          "internalType": "uint32",
          "name": "maxSalePurchasePerAddress",
          "type": "uint32"
        },
        {
          "internalType": "uint64",
          "name": "publicSaleStart",
          "type": "uint64"
        },
        {
          "internalType": "uint64",
          "name": "publicSaleEnd",
          "type": "uint64"
        },
        {
          "internalType": "uint64",
          "name": "presaleStart",
          "type": "uint64"
        },
        {
          "internalType": "uint64",
          "name": "presaleEnd",
          "type": "uint64"
        },
        {
          "internalType": "bytes32",
          "name": "presaleMerkleRoot",
          "type": "bytes32"
        }
      ],
      "stateMutability": "view",
      "type": "function"
    },
    {
      "inputs": [
        {
          "internalType": "address payable",
          "name": "newRecipientAddress",
          "type": "address"
        }
      ],
      "name": "setFundsRecipient",
      "outputs": [],
      "stateMutability": "nonpayable",
      "type": "function"
    },
    {
      "inputs": [
        {
          "internalType": "contract IMetadataRenderer",
          "name": "newRenderer",
          "type": "address"
        },
        {
          "internalType": "bytes",
          "name": "setupRenderer",
          "type": "bytes"
        }
      ],
      "name": "setMetadataRenderer",
      "outputs": [],
      "stateMutability": "nonpayable",
      "type": "function"
    },
    {
      "inputs": [
        {
          "internalType": "uint104",
          "name": "publicSalePrice",
          "type": "uint104"
        },
        {
          "internalType": "uint32",
          "name": "maxSalePurchasePerAddress",
          "type": "uint32"
        },
        {
          "internalType": "uint64",
          "name": "publicSaleStart",
          "type": "uint64"
        },
        {
          "internalType": "uint64",
          "name": "publicSaleEnd",
          "type": "uint64"
        },
        {
          "internalType": "uint64",
          "name": "presaleStart",
          "type": "uint64"
        },
        {
          "internalType": "uint64",
          "name": "presaleEnd",
          "type": "uint64"
        },
        {
          "internalType": "bytes32",
          "name": "presaleMerkleRoot",
          "type": "bytes32"
        }
      ],
      "name": "setSaleConfiguration",
      "outputs": [],
      "stateMutability": "nonpayable",
      "type": "function"
    },
    {
      "inputs": [
        {
          "internalType": "bytes4",
          "name": "interfaceId",
          "type": "bytes4"
        }
      ],
      "name": "supportsInterface",
      "outputs": [
        {
          "internalType": "bool",
          "name": "",
          "type": "bool"
        }
      ],
      "stateMutability": "pure",
      "type": "function"
    },
    {
      "inputs": [
        {
          "internalType": "uint256",
          "name": "tokenId",
          "type": "uint256"
        }
      ],
      "name": "tokenURI",
      "outputs": [
        {
          "internalType": "string",
          "name": "",
          "type": "string"
        }
      ],
      "stateMutability": "view",
      "type": "function"
    },
    {
      "inputs": [
        {
          "internalType": "address",
          "name": "",
          "type": "address"
        }
      ],
      "name": "totalMintsByAddress",
      "outputs": [
        {
          "internalType": "uint256",
          "name": "",
          "type": "uint256"
        }
      ],
      "stateMutability": "view",
      "type": "function"
    },
    {
      "inputs": [],
      "name": "version",
      "outputs": [
        {
          "internalType": "string",
          "name": "",
          "type": "string"
        }
      ],
      "stateMutability": "pure",
      "type": "function"
    },
    {
      "inputs": [],
      "name": "withdraw",
      "outputs": [],
      "stateMutability": "nonpayable",
      "type": "function"
    },
    {
      "stateMutability": "payable",
      "type": "receive"
    }
  ],
  "transactionHash": "0x77adfa30259e4301661e740ff731e30efd537be260f3bd16de3bce1b183ce7aa",
  "args": [],
  "numDeployments": 2,
  "solcInputHash": "5cf99ee7d0e398a56ce63e0b82880989",
  "bytecode": "0x608060405234801561001057600080fd5b50614658806100206000396000f3fe60806040526004361061021d5760003560e01c806379502c551161011d578063b8ae5a2c116100b0578063e8a3d4851161007f578063f7cd1d9b11610064578063f7cd1d9b146108d5578063fd82d2a814610902578063ffdb7163146109225761027b565b8063e8a3d485146108ad578063efef39a1146108c25761027b565b8063b8ae5a2c1461080b578063c87b56dd1461082b578063d445b9781461084b578063e58306f91461088d5761027b565b80639123f01e116100ec5780639123f01e1461077a5780639af1135f146107a7578063a15278f3146107c7578063ac9650d8146107de5761027b565b806379502c551461065f5780638cb163f4146107285780638da5cb5b146107505780638f32d59b146107655761027b565b80632f54bf6e116101b057806341e96eb11161017f57806354fd4d501161016457806354fd4d50146105a057806361fea768146105e657806370319970146106135761027b565b806341e96eb11461053a5780634ddf47d41461054f5761027b565b80632f54bf6e146104c35780633474a4a6146104e35780633bcdcc87146105055780633ccfd60b146105255761027b565b806317430c9e116101ec57806317430c9e146103815780631d2c0b38146103a457806324d7806c1461049057806325024a2b146104b05761027b565b8063015eaa7a146102a657806301ffc9a7146102db57806306fdde031461033d57806310a7eb5d1461035f5761027b565b3661027b5761022a610942565b73ffffffffffffffffffffffffffffffffffffffff167f8e47b87b0ef542cdfa1659c551d88bad38aa7f452d2bbb349ab7530dfec8be8f3460405161027191815260200190565b60405180910390a2005b6040517f46756e6374696f6e206e6f7420666f756e6400000000000000000000000000008152601481fd5b3480156102b257600080fd5b506102c66102c1366004613ac5565b6109a0565b60405190151581526020015b60405180910390f35b3480156102e757600080fd5b506102c66102f6366004613afe565b7fffffffff00000000000000000000000000000000000000000000000000000000167f1a95c452000000000000000000000000000000000000000000000000000000001490565b34801561034957600080fd5b506103526109eb565b6040516102d29190613bba565b34801561036b57600080fd5b5061037f61037a366004613bcd565b610aaa565b005b34801561038d57600080fd5b50610396610cb3565b6040519081526020016102d2565b3480156103b057600080fd5b50600454600554600654610437926cffffffffffffffffffffffffff8116926d0100000000000000000000000000820463ffffffff16927101000000000000000000000000000000000090920467ffffffffffffffff9081169281831692680100000000000000008104831692700100000000000000000000000000000000909104169087565b604080516cffffffffffffffffffffffffff909816885263ffffffff909616602088015267ffffffffffffffff948516958701959095529183166060860152821660808501521660a083015260c082015260e0016102d2565b34801561049c57600080fd5b506102c66104ab366004613bcd565b610cd1565b6103966104be366004613c36565b610d2f565b3480156104cf57600080fd5b506102c66104de366004613bcd565b61130d565b3480156104ef57600080fd5b506104f861136c565b6040516102d29190613c97565b34801561051157600080fd5b5061037f610520366004613ea6565b6114d7565b34801561053157600080fd5b5061037f6116bc565b34801561054657600080fd5b5061037f6119cd565b34801561055b57600080fd5b5061056f61056a366004613ef6565b611bb8565b6040517fffffffff0000000000000000000000000000000000000000000000000000000090911681526020016102d2565b3480156105ac57600080fd5b5060408051808201909152600581527f312e302e300000000000000000000000000000000000000000000000000000006020820152610352565b3480156105f257600080fd5b50610396610601366004613bcd565b60076020526000908152604090205481565b34801561061f57600080fd5b5060025473ffffffffffffffffffffffffffffffffffffffff165b60405173ffffffffffffffffffffffffffffffffffffffff90911681526020016102d2565b34801561066b57600080fd5b506002546003546106db9173ffffffffffffffffffffffffffffffffffffffff8082169274010000000000000000000000000000000000000000830467ffffffffffffffff16927c0100000000000000000000000000000000000000000000000000000000900461ffff16911684565b6040805173ffffffffffffffffffffffffffffffffffffffff958616815267ffffffffffffffff909416602085015261ffff909216918301919091529190911660608201526080016102d2565b34801561073457600080fd5b5061063a73ea7f4c52cbd4cf1036cdca8b16aca11f5b09cf6e81565b34801561075c57600080fd5b5061063a612018565b34801561077157600080fd5b506102c6612042565b34801561078657600080fd5b50610396610795366004613bcd565b60086020526000908152604090205481565b3480156107b357600080fd5b506103966107c2366004613f2b565b6120a6565b3480156107d357600080fd5b50610396620f424081565b3480156107ea57600080fd5b506107fe6107f9366004613f44565b6120c3565b6040516102d29190614007565b34801561081757600080fd5b50610396610826366004614087565b6121a2565b34801561083757600080fd5b50610352610846366004613f2b565b612390565b34801561085757600080fd5b5061086b610866366004613bcd565b612569565b60408051825181526020808401519082015291810151908201526060016102d2565b34801561089957600080fd5b506103966108a83660046140c9565b6125ee565b3480156108b957600080fd5b506103526127a1565b6103966108d0366004613f2b565b612811565b3480156108e157600080fd5b5060015461063a9073ffffffffffffffffffffffffffffffffffffffff1681565b34801561090e57600080fd5b5061039661091d366004613f2b565b612d81565b34801561092e57600080fd5b5061037f61093d366004614138565b612d90565b60007fe9fcff60011c1a99f7b7244d1f2d9da93d79ea8ef3654ce590d775575255b2bd543314600081146109995750507fffffffffffffffffffffffffffffffffffffffffffffffffffffffffffffffe036013590565b3391505090565b60015460009073ffffffffffffffffffffffffffffffffffffffff16158015906109e4575060015473ffffffffffffffffffffffffffffffffffffffff8381169116145b9392505050565b6060610a157fe9fcff60011c1a99f7b7244d1f2d9da93d79ea8ef3654ce590d775575255b2bd5490565b73ffffffffffffffffffffffffffffffffffffffff166306fdde036040518163ffffffff1660e01b8152600401600060405180830381865afa158015610a5f573d6000803e3d6000fd5b505050506040513d6000823e601f3d9081017fffffffffffffffffffffffffffffffffffffffffffffffffffffffffffffffe0168201604052610aa591908101906141f5565b905090565b7fb56711ba6bd3ded7639fc335ee7524fe668a79d7558c85992e3f8494cf7727775473ffffffffffffffffffffffffffffffffffffffff16610aea610942565b73ffffffffffffffffffffffffffffffffffffffff1614610b6c576040517f08c379a000000000000000000000000000000000000000000000000000000000815260206004820152601b60248201527f4552433732313a206f776e6572206f6e6c792066756e6374696f6e000000000060448201526064015b60405180910390fd5b73ffffffffffffffffffffffffffffffffffffffff8116610c0f576040517f08c379a000000000000000000000000000000000000000000000000000000000815260206004820152602360248201527f46756e647320526563697069656e742063616e6e6f742062652030206164647260448201527f65737300000000000000000000000000000000000000000000000000000000006064820152608401610b63565b600380547fffffffffffffffffffffffff00000000000000000000000000000000000000001673ffffffffffffffffffffffffffffffffffffffff8316179055610c57610942565b73ffffffffffffffffffffffffffffffffffffffff168173ffffffffffffffffffffffffffffffffffffffff167f70a7ea5c664ab9c21baf3da59bb2f1e1ca33557b08a0031fab4f17076744995160405160405180910390a350565b600454600090610aa5906cffffffffffffffffffffffffff16612fbe565b60008173ffffffffffffffffffffffffffffffffffffffff16610d127fb56711ba6bd3ded7639fc335ee7524fe668a79d7558c85992e3f8494cf7727775490565b73ffffffffffffffffffffffffffffffffffffffff161492915050565b6000610d597f04b524dd539523930d3901481aa9455d7752b49add99e1647adb8b09a31372795490565b600203610dc2576040517f08c379a000000000000000000000000000000000000000000000000000000000815260206004820152601960248201527f484f4c4f47524150483a207265656e7472616e742063616c6c000000000000006044820152606401610b63565b610deb60027f04b524dd539523930d3901481aa9455d7752b49add99e1647adb8b09a313727955565b600254869074010000000000000000000000000000000000000000900467ffffffffffffffff1615801590610e6f57506002546000547401000000000000000000000000000000000000000090910467ffffffffffffffff1690610e6d907bffffffffffffffffffffffffffffffffffffffffffffffffffffffff168361426d565b115b15610ea6576040517f717c513000000000000000000000000000000000000000000000000000000000815260040160405180910390fd5b610eae61305d565b610ee4576040517f95ed3c1a00000000000000000000000000000000000000000000000000000000815260040160405180910390fd5b610f72848480806020026020016040519081016040528093929190818152602001838360200280828437600092019190915250506006549150610f279050610942565b6040805173ffffffffffffffffffffffffffffffffffffffff909216602083015281018a905260608101899052608001604051602081830303815290604052805190602001206130ac565b610fa8576040517f85b70e5200000000000000000000000000000000000000000000000000000000815260040160405180910390fd5b6000610fb386612fbe565b9050610fbf8882614285565b34101561100557610fd08887614285565b6040517f6a1c179e000000000000000000000000000000000000000000000000000000008152600401610b6391815260200190565b60006110118983614285565b61101b90346142c2565b9050886007600061102a610942565b73ffffffffffffffffffffffffffffffffffffffff1673ffffffffffffffffffffffffffffffffffffffff1681526020019081526020016000206000828254611073919061426d565b9091555088905060076000611086610942565b73ffffffffffffffffffffffffffffffffffffffff1673ffffffffffffffffffffffffffffffffffffffff1681526020019081526020016000205411156110f9576040517fa7b32bb100000000000000000000000000000000000000000000000000000000815260040160405180910390fd5b61110a611104610942565b8a6130c2565b61111389613499565b600061113d7fe9fcff60011c1a99f7b7244d1f2d9da93d79ea8ef3654ce590d775575255b2bd5490565b905060008173ffffffffffffffffffffffffffffffffffffffff166377dbd8636040518163ffffffff1660e01b8152600401602060405180830381865afa15801561118c573d6000803e3d6000fd5b505050506040513d601f19601f820116820180604052508101906111b091906142d9565b60008054919250906111e1908d907bffffffffffffffffffffffffffffffffffffffffffffffffffffffff166142c2565b6111eb908361426d565b6111f690600161426d565b9050848c611202610942565b73ffffffffffffffffffffffffffffffffffffffff167f4e26b0356a15833a75d497ecc40ebbb716b99466ed0dba9454f1fff451e25a908460405161124991815260200190565b60405180910390a483156112d45761125f610942565b73ffffffffffffffffffffffffffffffffffffffff1684620334505a11611286575a61128b565b620334505b6040519091906000818181858888f193505050503d80600081146112cb576040519150601f19603f3d011682016040523d82523d6000602084013e6112d0565b606091505b5050505b9550505050505061130460017f04b524dd539523930d3901481aa9455d7752b49add99e1647adb8b09a313727955565b95945050505050565b60006113377fb56711ba6bd3ded7639fc335ee7524fe668a79d7558c85992e3f8494cf7727775490565b73ffffffffffffffffffffffffffffffffffffffff168273ffffffffffffffffffffffffffffffffffffffff16149050919050565b6040805161016081018252600080825260208201819052918101829052606081018290526080810182905260a0810182905260c0810182905260e08101829052610100810182905261012081018290526101408101919091526040518061016001604052806113d96136aa565b151581526020016113e861305d565b151581526004546cffffffffffffffffffffffffff8116602083015271010000000000000000000000000000000000810467ffffffffffffffff90811660408401526005548082166060850152680100000000000000008104821660808501527001000000000000000000000000000000009004811660a084015260065460c08401526d010000000000000000000000000090910463ffffffff1660e08301526000547bffffffffffffffffffffffffffffffffffffffffffffffffffffffff166101008301526002547401000000000000000000000000000000000000000090041661012090910152919050565b7fb56711ba6bd3ded7639fc335ee7524fe668a79d7558c85992e3f8494cf7727775473ffffffffffffffffffffffffffffffffffffffff16611517610942565b73ffffffffffffffffffffffffffffffffffffffff1614611594576040517f08c379a000000000000000000000000000000000000000000000000000000000815260206004820152601b60248201527f4552433732313a206f776e6572206f6e6c792066756e6374696f6e00000000006044820152606401610b63565b600280547fffffffffffffffffffffffff00000000000000000000000000000000000000001673ffffffffffffffffffffffffffffffffffffffff8416179055805115611660576040517f856a7ffa00000000000000000000000000000000000000000000000000000000815273ffffffffffffffffffffffffffffffffffffffff83169063856a7ffa9061162d908490600401613bba565b600060405180830381600087803b15801561164757600080fd5b505af115801561165b573d6000803e3d6000fd5b505050505b7f046c5d913c35948c3e0e44c3599eb14bf33b73f141fa8bb282b300414998b868611689610942565b6040805173ffffffffffffffffffffffffffffffffffffffff928316815291851660208301520160405180910390a15050565b7f04b524dd539523930d3901481aa9455d7752b49add99e1647adb8b09a313727954600203611747576040517f08c379a000000000000000000000000000000000000000000000000000000000815260206004820152601960248201527f484f4c4f47524150483a207265656e7472616e742063616c6c000000000000006044820152606401610b63565b61177060027f04b524dd539523930d3901481aa9455d7752b49add99e1647adb8b09a313727955565b60035473ffffffffffffffffffffffffffffffffffffffff166117ef576040517f08c379a000000000000000000000000000000000000000000000000000000000815260206004820152601f60248201527f46756e647320526563697069656e742061646472657373206e6f7420736574006044820152606401610b63565b60006117f9610942565b600354909150479073ffffffffffffffffffffffffffffffffffffffff80841691161480159061187657507fb56711ba6bd3ded7639fc335ee7524fe668a79d7558c85992e3f8494cf7727775473ffffffffffffffffffffffffffffffffffffffff168273ffffffffffffffffffffffffffffffffffffffff1614155b156118ad576040517f1dab829b00000000000000000000000000000000000000000000000000000000815260040160405180910390fd5b60035460405160009173ffffffffffffffffffffffffffffffffffffffff16906203345090849084818181858888f193505050503d806000811461190d576040519150601f19603f3d011682016040523d82523d6000602084013e611912565b606091505b505090508061194d576040517f39debd5b00000000000000000000000000000000000000000000000000000000815260040160405180910390fd5b60035460405183815273ffffffffffffffffffffffffffffffffffffffff918216918516907fa92ff919b850e4909ab2261d907ef955f11bc1716733a6cbece38d163a69af8a9060200160405180910390a35050506119cb60017f04b524dd539523930d3901481aa9455d7752b49add99e1647adb8b09a313727955565b565b7fb56711ba6bd3ded7639fc335ee7524fe668a79d7558c85992e3f8494cf7727775473ffffffffffffffffffffffffffffffffffffffff16611a0d610942565b73ffffffffffffffffffffffffffffffffffffffff1614611a8a576040517f08c379a000000000000000000000000000000000000000000000000000000000815260206004820152601b60248201527f4552433732313a206f776e6572206f6e6c792066756e6374696f6e00000000006044820152606401610b63565b60025474010000000000000000000000000000000000000000900467ffffffffffffffff90811614611ae8576040517fe742c08400000000000000000000000000000000000000000000000000000000815260040160405180910390fd5b6000546002805467ffffffffffffffff90921674010000000000000000000000000000000000000000027fffffffff0000000000000000ffffffffffffffffffffffffffffffffffffffff909216919091179055611b44610942565b6002546040517401000000000000000000000000000000000000000090910467ffffffffffffffff16815273ffffffffffffffffffffffffffffffffffffffff91909116907fb6cc1e876b8d7479c8afe025a58658b0f3c3ec5bd0f28cb4261326b162069bf89060200160405180910390a2565b6000611be27f4e5f991bca30eca2d4643aaefa807e88f96a4a97398933d572a3c0d973004a015490565b15611c49576040517f08c379a000000000000000000000000000000000000000000000000000000000815260206004820152601e60248201527f484f4c4f47524150483a20616c726561647920696e697469616c697a656400006044820152606401610b63565b600082806020019051810190611c5f91906143f0565b8051600180547fffffffffffffffffffffffff00000000000000000000000000000000000000001673ffffffffffffffffffffffffffffffffffffffff90921691909117905560208101517fb56711ba6bd3ded7639fc335ee7524fe668a79d7558c85992e3f8494cf772777559050337fe9fcff60011c1a99f7b7244d1f2d9da93d79ea8ef3654ce590d775575255b2bd55604080516080808201835260c0808501805173ffffffffffffffffffffffffffffffffffffffff90811680865260608089015167ffffffffffffffff9081166020808a018290528b89015161ffff168a8c018190528c8c015187169a85018b9052600280547c01000000000000000000000000000000000000000000000000000000009092027fffff0000ffffffffffffffffffffffffffffffffffffffffffffffffffffffff740100000000000000000000000000000000000000009095027fffffffff000000000000000000000000000000000000000000000000000000009093169097179190911792909216949094179055600380547fffffffffffffffffffffffff00000000000000000000000000000000000000001690981790975560a0808a0151805160048054958301519b8301518b1671010000000000000000000000000000000000027fffffffffffffff0000000000000000ffffffffffffffffffffffffffffffffff63ffffffff909d166d0100000000000000000000000000027fffffffffffffffffffffffffffffff00000000000000000000000000000000009097166cffffffffffffffffffffffffff90931692909217959095179a909a16999099179092558701516005805496890151928901518816700100000000000000000000000000000000027fffffffffffffffff0000000000000000ffffffffffffffffffffffffffffffff93891668010000000000000000027fffffffffffffffffffffffffffffffff000000000000000000000000000000009098169290981691909117959095171694909417909255929092015160065590511615611fe65760c081015160e08201516040517f856a7ffa00000000000000000000000000000000000000000000000000000000815273ffffffffffffffffffffffffffffffffffffffff9092169163856a7ffa91611fb391600401613bba565b600060405180830381600087803b158015611fcd57600080fd5b505af1158015611fe1573d6000803e3d6000fd5b505050505b61200f60017f04b524dd539523930d3901481aa9455d7752b49add99e1647adb8b09a313727955565b6109e4836136ef565b6000610aa57fb56711ba6bd3ded7639fc335ee7524fe668a79d7558c85992e3f8494cf7727775490565b600061206c7fb56711ba6bd3ded7639fc335ee7524fe668a79d7558c85992e3f8494cf7727775490565b73ffffffffffffffffffffffffffffffffffffffff1661208a610942565b73ffffffffffffffffffffffffffffffffffffffff1614905090565b60006120bd6120b883620f4240614285565b612fbe565b92915050565b6060815167ffffffffffffffff8111156120df576120df613d62565b60405190808252806020026020018201604052801561211257816020015b60608152602001906001900390816120fd5790505b50905060005b825181101561219c5761216c30848381518110612137576121376144d8565b6020026020010151612147610942565b604051602001612158929190614507565b604051602081830303815290604052613896565b82828151811061217e5761217e6144d8565b6020026020010181905250808061219490614551565b915050612118565b50919050565b60006121cc7fb56711ba6bd3ded7639fc335ee7524fe668a79d7558c85992e3f8494cf7727775490565b73ffffffffffffffffffffffffffffffffffffffff166121ea610942565b73ffffffffffffffffffffffffffffffffffffffff1614612267576040517f08c379a000000000000000000000000000000000000000000000000000000000815260206004820152601b60248201527f4552433732313a206f776e6572206f6e6c792066756e6374696f6e00000000006044820152606401610b63565b600254829074010000000000000000000000000000000000000000900467ffffffffffffffff16158015906122eb57506002546000547401000000000000000000000000000000000000000090910467ffffffffffffffff16906122e9907bffffffffffffffffffffffffffffffffffffffffffffffffffffffff168361426d565b115b15612322576040517f717c513000000000000000000000000000000000000000000000000000000000815260040160405180910390fd5b60005b838110156123665761235e858583818110612342576123426144d8565b90506020020160208101906123579190613bcd565b60016130c2565b600101612325565b50506000547bffffffffffffffffffffffffffffffffffffffffffffffffffffffff169392505050565b606060006123bc7fe9fcff60011c1a99f7b7244d1f2d9da93d79ea8ef3654ce590d775575255b2bd5490565b6040517f4f558e790000000000000000000000000000000000000000000000000000000081526004810185905290915073ffffffffffffffffffffffffffffffffffffffff821690634f558e7990602401602060405180830381865afa15801561242a573d6000803e3d6000fd5b505050506040513d601f19601f8201168201806040525081019061244e9190614589565b6124b4576040517f08c379a000000000000000000000000000000000000000000000000000000000815260206004820152601c60248201527f4552433732313a20746f6b656e20646f6573206e6f74206578697374000000006044820152606401610b63565b6002546040517fc87b56dd0000000000000000000000000000000000000000000000000000000081526004810185905273ffffffffffffffffffffffffffffffffffffffff9091169063c87b56dd90602401600060405180830381865afa158015612523573d6000803e3d6000fd5b505050506040513d6000823e601f3d9081017fffffffffffffffffffffffffffffffffffffffffffffffffffffffffffffffe01682016040526109e491908101906141f5565b61258d60405180606001604052806000815260200160008152602001600081525090565b6040805160608101825273ffffffffffffffffffffffffffffffffffffffff8416600081815260086020818152858320548086528484526007825286842054828701819052949093525291928301916125e691906142c2565b905292915050565b60006126187fb56711ba6bd3ded7639fc335ee7524fe668a79d7558c85992e3f8494cf7727775490565b73ffffffffffffffffffffffffffffffffffffffff16612636610942565b73ffffffffffffffffffffffffffffffffffffffff16146126b3576040517f08c379a000000000000000000000000000000000000000000000000000000000815260206004820152601b60248201527f4552433732313a206f776e6572206f6e6c792066756e6374696f6e00000000006044820152606401610b63565b600254829074010000000000000000000000000000000000000000900467ffffffffffffffff161580159061273757506002546000547401000000000000000000000000000000000000000090910467ffffffffffffffff1690612735907bffffffffffffffffffffffffffffffffffffffffffffffffffffffff168361426d565b115b1561276e576040517f717c513000000000000000000000000000000000000000000000000000000000815260040160405180910390fd5b61277884846130c2565b50506000547bffffffffffffffffffffffffffffffffffffffffffffffffffffffff1692915050565b600254604080517fe8a3d485000000000000000000000000000000000000000000000000000000008152905160609273ffffffffffffffffffffffffffffffffffffffff169163e8a3d4859160048083019260009291908290030181865afa158015610a5f573d6000803e3d6000fd5b600061283b7f04b524dd539523930d3901481aa9455d7752b49add99e1647adb8b09a31372795490565b6002036128a4576040517f08c379a000000000000000000000000000000000000000000000000000000000815260206004820152601960248201527f484f4c4f47524150483a207265656e7472616e742063616c6c000000000000006044820152606401610b63565b6128cd60027f04b524dd539523930d3901481aa9455d7752b49add99e1647adb8b09a313727955565b600254829074010000000000000000000000000000000000000000900467ffffffffffffffff161580159061295157506002546000547401000000000000000000000000000000000000000090910467ffffffffffffffff169061294f907bffffffffffffffffffffffffffffffffffffffffffffffffffffffff168361426d565b115b15612988576040517f717c513000000000000000000000000000000000000000000000000000000000815260040160405180910390fd5b6129906136aa565b6129c6576040517ff12dcc7f00000000000000000000000000000000000000000000000000000000815260040160405180910390fd5b6004546000906129e4906cffffffffffffffffffffffffff16612fbe565b905060006129f4620f4240612fbe565b905084612a01828461426d565b612a0b9190614285565b341015612a3e576004548590612a3490620f4240906cffffffffffffffffffffffffff1661426d565b610fd09190614285565b6000612a4a8684614285565b612a5490346142c2565b6004549091506d0100000000000000000000000000900463ffffffff1615801590612b3957506004546d0100000000000000000000000000900463ffffffff1660076000612aa0610942565b73ffffffffffffffffffffffffffffffffffffffff1673ffffffffffffffffffffffffffffffffffffffff168152602001908152602001600020548760086000612ae8610942565b73ffffffffffffffffffffffffffffffffffffffff1673ffffffffffffffffffffffffffffffffffffffff16815260200190815260200160002054612b2d919061426d565b612b3791906142c2565b115b15612b70576040517f220ae94c00000000000000000000000000000000000000000000000000000000815260040160405180910390fd5b612b81612b7b610942565b876130c2565b612b8a86613499565b6000612bb47fe9fcff60011c1a99f7b7244d1f2d9da93d79ea8ef3654ce590d775575255b2bd5490565b905060008173ffffffffffffffffffffffffffffffffffffffff166377dbd8636040518163ffffffff1660e01b8152600401602060405180830381865afa158015612c03573d6000803e3d6000fd5b505050506040513d601f19601f82011682018060405250810190612c2791906142d9565b6000805491925090612c58908a907bffffffffffffffffffffffffffffffffffffffffffffffffffffffff166142c2565b612c62908361426d565b612c6d90600161426d565b90508589612c79610942565b73ffffffffffffffffffffffffffffffffffffffff167f4e26b0356a15833a75d497ecc40ebbb716b99466ed0dba9454f1fff451e25a9084604051612cc091815260200190565b60405180910390a48315612d4b57612cd6610942565b73ffffffffffffffffffffffffffffffffffffffff1684620334505a11612cfd575a612d02565b620334505b6040519091906000818181858888f193505050503d8060008114612d42576040519150601f19603f3d011682016040523d82523d6000602084013e612d47565b606091505b5050505b9650505050505050612d7c60017f04b524dd539523930d3901481aa9455d7752b49add99e1647adb8b09a313727955565b919050565b60006120bd82620f4240614285565b7fb56711ba6bd3ded7639fc335ee7524fe668a79d7558c85992e3f8494cf7727775473ffffffffffffffffffffffffffffffffffffffff16612dd0610942565b73ffffffffffffffffffffffffffffffffffffffff1614612e4d576040517f08c379a000000000000000000000000000000000000000000000000000000000815260206004820152601b60248201527f4552433732313a206f776e6572206f6e6c792066756e6374696f6e00000000006044820152606401610b63565b600480546cffffffffffffffffffffffffff89167fffffffffffffffffffffffffffffff0000000000000000000000000000000000909116176d010000000000000000000000000063ffffffff891602177fffffffffffffff0000000000000000ffffffffffffffffffffffffffffffffff167101000000000000000000000000000000000067ffffffffffffffff8881169190910291909117909155600580548683167fffffffffffffffffffffffffffffffff00000000000000000000000000000000909116176801000000000000000086841602177fffffffffffffffff0000000000000000ffffffffffffffffffffffffffffffff16700100000000000000000000000000000000928516929092029190911790556006819055612f73610942565b73ffffffffffffffffffffffffffffffffffffffff167fc1ff5e4744ac8dd2b8027a10e3723b165975297501c71c4e7dcb8796d96375db60405160405180910390a250505050505050565b600081600003612fd057506000919050565b6040517ff5d781610000000000000000000000000000000000000000000000000000000081526004810183905273ea7f4c52cbd4cf1036cdca8b16aca11f5b09cf6e9063f5d7816190602401602060405180830381865afa158015613039573d6000803e3d6000fd5b505050506040513d601f19601f820116820180604052508101906120bd91906142d9565b600554600090426801000000000000000090910467ffffffffffffffff1611801590610aa55750506005544270010000000000000000000000000000000090910467ffffffffffffffff161190565b6000826130b985846138bb565b14949350505050565b60006130ec7fe9fcff60011c1a99f7b7244d1f2d9da93d79ea8ef3654ce590d775575255b2bd5490565b905060008173ffffffffffffffffffffffffffffffffffffffff166377dbd8636040518163ffffffff1660e01b8152600401602060405180830381865afa15801561313b573d6000803e3d6000fd5b505050506040513d601f19601f8201168201806040525081019061315f91906142d9565b90506000805b8481101561349157600080546001919081906131a09084907bffffffffffffffffffffffffffffffffffffffffffffffffffffffff166145ab565b92506101000a8154817bffffffffffffffffffffffffffffffffffffffffffffffffffffffff02191690837bffffffffffffffffffffffffffffffffffffffffffffffffffffffff1602179055505b60005473ffffffffffffffffffffffffffffffffffffffff851690634f558e7990613238907bffffffffffffffffffffffffffffffffffffffffffffffffffffffff168661426d565b6040518263ffffffff1660e01b815260040161325691815260200190565b602060405180830381865afa158015613273573d6000803e3d6000fd5b505050506040513d601f19601f820116820180604052508101906132979190614589565b80613345575060005473ffffffffffffffffffffffffffffffffffffffff8516906323250cae906132e6907bffffffffffffffffffffffffffffffffffffffffffffffffffffffff168661426d565b6040518263ffffffff1660e01b815260040161330491815260200190565b602060405180830381865afa158015613321573d6000803e3d6000fd5b505050506040513d601f19601f820116820180604052508101906133459190614589565b156133d0576000805460019190819061337d9084907bffffffffffffffffffffffffffffffffffffffffffffffffffffffff166145ab565b92506101000a8154817bffffffffffffffffffffffffffffffffffffffffffffffffffffffff02191690837bffffffffffffffffffffffffffffffffffffffffffffffffffffffff1602179055506131ef565b6000546040517f3b4f1b2600000000000000000000000000000000000000000000000000000000815273ffffffffffffffffffffffffffffffffffffffff88811660048301527bffffffffffffffffffffffffffffffffffffffffffffffffffffffff90921660248201819052935090851690633b4f1b2690604401600060405180830381600087803b15801561346657600080fd5b505af115801561347a573d6000803e3d6000fd5b50505050808061348990614551565b915050613165565b505050505050565b60006134a4826120a6565b905060006134d07fe9fcff60011c1a99f7b7244d1f2d9da93d79ea8ef3654ce590d775575255b2bd5490565b73ffffffffffffffffffffffffffffffffffffffff16634827ae0c6040518163ffffffff1660e01b8152600401602060405180830381865afa15801561351a573d6000803e3d6000fd5b505050506040513d601f19601f8201168201806040525081019061353e91906145eb565b73ffffffffffffffffffffffffffffffffffffffff16633b19e84a6040518163ffffffff1660e01b8152600401602060405180830381865afa158015613588573d6000803e3d6000fd5b505050506040513d601f19601f820116820180604052508101906135ac91906145eb565b905060008173ffffffffffffffffffffffffffffffffffffffff16836203345090604051600060405180830381858888f193505050503d806000811461360e576040519150601f19603f3d011682016040523d82523d6000602084013e613613565b606091505b505090508061364e576040517ff0e492a300000000000000000000000000000000000000000000000000000000815260040160405180910390fd5b6040805184815273ffffffffffffffffffffffffffffffffffffffff841660208201528215158183015290517f6f8da53cfedb8cc4f7935c3629624e50b63053c93bb2cad246aa4d3a2ba7d4ce9181900360600190a150505050565b600454600090427101000000000000000000000000000000000090910467ffffffffffffffff1611801590610aa55750506005544267ffffffffffffffff9091161190565b60006137197f4e5f991bca30eca2d4643aaefa807e88f96a4a97398933d572a3c0d973004a015490565b15613780576040517f08c379a000000000000000000000000000000000000000000000000000000000815260206004820152601b60248201527f4552433732313a20616c726561647920696e697469616c697a656400000000006044820152606401610b63565b337fe9fcff60011c1a99f7b7244d1f2d9da93d79ea8ef3654ce590d775575255b2bd8190557fb56711ba6bd3ded7639fc335ee7524fe668a79d7558c85992e3f8494cf7727775473ffffffffffffffffffffffffffffffffffffffff8116613844576040517f08c379a000000000000000000000000000000000000000000000000000000000815260206004820152601860248201527f484f4c4f47524150483a206f776e6572206e6f742073657400000000000000006044820152606401610b63565b61386d60017f4e5f991bca30eca2d4643aaefa807e88f96a4a97398933d572a3c0d973004a0155565b507f4ddf47d4000000000000000000000000000000000000000000000000000000009392505050565b60606109e483836040518060600160405280602781526020016146256027913961392f565b600081815b84518110156139275760008582815181106138dd576138dd6144d8565b602002602001015190508083116139035760008381526020829052604090209250613914565b600081815260208490526040902092505b508061391f81614551565b9150506138c0565b509392505050565b60606000808573ffffffffffffffffffffffffffffffffffffffff16856040516139599190614608565b600060405180830381855af49150503d8060008114613994576040519150601f19603f3d011682016040523d82523d6000602084013e613999565b606091505b50915091506139aa868383876139b4565b9695505050505050565b60608315613a4a578251600003613a435773ffffffffffffffffffffffffffffffffffffffff85163b613a43576040517f08c379a000000000000000000000000000000000000000000000000000000000815260206004820152601d60248201527f416464726573733a2063616c6c20746f206e6f6e2d636f6e74726163740000006044820152606401610b63565b5081613a54565b613a548383613a5c565b949350505050565b815115613a6c5781518083602001fd5b806040517f08c379a0000000000000000000000000000000000000000000000000000000008152600401610b639190613bba565b73ffffffffffffffffffffffffffffffffffffffff81168114613ac257600080fd5b50565b60008060408385031215613ad857600080fd5b8235613ae381613aa0565b91506020830135613af381613aa0565b809150509250929050565b600060208284031215613b1057600080fd5b81357fffffffff00000000000000000000000000000000000000000000000000000000811681146109e457600080fd5b60005b83811015613b5b578181015183820152602001613b43565b83811115613b6a576000848401525b50505050565b60008151808452613b88816020860160208601613b40565b601f017fffffffffffffffffffffffffffffffffffffffffffffffffffffffffffffffe0169290920160200192915050565b6020815260006109e46020830184613b70565b600060208284031215613bdf57600080fd5b81356109e481613aa0565b60008083601f840112613bfc57600080fd5b50813567ffffffffffffffff811115613c1457600080fd5b6020830191508360208260051b8501011115613c2f57600080fd5b9250929050565b600080600080600060808688031215613c4e57600080fd5b853594506020860135935060408601359250606086013567ffffffffffffffff811115613c7a57600080fd5b613c8688828901613bea565b969995985093965092949392505050565b81511515815261016081016020830151613cb5602084018215159052565b50604083015160408301526060830151613cdb606084018267ffffffffffffffff169052565b506080830151613cf7608084018267ffffffffffffffff169052565b5060a0830151613d1360a084018267ffffffffffffffff169052565b5060c0830151613d2f60c084018267ffffffffffffffff169052565b5060e083810151908301526101008084015190830152610120808401519083015261014092830151929091019190915290565b7f4e487b7100000000000000000000000000000000000000000000000000000000600052604160045260246000fd5b604051610100810167ffffffffffffffff81118282101715613db557613db5613d62565b60405290565b604051601f82017fffffffffffffffffffffffffffffffffffffffffffffffffffffffffffffffe016810167ffffffffffffffff81118282101715613e0257613e02613d62565b604052919050565b600067ffffffffffffffff821115613e2457613e24613d62565b50601f017fffffffffffffffffffffffffffffffffffffffffffffffffffffffffffffffe01660200190565b600082601f830112613e6157600080fd5b8135613e74613e6f82613e0a565b613dbb565b818152846020838601011115613e8957600080fd5b816020850160208301376000918101602001919091529392505050565b60008060408385031215613eb957600080fd5b8235613ec481613aa0565b9150602083013567ffffffffffffffff811115613ee057600080fd5b613eec85828601613e50565b9150509250929050565b600060208284031215613f0857600080fd5b813567ffffffffffffffff811115613f1f57600080fd5b613a5484828501613e50565b600060208284031215613f3d57600080fd5b5035919050565b60006020808385031215613f5757600080fd5b823567ffffffffffffffff80821115613f6f57600080fd5b818501915085601f830112613f8357600080fd5b813581811115613f9557613f95613d62565b8060051b613fa4858201613dbb565b9182528381018501918581019089841115613fbe57600080fd5b86860192505b83831015613ffa57823585811115613fdc5760008081fd5b613fea8b89838a0101613e50565b8352509186019190860190613fc4565b9998505050505050505050565b6000602080830181845280855180835260408601915060408160051b870101925083870160005b8281101561407a577fffffffffffffffffffffffffffffffffffffffffffffffffffffffffffffffc0888603018452614068858351613b70565b9450928501929085019060010161402e565b5092979650505050505050565b6000806020838503121561409a57600080fd5b823567ffffffffffffffff8111156140b157600080fd5b6140bd85828601613bea565b90969095509350505050565b600080604083850312156140dc57600080fd5b82356140e781613aa0565b946020939093013593505050565b6cffffffffffffffffffffffffff81168114613ac257600080fd5b63ffffffff81168114613ac257600080fd5b67ffffffffffffffff81168114613ac257600080fd5b600080600080600080600060e0888a03121561415357600080fd5b873561415e816140f5565b9650602088013561416e81614110565b9550604088013561417e81614122565b9450606088013561418e81614122565b9350608088013561419e81614122565b925060a08801356141ae81614122565b8092505060c0880135905092959891949750929550565b60006141d3613e6f84613e0a565b90508281528383830111156141e757600080fd5b6109e4836020830184613b40565b60006020828403121561420757600080fd5b815167ffffffffffffffff81111561421e57600080fd5b8201601f8101841361422f57600080fd5b613a54848251602084016141c5565b7f4e487b7100000000000000000000000000000000000000000000000000000000600052601160045260246000fd5b600082198211156142805761428061423e565b500190565b6000817fffffffffffffffffffffffffffffffffffffffffffffffffffffffffffffffff04831182151516156142bd576142bd61423e565b500290565b6000828210156142d4576142d461423e565b500390565b6000602082840312156142eb57600080fd5b5051919050565b8051612d7c81613aa0565b8051612d7c81614122565b805161ffff81168114612d7c57600080fd5b600060e0828403121561432c57600080fd5b60405160e0810181811067ffffffffffffffff8211171561434f5761434f613d62565b80604052508091508251614362816140f5565b8152602083015161437281614110565b6020820152604083015161438581614122565b6040820152606083015161439881614122565b60608201526143a9608084016142fd565b60808201526143ba60a084016142fd565b60a082015260c083015160c08201525092915050565b600082601f8301126143e157600080fd5b6109e4838351602085016141c5565b60006020828403121561440257600080fd5b815167ffffffffffffffff8082111561441a57600080fd5b908301906101c0828603121561442f57600080fd5b614437613d91565b614440836142f2565b815261444e602084016142f2565b602082015261445f604084016142f2565b6040820152614470606084016142fd565b606082015261448160808401614308565b60808201526144938660a0850161431a565b60a08201526144a561018084016142f2565b60c08201526101a0830151828111156144bd57600080fd5b6144c9878286016143d0565b60e08301525095945050505050565b7f4e487b7100000000000000000000000000000000000000000000000000000000600052603260045260246000fd5b60008351614519818460208801613b40565b60609390931b7fffffffffffffffffffffffffffffffffffffffff000000000000000000000000169190920190815260140192915050565b60007fffffffffffffffffffffffffffffffffffffffffffffffffffffffffffffffff82036145825761458261423e565b5060010190565b60006020828403121561459b57600080fd5b815180151581146109e457600080fd5b60007bffffffffffffffffffffffffffffffffffffffffffffffffffffffff8083168185168083038211156145e2576145e261423e565b01949350505050565b6000602082840312156145fd57600080fd5b81516109e481613aa0565b6000825161461a818460208701613b40565b919091019291505056fe416464726573733a206c6f772d6c6576656c2064656c65676174652063616c6c206661696c6564a164736f6c634300080d000a",
  "devdoc": {
    "details": "This contract subscribes to the following HolographERC721 events:       - beforeSafeTransfer       - beforeTransfer       - onIsApprovedForAll       - customContractURI       Do not enable or subscribe to any other events unless you modified your source code for them.",
    "kind": "dev",
    "methods": {
      "adminMint(address,uint256)": {
        "params": {
          "quantity": "quantity to mint",
          "recipient": "recipient to mint to"
        }
      },
      "adminMintAirdrop(address[])": {
        "details": "Mints multiple editions to the given list of addresses.",
        "params": {
          "recipients": "list of addresses to send the newly minted editions to"
        }
      },
      "constructor": {
        "details": "Constructor is left empty and init is used instead"
      },
      "contractURI()": {
        "returns": {
          "_0": "Contract URI"
        }
      },
      "getHolographFeeUsd(uint256)": {
        "details": "Gets the Holograph protocol fee for amount of mints in USD"
      },
      "getHolographFeeWei(uint256)": {
        "details": "Gets the Holograph protocol fee for amount of mints in wei"
      },
      "init(bytes)": {
        "details": "This function is called by the deployer/factory when creating a contract",
        "params": {
          "initPayload": "abi encoded payload to use for contract initilaization"
        }
      },
      "isAdmin(address)": {
        "details": "Getter for admin role associated with the contract to handle metadata",
        "returns": {
          "_0": "boolean if address is admin"
        }
      },
      "mintedPerAddress(address)": {
        "details": "Number of NFTs the user has minted per address",
        "params": {
          "minter": "to get counts for"
        }
      },
      "purchase(uint256)": {
        "details": "This allows the user to purchase/mint a edition at the given price in the contract."
      },
      "purchasePresale(uint256,uint256,uint256,bytes32[])": {
        "params": {
          "maxQuantity": "max quantity that can be purchased via merkle proof #",
          "merkleProof": "proof for presale mint",
          "pricePerToken": "price that each token is purchased at",
          "quantity": "quantity to purchase"
        }
      },
      "saleDetails()": {
        "returns": {
          "_0": "SaleDetails sale information details"
        }
      },
      "setFundsRecipient(address)": {
        "params": {
          "newRecipientAddress": "new funds recipient address"
        }
      },
      "setMetadataRenderer(address,bytes)": {
        "params": {
          "newRenderer": "new renderer address to use",
          "setupRenderer": "data to setup new renderer with"
        }
      },
      "setSaleConfiguration(uint104,uint32,uint64,uint64,uint64,uint64,bytes32)": {
        "details": "This sets the sales configuration",
        "params": {
          "maxSalePurchasePerAddress": "Max # of purchases (public) per address allowed",
          "presaleEnd": "unix timestamp when the presale ends",
          "presaleMerkleRoot": "merkle root for the presale information",
          "presaleStart": "unix timestamp when the presale starts",
          "publicSaleEnd": "unix timestamp when the public sale ends (set to 0 to disable)",
          "publicSalePrice": "New public sale price",
          "publicSaleStart": "unix timestamp when the public sale starts"
        }
      },
      "tokenURI(uint256)": {
        "params": {
          "tokenId": "id of token to get URI for"
        },
        "returns": {
          "_0": "Token URI"
        }
      },
      "version()": {
        "details": "Used for contract versioning and validation",
        "returns": {
          "_0": "version string representing the version of the contract"
        }
      }
    },
    "stateVariables": {
      "STATIC_GAS_LIMIT": {
        "details": "Gas limit for transferring funds"
      },
      "_currentTokenId": {
        "details": "Internal reference used for minting incremental token ids."
      },
      "dropsPriceOracle": {
        "details": "Address of the price oracle proxy"
      },
      "erc721TransferHelper": {
        "details": "HOLOGRAPH transfer helper address for auto-approval"
      },
      "presaleMintsByAddress": {
        "details": "Mapping for presale mint counts by address to allow public mint limit"
      },
      "totalMintsByAddress": {
        "details": "Mapping for presale mint counts by address to allow public mint limit"
      }
    },
    "version": 1
  },
  "userdoc": {
    "errors": {
      "Access_MissingRoleOrAdmin(bytes32)": [
        {
          "notice": "Missing the given role or admin access"
        }
      ],
      "Access_OnlyAdmin()": [
        {
          "notice": "Only admin can access this function"
        }
      ],
      "Access_WithdrawNotAllowed()": [
        {
          "notice": "Withdraw is not allowed by this user"
        }
      ],
      "Admin_InvalidUpgradeAddress(address)": [
        {
          "notice": "Invalid admin upgrade address"
        }
      ],
      "Admin_UnableToFinalizeNotOpenEdition()": [
        {
          "notice": "Unable to finalize an edition not marked as open (size set to uint64_max_value)"
        }
      ],
      "ExternalMetadataRenderer_CallFailed()": [
        {
          "notice": "Call to external metadata renderer failed."
        }
      ],
      "FeePaymentFailed()": [
        {
          "notice": "Fee payout failed"
        }
      ],
      "MintFee_FundsSendFailure()": [
        {
          "notice": "Mint fee send failure"
        }
      ],
      "Mint_SoldOut()": [
        {
          "notice": "NFT sold out"
        }
      ],
      "Presale_Inactive()": [
        {
          "notice": "Presale is inactive"
        }
      ],
      "Presale_MerkleNotApproved()": [
        {
          "notice": "Presale merkle root is invalid"
        }
      ],
      "Presale_TooManyForAddress()": [
        {
          "notice": "Too many presale for address"
        }
      ],
      "Purchase_TooManyForAddress()": [
        {
          "notice": "Too many purchase for address"
        }
      ],
      "Purchase_WrongPrice(uint256)": [
        {
          "notice": "Wrong price for purchase"
        }
      ],
      "Sale_Inactive()": [
        {
          "notice": "Sale is inactive"
        }
      ],
      "Setup_RoyaltyPercentageTooHigh(uint16)": [
        {
          "notice": "Royalty percentage too high"
        }
      ],
      "Withdraw_FundsSendFailure()": [
        {
          "notice": "Cannot withdraw funds due to ETH send failure."
        }
      ]
    },
    "events": {
      "FundsRecipientChanged(address,address)": {
        "notice": "Event emitted when the funds recipient is changed"
      },
      "FundsWithdrawn(address,address,uint256)": {
        "notice": "Event emitted when the funds are withdrawn from the minting contract"
      },
      "MintFeePayout(uint256,address,bool)": {
        "notice": "Event emitted for mint fee payout"
      },
      "OpenMintFinalized(address,uint256)": {
        "notice": "Event emitted when an open mint is finalized and further minting is closed forever on the contract."
      },
      "Sale(address,uint256,uint256,uint256)": {
        "notice": "Event emitted for each sale"
      },
      "SalesConfigChanged(address)": {
        "notice": "Sales configuration has been changed"
      },
      "UpdatedMetadataRenderer(address,address)": {
        "notice": "Event emitted when metadata renderer is updated."
      }
    },
    "kind": "user",
    "methods": {
      "HOLOGRAPH_MINT_FEE()": {
        "notice": "Holograph Mint Fee"
      },
      "adminMint(address,uint256)": {
        "notice": "Admin mint tokens to a recipient for free"
      },
      "config()": {
        "notice": "Configuration for NFT minting contract storage"
      },
      "contractURI()": {
        "notice": "Contract URI Getter, proxies to metadataRenderer"
      },
      "finalizeOpenEdition()": {
        "notice": "Admin function to finalize and open edition sale"
      },
      "getHolographFeeUsd(uint256)": {
        "notice": "The Holograph fee is a flat fee for each mint in USD"
      },
      "getHolographFeeWei(uint256)": {
        "notice": "The Holograph fee is a flat fee for each mint in wei after conversion"
      },
      "getNativePrice()": {
        "notice": "Convert USD price to current price in native Ether units"
      },
      "init(bytes)": {
        "notice": "Used internally to initialize the contract instead of through a constructor"
      },
      "metadataRenderer()": {
        "notice": "Getter for metadataRenderer contract"
      },
      "multicall(bytes[])": {
        "notice": "PUBLIC STATE CHANGING FUNCTIONS available to all"
      },
      "name()": {
        "notice": "Returns the name of the token through the holographer entrypoint"
      },
      "owner()": {
        "notice": "PUBLIC NON STATE CHANGING FUNCTIONS dynamic"
      },
      "purchasePresale(uint256,uint256,uint256,bytes32[])": {
        "notice": "Merkle-tree based presale purchase function"
      },
      "saleDetails()": {
        "notice": "Sale details"
      },
      "salesConfig()": {
        "notice": "Sales configuration"
      },
      "setFundsRecipient(address)": {
        "notice": "Set a different funds recipient"
      },
      "setMetadataRenderer(address,bytes)": {
        "notice": "Set a new metadata renderer"
      },
      "tokenURI(uint256)": {
        "notice": "Token URI Getter, proxies to metadataRenderer"
      },
      "version()": {
        "notice": "Returns the version of the contract"
      },
      "withdraw()": {
        "notice": "This withdraws native tokens from the contract to the contract owner."
      }
    },
    "version": 1
  },
  "storageLayout": {
    "storage": [
      {
        "astId": 15436,
        "contract": "contracts/drops/token/HolographDropERC721.sol:HolographDropERC721",
        "label": "_currentTokenId",
        "offset": 0,
        "slot": "0",
        "type": "t_uint224"
      },
      {
        "astId": 15439,
        "contract": "contracts/drops/token/HolographDropERC721.sol:HolographDropERC721",
        "label": "erc721TransferHelper",
        "offset": 0,
        "slot": "1",
        "type": "t_address"
      },
      {
        "astId": 15451,
        "contract": "contracts/drops/token/HolographDropERC721.sol:HolographDropERC721",
        "label": "config",
        "offset": 0,
        "slot": "2",
        "type": "t_struct(Configuration)15316_storage"
      },
      {
        "astId": 15455,
        "contract": "contracts/drops/token/HolographDropERC721.sol:HolographDropERC721",
        "label": "salesConfig",
        "offset": 0,
        "slot": "4",
        "type": "t_struct(SalesConfiguration)15387_storage"
      },
      {
        "astId": 15460,
        "contract": "contracts/drops/token/HolographDropERC721.sol:HolographDropERC721",
        "label": "presaleMintsByAddress",
        "offset": 0,
        "slot": "7",
        "type": "t_mapping(t_address,t_uint256)"
      },
      {
        "astId": 15465,
        "contract": "contracts/drops/token/HolographDropERC721.sol:HolographDropERC721",
        "label": "totalMintsByAddress",
        "offset": 0,
        "slot": "8",
        "type": "t_mapping(t_address,t_uint256)"
      }
    ],
    "types": {
      "t_address": {
        "encoding": "inplace",
        "label": "address",
        "numberOfBytes": "20"
      },
      "t_address_payable": {
        "encoding": "inplace",
        "label": "address payable",
        "numberOfBytes": "20"
      },
      "t_bytes32": {
        "encoding": "inplace",
        "label": "bytes32",
        "numberOfBytes": "32"
      },
      "t_contract(IMetadataRenderer)7825": {
        "encoding": "inplace",
        "label": "contract IMetadataRenderer",
        "numberOfBytes": "20"
      },
      "t_mapping(t_address,t_uint256)": {
        "encoding": "mapping",
        "key": "t_address",
        "label": "mapping(address => uint256)",
        "numberOfBytes": "32",
        "value": "t_uint256"
      },
      "t_struct(Configuration)15316_storage": {
        "encoding": "inplace",
        "label": "struct Configuration",
        "members": [
          {
            "astId": 15306,
            "contract": "contracts/drops/token/HolographDropERC721.sol:HolographDropERC721",
            "label": "metadataRenderer",
            "offset": 0,
            "slot": "0",
            "type": "t_contract(IMetadataRenderer)7825"
          },
          {
            "astId": 15309,
            "contract": "contracts/drops/token/HolographDropERC721.sol:HolographDropERC721",
            "label": "editionSize",
            "offset": 20,
            "slot": "0",
            "type": "t_uint64"
          },
          {
            "astId": 15312,
            "contract": "contracts/drops/token/HolographDropERC721.sol:HolographDropERC721",
            "label": "royaltyBPS",
            "offset": 28,
            "slot": "0",
            "type": "t_uint16"
          },
          {
            "astId": 15315,
            "contract": "contracts/drops/token/HolographDropERC721.sol:HolographDropERC721",
            "label": "fundsRecipient",
            "offset": 0,
            "slot": "1",
            "type": "t_address_payable"
          }
        ],
        "numberOfBytes": "64"
      },
      "t_struct(SalesConfiguration)15387_storage": {
        "encoding": "inplace",
        "label": "struct SalesConfiguration",
        "members": [
          {
            "astId": 15368,
            "contract": "contracts/drops/token/HolographDropERC721.sol:HolographDropERC721",
            "label": "publicSalePrice",
            "offset": 0,
            "slot": "0",
            "type": "t_uint104"
          },
          {
            "astId": 15371,
            "contract": "contracts/drops/token/HolographDropERC721.sol:HolographDropERC721",
            "label": "maxSalePurchasePerAddress",
            "offset": 13,
            "slot": "0",
            "type": "t_uint32"
          },
          {
            "astId": 15374,
            "contract": "contracts/drops/token/HolographDropERC721.sol:HolographDropERC721",
            "label": "publicSaleStart",
            "offset": 17,
            "slot": "0",
            "type": "t_uint64"
          },
          {
            "astId": 15377,
            "contract": "contracts/drops/token/HolographDropERC721.sol:HolographDropERC721",
            "label": "publicSaleEnd",
            "offset": 0,
            "slot": "1",
            "type": "t_uint64"
          },
          {
            "astId": 15380,
            "contract": "contracts/drops/token/HolographDropERC721.sol:HolographDropERC721",
            "label": "presaleStart",
            "offset": 8,
            "slot": "1",
            "type": "t_uint64"
          },
          {
            "astId": 15383,
            "contract": "contracts/drops/token/HolographDropERC721.sol:HolographDropERC721",
            "label": "presaleEnd",
            "offset": 16,
            "slot": "1",
            "type": "t_uint64"
          },
          {
            "astId": 15386,
            "contract": "contracts/drops/token/HolographDropERC721.sol:HolographDropERC721",
            "label": "presaleMerkleRoot",
            "offset": 0,
            "slot": "2",
            "type": "t_bytes32"
          }
        ],
        "numberOfBytes": "96"
      },
      "t_uint104": {
        "encoding": "inplace",
        "label": "uint104",
        "numberOfBytes": "13"
      },
      "t_uint16": {
        "encoding": "inplace",
        "label": "uint16",
        "numberOfBytes": "2"
      },
      "t_uint224": {
        "encoding": "inplace",
        "label": "uint224",
        "numberOfBytes": "28"
      },
      "t_uint256": {
        "encoding": "inplace",
        "label": "uint256",
        "numberOfBytes": "32"
      },
      "t_uint32": {
        "encoding": "inplace",
        "label": "uint32",
        "numberOfBytes": "4"
      },
      "t_uint64": {
        "encoding": "inplace",
        "label": "uint64",
        "numberOfBytes": "8"
      }
    }
  }
}