{
  "address": "0x14c273b8d0e5Dab7650416b9691874dA6109873F",
  "abi": [
    {
      "inputs": [],
      "stateMutability": "nonpayable",
      "type": "constructor"
    },
    {
      "anonymous": false,
      "inputs": [
        {
          "indexed": true,
          "internalType": "address",
          "name": "_owner",
          "type": "address"
        },
        {
          "indexed": true,
          "internalType": "address",
          "name": "_approved",
          "type": "address"
        },
        {
          "indexed": true,
          "internalType": "uint256",
          "name": "_tokenId",
          "type": "uint256"
        }
      ],
      "name": "Approval",
      "type": "event"
    },
    {
      "anonymous": false,
      "inputs": [
        {
          "indexed": true,
          "internalType": "address",
          "name": "_owner",
          "type": "address"
        },
        {
          "indexed": true,
          "internalType": "address",
          "name": "_operator",
          "type": "address"
        },
        {
          "indexed": false,
          "internalType": "bool",
          "name": "_approved",
          "type": "bool"
        }
      ],
      "name": "ApprovalForAll",
      "type": "event"
    },
    {
      "anonymous": false,
      "inputs": [
        {
          "indexed": true,
          "internalType": "address",
          "name": "previousOwner",
          "type": "address"
        },
        {
          "indexed": true,
          "internalType": "address",
          "name": "newOwner",
          "type": "address"
        }
      ],
      "name": "OwnershipTransferred",
      "type": "event"
    },
    {
      "anonymous": false,
      "inputs": [
        {
          "indexed": true,
          "internalType": "address",
          "name": "_from",
          "type": "address"
        },
        {
          "indexed": true,
          "internalType": "address",
          "name": "_to",
          "type": "address"
        },
        {
          "indexed": true,
          "internalType": "uint256",
          "name": "_tokenId",
          "type": "uint256"
        }
      ],
      "name": "Transfer",
      "type": "event"
    },
    {
      "stateMutability": "payable",
      "type": "fallback"
    },
    {
      "inputs": [],
      "name": "admin",
      "outputs": [
        {
          "internalType": "address",
          "name": "",
          "type": "address"
        }
      ],
      "stateMutability": "view",
      "type": "function"
    },
    {
      "inputs": [
        {
          "internalType": "address",
          "name": "target",
          "type": "address"
        },
        {
          "internalType": "bytes",
          "name": "data",
          "type": "bytes"
        }
      ],
      "name": "adminCall",
      "outputs": [],
      "stateMutability": "payable",
      "type": "function"
    },
    {
      "inputs": [
        {
          "internalType": "address",
          "name": "to",
          "type": "address"
        },
        {
          "internalType": "uint256",
          "name": "tokenId",
          "type": "uint256"
        }
      ],
      "name": "approve",
      "outputs": [],
      "stateMutability": "payable",
      "type": "function"
    },
    {
      "inputs": [
        {
          "internalType": "address",
          "name": "wallet",
          "type": "address"
        }
      ],
      "name": "balanceOf",
      "outputs": [
        {
          "internalType": "uint256",
          "name": "",
          "type": "uint256"
        }
      ],
      "stateMutability": "view",
      "type": "function"
    },
    {
      "inputs": [
        {
          "internalType": "uint32",
          "name": "fromChain",
          "type": "uint32"
        },
        {
          "internalType": "bytes",
          "name": "payload",
          "type": "bytes"
        }
      ],
      "name": "bridgeIn",
      "outputs": [
        {
          "internalType": "bytes4",
          "name": "",
          "type": "bytes4"
        }
      ],
      "stateMutability": "nonpayable",
      "type": "function"
    },
    {
      "inputs": [
        {
          "internalType": "uint32",
          "name": "toChain",
          "type": "uint32"
        },
        {
          "internalType": "address",
          "name": "sender",
          "type": "address"
        },
        {
          "internalType": "bytes",
          "name": "payload",
          "type": "bytes"
        }
      ],
      "name": "bridgeOut",
      "outputs": [
        {
          "internalType": "bytes4",
          "name": "selector",
          "type": "bytes4"
        },
        {
          "internalType": "bytes",
          "name": "data",
          "type": "bytes"
        }
      ],
      "stateMutability": "nonpayable",
      "type": "function"
    },
    {
      "inputs": [
        {
          "internalType": "uint256",
          "name": "tokenId",
          "type": "uint256"
        }
      ],
      "name": "burn",
      "outputs": [],
      "stateMutability": "nonpayable",
      "type": "function"
    },
    {
      "inputs": [
        {
          "internalType": "uint256",
          "name": "tokenId",
          "type": "uint256"
        }
      ],
      "name": "burned",
      "outputs": [
        {
          "internalType": "bool",
          "name": "",
          "type": "bool"
        }
      ],
      "stateMutability": "view",
      "type": "function"
    },
    {
      "inputs": [],
      "name": "contractURI",
      "outputs": [
        {
          "internalType": "string",
          "name": "",
          "type": "string"
        }
      ],
      "stateMutability": "view",
      "type": "function"
    },
    {
      "inputs": [],
      "name": "decimals",
      "outputs": [
        {
          "internalType": "uint256",
          "name": "",
          "type": "uint256"
        }
      ],
      "stateMutability": "pure",
      "type": "function"
    },
    {
      "inputs": [
        {
          "internalType": "uint256",
          "name": "tokenId",
          "type": "uint256"
        }
      ],
      "name": "exists",
      "outputs": [
        {
          "internalType": "bool",
          "name": "",
          "type": "bool"
        }
      ],
      "stateMutability": "view",
      "type": "function"
    },
    {
      "inputs": [],
      "name": "getAdmin",
      "outputs": [
        {
          "internalType": "address",
          "name": "adminAddress",
          "type": "address"
        }
      ],
      "stateMutability": "view",
      "type": "function"
    },
    {
      "inputs": [
        {
          "internalType": "uint256",
          "name": "tokenId",
          "type": "uint256"
        }
      ],
      "name": "getApproved",
      "outputs": [
        {
          "internalType": "address",
          "name": "",
          "type": "address"
        }
      ],
      "stateMutability": "view",
      "type": "function"
    },
    {
      "inputs": [],
      "name": "getOwner",
      "outputs": [
        {
          "internalType": "address",
          "name": "ownerAddress",
          "type": "address"
        }
      ],
      "stateMutability": "view",
      "type": "function"
    },
    {
      "inputs": [
        {
          "internalType": "bytes",
          "name": "initPayload",
          "type": "bytes"
        }
      ],
      "name": "init",
      "outputs": [
        {
          "internalType": "bytes4",
          "name": "",
          "type": "bytes4"
        }
      ],
      "stateMutability": "nonpayable",
      "type": "function"
    },
    {
      "inputs": [
        {
          "internalType": "address",
          "name": "wallet",
          "type": "address"
        },
        {
          "internalType": "address",
          "name": "operator",
          "type": "address"
        }
      ],
      "name": "isApprovedForAll",
      "outputs": [
        {
          "internalType": "bool",
          "name": "",
          "type": "bool"
        }
      ],
      "stateMutability": "view",
      "type": "function"
    },
    {
      "inputs": [],
      "name": "name",
      "outputs": [
        {
          "internalType": "string",
          "name": "",
          "type": "string"
        }
      ],
      "stateMutability": "view",
      "type": "function"
    },
    {
      "inputs": [
        {
          "internalType": "address",
          "name": "_operator",
          "type": "address"
        },
        {
          "internalType": "address",
          "name": "_from",
          "type": "address"
        },
        {
          "internalType": "uint256",
          "name": "_tokenId",
          "type": "uint256"
        },
        {
          "internalType": "bytes",
          "name": "_data",
          "type": "bytes"
        }
      ],
      "name": "onERC721Received",
      "outputs": [
        {
          "internalType": "bytes4",
          "name": "",
          "type": "bytes4"
        }
      ],
      "stateMutability": "nonpayable",
      "type": "function"
    },
    {
      "inputs": [],
      "name": "owner",
      "outputs": [
        {
          "internalType": "address",
          "name": "",
          "type": "address"
        }
      ],
      "stateMutability": "view",
      "type": "function"
    },
    {
      "inputs": [
        {
          "internalType": "address",
          "name": "target",
          "type": "address"
        },
        {
          "internalType": "bytes",
          "name": "data",
          "type": "bytes"
        }
      ],
      "name": "ownerCall",
      "outputs": [],
      "stateMutability": "payable",
      "type": "function"
    },
    {
      "inputs": [
        {
          "internalType": "uint256",
          "name": "tokenId",
          "type": "uint256"
        }
      ],
      "name": "ownerOf",
      "outputs": [
        {
          "internalType": "address",
          "name": "",
          "type": "address"
        }
      ],
      "stateMutability": "view",
      "type": "function"
    },
    {
      "inputs": [
        {
          "internalType": "address",
          "name": "from",
          "type": "address"
        },
        {
          "internalType": "address",
          "name": "to",
          "type": "address"
        },
        {
          "internalType": "uint256",
          "name": "tokenId",
          "type": "uint256"
        }
      ],
      "name": "safeTransferFrom",
      "outputs": [],
      "stateMutability": "payable",
      "type": "function"
    },
    {
      "inputs": [
        {
          "internalType": "address",
          "name": "from",
          "type": "address"
        },
        {
          "internalType": "address",
          "name": "to",
          "type": "address"
        },
        {
          "internalType": "uint256",
          "name": "tokenId",
          "type": "uint256"
        },
        {
          "internalType": "bytes",
          "name": "data",
          "type": "bytes"
        }
      ],
      "name": "safeTransferFrom",
      "outputs": [],
      "stateMutability": "payable",
      "type": "function"
    },
    {
      "inputs": [
        {
          "internalType": "address",
          "name": "adminAddress",
          "type": "address"
        }
      ],
      "name": "setAdmin",
      "outputs": [],
      "stateMutability": "nonpayable",
      "type": "function"
    },
    {
      "inputs": [
        {
          "internalType": "address",
          "name": "to",
          "type": "address"
        },
        {
          "internalType": "bool",
          "name": "approved",
          "type": "bool"
        }
      ],
      "name": "setApprovalForAll",
      "outputs": [],
      "stateMutability": "nonpayable",
      "type": "function"
    },
    {
      "inputs": [
        {
          "internalType": "address",
          "name": "ownerAddress",
          "type": "address"
        }
      ],
      "name": "setOwner",
      "outputs": [],
      "stateMutability": "nonpayable",
      "type": "function"
    },
    {
      "inputs": [
        {
          "internalType": "uint256",
          "name": "tokenId",
          "type": "uint256"
        }
      ],
      "name": "sourceBurn",
      "outputs": [],
      "stateMutability": "nonpayable",
      "type": "function"
    },
    {
      "inputs": [],
      "name": "sourceGetChainPrepend",
      "outputs": [
        {
          "internalType": "uint256",
          "name": "",
          "type": "uint256"
        }
      ],
      "stateMutability": "view",
      "type": "function"
    },
    {
      "inputs": [
        {
          "internalType": "address",
          "name": "to",
          "type": "address"
        },
        {
          "internalType": "uint224",
          "name": "tokenId",
          "type": "uint224"
        }
      ],
      "name": "sourceMint",
      "outputs": [],
      "stateMutability": "nonpayable",
      "type": "function"
    },
    {
      "inputs": [
        {
          "internalType": "address",
          "name": "to",
          "type": "address"
        },
        {
          "internalType": "uint256",
          "name": "tokenId",
          "type": "uint256"
        }
      ],
      "name": "sourceTransfer",
      "outputs": [],
      "stateMutability": "nonpayable",
      "type": "function"
    },
    {
      "inputs": [
        {
          "internalType": "bytes4",
          "name": "interfaceId",
          "type": "bytes4"
        }
      ],
      "name": "supportsInterface",
      "outputs": [
        {
          "internalType": "bool",
          "name": "",
          "type": "bool"
        }
      ],
      "stateMutability": "view",
      "type": "function"
    },
    {
      "inputs": [],
      "name": "symbol",
      "outputs": [
        {
          "internalType": "string",
          "name": "",
          "type": "string"
        }
      ],
      "stateMutability": "view",
      "type": "function"
    },
    {
      "inputs": [
        {
          "internalType": "uint256",
          "name": "index",
          "type": "uint256"
        }
      ],
      "name": "tokenByIndex",
      "outputs": [
        {
          "internalType": "uint256",
          "name": "",
          "type": "uint256"
        }
      ],
      "stateMutability": "view",
      "type": "function"
    },
    {
      "inputs": [
        {
          "internalType": "address",
          "name": "wallet",
          "type": "address"
        },
        {
          "internalType": "uint256",
          "name": "index",
          "type": "uint256"
        }
      ],
      "name": "tokenOfOwnerByIndex",
      "outputs": [
        {
          "internalType": "uint256",
          "name": "",
          "type": "uint256"
        }
      ],
      "stateMutability": "view",
      "type": "function"
    },
    {
      "inputs": [
        {
          "internalType": "uint256",
          "name": "tokenId",
          "type": "uint256"
        }
      ],
      "name": "tokenURI",
      "outputs": [
        {
          "internalType": "string",
          "name": "",
          "type": "string"
        }
      ],
      "stateMutability": "view",
      "type": "function"
    },
    {
      "inputs": [
        {
          "internalType": "uint256",
          "name": "index",
          "type": "uint256"
        },
        {
          "internalType": "uint256",
          "name": "length",
          "type": "uint256"
        }
      ],
      "name": "tokens",
      "outputs": [
        {
          "internalType": "uint256[]",
          "name": "tokenIds",
          "type": "uint256[]"
        }
      ],
      "stateMutability": "view",
      "type": "function"
    },
    {
      "inputs": [
        {
          "internalType": "address",
          "name": "wallet",
          "type": "address"
        }
      ],
      "name": "tokensOfOwner",
      "outputs": [
        {
          "internalType": "uint256[]",
          "name": "",
          "type": "uint256[]"
        }
      ],
      "stateMutability": "view",
      "type": "function"
    },
    {
      "inputs": [
        {
          "internalType": "address",
          "name": "wallet",
          "type": "address"
        },
        {
          "internalType": "uint256",
          "name": "index",
          "type": "uint256"
        },
        {
          "internalType": "uint256",
          "name": "length",
          "type": "uint256"
        }
      ],
      "name": "tokensOfOwner",
      "outputs": [
        {
          "internalType": "uint256[]",
          "name": "tokenIds",
          "type": "uint256[]"
        }
      ],
      "stateMutability": "view",
      "type": "function"
    },
    {
      "inputs": [],
      "name": "totalSupply",
      "outputs": [
        {
          "internalType": "uint256",
          "name": "",
          "type": "uint256"
        }
      ],
      "stateMutability": "view",
      "type": "function"
    },
    {
      "inputs": [
        {
          "internalType": "address",
          "name": "to",
          "type": "address"
        },
        {
          "internalType": "uint256",
          "name": "tokenId",
          "type": "uint256"
        }
      ],
      "name": "transfer",
      "outputs": [],
      "stateMutability": "payable",
      "type": "function"
    },
    {
      "inputs": [
        {
          "internalType": "address",
          "name": "from",
          "type": "address"
        },
        {
          "internalType": "address",
          "name": "to",
          "type": "address"
        },
        {
          "internalType": "uint256",
          "name": "tokenId",
          "type": "uint256"
        }
      ],
      "name": "transferFrom",
      "outputs": [],
      "stateMutability": "payable",
      "type": "function"
    },
    {
      "inputs": [
        {
          "internalType": "address",
          "name": "from",
          "type": "address"
        },
        {
          "internalType": "address",
          "name": "to",
          "type": "address"
        },
        {
          "internalType": "uint256",
          "name": "tokenId",
          "type": "uint256"
        },
        {
          "internalType": "bytes",
          "name": "data",
          "type": "bytes"
        }
      ],
      "name": "transferFrom",
      "outputs": [],
      "stateMutability": "payable",
      "type": "function"
    },
    {
      "inputs": [
        {
          "internalType": "address",
          "name": "newOwner",
          "type": "address"
        }
      ],
      "name": "transferOwnership",
      "outputs": [],
      "stateMutability": "nonpayable",
      "type": "function"
    },
    {
      "stateMutability": "payable",
      "type": "receive"
    }
  ],
  "transactionHash": "0x44a97a2ef66cf32d2209a322426eebc8f115950b1bbd897747285979992cf705",
  "args": [],
  "numDeployments": 1,
  "solcInputHash": "f27911fb86766625a7918d9e4805043f",
  "bytecode": "0x608060405234801561001057600080fd5b5061537e806100206000396000f3fe6080604052600436106102e05760003560e01c806370a0823111610184578063b88d4fde116100d6578063e8a3d4851161008a578063f2fde38b11610064578063f2fde38b146109aa578063f851a440146109ca578063fadcd091146109df576102e7565b8063e8a3d4851461092c578063e985e9c514610941578063eb66dbcf14610997576102e7565b8063c5655fce116100bb578063c5655fce146108cc578063c839fe94146108ec578063c87b56dd1461090c576102e7565b8063b88d4fde146108a6578063bf64a82d146108b9576102e7565b80638da5cb5b11610138578063a9059cbb11610112578063a9059cbb14610852578063ab67aa5814610865578063b7e0366114610878576102e7565b80638da5cb5b1461080857806395d89b411461081d578063a22cb46514610832576102e7565b80638462151c116101695780638462151c14610787578063893d20e8146107b45780638b4864d6146107e8576102e7565b806370a082311461075257806377dbd86314610772576102e7565b80632f745c591161023d5780634ddf47d4116101f15780636352211e116101cb5780636352211e146106de5780636e9960c3146106fe578063704b6c0214610732576102e7565b80634ddf47d4146106595780634f558e79146106795780634f6ccce7146106be576102e7565b80633b4f1b26116102225780633b4f1b261461060657806342842e0e1461062657806342966c6814610639576102e7565b80632f745c59146105d2578063313ce567146105f2576102e7565b806313af40351161029457806318160ddd1161027957806318160ddd1461057057806323250cae1461058f57806323b872dd146105bf576102e7565b806313af403514610530578063150b7a0214610550576102e7565b8063081812fc116102c5578063081812fc1461046457806308a1eb20146104cc578063095ea7b31461051d576102e7565b806301ffc9a71461040d57806306fdde0314610442576102e7565b366102e757005b60006102f16109ff565b73ffffffffffffffffffffffffffffffffffffffff16639fe7303f60046000357fffffffff00000000000000000000000000000000000000000000000000000000166040518363ffffffff1660e01b8152600401610350929190614686565b602060405180830381865afa15801561036d573d6000803e3d6000fd5b505050506040513d601f19601f820116820180604052508101906103919190614710565b156103c45761039e610a9c565b90503660008037600080366000845af43d6000803e8080156103bf573d6000f35b3d6000fd5b3660008037333652600080602036016000347f27d542086d1e831d40b749e7f5509a626c3047a36d160781c40d5acc83e5b074545af13d6000803e8080156103bf573d6000f35b005b34801561041957600080fd5b5061042d61042836600461475b565b610bb2565b60405190151581526020015b60405180910390f35b34801561044e57600080fd5b50610457610de3565b60405161043991906147ee565b34801561047057600080fd5b506104a761047f366004614801565b60009081526007602052604090205473ffffffffffffffffffffffffffffffffffffffff1690565b60405173ffffffffffffffffffffffffffffffffffffffff9091168152602001610439565b3480156104d857600080fd5b506104ec6104e7366004614875565b610e75565b6040517fffffffff000000000000000000000000000000000000000000000000000000009091168152602001610439565b61040b61052b3660046148ec565b6111da565b34801561053c57600080fd5b5061040b61054b366004614918565b611446565b34801561055c57600080fd5b506104ec61056b366004614935565b6115a9565b34801561057c57600080fd5b506004545b604051908152602001610439565b34801561059b57600080fd5b5061042d6105aa366004614801565b6000908152600c602052604090205460ff1690565b61040b6105cd3660046149a8565b61184c565b3480156105de57600080fd5b506105816105ed3660046148ec565b611867565b3480156105fe57600080fd5b506000610581565b34801561061257600080fd5b5061040b6106213660046149e9565b611924565b61040b6106343660046149a8565b611ada565b34801561064557600080fd5b5061040b610654366004614801565b611af5565b34801561066557600080fd5b506104ec610674366004614b5d565b611c70565b34801561068557600080fd5b5061042d610694366004614801565b60009081526006602052604090205473ffffffffffffffffffffffffffffffffffffffff16151590565b3480156106ca57600080fd5b506105816106d9366004614801565b612170565b3480156106ea57600080fd5b506104a76106f9366004614801565b612203565b34801561070a57600080fd5b507f3f106594dc74eeef980dae234cde8324dc2497b13d27a0c59e55bd2ca10a07c9546104a7565b34801561073e57600080fd5b5061040b61074d366004614918565b612295565b34801561075e57600080fd5b5061058161076d366004614918565b61236f565b34801561077e57600080fd5b50610581612417565b34801561079357600080fd5b506107a76107a2366004614918565b61251b565b6040516104399190614b92565b3480156107c057600080fd5b507fb56711ba6bd3ded7639fc335ee7524fe668a79d7558c85992e3f8494cf772777546104a7565b3480156107f457600080fd5b506107a7610803366004614bd6565b612594565b34801561081457600080fd5b506104a7612666565b34801561082957600080fd5b506104576126fc565b34801561083e57600080fd5b5061040b61084d366004614bf8565b61270b565b61040b6108603660046148ec565b6128fa565b61040b610873366004614c26565b612911565b34801561088457600080fd5b50610898610893366004614c92565b612a00565b604051610439929190614cf7565b61040b6108b4366004614c26565b612e16565b61040b6108c7366004614d32565b613030565b3480156108d857600080fd5b5061040b6108e73660046148ec565b613106565b3480156108f857600080fd5b506107a7610907366004614d52565b613250565b34801561091857600080fd5b50610457610927366004614801565b613369565b34801561093857600080fd5b506104576134d1565b34801561094d57600080fd5b5061042d61095c366004614d87565b73ffffffffffffffffffffffffffffffffffffffff9182166000908152600a6020908152604080832093909416825291909152205460ff1690565b61040b6109a5366004614d32565b61359d565b3480156109b657600080fd5b5061040b6109c5366004614918565b613653565b3480156109d657600080fd5b506104a76137aa565b3480156109eb57600080fd5b5061040b6109fa366004614801565b6137d4565b6000610a297fb4107f746e9496e8452accc7de63d1c5e14c19f510932daa04077cd49e8bd77a5490565b73ffffffffffffffffffffffffffffffffffffffff1663ebac15f96040518163ffffffff1660e01b8152600401602060405180830381865afa158015610a73573d6000803e3d6000fd5b505050506040513d601f19601f82011682018060405250810190610a979190614db5565b905090565b6000610ac67fb4107f746e9496e8452accc7de63d1c5e14c19f510932daa04077cd49e8bd77a5490565b73ffffffffffffffffffffffffffffffffffffffff16635ab1bd536040518163ffffffff1660e01b8152600401602060405180830381865afa158015610b10573d6000803e3d6000fd5b505050506040513d601f19601f82011682018060405250810190610b349190614db5565b6040517fcc2913f900000000000000000000000000000000000000000000000000000000815271486f6c6f6772617068526f79616c74696573600482015273ffffffffffffffffffffffffffffffffffffffff919091169063cc2913f990602401602060405180830381865afa158015610a73573d6000803e3d6000fd5b600080610bbd6109ff565b7f27d542086d1e831d40b749e7f5509a626c3047a36d160781c40d5acc83e5b074546040517f9fe7303f0000000000000000000000000000000000000000000000000000000081529192509073ffffffffffffffffffffffffffffffffffffffff831690639fe7303f90610c38906002908890600401614686565b602060405180830381865afa158015610c55573d6000803e3d6000fd5b505050506040513d601f19601f82011682018060405250810190610c799190614710565b80610d1457506040517f9fe7303f00000000000000000000000000000000000000000000000000000000815273ffffffffffffffffffffffffffffffffffffffff831690639fe7303f90610cd39060049088908201614686565b602060405180830381865afa158015610cf0573d6000803e3d6000fd5b505050506040513d601f19601f82011682018060405250810190610d149190614710565b80610dca57506040517f01ffc9a70000000000000000000000000000000000000000000000000000000081527fffffffff000000000000000000000000000000000000000000000000000000008516600482015273ffffffffffffffffffffffffffffffffffffffff8216906301ffc9a790602401602060405180830381865afa158015610da6573d6000803e3d6000fd5b505050506040513d601f19601f82011682018060405250810190610dca9190614710565b15610dd9575060019392505050565b5060009392505050565b606060018054610df290614dd2565b80601f0160208091040260200160405190810160405280929190818152602001828054610e1e90614dd2565b8015610e6b5780601f10610e4057610100808354040283529160200191610e6b565b820191906000526020600020905b815481529060010190602001808311610e4e57829003601f168201915b5050505050905090565b6000610e9f7fb4107f746e9496e8452accc7de63d1c5e14c19f510932daa04077cd49e8bd77a5490565b73ffffffffffffffffffffffffffffffffffffffff16630fffbaf36040518163ffffffff1660e01b8152600401602060405180830381865afa158015610ee9573d6000803e3d6000fd5b505050506040513d601f19601f82011682018060405250810190610f0d9190614db5565b73ffffffffffffffffffffffffffffffffffffffff163373ffffffffffffffffffffffffffffffffffffffff1614610fa6576040517f08c379a000000000000000000000000000000000000000000000000000000000815260206004820152601860248201527f4552433732313a20627269646765206f6e6c792063616c6c000000000000000060448201526064015b60405180910390fd5b6000808080610fb786880188614c26565b9350935093509350610fed8260009081526006602052604090205473ffffffffffffffffffffffffffffffffffffffff16151590565b15611054576040517f08c379a000000000000000000000000000000000000000000000000000000000815260206004820152601c60248201527f4552433732313a20746f6b656e20616c726561647920657869737473000000006044820152606401610f9d565b6000828152600c6020526040902080547fffffffffffffffffffffffffffffffffffffffffffffffffffffffffffffff0016905561109283836138a4565b61109c6001613b14565b156111ad5761114763f0f5407360e01b89868686866040516024016110c5959493929190614e25565b604080517fffffffffffffffffffffffffffffffffffffffffffffffffffffffffffffffe08184030181529190526020810180517bffffffffffffffffffffffffffffffffffffffffffffffffffffffff167fffffffff0000000000000000000000000000000000000000000000000000000090931692909217909152613b46565b6111ad576040517f08c379a000000000000000000000000000000000000000000000000000000000815260206004820152601b60248201527f484f4c4f47524150483a2062726964676520696e206661696c656400000000006044820152606401610f9d565b507f08a1eb2000000000000000000000000000000000000000000000000000000000979650505050505050565b60008181526006602052604090205473ffffffffffffffffffffffffffffffffffffffff90811690831681900361126d576040517f08c379a000000000000000000000000000000000000000000000000000000000815260206004820152601b60248201527f4552433732313a2063616e6e6f7420617070726f76652073656c6600000000006044820152606401610f9d565b6112773383613b9f565b6112dd576040517f08c379a000000000000000000000000000000000000000000000000000000000815260206004820152601b60248201527f4552433732313a206e6f7420617070726f7665642073656e64657200000000006044820152606401610f9d565b6112e76004613b14565b156113515760405173ffffffffffffffffffffffffffffffffffffffff80831660248301528416604482015260648101839052611348907f47abf3be00000000000000000000000000000000000000000000000000000000906084016110c5565b61135157600080fd5b60008281526007602052604080822080547fffffffffffffffffffffffff00000000000000000000000000000000000000001673ffffffffffffffffffffffffffffffffffffffff87811691821790925591518593918516917f8c5be1e5ebec7d5bd14f71427d1e84f3dd0314c0f7b2291e5b200ac8c7c3b92591a46113d76003613b14565b156114415760405173ffffffffffffffffffffffffffffffffffffffff80831660248301528416604482015260648101839052611438907f900f66ef00000000000000000000000000000000000000000000000000000000906084016110c5565b61144157600080fd5b505050565b7fb56711ba6bd3ded7639fc335ee7524fe668a79d7558c85992e3f8494cf7727775473ffffffffffffffffffffffffffffffffffffffff163373ffffffffffffffffffffffffffffffffffffffff16146114fc576040517f08c379a000000000000000000000000000000000000000000000000000000000815260206004820152601e60248201527f484f4c4f47524150483a206f776e6572206f6e6c792066756e6374696f6e00006044820152606401610f9d565b60006115267fb56711ba6bd3ded7639fc335ee7524fe668a79d7558c85992e3f8494cf7727775490565b9050817fb56711ba6bd3ded7639fc335ee7524fe668a79d7558c85992e3f8494cf772777558173ffffffffffffffffffffffffffffffffffffffff168173ffffffffffffffffffffffffffffffffffffffff167f8be0079c531659141344cd1fd0a4f28419497f9722a3daafe3b4186f6b6457e060405160405180910390a35050565b60006115b486613c9b565b61161a576040517f08c379a000000000000000000000000000000000000000000000000000000000815260206004820152601d60248201527f4552433732313a206f70657261746f72206e6f7420636f6e74726163740000006044820152606401610f9d565b611624600f613b14565b156116585761164f6368fd76b260e01b8787308888886040516024016110c596959493929190614e7b565b61165857600080fd5b6040517f6352211e0000000000000000000000000000000000000000000000000000000081526004810185905273ffffffffffffffffffffffffffffffffffffffff871690636352211e90602401602060405180830381865afa9250505080156116fd575060408051601f3d9081017fffffffffffffffffffffffffffffffffffffffffffffffffffffffffffffffe01682019092526116fa91810190614db5565b60015b611763576040517f08c379a000000000000000000000000000000000000000000000000000000000815260206004820152601c60248201527f4552433732313a20746f6b656e20646f6573206e6f74206578697374000000006044820152606401610f9d565b73ffffffffffffffffffffffffffffffffffffffff811630146117e2576040517f08c379a000000000000000000000000000000000000000000000000000000000815260206004820181905260248201527f4552433732313a20636f6e7472616374206e6f7420746f6b656e206f776e65726044820152606401610f9d565b506117ed6010613b14565b156118215761181863462b401a60e01b8787308888886040516024016110c596959493929190614e7b565b61182157600080fd5b507f150b7a020000000000000000000000000000000000000000000000000000000095945050505050565b61144183838360405180602001604052806000815250612911565b60006118728361236f565b82106118da576040517f08c379a000000000000000000000000000000000000000000000000000000000815260206004820152601b60248201527f4552433732313a20696e646578206f7574206f6620626f756e647300000000006044820152606401610f9d565b73ffffffffffffffffffffffffffffffffffffffff8316600090815260096020526040902080548390811061191157611911614f03565b9060005260206000200154905092915050565b7f27d542086d1e831d40b749e7f5509a626c3047a36d160781c40d5acc83e5b074543373ffffffffffffffffffffffffffffffffffffffff8216146119c5576040517f08c379a000000000000000000000000000000000000000000000000000000000815260206004820152601860248201527f4552433732313a20736f75726365206f6e6c792063616c6c00000000000000006044820152606401610f9d565b60006119cf613cd2565b83604051602001611a3692919060e09290921b7fffffffff00000000000000000000000000000000000000000000000000000000168252602090811b7fffffffffffffffffffffffffffffffffffffffffffffffffffffffff000000001660048301520190565b604051602081830303815290604052611a4e90614f32565b6000818152600c602052604090205490915060ff1615611aca576040517f08c379a000000000000000000000000000000000000000000000000000000000815260206004820152601f60248201527f4552433732313a2063616e2774206d696e74206275726e656420746f6b656e006044820152606401610f9d565b611ad484826138a4565b50505050565b61144183838360405180602001604052806000815250612e16565b611aff3382613e42565b611b65576040517f08c379a000000000000000000000000000000000000000000000000000000000815260206004820152601b60248201527f4552433732313a206e6f7420617070726f7665642073656e64657200000000006044820152606401610f9d565b60008181526006602052604090205473ffffffffffffffffffffffffffffffffffffffff16611b946008613b14565b15611bf65760405173ffffffffffffffffffffffffffffffffffffffff8216602482015260448101839052611bed907f4a1fefbd00000000000000000000000000000000000000000000000000000000906064016110c5565b611bf657600080fd5b611c008183613f6f565b611c0a6007613b14565b15611c6c5760405173ffffffffffffffffffffffffffffffffffffffff8216602482015260448101839052611c63907f971c34b400000000000000000000000000000000000000000000000000000000906064016110c5565b611c6c57600080fd5b5050565b6000611c9a7f4e5f991bca30eca2d4643aaefa807e88f96a4a97398933d572a3c0d973004a015490565b15611d01576040517f08c379a000000000000000000000000000000000000000000000000000000000815260206004820152601b60248201527f4552433732313a20616c726561647920696e697469616c697a656400000000006044820152606401610f9d565b6000337fb56711ba6bd3ded7639fc335ee7524fe668a79d7558c85992e3f8494cf772777557f27d542086d1e831d40b749e7f5509a626c3047a36d160781c40d5acc83e5b07454905060008060008060008088806020019051810190611d679190614fb9565b9550955095509550955095508560019080519060200190611d899291906145a1565b508451611d9d9060029060208801906145a1565b50600380547fffffffffffffffffffffffffffffffffffffffffffffffffffffffffffff00001661ffff8616179055600083905581612119576040517f4ddf47d4000000000000000000000000000000000000000000000000000000008082529073ffffffffffffffffffffffffffffffffffffffff891690634ddf47d490611e2a9085906004016147ee565b6020604051808303816000875af1158015611e49573d6000803e3d6000fd5b505050506040513d601f19601f82011682018060405250810190611e6d9190615077565b7fffffffff000000000000000000000000000000000000000000000000000000001614611ef6576040517f08c379a000000000000000000000000000000000000000000000000000000000815260206004820152601d60248201527f4552433732313a20636f756c64206e6f7420696e697420736f757263650000006044820152606401610f9d565b600080611f01610a9c565b73ffffffffffffffffffffffffffffffffffffffff16631aff107760e01b8761ffff166000604051602001611f40929190918252602082015260400190565b604080517fffffffffffffffffffffffffffffffffffffffffffffffffffffffffffffffe081840301815290829052611f7b916024016147ee565b604080517fffffffffffffffffffffffffffffffffffffffffffffffffffffffffffffffe08184030181529181526020820180517bffffffffffffffffffffffffffffffffffffffffffffffffffffffff167fffffffff000000000000000000000000000000000000000000000000000000009094169390931790925290516120049190615094565b600060405180830381855af49150503d806000811461203f576040519150601f19603f3d011682016040523d82523d6000602084013e612044565b606091505b509150915060008180602001905181019061205f9190615077565b90508280156120af57507fffffffff0000000000000000000000000000000000000000000000000000000081167f4ddf47d400000000000000000000000000000000000000000000000000000000145b612115576040517f08c379a000000000000000000000000000000000000000000000000000000000815260206004820181905260248201527f4552433732313a20636f756c64206e6f7420696e697420726f79616c746965736044820152606401610f9d565b5050505b61214260017f4e5f991bca30eca2d4643aaefa807e88f96a4a97398933d572a3c0d973004a0155565b507f4ddf47d40000000000000000000000000000000000000000000000000000000098975050505050505050565b60045460009082106121de576040517f08c379a000000000000000000000000000000000000000000000000000000000815260206004820152601b60248201527f4552433732313a20696e646578206f7574206f6620626f756e647300000000006044820152606401610f9d565b600482815481106121f1576121f1614f03565b90600052602060002001549050919050565b60008181526006602052604081205473ffffffffffffffffffffffffffffffffffffffff168061228f576040517f08c379a000000000000000000000000000000000000000000000000000000000815260206004820152601c60248201527f4552433732313a20746f6b656e20646f6573206e6f74206578697374000000006044820152606401610f9d565b92915050565b7f3f106594dc74eeef980dae234cde8324dc2497b13d27a0c59e55bd2ca10a07c95473ffffffffffffffffffffffffffffffffffffffff163373ffffffffffffffffffffffffffffffffffffffff161461234b576040517f08c379a000000000000000000000000000000000000000000000000000000000815260206004820152601e60248201527f484f4c4f47524150483a2061646d696e206f6e6c792066756e6374696f6e00006044820152606401610f9d565b7f3f106594dc74eeef980dae234cde8324dc2497b13d27a0c59e55bd2ca10a07c955565b600073ffffffffffffffffffffffffffffffffffffffff82166123ee576040517f08c379a000000000000000000000000000000000000000000000000000000000815260206004820152601460248201527f4552433732313a207a65726f20616464726573730000000000000000000000006044820152606401610f9d565b5073ffffffffffffffffffffffffffffffffffffffff1660009081526008602052604090205490565b7f27d542086d1e831d40b749e7f5509a626c3047a36d160781c40d5acc83e5b074546000903373ffffffffffffffffffffffffffffffffffffffff8216146124bb576040517f08c379a000000000000000000000000000000000000000000000000000000000815260206004820152601860248201527f4552433732313a20736f75726365206f6e6c792063616c6c00000000000000006044820152606401610f9d565b6124c3613cd2565b6040805160e09290921b7fffffffff00000000000000000000000000000000000000000000000000000000166020830152600060248301520160405160208183030381529060405261251490614f32565b91505b5090565b73ffffffffffffffffffffffffffffffffffffffff811660009081526009602090815260409182902080548351818402810184019094528084526060939283018282801561258857602002820191906000526020600020905b815481526020019060010190808311612574575b50505050509050919050565b600454606090806125a584866150df565b11156125b8576125b584826150f7565b92505b8267ffffffffffffffff8111156125d1576125d1614a43565b6040519080825280602002602001820160405280156125fa578160200160208202803683370190505b50915060005b8381101561265e57600461261482876150df565b8154811061262457612624614f03565b906000526020600020015483828151811061264157612641614f03565b6020908102919091010152806126568161510e565b915050612600565b505092915050565b6000807f27d542086d1e831d40b749e7f5509a626c3047a36d160781c40d5acc83e5b0745490508073ffffffffffffffffffffffffffffffffffffffff16638da5cb5b6040518163ffffffff1660e01b8152600401602060405180830381865afa1580156126d8573d6000803e3d6000fd5b505050506040513d601f19601f820116820180604052508101906125149190614db5565b606060028054610df290614dd2565b3373ffffffffffffffffffffffffffffffffffffffff83160361278a576040517f08c379a000000000000000000000000000000000000000000000000000000000815260206004820152601b60248201527f4552433732313a2063616e6e6f7420617070726f76652073656c6600000000006044820152606401610f9d565b6127946006613b14565b156127fd5760405133602482015273ffffffffffffffffffffffffffffffffffffffff8316604482015281151560648201526127f4907f0d39191500000000000000000000000000000000000000000000000000000000906084016110c5565b6127fd57600080fd5b336000818152600a6020908152604080832073ffffffffffffffffffffffffffffffffffffffff87168085529083529281902080547fffffffffffffffffffffffffffffffffffffffffffffffffffffffffffffff001686151590811790915590519081529192917f17307eab39ab6107e8899845ad3d59bd9653f200f220920489ca2b5937696c31910160405180910390a361289a6005613b14565b15611c6c5760405133602482015273ffffffffffffffffffffffffffffffffffffffff831660448201528115156064820152611c63907fb6d3d5b700000000000000000000000000000000000000000000000000000000906084016110c5565b611c6c338383604051806020016040528060008152505b61291b3383613e42565b612981576040517f08c379a000000000000000000000000000000000000000000000000000000000815260206004820152601b60248201527f4552433732313a206e6f7420617070726f7665642073656e64657200000000006044820152606401610f9d565b61298b600e613b14565b156129bb576129b263343b278f60e01b858585856040516024016110c59493929190615146565b6129bb57600080fd5b6129c684848461405d565b6129d0600d613b14565b15611ad4576129f7630668af8060e01b858585856040516024016110c59493929190615146565b611ad457600080fd5b60006060612a2c7fb4107f746e9496e8452accc7de63d1c5e14c19f510932daa04077cd49e8bd77a5490565b73ffffffffffffffffffffffffffffffffffffffff16630fffbaf36040518163ffffffff1660e01b8152600401602060405180830381865afa158015612a76573d6000803e3d6000fd5b505050506040513d601f19601f82011682018060405250810190612a9a9190614db5565b73ffffffffffffffffffffffffffffffffffffffff163373ffffffffffffffffffffffffffffffffffffffff1614612b2e576040517f08c379a000000000000000000000000000000000000000000000000000000000815260206004820152601860248201527f4552433732313a20627269646765206f6e6c792063616c6c00000000000000006044820152606401610f9d565b60008080612b3e868801886149a8565b9194509250905073ffffffffffffffffffffffffffffffffffffffff8216612bc2576040517f08c379a000000000000000000000000000000000000000000000000000000000815260206004820152601460248201527f4552433732313a207a65726f20616464726573730000000000000000000000006044820152606401610f9d565b612bcc8882613e42565b612c32576040517f08c379a000000000000000000000000000000000000000000000000000000000815260206004820152601b60248201527f4552433732313a2073656e646572206e6f7420617070726f76656400000000006044820152606401610f9d565b60008181526006602052604090205473ffffffffffffffffffffffffffffffffffffffff848116911614612cc2576040517f08c379a000000000000000000000000000000000000000000000000000000000815260206004820152601960248201527f4552433732313a2066726f6d206973206e6f74206f776e6572000000000000006044820152606401610f9d565b612ccc6002613b14565b15612db4576040805163ffffffff8b16602482015273ffffffffffffffffffffffffffffffffffffffff85811660448301528416606482015260848082018490528251808303909101815260a4909101909152602080820180517bffffffffffffffffffffffffffffffffffffffffffffffffffffffff167f8b1465c6000000000000000000000000000000000000000000000000000000001790528151339083015281517f27d542086d1e831d40b749e7f5509a626c3047a36d160781c40d5acc83e5b0745460009283920190849034905af13d6000873e8080612db0573d6000fd5b5050505b612dbe8382613f6f565b6040517fb7e036610000000000000000000000000000000000000000000000000000000090612df7908590859085908990602001615146565b6040516020818303038152906040529450945050505094509492505050565b612e203383613e42565b612e86576040517f08c379a000000000000000000000000000000000000000000000000000000000815260206004820152601b60248201527f4552433732313a206e6f7420617070726f7665642073656e64657200000000006044820152606401610f9d565b612e90600c613b14565b15612ec057612eb7632ca1667660e01b858585856040516024016110c59493929190615146565b612ec057600080fd5b612ecb84848461405d565b612ed483613c9b565b15612fff576040517f150b7a02000000000000000000000000000000000000000000000000000000008082529073ffffffffffffffffffffffffffffffffffffffff85169063150b7a0290612f33903390899088908890600401615146565b6020604051808303816000875af1158015612f52573d6000803e3d6000fd5b505050506040513d601f19601f82011682018060405250810190612f769190615077565b7fffffffff000000000000000000000000000000000000000000000000000000001614612fff576040517f08c379a000000000000000000000000000000000000000000000000000000000815260206004820152601d60248201527f4552433732313a206f6e4552433732315265636569766564206661696c0000006044820152606401610f9d565b613009600b613b14565b15611ad4576129f76336fff06260e01b858585856040516024016110c59493929190615146565b7f3f106594dc74eeef980dae234cde8324dc2497b13d27a0c59e55bd2ca10a07c95473ffffffffffffffffffffffffffffffffffffffff163373ffffffffffffffffffffffffffffffffffffffff16146130e6576040517f08c379a000000000000000000000000000000000000000000000000000000000815260206004820152601e60248201527f484f4c4f47524150483a2061646d696e206f6e6c792066756e6374696f6e00006044820152606401610f9d565b808260003760008082600034875af13d6000803e8080156103bf573d6000f35b7f27d542086d1e831d40b749e7f5509a626c3047a36d160781c40d5acc83e5b074543373ffffffffffffffffffffffffffffffffffffffff8216146131a7576040517f08c379a000000000000000000000000000000000000000000000000000000000815260206004820152601860248201527f4552433732313a20736f75726365206f6e6c792063616c6c00000000000000006044820152606401610f9d565b6000828152600c602052604090205460ff1615613220576040517f08c379a000000000000000000000000000000000000000000000000000000000815260206004820152601d60248201527f4552433732313a20746f6b656e20686173206265656e206275726e65640000006044820152606401610f9d565b60008281526006602052604090205473ffffffffffffffffffffffffffffffffffffffff16611ad481858561405d565b73ffffffffffffffffffffffffffffffffffffffff83166000908152600860205260409020546060908061328484866150df565b11156132975761329484826150f7565b92505b8267ffffffffffffffff8111156132b0576132b0614a43565b6040519080825280602002602001820160405280156132d9578160200160208202803683370190505b50915060005b838110156133605773ffffffffffffffffffffffffffffffffffffffff8616600090815260096020526040902061331682876150df565b8154811061332657613326614f03565b906000526020600020015483828151811061334357613343614f03565b6020908102919091010152806133588161510e565b9150506132df565b50509392505050565b60008181526006602052604090205460609073ffffffffffffffffffffffffffffffffffffffff166133f7576040517f08c379a000000000000000000000000000000000000000000000000000000000815260206004820152601c60248201527f4552433732313a20746f6b656e20646f6573206e6f74206578697374000000006044820152606401610f9d565b7f27d542086d1e831d40b749e7f5509a626c3047a36d160781c40d5acc83e5b074546040517fc87b56dd0000000000000000000000000000000000000000000000000000000081526004810184905273ffffffffffffffffffffffffffffffffffffffff82169063c87b56dd90602401600060405180830381865afa158015613484573d6000803e3d6000fd5b505050506040513d6000823e601f3d9081017fffffffffffffffffffffffffffffffffffffffffffffffffffffffffffffffe01682016040526134ca919081019061518f565b9392505050565b60606134db6109ff565b6003546040517f9cf149da00000000000000000000000000000000000000000000000000000000815273ffffffffffffffffffffffffffffffffffffffff9290921691639cf149da9161353a9160019161ffff169030906004016151c4565b600060405180830381865afa158015613557573d6000803e3d6000fd5b505050506040513d6000823e601f3d9081017fffffffffffffffffffffffffffffffffffffffffffffffffffffffffffffffe0168201604052610a97919081019061518f565b7fb56711ba6bd3ded7639fc335ee7524fe668a79d7558c85992e3f8494cf7727775473ffffffffffffffffffffffffffffffffffffffff163373ffffffffffffffffffffffffffffffffffffffff16146130e6576040517f08c379a000000000000000000000000000000000000000000000000000000000815260206004820152601e60248201527f484f4c4f47524150483a206f776e6572206f6e6c792066756e6374696f6e00006044820152606401610f9d565b7fb56711ba6bd3ded7639fc335ee7524fe668a79d7558c85992e3f8494cf7727775473ffffffffffffffffffffffffffffffffffffffff163373ffffffffffffffffffffffffffffffffffffffff1614613709576040517f08c379a000000000000000000000000000000000000000000000000000000000815260206004820152601e60248201527f484f4c4f47524150483a206f776e6572206f6e6c792066756e6374696f6e00006044820152606401610f9d565b73ffffffffffffffffffffffffffffffffffffffff8116613786576040517f08c379a000000000000000000000000000000000000000000000000000000000815260206004820152601760248201527f484f4c4f47524150483a207a65726f20616464726573730000000000000000006044820152606401610f9d565b7fb56711ba6bd3ded7639fc335ee7524fe668a79d7558c85992e3f8494cf77277755565b6000610a977f3f106594dc74eeef980dae234cde8324dc2497b13d27a0c59e55bd2ca10a07c95490565b7f27d542086d1e831d40b749e7f5509a626c3047a36d160781c40d5acc83e5b074543373ffffffffffffffffffffffffffffffffffffffff821614613875576040517f08c379a000000000000000000000000000000000000000000000000000000000815260206004820152601860248201527f4552433732313a20736f75726365206f6e6c792063616c6c00000000000000006044820152606401610f9d565b60008281526006602052604090205473ffffffffffffffffffffffffffffffffffffffff166114418184613f6f565b6000811161390e576040517f08c379a000000000000000000000000000000000000000000000000000000000815260206004820152601f60248201527f4552433732313a20746f6b656e2069642063616e6e6f74206265207a65726f006044820152606401610f9d565b73ffffffffffffffffffffffffffffffffffffffff821661398b576040517f08c379a000000000000000000000000000000000000000000000000000000000815260206004820152601f60248201527f4552433732313a206d696e74696e6720746f206275726e2061646472657373006044820152606401610f9d565b60008181526006602052604090205473ffffffffffffffffffffffffffffffffffffffff1615613a17576040517f08c379a000000000000000000000000000000000000000000000000000000000815260206004820152601c60248201527f4552433732313a20746f6b656e20616c726561647920657869737473000000006044820152606401610f9d565b6000818152600c602052604090205460ff1615613a90576040517f08c379a000000000000000000000000000000000000000000000000000000000815260206004820152601d60248201527f4552433732313a20746f6b656e20686173206265656e206275726e65640000006044820152606401610f9d565b60008181526006602052604080822080547fffffffffffffffffffffffff00000000000000000000000000000000000000001673ffffffffffffffffffffffffffffffffffffffff861690811790915590518392907fddf252ad1be2c89b69c2b068fc378daa952ba7f163c4a11628f55a4df523b3ef908290a4611c6c828261422a565b60006001826010811115613b2a57613b2a614657565b600054901c16600114613b3e57600061228f565b600192915050565b600060405160208101604052338351840152600080602085510185347f27d542086d1e831d40b749e7f5509a626c3047a36d160781c40d5acc83e5b074545af13d6000833e8080613b96573d6000fd5b50505192915050565b60008181526006602052604081205473ffffffffffffffffffffffffffffffffffffffff16613c2a576040517f08c379a000000000000000000000000000000000000000000000000000000000815260206004820152601c60248201527f4552433732313a20746f6b656e20646f6573206e6f74206578697374000000006044820152606401610f9d565b60008281526006602052604090205473ffffffffffffffffffffffffffffffffffffffff908116908416811480613c93575073ffffffffffffffffffffffffffffffffffffffff8082166000908152600a602090815260408083209388168352929052205460ff165b949350505050565b6000813f80158015906134ca57507fc5d2460186f7233c927e7db2dcc703c0e500b653ca82273b7bfad8045d85a470141592915050565b6000803073ffffffffffffffffffffffffffffffffffffffff16634827ae0c6040518163ffffffff1660e01b8152600401602060405180830381865afa158015613d20573d6000803e3d6000fd5b505050506040513d601f19601f82011682018060405250810190613d449190614db5565b73ffffffffffffffffffffffffffffffffffffffff1663381b5f466040518163ffffffff1660e01b8152600401602060405180830381865afa158015613d8e573d6000803e3d6000fd5b505050506040513d601f19601f82011682018060405250810190613db291906152f0565b90503073ffffffffffffffffffffffffffffffffffffffff1663913a0ef26040518163ffffffff1660e01b8152600401602060405180830381865afa158015613dff573d6000803e3d6000fd5b505050506040513d601f19601f82011682018060405250810190613e2391906152f0565b63ffffffff168163ffffffff1614613e3a57919050565b600091505090565b60008181526006602052604081205473ffffffffffffffffffffffffffffffffffffffff16613ecd576040517f08c379a000000000000000000000000000000000000000000000000000000000815260206004820152601c60248201527f4552433732313a20746f6b656e20646f6573206e6f74206578697374000000006044820152606401610f9d565b60008281526006602052604090205473ffffffffffffffffffffffffffffffffffffffff908116908416811480613f2a575060008381526007602052604090205473ffffffffffffffffffffffffffffffffffffffff8581169116145b80613c93575073ffffffffffffffffffffffffffffffffffffffff8082166000908152600a602090815260408083209388168352929052205460ff1691505092915050565b600081815260076020526040902080547fffffffffffffffffffffffff000000000000000000000000000000000000000016905560008181526006602052604080822080547fffffffffffffffffffffffff00000000000000000000000000000000000000001690555182919073ffffffffffffffffffffffffffffffffffffffff8516907fddf252ad1be2c89b69c2b068fc378daa952ba7f163c4a11628f55a4df523b3ef908390a461402382826142f1565b6000908152600c6020526040902080547fffffffffffffffffffffffffffffffffffffffffffffffffffffffffffffff0016600117905550565b60008181526006602052604090205473ffffffffffffffffffffffffffffffffffffffff8481169116146140ed576040517f08c379a000000000000000000000000000000000000000000000000000000000815260206004820152601760248201527f4552433732313a20746f6b656e206e6f74206f776e65640000000000000000006044820152606401610f9d565b73ffffffffffffffffffffffffffffffffffffffff821661416a576040517f08c379a000000000000000000000000000000000000000000000000000000000815260206004820152601860248201527f4552433732313a20757365206275726e20696e737465616400000000000000006044820152606401610f9d565b600081815260076020526040902080547fffffffffffffffffffffffff000000000000000000000000000000000000000016905560008181526006602052604080822080547fffffffffffffffffffffffff00000000000000000000000000000000000000001673ffffffffffffffffffffffffffffffffffffffff86811691821790925591518493918716917fddf252ad1be2c89b69c2b068fc378daa952ba7f163c4a11628f55a4df523b3ef91a461422483826142f1565b61144182825b73ffffffffffffffffffffffffffffffffffffffff8216600081815260086020818152604080842080548786526005845291852082905594845291905291906142728361510e565b909155505073ffffffffffffffffffffffffffffffffffffffff90911660009081526009602090815260408083208054600181810183559185528385200185905560048054868652600b909452918420839055820181559091527f8a35acfbc15ff81a39ae7d344fd709f28e8600b4aa8c65c6b64bfe7fe36bd19b0155565b6142fa816144ef565b73ffffffffffffffffffffffffffffffffffffffff8216600090815260086020526040812080549161432b8361530d565b909155505073ffffffffffffffffffffffffffffffffffffffff82166000908152600860209081526040808320548484526005909252909120548082146144215773ffffffffffffffffffffffffffffffffffffffff841660009081526009602052604081208054849081106143a3576143a3614f03565b9060005260206000200154905080600960008773ffffffffffffffffffffffffffffffffffffffff1673ffffffffffffffffffffffffffffffffffffffff168152602001908152602001600020838154811061440157614401614f03565b600091825260208083209091019290925591825260059052604090208190555b8160000361445c5773ffffffffffffffffffffffffffffffffffffffff8416600090815260096020526040812061445791614621565b611ad4565b73ffffffffffffffffffffffffffffffffffffffff8416600090815260096020526040902080548390811061449357614493614f03565b6000918252602080832090910182905573ffffffffffffffffffffffffffffffffffffffff8616825260099052604090208054806144d3576144d3615342565b6001900381819060005260206000200160009055905550505050565b600454600090614501906001906150f7565b6000838152600b60205260408120546004805493945090928490811061452957614529614f03565b90600052602060002001549050806004838154811061454a5761454a614f03565b6000918252602080832090910192909255828152600b9091526040808220849055858252812055600480548490811061458557614585614f03565b600091825260208220015560048054806144d3576144d3615342565b8280546145ad90614dd2565b90600052602060002090601f0160209004810192826145cf5760008555614615565b82601f106145e857805160ff1916838001178555614615565b82800160010185558215614615579182015b828111156146155782518255916020019190600101906145fa565b50612517929150614642565b508054600082559060005260206000209081019061463f9190614642565b50565b5b808211156125175760008155600101614643565b7f4e487b7100000000000000000000000000000000000000000000000000000000600052602160045260246000fd5b60408101600684106146c1577f4e487b7100000000000000000000000000000000000000000000000000000000600052602160045260246000fd5b9281527fffffffff000000000000000000000000000000000000000000000000000000009190911660209091015290565b801515811461463f57600080fd5b805161470b816146f2565b919050565b60006020828403121561472257600080fd5b81516134ca816146f2565b7fffffffff000000000000000000000000000000000000000000000000000000008116811461463f57600080fd5b60006020828403121561476d57600080fd5b81356134ca8161472d565b60005b8381101561479357818101518382015260200161477b565b83811115611ad45750506000910152565b600081518084526147bc816020860160208601614778565b601f017fffffffffffffffffffffffffffffffffffffffffffffffffffffffffffffffe0169290920160200192915050565b6020815260006134ca60208301846147a4565b60006020828403121561481357600080fd5b5035919050565b63ffffffff8116811461463f57600080fd5b60008083601f84011261483e57600080fd5b50813567ffffffffffffffff81111561485657600080fd5b60208301915083602082850101111561486e57600080fd5b9250929050565b60008060006040848603121561488a57600080fd5b83356148958161481a565b9250602084013567ffffffffffffffff8111156148b157600080fd5b6148bd8682870161482c565b9497909650939450505050565b73ffffffffffffffffffffffffffffffffffffffff8116811461463f57600080fd5b600080604083850312156148ff57600080fd5b823561490a816148ca565b946020939093013593505050565b60006020828403121561492a57600080fd5b81356134ca816148ca565b60008060008060006080868803121561494d57600080fd5b8535614958816148ca565b94506020860135614968816148ca565b935060408601359250606086013567ffffffffffffffff81111561498b57600080fd5b6149978882890161482c565b969995985093965092949392505050565b6000806000606084860312156149bd57600080fd5b83356149c8816148ca565b925060208401356149d8816148ca565b929592945050506040919091013590565b600080604083850312156149fc57600080fd5b8235614a07816148ca565b915060208301357bffffffffffffffffffffffffffffffffffffffffffffffffffffffff81168114614a3857600080fd5b809150509250929050565b7f4e487b7100000000000000000000000000000000000000000000000000000000600052604160045260246000fd5b604051601f82017fffffffffffffffffffffffffffffffffffffffffffffffffffffffffffffffe016810167ffffffffffffffff81118282101715614ab957614ab9614a43565b604052919050565b600067ffffffffffffffff821115614adb57614adb614a43565b50601f017fffffffffffffffffffffffffffffffffffffffffffffffffffffffffffffffe01660200190565b600082601f830112614b1857600080fd5b8135614b2b614b2682614ac1565b614a72565b818152846020838601011115614b4057600080fd5b816020850160208301376000918101602001919091529392505050565b600060208284031215614b6f57600080fd5b813567ffffffffffffffff811115614b8657600080fd5b613c9384828501614b07565b6020808252825182820181905260009190848201906040850190845b81811015614bca57835183529284019291840191600101614bae565b50909695505050505050565b60008060408385031215614be957600080fd5b50508035926020909101359150565b60008060408385031215614c0b57600080fd5b8235614c16816148ca565b91506020830135614a38816146f2565b60008060008060808587031215614c3c57600080fd5b8435614c47816148ca565b93506020850135614c57816148ca565b925060408501359150606085013567ffffffffffffffff811115614c7a57600080fd5b614c8687828801614b07565b91505092959194509250565b60008060008060608587031215614ca857600080fd5b8435614cb38161481a565b93506020850135614cc3816148ca565b9250604085013567ffffffffffffffff811115614cdf57600080fd5b614ceb8782880161482c565b95989497509550505050565b7fffffffff0000000000000000000000000000000000000000000000000000000083168152604060208201526000613c9360408301846147a4565b600080600060408486031215614d4757600080fd5b8335614895816148ca565b600080600060608486031215614d6757600080fd5b8335614d72816148ca565b95602085013595506040909401359392505050565b60008060408385031215614d9a57600080fd5b8235614da5816148ca565b91506020830135614a38816148ca565b600060208284031215614dc757600080fd5b81516134ca816148ca565b600181811c90821680614de657607f821691505b602082108103614e1f577f4e487b7100000000000000000000000000000000000000000000000000000000600052602260045260246000fd5b50919050565b63ffffffff86168152600073ffffffffffffffffffffffffffffffffffffffff808716602084015280861660408401525083606083015260a06080830152614e7060a08301846147a4565b979650505050505050565b600073ffffffffffffffffffffffffffffffffffffffff8089168352808816602084015280871660408401525084606083015260a060808301528260a0830152828460c0840137600060c0848401015260c07fffffffffffffffffffffffffffffffffffffffffffffffffffffffffffffffe0601f8501168301019050979650505050505050565b7f4e487b7100000000000000000000000000000000000000000000000000000000600052603260045260246000fd5b80516020808301519190811015614e1f577fffffffffffffffffffffffffffffffffffffffffffffffffffffffffffffffff60209190910360031b1b16919050565b600082601f830112614f8557600080fd5b8151614f93614b2682614ac1565b818152846020838601011115614fa857600080fd5b613c93826020830160208701614778565b60008060008060008060c08789031215614fd257600080fd5b865167ffffffffffffffff80821115614fea57600080fd5b614ff68a838b01614f74565b9750602089015191508082111561500c57600080fd5b6150188a838b01614f74565b96506040890151915061ffff8216821461503157600080fd5b8195506060890151945061504760808a01614700565b935060a089015191508082111561505d57600080fd5b5061506a89828a01614f74565b9150509295509295509295565b60006020828403121561508957600080fd5b81516134ca8161472d565b600082516150a6818460208701614778565b9190910192915050565b7f4e487b7100000000000000000000000000000000000000000000000000000000600052601160045260246000fd5b600082198211156150f2576150f26150b0565b500190565b600082821015615109576151096150b0565b500390565b60007fffffffffffffffffffffffffffffffffffffffffffffffffffffffffffffffff820361513f5761513f6150b0565b5060010190565b600073ffffffffffffffffffffffffffffffffffffffff80871683528086166020840152508360408301526080606083015261518560808301846147a4565b9695505050505050565b6000602082840312156151a157600080fd5b815167ffffffffffffffff8111156151b857600080fd5b613c9384828501614f74565b60a08152600080855481600182811c9150808316806151e457607f831692505b6020808410820361521c577f4e487b710000000000000000000000000000000000000000000000000000000086526022600452602486fd5b60a0880184905260c0880182801561523b576001811461526a57615295565b7fffffffffffffffffffffffffffffffffffffffffffffffffffffffffffffff00871682528282019750615295565b60008d81526020902060005b8781101561528f57815484820152908601908401615276565b83019850505b5050878603908801525050600083525050602081018381036040850152600081529050602081019150506152cf606083018561ffff169052565b73ffffffffffffffffffffffffffffffffffffffff83166080830152613c93565b60006020828403121561530257600080fd5b81516134ca8161481a565b60008161531c5761531c6150b0565b507fffffffffffffffffffffffffffffffffffffffffffffffffffffffffffffffff0190565b7f4e487b7100000000000000000000000000000000000000000000000000000000600052603160045260246000fdfea164736f6c634300080d000a",
  "devdoc": {
    "author": "CXIP-Labs",
    "details": "The entire logic and functionality of the smart contract is self-contained.",
    "kind": "dev",
    "methods": {
      "approve(address,uint256)": {
        "details": "Requires the sender to be in the approved addresses.",
        "params": {
          "to": "The address to approve.",
          "tokenId": "The affected token."
        }
      },
      "balanceOf(address)": {
        "details": "Used to see total amount of tokens owned by a specific wallet.",
        "params": {
          "wallet": "Address for which to get token balance."
        },
        "returns": {
          "_0": "uint256 Returns an integer, representing total amount of tokens held by address."
        }
      },
      "burn(uint256)": {
        "details": "The sender must be the owner or approved.",
        "params": {
          "tokenId": "The token to burn."
        }
      },
      "constructor": {
        "details": "Constructor is left empty and init is used instead"
      },
      "contractURI()": {
        "returns": {
          "_0": "string The URI."
        }
      },
      "decimals()": {
        "details": "Since ERC721s are single, we use 0 as the decimal places to make sure a round number for totalSupply.",
        "returns": {
          "_0": "uint256 Returns the number of decimal places to have for totalSupply."
        }
      },
      "getApproved(uint256)": {
        "details": "Single operator set for a specific token. Usually used for one-time very specific authorisations.",
        "params": {
          "tokenId": "Token id to get approved operator for."
        },
        "returns": {
          "_0": "address Approved address for token."
        }
      },
      "init(bytes)": {
        "details": "This function is called by the deployer/factory when creating a contract",
        "params": {
          "initPayload": "abi encoded payload to use for contract initilaization"
        }
      },
      "isApprovedForAll(address,address)": {
        "details": "Includes references to OpenSea and Rarible marketplace proxies.",
        "params": {
          "operator": "Address of the marketplace operator.",
          "wallet": "Address of the wallet."
        },
        "returns": {
          "_0": "bool True if approved."
        }
      },
      "name()": {
        "returns": {
          "_0": "string The collection name."
        }
      },
      "onERC721Received(address,address,uint256,bytes)": {
        "details": "We have this blank function in place to make sure that external contract sending in NFTs don't error out.Since it's not being used, the _operator variable is commented out to avoid compiler warnings.Since it's not being used, the _from variable is commented out to avoid compiler warnings.Since it's not being used, the _tokenId variable is commented out to avoid compiler warnings.Since it's not being used, the _data variable is commented out to avoid compiler warnings.",
        "returns": {
          "_0": "bytes4 Returns the interfaceId of onERC721Received."
        }
      },
      "ownerOf(uint256)": {
        "details": "The token must exist.",
        "params": {
          "tokenId": "The token to look up."
        },
        "returns": {
          "_0": "address Owner of the token."
        }
      },
      "safeTransferFrom(address,address,uint256)": {
        "details": "Safely transfers `tokenId` token from `from` to `to`, checking first that contract recipients are aware of the ERC721 protocol to prevent tokens from being forever locked.",
        "params": {
          "from": "cannot be the zero address.",
          "to": "cannot be the zero address.",
          "tokenId": "token must exist and be owned by `from`."
        }
      },
      "safeTransferFrom(address,address,uint256,bytes)": {
        "details": "Since it's not being used, the _data variable is commented out to avoid compiler warnings. are aware of the ERC721 protocol to prevent tokens from being forever locked.",
        "params": {
          "from": "cannot be the zero address.",
          "to": "cannot be the zero address.",
          "tokenId": "token must exist and be owned by `from`."
        }
      },
      "setApprovalForAll(address,bool)": {
        "details": "Allows platforms to sell/transfer all your NFTs. Used with proxy contracts like OpenSea/Rarible.",
        "params": {
          "approved": "Turn on or off approval status.",
          "to": "The address to approve."
        }
      },
      "sourceBurn(uint256)": {
        "details": "Allows for source smart contract to burn a token.  Note: this is put in place to make sure that custom logic could be implemented for merging, gamification, etc.  Note: token cannot be burned if it's locked by bridge."
      },
      "sourceGetChainPrepend()": {
        "details": "Allows source to get the prepend for their tokenIds."
      },
      "sourceMint(address,uint224)": {
        "details": "Allows for source smart contract to mint a token."
      },
      "sourceTransfer(address,uint256)": {
        "details": "Allows for source smart contract to transfer a token.  Note: this is put in place to make sure that custom logic could be implemented for merging, gamification, etc.  Note: token cannot be transfered if it's locked by bridge."
      },
      "supportsInterface(bytes4)": {
        "details": "Must add new 4 byte interface Ids here to acknowledge support",
        "params": {
          "interfaceId": "ERC165 style 4 byte interfaceId."
        },
        "returns": {
          "_0": "bool True if supported."
        }
      },
      "symbol()": {
        "returns": {
          "_0": "string The symbol."
        }
      },
      "tokenByIndex(uint256)": {
        "details": "Used in conjunction with totalSupply function to iterate over all tokens in collection.",
        "params": {
          "index": "Index of token in array."
        },
        "returns": {
          "_0": "uint256 Returns the token id of token located at that index."
        }
      },
      "tokenOfOwnerByIndex(address,uint256)": {
        "details": "Helpful for wallet token enumeration where token id info is not yet available. Use in conjunction with balanceOf function.",
        "params": {
          "index": "Index of token in array.",
          "wallet": "Specific address for which to get token for."
        },
        "returns": {
          "_0": "uint256 Returns the token id of token located at that index in specified wallet."
        }
      },
      "tokenURI(uint256)": {
        "details": "Defaults the the Arweave URI",
        "returns": {
          "_0": "string The URI."
        }
      },
      "tokens(uint256,uint256)": {
        "params": {
          "index": "The index to start enumeration from.",
          "length": "The length of returned results."
        },
        "returns": {
          "tokenIds": "uint256[] Returns a set length array of token ids minted."
        }
      },
      "tokensOfOwner(address)": {
        "params": {
          "wallet": "The wallet address to get tokens for."
        },
        "returns": {
          "_0": "uint256[] Returns an array of token ids owned by wallet."
        }
      },
      "tokensOfOwner(address,uint256,uint256)": {
        "params": {
          "index": "The index to start enumeration from.",
          "length": "The length of returned results.",
          "wallet": "The wallet address to get tokens for."
        },
        "returns": {
          "tokenIds": "uint256[] Returns a set length array of token ids owned by wallet."
        }
      },
      "totalSupply()": {
        "details": "Ignores burned tokens.",
        "returns": {
          "_0": "uint256 Returns the total number of active (not burned) tokens."
        }
      },
      "transfer(address,uint256)": {
        "details": "WARNING: Usage of this method is discouraged, use {safeTransferFrom} whenever possible.",
        "params": {
          "to": "cannot be the zero address.",
          "tokenId": "token must be owned by `from`."
        }
      },
      "transferFrom(address,address,uint256)": {
        "details": "WARNING: Usage of this method is discouraged, use {safeTransferFrom} whenever possible.",
        "params": {
          "from": "cannot be the zero address.",
          "to": "cannot be the zero address.",
          "tokenId": "token must be owned by `from`."
        }
      },
      "transferFrom(address,address,uint256,bytes)": {
        "details": "WARNING: Usage of this method is discouraged, use {safeTransferFrom} whenever possible.Since it's not being used, the _data variable is commented out to avoid compiler warnings.",
        "params": {
          "data": "additional data to pass.",
          "from": "cannot be the zero address.",
          "to": "cannot be the zero address.",
          "tokenId": "token must be owned by `from`."
        }
      }
    },
    "stateVariables": {
      "_allTokens": {
        "details": "Array of all token ids in collection."
      },
      "_allTokensIndex": {
        "details": "Mapping from token id to position in the allTokens array."
      },
      "_bps": {
        "details": "Collection royalty base points."
      },
      "_burnedTokens": {
        "details": "Mapping of all token ids that have been burned. This is to prevent re-minting of same token ids."
      },
      "_eventConfig": {
        "details": "Configuration for events to trigger for source smart contract."
      },
      "_holographSlot": {
        "details": "bytes32(uint256(keccak256('eip1967.Holograph.holograph')) - 1)"
      },
      "_name": {
        "details": "Collection name."
      },
      "_operatorApprovals": {
        "details": "Usually utilised for supporting marketplace proxy wallets."
      },
      "_ownedTokens": {
        "details": "Map of array of token ids owned by a specific address."
      },
      "_ownedTokensCount": {
        "details": "Map of total tokens owner by a specific address."
      },
      "_ownedTokensIndex": {
        "details": "Map of token id to array index of _ownedTokens."
      },
      "_sourceContractSlot": {
        "details": "bytes32(uint256(keccak256('eip1967.Holograph.sourceContract')) - 1)"
      },
      "_symbol": {
        "details": "Collection symbol."
      },
      "_tokenApprovals": {
        "details": "1-to-1 map of token id that was assigned an approved operator address."
      },
      "_tokenOwner": {
        "details": "Token id to wallet (owner) address map."
      }
    },
    "title": "Holograph Bridgeable ERC-721 Collection",
    "version": 1
  },
  "userdoc": {
    "kind": "user",
    "methods": {
      "approve(address,uint256)": {
        "notice": "Adds a new address to the token's approval list."
      },
      "balanceOf(address)": {
        "notice": "Get total number of tokens owned by wallet."
      },
      "burn(uint256)": {
        "notice": "Burns the token."
      },
      "contractURI()": {
        "notice": "Gets a base64 encoded contract JSON file."
      },
      "decimals()": {
        "notice": "Decimal places to have for totalSupply."
      },
      "getApproved(uint256)": {
        "notice": "Gets the approved address for the token."
      },
      "init(bytes)": {
        "notice": "Used internally to initialize the contract instead of through a constructor"
      },
      "isApprovedForAll(address,address)": {
        "notice": "Checks if the address is approved."
      },
      "name()": {
        "notice": "Gets the name of the collection."
      },
      "onERC721Received(address,address,uint256,bytes)": {
        "notice": "Empty function that is triggered by external contract on NFT transfer."
      },
      "ownerOf(uint256)": {
        "notice": "Checks who the owner of a token is."
      },
      "safeTransferFrom(address,address,uint256,bytes)": {
        "notice": "Safely transfers `tokenId` token from `from` to `to`, checking first that contract recipients"
      },
      "setApprovalForAll(address,bool)": {
        "notice": "Adds a new approved operator."
      },
      "supportsInterface(bytes4)": {
        "notice": "Shows the interfaces the contracts support"
      },
      "symbol()": {
        "notice": "Gets the collection's symbol."
      },
      "tokenByIndex(uint256)": {
        "notice": "Get token by index."
      },
      "tokenOfOwnerByIndex(address,uint256)": {
        "notice": "Get token from wallet by index instead of token id."
      },
      "tokenURI(uint256)": {
        "notice": "Get's the URI of the token."
      },
      "tokens(uint256,uint256)": {
        "notice": "Get set length list, starting from index, for all tokens."
      },
      "tokensOfOwner(address)": {
        "notice": "Get list of tokens owned by wallet."
      },
      "tokensOfOwner(address,uint256,uint256)": {
        "notice": "Get set length list, starting from index, for tokens owned by wallet."
      },
      "totalSupply()": {
        "notice": "Total amount of tokens in the collection."
      },
      "transfer(address,uint256)": {
        "notice": "Transfers `tokenId` token from `msg.sender` to `to`."
      },
      "transferFrom(address,address,uint256)": {
        "notice": "Transfers `tokenId` token from `from` to `to`."
      },
      "transferFrom(address,address,uint256,bytes)": {
        "notice": "Transfers `tokenId` token from `from` to `to`."
      }
    },
    "notice": "A smart contract for minting and managing Holograph Bridgeable ERC721 NFTs.",
    "version": 1
  },
  "storageLayout": {
    "storage": [
      {
        "astId": 9169,
        "contract": "contracts/enforcer/HolographERC721.sol:HolographERC721",
        "label": "_eventConfig",
        "offset": 0,
        "slot": "0",
        "type": "t_uint256"
      },
      {
        "astId": 9172,
        "contract": "contracts/enforcer/HolographERC721.sol:HolographERC721",
        "label": "_name",
        "offset": 0,
        "slot": "1",
        "type": "t_string_storage"
      },
      {
        "astId": 9175,
        "contract": "contracts/enforcer/HolographERC721.sol:HolographERC721",
        "label": "_symbol",
        "offset": 0,
        "slot": "2",
        "type": "t_string_storage"
      },
      {
        "astId": 9178,
        "contract": "contracts/enforcer/HolographERC721.sol:HolographERC721",
        "label": "_bps",
        "offset": 0,
        "slot": "3",
        "type": "t_uint16"
      },
      {
        "astId": 9182,
        "contract": "contracts/enforcer/HolographERC721.sol:HolographERC721",
        "label": "_allTokens",
        "offset": 0,
        "slot": "4",
        "type": "t_array(t_uint256)dyn_storage"
      },
      {
        "astId": 9187,
        "contract": "contracts/enforcer/HolographERC721.sol:HolographERC721",
        "label": "_ownedTokensIndex",
        "offset": 0,
        "slot": "5",
        "type": "t_mapping(t_uint256,t_uint256)"
      },
      {
        "astId": 9192,
        "contract": "contracts/enforcer/HolographERC721.sol:HolographERC721",
        "label": "_tokenOwner",
        "offset": 0,
        "slot": "6",
        "type": "t_mapping(t_uint256,t_address)"
      },
      {
        "astId": 9197,
        "contract": "contracts/enforcer/HolographERC721.sol:HolographERC721",
        "label": "_tokenApprovals",
        "offset": 0,
        "slot": "7",
        "type": "t_mapping(t_uint256,t_address)"
      },
      {
        "astId": 9202,
        "contract": "contracts/enforcer/HolographERC721.sol:HolographERC721",
        "label": "_ownedTokensCount",
        "offset": 0,
        "slot": "8",
        "type": "t_mapping(t_address,t_uint256)"
      },
      {
        "astId": 9208,
        "contract": "contracts/enforcer/HolographERC721.sol:HolographERC721",
        "label": "_ownedTokens",
        "offset": 0,
        "slot": "9",
        "type": "t_mapping(t_address,t_array(t_uint256)dyn_storage)"
      },
      {
        "astId": 9215,
        "contract": "contracts/enforcer/HolographERC721.sol:HolographERC721",
        "label": "_operatorApprovals",
        "offset": 0,
        "slot": "10",
        "type": "t_mapping(t_address,t_mapping(t_address,t_bool))"
      },
      {
        "astId": 9220,
        "contract": "contracts/enforcer/HolographERC721.sol:HolographERC721",
        "label": "_allTokensIndex",
        "offset": 0,
        "slot": "11",
        "type": "t_mapping(t_uint256,t_uint256)"
      },
      {
        "astId": 9225,
        "contract": "contracts/enforcer/HolographERC721.sol:HolographERC721",
        "label": "_burnedTokens",
        "offset": 0,
        "slot": "12",
        "type": "t_mapping(t_uint256,t_bool)"
      }
    ],
    "types": {
      "t_address": {
        "encoding": "inplace",
        "label": "address",
        "numberOfBytes": "20"
      },
      "t_array(t_uint256)dyn_storage": {
        "base": "t_uint256",
        "encoding": "dynamic_array",
        "label": "uint256[]",
        "numberOfBytes": "32"
      },
      "t_bool": {
        "encoding": "inplace",
        "label": "bool",
        "numberOfBytes": "1"
      },
      "t_mapping(t_address,t_array(t_uint256)dyn_storage)": {
        "encoding": "mapping",
        "key": "t_address",
        "label": "mapping(address => uint256[])",
        "numberOfBytes": "32",
        "value": "t_array(t_uint256)dyn_storage"
      },
      "t_mapping(t_address,t_bool)": {
        "encoding": "mapping",
        "key": "t_address",
        "label": "mapping(address => bool)",
        "numberOfBytes": "32",
        "value": "t_bool"
      },
      "t_mapping(t_address,t_mapping(t_address,t_bool))": {
        "encoding": "mapping",
        "key": "t_address",
        "label": "mapping(address => mapping(address => bool))",
        "numberOfBytes": "32",
        "value": "t_mapping(t_address,t_bool)"
      },
      "t_mapping(t_address,t_uint256)": {
        "encoding": "mapping",
        "key": "t_address",
        "label": "mapping(address => uint256)",
        "numberOfBytes": "32",
        "value": "t_uint256"
      },
      "t_mapping(t_uint256,t_address)": {
        "encoding": "mapping",
        "key": "t_uint256",
        "label": "mapping(uint256 => address)",
        "numberOfBytes": "32",
        "value": "t_address"
      },
      "t_mapping(t_uint256,t_bool)": {
        "encoding": "mapping",
        "key": "t_uint256",
        "label": "mapping(uint256 => bool)",
        "numberOfBytes": "32",
        "value": "t_bool"
      },
      "t_mapping(t_uint256,t_uint256)": {
        "encoding": "mapping",
        "key": "t_uint256",
        "label": "mapping(uint256 => uint256)",
        "numberOfBytes": "32",
        "value": "t_uint256"
      },
      "t_string_storage": {
        "encoding": "bytes",
        "label": "string",
        "numberOfBytes": "32"
      },
      "t_uint16": {
        "encoding": "inplace",
        "label": "uint16",
        "numberOfBytes": "2"
      },
      "t_uint256": {
        "encoding": "inplace",
        "label": "uint256",
        "numberOfBytes": "32"
      }
    }
  }
}