{
  "address": "0x8374654b83126e5E2a54963a967F5d684FC60939",
  "abi": [
    {
      "inputs": [],
      "stateMutability": "nonpayable",
      "type": "constructor"
    },
    {
      "anonymous": false,
      "inputs": [
        {
          "indexed": true,
          "internalType": "address",
          "name": "previousOwner",
          "type": "address"
        },
        {
          "indexed": true,
          "internalType": "address",
          "name": "newOwner",
          "type": "address"
        }
      ],
      "name": "OwnershipTransferred",
      "type": "event"
    },
    {
      "stateMutability": "payable",
      "type": "fallback"
    },
    {
      "inputs": [],
      "name": "admin",
      "outputs": [
        {
          "internalType": "address",
          "name": "",
          "type": "address"
        }
      ],
      "stateMutability": "view",
      "type": "function"
    },
    {
      "inputs": [
        {
          "internalType": "address",
          "name": "target",
          "type": "address"
        },
        {
          "internalType": "bytes",
          "name": "data",
          "type": "bytes"
        }
      ],
      "name": "adminCall",
      "outputs": [],
      "stateMutability": "payable",
      "type": "function"
    },
    {
      "inputs": [
        {
          "internalType": "uint32",
          "name": "fromChain",
          "type": "uint32"
        },
        {
          "internalType": "bytes",
          "name": "payload",
          "type": "bytes"
        }
      ],
      "name": "bridgeIn",
      "outputs": [
        {
          "internalType": "bytes4",
          "name": "",
          "type": "bytes4"
        }
      ],
      "stateMutability": "nonpayable",
      "type": "function"
    },
    {
      "inputs": [
        {
          "internalType": "uint32",
          "name": "toChain",
          "type": "uint32"
        },
        {
          "internalType": "address",
          "name": "sender",
          "type": "address"
        },
        {
          "internalType": "bytes",
          "name": "payload",
          "type": "bytes"
        }
      ],
      "name": "bridgeOut",
      "outputs": [
        {
          "internalType": "bytes4",
          "name": "selector",
          "type": "bytes4"
        },
        {
          "internalType": "bytes",
          "name": "data",
          "type": "bytes"
        }
      ],
      "stateMutability": "nonpayable",
      "type": "function"
    },
    {
      "inputs": [],
      "name": "getAdmin",
      "outputs": [
        {
          "internalType": "address",
          "name": "adminAddress",
          "type": "address"
        }
      ],
      "stateMutability": "view",
      "type": "function"
    },
    {
      "inputs": [],
      "name": "getOwner",
      "outputs": [
        {
          "internalType": "address",
          "name": "ownerAddress",
          "type": "address"
        }
      ],
      "stateMutability": "view",
      "type": "function"
    },
    {
      "inputs": [
        {
          "internalType": "bytes",
          "name": "initPayload",
          "type": "bytes"
        }
      ],
      "name": "init",
      "outputs": [
        {
          "internalType": "bytes4",
          "name": "",
          "type": "bytes4"
        }
      ],
      "stateMutability": "nonpayable",
      "type": "function"
    },
    {
      "inputs": [],
      "name": "owner",
      "outputs": [
        {
          "internalType": "address",
          "name": "",
          "type": "address"
        }
      ],
      "stateMutability": "view",
      "type": "function"
    },
    {
      "inputs": [
        {
          "internalType": "address",
          "name": "target",
          "type": "address"
        },
        {
          "internalType": "bytes",
          "name": "data",
          "type": "bytes"
        }
      ],
      "name": "ownerCall",
      "outputs": [],
      "stateMutability": "payable",
      "type": "function"
    },
    {
      "inputs": [
        {
          "internalType": "address",
          "name": "adminAddress",
          "type": "address"
        }
      ],
      "name": "setAdmin",
      "outputs": [],
      "stateMutability": "nonpayable",
      "type": "function"
    },
    {
      "inputs": [
        {
          "internalType": "address",
          "name": "ownerAddress",
          "type": "address"
        }
      ],
      "name": "setOwner",
      "outputs": [],
      "stateMutability": "nonpayable",
      "type": "function"
    },
    {
      "inputs": [
        {
          "internalType": "bytes32",
          "name": "eventId",
          "type": "bytes32"
        },
        {
          "internalType": "bytes",
          "name": "eventData",
          "type": "bytes"
        }
      ],
      "name": "sourceEmit",
      "outputs": [],
      "stateMutability": "nonpayable",
      "type": "function"
    },
    {
      "inputs": [
        {
          "internalType": "bytes",
          "name": "eventData",
          "type": "bytes"
        }
      ],
      "name": "sourceEmit",
      "outputs": [],
      "stateMutability": "nonpayable",
      "type": "function"
    },
    {
      "inputs": [
        {
          "internalType": "bytes32",
          "name": "eventId",
          "type": "bytes32"
        },
        {
          "internalType": "bytes32",
          "name": "topic1",
          "type": "bytes32"
        },
        {
          "internalType": "bytes32",
          "name": "topic2",
          "type": "bytes32"
        },
        {
          "internalType": "bytes32",
          "name": "topic3",
          "type": "bytes32"
        },
        {
          "internalType": "bytes",
          "name": "eventData",
          "type": "bytes"
        }
      ],
      "name": "sourceEmit",
      "outputs": [],
      "stateMutability": "nonpayable",
      "type": "function"
    },
    {
      "inputs": [
        {
          "internalType": "bytes32",
          "name": "eventId",
          "type": "bytes32"
        },
        {
          "internalType": "bytes32",
          "name": "topic1",
          "type": "bytes32"
        },
        {
          "internalType": "bytes",
          "name": "eventData",
          "type": "bytes"
        }
      ],
      "name": "sourceEmit",
      "outputs": [],
      "stateMutability": "nonpayable",
      "type": "function"
    },
    {
      "inputs": [
        {
          "internalType": "bytes32",
          "name": "eventId",
          "type": "bytes32"
        },
        {
          "internalType": "bytes32",
          "name": "topic1",
          "type": "bytes32"
        },
        {
          "internalType": "bytes32",
          "name": "topic2",
          "type": "bytes32"
        },
        {
          "internalType": "bytes",
          "name": "eventData",
          "type": "bytes"
        }
      ],
      "name": "sourceEmit",
      "outputs": [],
      "stateMutability": "nonpayable",
      "type": "function"
    },
    {
      "inputs": [
        {
          "internalType": "address payable",
          "name": "destination",
          "type": "address"
        }
      ],
      "name": "sourceWithdraw",
      "outputs": [],
      "stateMutability": "nonpayable",
      "type": "function"
    },
    {
      "inputs": [
        {
          "internalType": "bytes4",
          "name": "interfaceId",
          "type": "bytes4"
        }
      ],
      "name": "supportsInterface",
      "outputs": [
        {
          "internalType": "bool",
          "name": "",
          "type": "bool"
        }
      ],
      "stateMutability": "view",
      "type": "function"
    },
    {
      "inputs": [
        {
          "internalType": "address",
          "name": "newOwner",
          "type": "address"
        }
      ],
      "name": "transferOwnership",
      "outputs": [],
      "stateMutability": "nonpayable",
      "type": "function"
    },
    {
      "stateMutability": "payable",
      "type": "receive"
    }
  ],
  "transactionHash": "0xdeb71479965b8e66d0ee500f103889ea553ee641ed5cdbe2679aaf52f88232a9",
  "args": [],
  "numDeployments": 1,
  "solcInputHash": "f27911fb86766625a7918d9e4805043f",
  "bytecode": "0x608060405234801561001057600080fd5b50612043806100206000396000f3fe6080604052600436106101485760003560e01c80636e9960c3116100c0578063bf64a82d11610074578063ebad1ffe11610059578063ebad1ffe14610415578063f2fde38b14610435578063f851a440146104555761014f565b8063bf64a82d146103ef578063eb66dbcf146104025761014f565b8063893d20e8116100a5578063893d20e8146103785780638da5cb5b146103ac578063b7e03661146103c15761014f565b80636e9960c314610303578063704b6c02146103585761014f565b806313af4035116101175780632711dbd6116100fc5780632711dbd6146102a35780634ddf47d4146102c357806360795403146102e35761014f565b806313af403514610263578063207e69a8146102835761014f565b806301ffc9a71461019d578063023db0cd146101d2578063035c5c65146101f257806308a1eb20146102125761014f565b3661014f57005b3660008037333652600080602036016000347f27d542086d1e831d40b749e7f5509a626c3047a36d160781c40d5acc83e5b074545af13d6000803e808015610196573d6000f35b3d6000fd5b005b3480156101a957600080fd5b506101bd6101b83660046118c1565b61046a565b60405190151581526020015b60405180910390f35b3480156101de57600080fd5b5061019b6101ed36600461192e565b610600565b3480156101fe57600080fd5b5061019b61020d36600461197a565b6106b6565b34801561021e57600080fd5b5061023261022d3660046119d5565b610765565b6040517fffffffff0000000000000000000000000000000000000000000000000000000090911681526020016101c9565b34801561026f57600080fd5b5061019b61027e366004611a31565b6109d1565b34801561028f57600080fd5b5061019b61029e366004611a4e565b610b34565b3480156102af57600080fd5b5061019b6102be366004611a31565b610beb565b3480156102cf57600080fd5b506102326102de366004611b7c565b610cd3565b3480156102ef57600080fd5b5061019b6102fe366004611bfc565b610f4b565b34801561030f57600080fd5b507f3f106594dc74eeef980dae234cde8324dc2497b13d27a0c59e55bd2ca10a07c9545b60405173ffffffffffffffffffffffffffffffffffffffff90911681526020016101c9565b34801561036457600080fd5b5061019b610373366004611a31565b610ffe565b34801561038457600080fd5b507fb56711ba6bd3ded7639fc335ee7524fe668a79d7558c85992e3f8494cf77277754610333565b3480156103b857600080fd5b506103336110d8565b3480156103cd57600080fd5b506103e16103dc366004611c4f565b611174565b6040516101c9929190611d14565b61019b6103fd366004611d57565b6113a5565b61019b610410366004611d57565b61147b565b34801561042157600080fd5b5061019b610430366004611d77565b611531565b34801561044157600080fd5b5061019b610450366004611a31565b6115e6565b34801561046157600080fd5b5061033361173d565b60008061047561176c565b7f27d542086d1e831d40b749e7f5509a626c3047a36d160781c40d5acc83e5b074546040517f9fe7303f0000000000000000000000000000000000000000000000000000000081529192509073ffffffffffffffffffffffffffffffffffffffff831690639fe7303f906104f0906005908890600401611e07565b602060405180830381865afa15801561050d573d6000803e3d6000fd5b505050506040513d601f19601f820116820180604052508101906105319190611e83565b806105e757506040517f01ffc9a70000000000000000000000000000000000000000000000000000000081527fffffffff000000000000000000000000000000000000000000000000000000008516600482015273ffffffffffffffffffffffffffffffffffffffff8216906301ffc9a790602401602060405180830381865afa1580156105c3573d6000803e3d6000fd5b505050506040513d601f19601f820116820180604052508101906105e79190611e83565b156105f6575060019392505050565b5060009392505050565b7f27d542086d1e831d40b749e7f5509a626c3047a36d160781c40d5acc83e5b074543373ffffffffffffffffffffffffffffffffffffffff8216146106a6576040517f08c379a000000000000000000000000000000000000000000000000000000000815260206004820152601960248201527f47454e455249433a20736f75726365206f6e6c792063616c6c0000000000000060448201526064015b60405180910390fd5b818360003783826000a150505050565b7f27d542086d1e831d40b749e7f5509a626c3047a36d160781c40d5acc83e5b074543373ffffffffffffffffffffffffffffffffffffffff821614610757576040517f08c379a000000000000000000000000000000000000000000000000000000000815260206004820152601960248201527f47454e455249433a20736f75726365206f6e6c792063616c6c00000000000000604482015260640161069d565b8183600037816000a0505050565b600061078f7fb4107f746e9496e8452accc7de63d1c5e14c19f510932daa04077cd49e8bd77a5490565b73ffffffffffffffffffffffffffffffffffffffff16630fffbaf36040518163ffffffff1660e01b8152600401602060405180830381865afa1580156107d9573d6000803e3d6000fd5b505050506040513d601f19601f820116820180604052508101906107fd9190611e9e565b73ffffffffffffffffffffffffffffffffffffffff163373ffffffffffffffffffffffffffffffffffffffff1614610891576040517f08c379a000000000000000000000000000000000000000000000000000000000815260206004820152601960248201527f47454e455249433a20627269646765206f6e6c792063616c6c00000000000000604482015260640161069d565b61089b6001611804565b156109a8576109426308a1eb2060e01b8585856040516024016108c093929190611f04565b604080517fffffffffffffffffffffffffffffffffffffffffffffffffffffffffffffffe08184030181529190526020810180517bffffffffffffffffffffffffffffffffffffffffffffffffffffffff167fffffffff0000000000000000000000000000000000000000000000000000000090931692909217909152611837565b6109a8576040517f08c379a000000000000000000000000000000000000000000000000000000000815260206004820152601b60248201527f484f4c4f47524150483a2062726964676520696e206661696c65640000000000604482015260640161069d565b507f08a1eb20000000000000000000000000000000000000000000000000000000009392505050565b7fb56711ba6bd3ded7639fc335ee7524fe668a79d7558c85992e3f8494cf7727775473ffffffffffffffffffffffffffffffffffffffff163373ffffffffffffffffffffffffffffffffffffffff1614610a87576040517f08c379a000000000000000000000000000000000000000000000000000000000815260206004820152601e60248201527f484f4c4f47524150483a206f776e6572206f6e6c792066756e6374696f6e0000604482015260640161069d565b6000610ab17fb56711ba6bd3ded7639fc335ee7524fe668a79d7558c85992e3f8494cf7727775490565b9050817fb56711ba6bd3ded7639fc335ee7524fe668a79d7558c85992e3f8494cf772777558173ffffffffffffffffffffffffffffffffffffffff168173ffffffffffffffffffffffffffffffffffffffff167f8be0079c531659141344cd1fd0a4f28419497f9722a3daafe3b4186f6b6457e060405160405180910390a35050565b7f27d542086d1e831d40b749e7f5509a626c3047a36d160781c40d5acc83e5b074543373ffffffffffffffffffffffffffffffffffffffff821614610bd5576040517f08c379a000000000000000000000000000000000000000000000000000000000815260206004820152601960248201527f47454e455249433a20736f75726365206f6e6c792063616c6c00000000000000604482015260640161069d565b818360003783858789856000a450505050505050565b7f27d542086d1e831d40b749e7f5509a626c3047a36d160781c40d5acc83e5b074543373ffffffffffffffffffffffffffffffffffffffff821614610c8c576040517f08c379a000000000000000000000000000000000000000000000000000000000815260206004820152601960248201527f47454e455249433a20736f75726365206f6e6c792063616c6c00000000000000604482015260640161069d565b60405173ffffffffffffffffffffffffffffffffffffffff8316904780156108fc02916000818181858888f19350505050158015610cce573d6000803e3d6000fd5b505050565b6000610cfd7f4e5f991bca30eca2d4643aaefa807e88f96a4a97398933d572a3c0d973004a015490565b15610d64576040517f08c379a000000000000000000000000000000000000000000000000000000000815260206004820152601c60248201527f47454e455249433a20616c726561647920696e697469616c697a656400000000604482015260640161069d565b6000337fb56711ba6bd3ded7639fc335ee7524fe668a79d7558c85992e3f8494cf772777557f27d542086d1e831d40b749e7f5509a626c3047a36d160781c40d5acc83e5b074549050600080600085806020019051810190610dc69190611f2d565b60008390559194509250905081610ef7576040517f4ddf47d4000000000000000000000000000000000000000000000000000000008082529073ffffffffffffffffffffffffffffffffffffffff861690634ddf47d490610e2b908590600401611fc0565b6020604051808303816000875af1158015610e4a573d6000803e3d6000fd5b505050506040513d601f19601f82011682018060405250810190610e6e9190611fd3565b7fffffffff000000000000000000000000000000000000000000000000000000001614610ef7576040517f08c379a000000000000000000000000000000000000000000000000000000000815260206004820152601e60248201527f47454e455249433a20636f756c64206e6f7420696e697420736f757263650000604482015260640161069d565b610f2060017f4e5f991bca30eca2d4643aaefa807e88f96a4a97398933d572a3c0d973004a0155565b507f4ddf47d40000000000000000000000000000000000000000000000000000000095945050505050565b7f27d542086d1e831d40b749e7f5509a626c3047a36d160781c40d5acc83e5b074543373ffffffffffffffffffffffffffffffffffffffff821614610fec576040517f08c379a000000000000000000000000000000000000000000000000000000000815260206004820152601960248201527f47454e455249433a20736f75726365206f6e6c792063616c6c00000000000000604482015260640161069d565b81836000378385836000a25050505050565b7f3f106594dc74eeef980dae234cde8324dc2497b13d27a0c59e55bd2ca10a07c95473ffffffffffffffffffffffffffffffffffffffff163373ffffffffffffffffffffffffffffffffffffffff16146110b4576040517f08c379a000000000000000000000000000000000000000000000000000000000815260206004820152601e60248201527f484f4c4f47524150483a2061646d696e206f6e6c792066756e6374696f6e0000604482015260640161069d565b7f3f106594dc74eeef980dae234cde8324dc2497b13d27a0c59e55bd2ca10a07c955565b6000807f27d542086d1e831d40b749e7f5509a626c3047a36d160781c40d5acc83e5b0745490508073ffffffffffffffffffffffffffffffffffffffff16638da5cb5b6040518163ffffffff1660e01b8152600401602060405180830381865afa15801561114a573d6000803e3d6000fd5b505050506040513d601f19601f8201168201806040525081019061116e9190611e9e565b91505090565b600060606111a07fb4107f746e9496e8452accc7de63d1c5e14c19f510932daa04077cd49e8bd77a5490565b73ffffffffffffffffffffffffffffffffffffffff16630fffbaf36040518163ffffffff1660e01b8152600401602060405180830381865afa1580156111ea573d6000803e3d6000fd5b505050506040513d601f19601f8201168201806040525081019061120e9190611e9e565b73ffffffffffffffffffffffffffffffffffffffff163373ffffffffffffffffffffffffffffffffffffffff16146112a2576040517f08c379a000000000000000000000000000000000000000000000000000000000815260206004820152601960248201527f47454e455249433a20627269646765206f6e6c792063616c6c00000000000000604482015260640161069d565b6112ac6002611804565b1561137957600063b7e0366160e01b878787876040516024016112d29493929190611ff0565b604051602081830303815290604052907bffffffffffffffffffffffffffffffffffffffffffffffffffffffff19166020820180517bffffffffffffffffffffffffffffffffffffffffffffffffffffffff83818316178352505050509050338151820152600080602083510183347f27d542086d1e831d40b749e7f5509a626c3047a36d160781c40d5acc83e5b074545af13d6000843e8080611375573d6000fd5b5050505b7fb7e0366100000000000000000000000000000000000000000000000000000000915094509492505050565b7f3f106594dc74eeef980dae234cde8324dc2497b13d27a0c59e55bd2ca10a07c95473ffffffffffffffffffffffffffffffffffffffff163373ffffffffffffffffffffffffffffffffffffffff161461145b576040517f08c379a000000000000000000000000000000000000000000000000000000000815260206004820152601e60248201527f484f4c4f47524150483a2061646d696e206f6e6c792066756e6374696f6e0000604482015260640161069d565b808260003760008082600034875af13d6000803e808015610196573d6000f35b7fb56711ba6bd3ded7639fc335ee7524fe668a79d7558c85992e3f8494cf7727775473ffffffffffffffffffffffffffffffffffffffff163373ffffffffffffffffffffffffffffffffffffffff161461145b576040517f08c379a000000000000000000000000000000000000000000000000000000000815260206004820152601e60248201527f484f4c4f47524150483a206f776e6572206f6e6c792066756e6374696f6e0000604482015260640161069d565b7f27d542086d1e831d40b749e7f5509a626c3047a36d160781c40d5acc83e5b074543373ffffffffffffffffffffffffffffffffffffffff8216146115d2576040517f08c379a000000000000000000000000000000000000000000000000000000000815260206004820152601960248201527f47454e455249433a20736f75726365206f6e6c792063616c6c00000000000000604482015260640161069d565b8183600037838587846000a3505050505050565b7fb56711ba6bd3ded7639fc335ee7524fe668a79d7558c85992e3f8494cf7727775473ffffffffffffffffffffffffffffffffffffffff163373ffffffffffffffffffffffffffffffffffffffff161461169c576040517f08c379a000000000000000000000000000000000000000000000000000000000815260206004820152601e60248201527f484f4c4f47524150483a206f776e6572206f6e6c792066756e6374696f6e0000604482015260640161069d565b73ffffffffffffffffffffffffffffffffffffffff8116611719576040517f08c379a000000000000000000000000000000000000000000000000000000000815260206004820152601760248201527f484f4c4f47524150483a207a65726f2061646472657373000000000000000000604482015260640161069d565b7fb56711ba6bd3ded7639fc335ee7524fe668a79d7558c85992e3f8494cf77277755565b60006117677f3f106594dc74eeef980dae234cde8324dc2497b13d27a0c59e55bd2ca10a07c95490565b905090565b60006117967fb4107f746e9496e8452accc7de63d1c5e14c19f510932daa04077cd49e8bd77a5490565b73ffffffffffffffffffffffffffffffffffffffff1663ebac15f96040518163ffffffff1660e01b8152600401602060405180830381865afa1580156117e0573d6000803e3d6000fd5b505050506040513d601f19601f820116820180604052508101906117679190611e9e565b6000600182600281111561181a5761181a611dd8565b600054901c1660011461182e576000611831565b60015b92915050565b600060405160208101604052338351840152600080602085510185347f27d542086d1e831d40b749e7f5509a626c3047a36d160781c40d5acc83e5b074545af13d6000833e8080611887573d6000fd5b50505192915050565b7fffffffff00000000000000000000000000000000000000000000000000000000811681146118be57600080fd5b50565b6000602082840312156118d357600080fd5b81356118de81611890565b9392505050565b60008083601f8401126118f757600080fd5b50813567ffffffffffffffff81111561190f57600080fd5b60208301915083602082850101111561192757600080fd5b9250929050565b60008060006040848603121561194357600080fd5b83359250602084013567ffffffffffffffff81111561196157600080fd5b61196d868287016118e5565b9497909650939450505050565b6000806020838503121561198d57600080fd5b823567ffffffffffffffff8111156119a457600080fd5b6119b0858286016118e5565b90969095509350505050565b803563ffffffff811681146119d057600080fd5b919050565b6000806000604084860312156119ea57600080fd5b6119f3846119bc565b9250602084013567ffffffffffffffff81111561196157600080fd5b73ffffffffffffffffffffffffffffffffffffffff811681146118be57600080fd5b600060208284031215611a4357600080fd5b81356118de81611a0f565b60008060008060008060a08789031215611a6757600080fd5b86359550602087013594506040870135935060608701359250608087013567ffffffffffffffff811115611a9a57600080fd5b611aa689828a016118e5565b979a9699509497509295939492505050565b7f4e487b7100000000000000000000000000000000000000000000000000000000600052604160045260246000fd5b604051601f82017fffffffffffffffffffffffffffffffffffffffffffffffffffffffffffffffe016810167ffffffffffffffff81118282101715611b2e57611b2e611ab8565b604052919050565b600067ffffffffffffffff821115611b5057611b50611ab8565b50601f017fffffffffffffffffffffffffffffffffffffffffffffffffffffffffffffffe01660200190565b600060208284031215611b8e57600080fd5b813567ffffffffffffffff811115611ba557600080fd5b8201601f81018413611bb657600080fd5b8035611bc9611bc482611b36565b611ae7565b818152856020838501011115611bde57600080fd5b81602084016020830137600091810160200191909152949350505050565b60008060008060608587031215611c1257600080fd5b8435935060208501359250604085013567ffffffffffffffff811115611c3757600080fd5b611c43878288016118e5565b95989497509550505050565b60008060008060608587031215611c6557600080fd5b611c6e856119bc565b93506020850135611c7e81611a0f565b9250604085013567ffffffffffffffff811115611c3757600080fd5b60005b83811015611cb5578181015183820152602001611c9d565b83811115611cc4576000848401525b50505050565b60008151808452611ce2816020860160208601611c9a565b601f017fffffffffffffffffffffffffffffffffffffffffffffffffffffffffffffffe0169290920160200192915050565b7fffffffff0000000000000000000000000000000000000000000000000000000083168152604060208201526000611d4f6040830184611cca565b949350505050565b600080600060408486031215611d6c57600080fd5b83356119f381611a0f565b600080600080600060808688031215611d8f57600080fd5b853594506020860135935060408601359250606086013567ffffffffffffffff811115611dbb57600080fd5b611dc7888289016118e5565b969995985093965092949392505050565b7f4e487b7100000000000000000000000000000000000000000000000000000000600052602160045260246000fd5b6040810160068410611e42577f4e487b7100000000000000000000000000000000000000000000000000000000600052602160045260246000fd5b9281527fffffffff000000000000000000000000000000000000000000000000000000009190911660209091015290565b805180151581146119d057600080fd5b600060208284031215611e9557600080fd5b6118de82611e73565b600060208284031215611eb057600080fd5b81516118de81611a0f565b8183528181602085013750600060208284010152600060207fffffffffffffffffffffffffffffffffffffffffffffffffffffffffffffffe0601f840116840101905092915050565b63ffffffff84168152604060208201526000611f24604083018486611ebb565b95945050505050565b600080600060608486031215611f4257600080fd5b83519250611f5260208501611e73565b9150604084015167ffffffffffffffff811115611f6e57600080fd5b8401601f81018613611f7f57600080fd5b8051611f8d611bc482611b36565b818152876020838501011115611fa257600080fd5b611fb3826020830160208601611c9a565b8093505050509250925092565b6020815260006118de6020830184611cca565b600060208284031215611fe557600080fd5b81516118de81611890565b63ffffffff8516815273ffffffffffffffffffffffffffffffffffffffff8416602082015260606040820152600061202c606083018486611ebb565b969550505050505056fea164736f6c634300080d000a",
  "devdoc": {
    "author": "CXIP-Labs",
    "details": "The entire logic and functionality of the smart contract is self-contained.",
    "kind": "dev",
    "methods": {
      "constructor": {
        "details": "Constructor is left empty and init is used instead"
      },
      "init(bytes)": {
        "details": "This function is called by the deployer/factory when creating a contract",
        "params": {
          "initPayload": "abi encoded payload to use for contract initilaization"
        }
      },
      "sourceEmit(bytes)": {
        "details": "Allows for source smart contract to emit events."
      },
      "sourceWithdraw(address)": {
        "details": "Allows for source smart contract to withdraw contract balance."
      },
      "supportsInterface(bytes4)": {
        "details": "Although EIP-165 is not required for ERC20 contracts, we still decided to implement it. This makes it easier for external smart contracts to easily identify a valid ERC20 token contract."
      }
    },
    "stateVariables": {
      "_eventConfig": {
        "details": "Configuration for events to trigger for source smart contract."
      },
      "_holographSlot": {
        "details": "bytes32(uint256(keccak256('eip1967.Holograph.holograph')) - 1)"
      },
      "_sourceContractSlot": {
        "details": "bytes32(uint256(keccak256('eip1967.Holograph.sourceContract')) - 1)"
      }
    },
    "title": "Holograph Bridgeable Generic Contract",
    "version": 1
  },
  "userdoc": {
    "kind": "user",
    "methods": {
      "init(bytes)": {
        "notice": "Used internally to initialize the contract instead of through a constructor"
      }
    },
    "notice": "A smart contract for creating custom bridgeable logic.",
    "version": 1
  },
  "storageLayout": {
    "storage": [
      {
        "astId": 11333,
        "contract": "contracts/enforcer/HolographGeneric.sol:HolographGeneric",
        "label": "_eventConfig",
        "offset": 0,
        "slot": "0",
        "type": "t_uint256"
      }
    ],
    "types": {
      "t_uint256": {
        "encoding": "inplace",
        "label": "uint256",
        "numberOfBytes": "32"
      }
    }
  }
}