{
  "address": "0x28f60eD9eca284D2574771929958509e5B8c892E",
  "abi": [
    {
      "inputs": [],
      "stateMutability": "nonpayable",
      "type": "constructor"
    },
    {
      "inputs": [
        {
          "internalType": "bytes32",
          "name": "role",
          "type": "bytes32"
        }
      ],
      "name": "Access_MissingRoleOrAdmin",
      "type": "error"
    },
    {
      "inputs": [],
      "name": "Access_OnlyAdmin",
      "type": "error"
    },
    {
      "inputs": [],
      "name": "Access_WithdrawNotAllowed",
      "type": "error"
    },
    {
      "inputs": [
        {
          "internalType": "address",
          "name": "proposedAddress",
          "type": "address"
        }
      ],
      "name": "Admin_InvalidUpgradeAddress",
      "type": "error"
    },
    {
      "inputs": [],
      "name": "Admin_UnableToFinalizeNotOpenEdition",
      "type": "error"
    },
    {
      "inputs": [],
      "name": "ExternalMetadataRenderer_CallFailed",
      "type": "error"
    },
    {
      "inputs": [],
      "name": "MarketFilterAddressNotSupportedForChain",
      "type": "error"
    },
    {
      "inputs": [],
      "name": "MarketFilterDAOAddressNotSupportedForChain",
      "type": "error"
    },
    {
      "inputs": [],
      "name": "MintFee_FundsSendFailure",
      "type": "error"
    },
    {
      "inputs": [],
      "name": "Mint_SoldOut",
      "type": "error"
    },
    {
      "inputs": [
        {
          "internalType": "address",
          "name": "operator",
          "type": "address"
        }
      ],
      "name": "OperatorNotAllowed",
      "type": "error"
    },
    {
      "inputs": [],
      "name": "Presale_Inactive",
      "type": "error"
    },
    {
      "inputs": [],
      "name": "Presale_MerkleNotApproved",
      "type": "error"
    },
    {
      "inputs": [],
      "name": "Presale_TooManyForAddress",
      "type": "error"
    },
    {
      "inputs": [],
      "name": "Purchase_TooManyForAddress",
      "type": "error"
    },
    {
      "inputs": [
        {
          "internalType": "uint256",
          "name": "correctPrice",
          "type": "uint256"
        }
      ],
      "name": "Purchase_WrongPrice",
      "type": "error"
    },
    {
      "inputs": [],
      "name": "RemoteOperatorFilterRegistryCallFailed",
      "type": "error"
    },
    {
      "inputs": [],
      "name": "Sale_Inactive",
      "type": "error"
    },
    {
      "inputs": [
        {
          "internalType": "uint16",
          "name": "maxRoyaltyBPS",
          "type": "uint16"
        }
      ],
      "name": "Setup_RoyaltyPercentageTooHigh",
      "type": "error"
    },
    {
      "inputs": [],
      "name": "Withdraw_FundsSendFailure",
      "type": "error"
    },
    {
      "anonymous": false,
      "inputs": [
        {
          "indexed": true,
          "internalType": "address",
          "name": "source",
          "type": "address"
        },
        {
          "indexed": false,
          "internalType": "uint256",
          "name": "amount",
          "type": "uint256"
        }
      ],
      "name": "FundsReceived",
      "type": "event"
    },
    {
      "anonymous": false,
      "inputs": [
        {
          "indexed": true,
          "internalType": "address",
          "name": "newAddress",
          "type": "address"
        },
        {
          "indexed": true,
          "internalType": "address",
          "name": "changedBy",
          "type": "address"
        }
      ],
      "name": "FundsRecipientChanged",
      "type": "event"
    },
    {
      "anonymous": false,
      "inputs": [
        {
          "indexed": true,
          "internalType": "address",
          "name": "withdrawnBy",
          "type": "address"
        },
        {
          "indexed": true,
          "internalType": "address",
          "name": "withdrawnTo",
          "type": "address"
        },
        {
          "indexed": false,
          "internalType": "uint256",
          "name": "amount",
          "type": "uint256"
        },
        {
          "indexed": false,
          "internalType": "address",
          "name": "feeRecipient",
          "type": "address"
        },
        {
          "indexed": false,
          "internalType": "uint256",
          "name": "feeAmount",
          "type": "uint256"
        }
      ],
      "name": "FundsWithdrawn",
      "type": "event"
    },
    {
      "anonymous": false,
      "inputs": [
        {
          "indexed": false,
          "internalType": "uint256",
          "name": "mintFeeAmount",
          "type": "uint256"
        },
        {
          "indexed": false,
          "internalType": "address",
          "name": "mintFeeRecipient",
          "type": "address"
        },
        {
          "indexed": false,
          "internalType": "bool",
          "name": "success",
          "type": "bool"
        }
      ],
      "name": "MintFeePayout",
      "type": "event"
    },
    {
      "anonymous": false,
      "inputs": [
        {
          "indexed": true,
          "internalType": "address",
          "name": "sender",
          "type": "address"
        },
        {
          "indexed": false,
          "internalType": "uint256",
          "name": "numberOfMints",
          "type": "uint256"
        }
      ],
      "name": "OpenMintFinalized",
      "type": "event"
    },
    {
      "anonymous": false,
      "inputs": [
        {
          "indexed": true,
          "internalType": "address",
          "name": "to",
          "type": "address"
        },
        {
          "indexed": true,
          "internalType": "uint256",
          "name": "quantity",
          "type": "uint256"
        },
        {
          "indexed": true,
          "internalType": "uint256",
          "name": "pricePerToken",
          "type": "uint256"
        },
        {
          "indexed": false,
          "internalType": "uint256",
          "name": "firstPurchasedTokenId",
          "type": "uint256"
        }
      ],
      "name": "Sale",
      "type": "event"
    },
    {
      "anonymous": false,
      "inputs": [
        {
          "indexed": true,
          "internalType": "address",
          "name": "changedBy",
          "type": "address"
        }
      ],
      "name": "SalesConfigChanged",
      "type": "event"
    },
    {
      "anonymous": false,
      "inputs": [
        {
          "indexed": false,
          "internalType": "address",
          "name": "sender",
          "type": "address"
        },
        {
          "indexed": false,
          "internalType": "contract IMetadataRenderer",
          "name": "renderer",
          "type": "address"
        }
      ],
      "name": "UpdatedMetadataRenderer",
      "type": "event"
    },
    {
      "stateMutability": "payable",
      "type": "fallback"
    },
    {
      "inputs": [
        {
          "internalType": "address",
          "name": "recipient",
          "type": "address"
        },
        {
          "internalType": "uint256",
          "name": "quantity",
          "type": "uint256"
        }
      ],
      "name": "adminMint",
      "outputs": [
        {
          "internalType": "uint256",
          "name": "",
          "type": "uint256"
        }
      ],
      "stateMutability": "nonpayable",
      "type": "function"
    },
    {
      "inputs": [
        {
          "internalType": "address[]",
          "name": "recipients",
          "type": "address[]"
        }
      ],
      "name": "adminMintAirdrop",
      "outputs": [
        {
          "internalType": "uint256",
          "name": "",
          "type": "uint256"
        }
      ],
      "stateMutability": "nonpayable",
      "type": "function"
    },
    {
      "inputs": [
        {
          "internalType": "address",
          "name": "_from",
          "type": "address"
        },
        {
          "internalType": "address",
          "name": "",
          "type": "address"
        },
        {
          "internalType": "uint256",
          "name": "",
          "type": "uint256"
        },
        {
          "internalType": "bytes",
          "name": "",
          "type": "bytes"
        }
      ],
      "name": "beforeSafeTransfer",
      "outputs": [
        {
          "internalType": "bool",
          "name": "",
          "type": "bool"
        }
      ],
      "stateMutability": "view",
      "type": "function"
    },
    {
      "inputs": [
        {
          "internalType": "address",
          "name": "_from",
          "type": "address"
        },
        {
          "internalType": "address",
          "name": "",
          "type": "address"
        },
        {
          "internalType": "uint256",
          "name": "",
          "type": "uint256"
        },
        {
          "internalType": "bytes",
          "name": "",
          "type": "bytes"
        }
      ],
      "name": "beforeTransfer",
      "outputs": [
        {
          "internalType": "bool",
          "name": "",
          "type": "bool"
        }
      ],
      "stateMutability": "view",
      "type": "function"
    },
    {
      "inputs": [],
      "name": "config",
      "outputs": [
        {
          "internalType": "contract IMetadataRenderer",
          "name": "metadataRenderer",
          "type": "address"
        },
        {
          "internalType": "uint64",
          "name": "editionSize",
          "type": "uint64"
        },
        {
          "internalType": "uint16",
          "name": "royaltyBPS",
          "type": "uint16"
        },
        {
          "internalType": "address payable",
          "name": "fundsRecipient",
          "type": "address"
        }
      ],
      "stateMutability": "view",
      "type": "function"
    },
    {
      "inputs": [],
      "name": "contractURI",
      "outputs": [
        {
          "internalType": "string",
          "name": "",
          "type": "string"
        }
      ],
      "stateMutability": "view",
      "type": "function"
    },
    {
      "inputs": [],
      "name": "erc721TransferHelper",
      "outputs": [
        {
          "internalType": "address",
          "name": "",
          "type": "address"
        }
      ],
      "stateMutability": "view",
      "type": "function"
    },
    {
      "inputs": [],
      "name": "finalizeOpenEdition",
      "outputs": [],
      "stateMutability": "nonpayable",
      "type": "function"
    },
    {
      "inputs": [
        {
          "internalType": "bytes",
          "name": "initPayload",
          "type": "bytes"
        }
      ],
      "name": "init",
      "outputs": [
        {
          "internalType": "bytes4",
          "name": "",
          "type": "bytes4"
        }
      ],
      "stateMutability": "nonpayable",
      "type": "function"
    },
    {
      "inputs": [
        {
          "internalType": "address",
          "name": "user",
          "type": "address"
        }
      ],
      "name": "isAdmin",
      "outputs": [
        {
          "internalType": "bool",
          "name": "",
          "type": "bool"
        }
      ],
      "stateMutability": "view",
      "type": "function"
    },
    {
      "inputs": [
        {
          "internalType": "address",
          "name": "wallet",
          "type": "address"
        }
      ],
      "name": "isOwner",
      "outputs": [
        {
          "internalType": "bool",
          "name": "",
          "type": "bool"
        }
      ],
      "stateMutability": "view",
      "type": "function"
    },
    {
      "inputs": [],
      "name": "isOwner",
      "outputs": [
        {
          "internalType": "bool",
          "name": "",
          "type": "bool"
        }
      ],
      "stateMutability": "view",
      "type": "function"
    },
    {
      "inputs": [
        {
          "internalType": "bool",
          "name": "enable",
          "type": "bool"
        }
      ],
      "name": "manageMarketFilterSubscription",
      "outputs": [],
      "stateMutability": "nonpayable",
      "type": "function"
    },
    {
      "inputs": [],
      "name": "marketFilterAddress",
      "outputs": [
        {
          "internalType": "address",
          "name": "",
          "type": "address"
        }
      ],
      "stateMutability": "view",
      "type": "function"
    },
    {
      "inputs": [],
      "name": "metadataRenderer",
      "outputs": [
        {
          "internalType": "contract IMetadataRenderer",
          "name": "",
          "type": "address"
        }
      ],
      "stateMutability": "view",
      "type": "function"
    },
    {
      "inputs": [
        {
          "internalType": "address",
          "name": "minter",
          "type": "address"
        }
      ],
      "name": "mintedPerAddress",
      "outputs": [
        {
          "components": [
            {
              "internalType": "uint256",
              "name": "totalMints",
              "type": "uint256"
            },
            {
              "internalType": "uint256",
              "name": "presaleMints",
              "type": "uint256"
            },
            {
              "internalType": "uint256",
              "name": "publicMints",
              "type": "uint256"
            }
          ],
          "internalType": "struct AddressMintDetails",
          "name": "",
          "type": "tuple"
        }
      ],
      "stateMutability": "view",
      "type": "function"
    },
    {
      "inputs": [
        {
          "internalType": "address",
          "name": "newMarketFilterAddress",
          "type": "address"
        }
      ],
      "name": "modifyMarketFilterAddress",
      "outputs": [],
      "stateMutability": "nonpayable",
      "type": "function"
    },
    {
      "inputs": [
        {
          "internalType": "bytes[]",
          "name": "data",
          "type": "bytes[]"
        }
      ],
      "name": "multicall",
      "outputs": [
        {
          "internalType": "bytes[]",
          "name": "results",
          "type": "bytes[]"
        }
      ],
      "stateMutability": "nonpayable",
      "type": "function"
    },
    {
      "inputs": [
        {
          "internalType": "address",
          "name": "",
          "type": "address"
        },
        {
          "internalType": "address",
          "name": "_operator",
          "type": "address"
        }
      ],
      "name": "onIsApprovedForAll",
      "outputs": [
        {
          "internalType": "bool",
          "name": "approved",
          "type": "bool"
        }
      ],
      "stateMutability": "view",
      "type": "function"
    },
    {
      "inputs": [],
      "name": "openseaOperatorFilterRegistry",
      "outputs": [
        {
          "internalType": "contract IOperatorFilterRegistry",
          "name": "",
          "type": "address"
        }
      ],
      "stateMutability": "view",
      "type": "function"
    },
    {
      "inputs": [],
      "name": "owner",
      "outputs": [
        {
          "internalType": "address",
          "name": "",
          "type": "address"
        }
      ],
      "stateMutability": "view",
      "type": "function"
    },
    {
      "inputs": [
        {
          "internalType": "address",
          "name": "",
          "type": "address"
        }
      ],
      "name": "presaleMintsByAddress",
      "outputs": [
        {
          "internalType": "uint256",
          "name": "",
          "type": "uint256"
        }
      ],
      "stateMutability": "view",
      "type": "function"
    },
    {
      "inputs": [
        {
          "internalType": "uint256",
          "name": "quantity",
          "type": "uint256"
        }
      ],
      "name": "purchase",
      "outputs": [
        {
          "internalType": "uint256",
          "name": "",
          "type": "uint256"
        }
      ],
      "stateMutability": "payable",
      "type": "function"
    },
    {
      "inputs": [
        {
          "internalType": "uint256",
          "name": "quantity",
          "type": "uint256"
        },
        {
          "internalType": "uint256",
          "name": "maxQuantity",
          "type": "uint256"
        },
        {
          "internalType": "uint256",
          "name": "pricePerToken",
          "type": "uint256"
        },
        {
          "internalType": "bytes32[]",
          "name": "merkleProof",
          "type": "bytes32[]"
        }
      ],
      "name": "purchasePresale",
      "outputs": [
        {
          "internalType": "uint256",
          "name": "",
          "type": "uint256"
        }
      ],
      "stateMutability": "payable",
      "type": "function"
    },
    {
      "inputs": [],
      "name": "saleDetails",
      "outputs": [
        {
          "components": [
            {
              "internalType": "bool",
              "name": "publicSaleActive",
              "type": "bool"
            },
            {
              "internalType": "bool",
              "name": "presaleActive",
              "type": "bool"
            },
            {
              "internalType": "uint256",
              "name": "publicSalePrice",
              "type": "uint256"
            },
            {
              "internalType": "uint64",
              "name": "publicSaleStart",
              "type": "uint64"
            },
            {
              "internalType": "uint64",
              "name": "publicSaleEnd",
              "type": "uint64"
            },
            {
              "internalType": "uint64",
              "name": "presaleStart",
              "type": "uint64"
            },
            {
              "internalType": "uint64",
              "name": "presaleEnd",
              "type": "uint64"
            },
            {
              "internalType": "bytes32",
              "name": "presaleMerkleRoot",
              "type": "bytes32"
            },
            {
              "internalType": "uint256",
              "name": "maxSalePurchasePerAddress",
              "type": "uint256"
            },
            {
              "internalType": "uint256",
              "name": "totalMinted",
              "type": "uint256"
            },
            {
              "internalType": "uint256",
              "name": "maxSupply",
              "type": "uint256"
            }
          ],
          "internalType": "struct SaleDetails",
          "name": "",
          "type": "tuple"
        }
      ],
      "stateMutability": "view",
      "type": "function"
    },
    {
      "inputs": [],
      "name": "salesConfig",
      "outputs": [
        {
          "internalType": "uint104",
          "name": "publicSalePrice",
          "type": "uint104"
        },
        {
          "internalType": "uint32",
          "name": "maxSalePurchasePerAddress",
          "type": "uint32"
        },
        {
          "internalType": "uint64",
          "name": "publicSaleStart",
          "type": "uint64"
        },
        {
          "internalType": "uint64",
          "name": "publicSaleEnd",
          "type": "uint64"
        },
        {
          "internalType": "uint64",
          "name": "presaleStart",
          "type": "uint64"
        },
        {
          "internalType": "uint64",
          "name": "presaleEnd",
          "type": "uint64"
        },
        {
          "internalType": "bytes32",
          "name": "presaleMerkleRoot",
          "type": "bytes32"
        }
      ],
      "stateMutability": "view",
      "type": "function"
    },
    {
      "inputs": [
        {
          "internalType": "address payable",
          "name": "newRecipientAddress",
          "type": "address"
        }
      ],
      "name": "setFundsRecipient",
      "outputs": [],
      "stateMutability": "nonpayable",
      "type": "function"
    },
    {
      "inputs": [
        {
          "internalType": "contract IMetadataRenderer",
          "name": "newRenderer",
          "type": "address"
        },
        {
          "internalType": "bytes",
          "name": "setupRenderer",
          "type": "bytes"
        }
      ],
      "name": "setMetadataRenderer",
      "outputs": [],
      "stateMutability": "nonpayable",
      "type": "function"
    },
    {
      "inputs": [
        {
          "internalType": "uint104",
          "name": "publicSalePrice",
          "type": "uint104"
        },
        {
          "internalType": "uint32",
          "name": "maxSalePurchasePerAddress",
          "type": "uint32"
        },
        {
          "internalType": "uint64",
          "name": "publicSaleStart",
          "type": "uint64"
        },
        {
          "internalType": "uint64",
          "name": "publicSaleEnd",
          "type": "uint64"
        },
        {
          "internalType": "uint64",
          "name": "presaleStart",
          "type": "uint64"
        },
        {
          "internalType": "uint64",
          "name": "presaleEnd",
          "type": "uint64"
        },
        {
          "internalType": "bytes32",
          "name": "presaleMerkleRoot",
          "type": "bytes32"
        }
      ],
      "name": "setSaleConfiguration",
      "outputs": [],
      "stateMutability": "nonpayable",
      "type": "function"
    },
    {
      "inputs": [
        {
          "internalType": "bytes4",
          "name": "interfaceId",
          "type": "bytes4"
        }
      ],
      "name": "supportsInterface",
      "outputs": [
        {
          "internalType": "bool",
          "name": "",
          "type": "bool"
        }
      ],
      "stateMutability": "pure",
      "type": "function"
    },
    {
      "inputs": [
        {
          "internalType": "uint256",
          "name": "tokenId",
          "type": "uint256"
        }
      ],
      "name": "tokenURI",
      "outputs": [
        {
          "internalType": "string",
          "name": "",
          "type": "string"
        }
      ],
      "stateMutability": "view",
      "type": "function"
    },
    {
      "inputs": [
        {
          "internalType": "address",
          "name": "",
          "type": "address"
        }
      ],
      "name": "totalMintsByAddress",
      "outputs": [
        {
          "internalType": "uint256",
          "name": "",
          "type": "uint256"
        }
      ],
      "stateMutability": "view",
      "type": "function"
    },
    {
      "inputs": [
        {
          "internalType": "bytes",
          "name": "args",
          "type": "bytes"
        }
      ],
      "name": "updateMarketFilterSettings",
      "outputs": [
        {
          "internalType": "bytes",
          "name": "",
          "type": "bytes"
        }
      ],
      "stateMutability": "nonpayable",
      "type": "function"
    },
    {
      "inputs": [],
      "name": "version",
      "outputs": [
        {
          "internalType": "string",
          "name": "",
          "type": "string"
        }
      ],
      "stateMutability": "pure",
      "type": "function"
    },
    {
      "inputs": [],
      "name": "withdraw",
      "outputs": [],
      "stateMutability": "nonpayable",
      "type": "function"
    },
    {
      "stateMutability": "payable",
      "type": "receive"
    }
  ],
  "transactionHash": "0xce87312476c983f6f22d8fb4dfbe3bb443b7ad79fb083b8763fa3d0a6ab71021",
  "args": [],
  "numDeployments": 2,
  "solcInputHash": "45338c0b313307327629d3bd204dd768",
  "bytecode": "0x608060405234801561001057600080fd5b50615b5080620000216000396000f3fe6080604052600436106102385760003560e01c806361fea76811610138578063b8ae5a2c116100b0578063e58306f91161007f578063efef39a111610064578063efef39a114610950578063f7cd1d9b14610963578063ffdb716314610990576102b2565b8063e58306f91461091b578063e8a3d4851461093b576102b2565b8063b8ae5a2c14610879578063bb20d85714610899578063c87b56dd146108b9578063d445b978146108d9576102b2565b80638a1968de116101075780638f32d59b116100ec5780638f32d59b1461080a5780639123f01e1461081f578063ac9650d81461084c576102b2565b80638a1968de146107d55780638da5cb5b146107f5576102b2565b806361fea7681461069457806370319970146106c157806379502c55146106ec57806384816f2a146107b5576102b2565b80632f0ae5fa116101cb5780633bcdcc871161019a57806341e96eb11161017f57806341e96eb1146105df5780634ddf47d4146105f457806354fd4d5014610645576102b2565b80633bcdcc87146105aa5780633ccfd60b146105ca576102b2565b80632f0ae5fa1461053b5780632f54bf6e14610568578063343b278f1461051b5780633474a4a614610588576102b2565b80632078d35f116102075780632078d35f1461049357806324d7806c146104da57806325024a2b146104fa5780632ca166761461051b576102b2565b8063015eaa7a146102f057806301ffc9a71461032557806310a7eb5d146103875780631d2c0b38146103a7576102b2565b366102b257367fffffffffffffffffffffffffffffffffffffffffffffffffffffffffffffffe0013573ffffffffffffffffffffffffffffffffffffffff167f8e47b87b0ef542cdfa1659c551d88bad38aa7f452d2bbb349ab7530dfec8be8f346040516102a891815260200190565b60405180910390a2005b337fe9fcff60011c1a99f7b7244d1f2d9da93d79ea8ef3654ce590d775575255b2bd5414600181146102e357600080fd5b600160805260206080f35b005b3480156102fc57600080fd5b5061031061030b366004614e7e565b6109b0565b60405190151581526020015b60405180910390f35b34801561033157600080fd5b50610310610340366004614eb7565b7fffffffff00000000000000000000000000000000000000000000000000000000167f1a95c452000000000000000000000000000000000000000000000000000000001490565b34801561039357600080fd5b506102ee6103a2366004614ef9565b6109fb565b3480156103b357600080fd5b5060055460065460075461043a926cffffffffffffffffffffffffff8116926d0100000000000000000000000000820463ffffffff16927101000000000000000000000000000000000090920467ffffffffffffffff9081169281831692680100000000000000008104831692700100000000000000000000000000000000909104169087565b604080516cffffffffffffffffffffffffff909816885263ffffffff909616602088015267ffffffffffffffff948516958701959095529183166060860152821660808501521660a083015260c082015260e00161031c565b34801561049f57600080fd5b506104b56daaeb6d7670e522a718067333cd4e81565b60405173ffffffffffffffffffffffffffffffffffffffff909116815260200161031c565b3480156104e657600080fd5b506103106104f5366004614ef9565b610c92565b61050d610508366004614f62565b610cf0565b60405190815260200161031c565b34801561052757600080fd5b50610310610536366004615005565b61127f565b34801561054757600080fd5b506002546104b59073ffffffffffffffffffffffffffffffffffffffff1681565b34801561057457600080fd5b50610310610583366004614ef9565b61148d565b34801561059457600080fd5b5061059d6114ec565b60405161031c9190615067565b3480156105b657600080fd5b506102ee6105c5366004615276565b611657565b3480156105d657600080fd5b506102ee611947565b3480156105eb57600080fd5b506102ee611e07565b34801561060057600080fd5b5061061461060f3660046152c6565b612129565b6040517fffffffff00000000000000000000000000000000000000000000000000000000909116815260200161031c565b34801561065157600080fd5b5060408051808201909152600581527f312e302e3000000000000000000000000000000000000000000000000000000060208201525b60405161031c9190615375565b3480156106a057600080fd5b5061050d6106af366004614ef9565b60086020526000908152604090205481565b3480156106cd57600080fd5b5060035473ffffffffffffffffffffffffffffffffffffffff166104b5565b3480156106f857600080fd5b506003546004546107689173ffffffffffffffffffffffffffffffffffffffff8082169274010000000000000000000000000000000000000000830467ffffffffffffffff16927c0100000000000000000000000000000000000000000000000000000000900461ffff16911684565b6040805173ffffffffffffffffffffffffffffffffffffffff958616815267ffffffffffffffff909416602085015261ffff9092169183019190915291909116606082015260800161031c565b3480156107c157600080fd5b506102ee6107d0366004614ef9565b61273e565b3480156107e157600080fd5b506102ee6107f0366004615396565b612957565b34801561080157600080fd5b506104b5612f0c565b34801561081657600080fd5b50610310612f3b565b34801561082b57600080fd5b5061050d61083a366004614ef9565b60096020526000908152604090205481565b34801561085857600080fd5b5061086c6108673660046153b3565b613037565b60405161031c9190615476565b34801561088557600080fd5b5061050d6108943660046154f6565b613138565b3480156108a557600080fd5b506106876108b4366004615538565b61343b565b3480156108c557600080fd5b506106876108d436600461556e565b613781565b3480156108e557600080fd5b506108f96108f4366004614ef9565b61395a565b604080518251815260208084015190820152918101519082015260600161031c565b34801561092757600080fd5b5061050d610936366004615587565b6139df565b34801561094757600080fd5b50610687613ca7565b61050d61095e36600461556e565b613d5d565b34801561096f57600080fd5b506001546104b59073ffffffffffffffffffffffffffffffffffffffff1681565b34801561099c57600080fd5b506102ee6109ab3660046155f6565b6141ea565b60015460009073ffffffffffffffffffffffffffffffffffffffff16158015906109f4575060015473ffffffffffffffffffffffffffffffffffffffff8381169116145b9392505050565b7fe9fcff60011c1a99f7b7244d1f2d9da93d79ea8ef3654ce590d775575255b2bd5473ffffffffffffffffffffffffffffffffffffffff163303610b1c577fb56711ba6bd3ded7639fc335ee7524fe668a79d7558c85992e3f8494cf7727775473ffffffffffffffffffffffffffffffffffffffff16367fffffffffffffffffffffffffffffffffffffffffffffffffffffffffffffffe0013573ffffffffffffffffffffffffffffffffffffffff1614610b17576040517f08c379a000000000000000000000000000000000000000000000000000000000815260206004820152601b60248201527f4552433732313a206f776e6572206f6e6c792066756e6374696f6e000000000060448201526064015b60405180910390fd5b610bd2565b7fb56711ba6bd3ded7639fc335ee7524fe668a79d7558c85992e3f8494cf7727775473ffffffffffffffffffffffffffffffffffffffff163373ffffffffffffffffffffffffffffffffffffffff1614610bd2576040517f08c379a000000000000000000000000000000000000000000000000000000000815260206004820152601b60248201527f4552433732313a206f776e6572206f6e6c792066756e6374696f6e00000000006044820152606401610b0e565b600480547fffffffffffffffffffffffff00000000000000000000000000000000000000001673ffffffffffffffffffffffffffffffffffffffff8316179055367fffffffffffffffffffffffffffffffffffffffffffffffffffffffffffffffe0013573ffffffffffffffffffffffffffffffffffffffff168173ffffffffffffffffffffffffffffffffffffffff167f70a7ea5c664ab9c21baf3da59bb2f1e1ca33557b08a0031fab4f17076744995160405160405180910390a350565b60008173ffffffffffffffffffffffffffffffffffffffff16610cd37fb56711ba6bd3ded7639fc335ee7524fe668a79d7558c85992e3f8494cf7727775490565b73ffffffffffffffffffffffffffffffffffffffff161492915050565b6000610d1a7f04b524dd539523930d3901481aa9455d7752b49add99e1647adb8b09a31372795490565b600203610d83576040517f08c379a000000000000000000000000000000000000000000000000000000000815260206004820152601960248201527f484f4c4f47524150483a207265656e7472616e742063616c6c000000000000006044820152606401610b0e565b610dac60027f04b524dd539523930d3901481aa9455d7752b49add99e1647adb8b09a313727955565b600354869074010000000000000000000000000000000000000000900467ffffffffffffffff1615801590610e3057506003546000547401000000000000000000000000000000000000000090910467ffffffffffffffff1690610e2e907bffffffffffffffffffffffffffffffffffffffffffffffffffffffff16836156b2565b115b15610e67576040517f717c513000000000000000000000000000000000000000000000000000000000815260040160405180910390fd5b610e6f614549565b610ea5576040517f95ed3c1a00000000000000000000000000000000000000000000000000000000815260040160405180910390fd5b610f4e84848080602002602001604051908101604052809392919081815260200183836020028082843760009201919091525050600754915050367fffffffffffffffffffffffffffffffffffffffffffffffffffffffffffffffe001356040805173ffffffffffffffffffffffffffffffffffffffff909216602083015281018a90526060810189905260800160405160208183030381529060405280519060200120614598565b610f84576040517f85b70e5200000000000000000000000000000000000000000000000000000000815260040160405180910390fd5b6000610f8f866145ae565b9050610f9b88826156ca565b341015610fe157610fac88826156ca565b6040517f6a1c179e000000000000000000000000000000000000000000000000000000008152600401610b0e91815260200190565b73ffffffffffffffffffffffffffffffffffffffff7fffffffffffffffffffffffffffffffffffffffffffffffffffffffffffffffe036013516600090815260086020526040812080548a92906110399084906156b2565b909155505073ffffffffffffffffffffffffffffffffffffffff7fffffffffffffffffffffffffffffffffffffffffffffffffffffffffffffffe0360135166000908152600860205260409020548710156110c0576040517fa7b32bb100000000000000000000000000000000000000000000000000000000815260040160405180910390fd5b6110ed367fffffffffffffffffffffffffffffffffffffffffffffffffffffffffffffffe001358961468c565b60006111177fe9fcff60011c1a99f7b7244d1f2d9da93d79ea8ef3654ce590d775575255b2bd5490565b905060008173ffffffffffffffffffffffffffffffffffffffff166377dbd8636040518163ffffffff1660e01b8152600401602060405180830381865afa158015611166573d6000803e3d6000fd5b505050506040513d601f19601f8201168201806040525081019061118a9190615707565b60008054919250906111bb908c907bffffffffffffffffffffffffffffffffffffffffffffffffffffffff16615720565b6111c590836156b2565b6111d09060016156b2565b9050838b367fffffffffffffffffffffffffffffffffffffffffffffffffffffffffffffffe0013573ffffffffffffffffffffffffffffffffffffffff167f4e26b0356a15833a75d497ecc40ebbb716b99466ed0dba9454f1fff451e25a908460405161123f91815260200190565b60405180910390a494505050505061127660017f04b524dd539523930d3901481aa9455d7752b49add99e1647adb8b09a313727955565b95945050505050565b600073ffffffffffffffffffffffffffffffffffffffff8616158015906112f55750367fffffffffffffffffffffffffffffffffffffffffffffffffffffffffffffffe0013573ffffffffffffffffffffffffffffffffffffffff168673ffffffffffffffffffffffffffffffffffffffff1614155b15611481577f5c835f3b6bd322d9a084ffdeac746df2b96cce308e7f0612f4ff4f9c490734cc54801561147f576daaeb6d7670e522a718067333cd4e63c617113430367fffffffffffffffffffffffffffffffffffffffffffffffffffffffffffffffe001356040517fffffffff0000000000000000000000000000000000000000000000000000000060e085901b16815273ffffffffffffffffffffffffffffffffffffffff928316600482015291166024820152604401602060405180830381865afa925050508015611405575060408051601f3d9081017fffffffffffffffffffffffffffffffffffffffffffffffffffffffffffffffe016820190925261140291810190615742565b60015b611476576040517fede71dcc00000000000000000000000000000000000000000000000000000000815273ffffffffffffffffffffffffffffffffffffffff7fffffffffffffffffffffffffffffffffffffffffffffffffffffffffffffffe0360135166004820152602401610b0e565b91506112769050565b505b50600195945050505050565b60006114b77fb56711ba6bd3ded7639fc335ee7524fe668a79d7558c85992e3f8494cf7727775490565b73ffffffffffffffffffffffffffffffffffffffff168273ffffffffffffffffffffffffffffffffffffffff16149050919050565b6040805161016081018252600080825260208201819052918101829052606081018290526080810182905260a0810182905260c0810182905260e0810182905261010081018290526101208101829052610140810191909152604051806101600160405280611559614a63565b15158152602001611568614549565b151581526005546cffffffffffffffffffffffffff8116602083015271010000000000000000000000000000000000810467ffffffffffffffff90811660408401526006548082166060850152680100000000000000008104821660808501527001000000000000000000000000000000009004811660a084015260075460c08401526d010000000000000000000000000090910463ffffffff1660e08301526000547bffffffffffffffffffffffffffffffffffffffffffffffffffffffff166101008301526003547401000000000000000000000000000000000000000090041661012090910152919050565b7fe9fcff60011c1a99f7b7244d1f2d9da93d79ea8ef3654ce590d775575255b2bd5473ffffffffffffffffffffffffffffffffffffffff163303611773577fb56711ba6bd3ded7639fc335ee7524fe668a79d7558c85992e3f8494cf7727775473ffffffffffffffffffffffffffffffffffffffff16367fffffffffffffffffffffffffffffffffffffffffffffffffffffffffffffffe0013573ffffffffffffffffffffffffffffffffffffffff161461176e576040517f08c379a000000000000000000000000000000000000000000000000000000000815260206004820152601b60248201527f4552433732313a206f776e6572206f6e6c792066756e6374696f6e00000000006044820152606401610b0e565b611829565b7fb56711ba6bd3ded7639fc335ee7524fe668a79d7558c85992e3f8494cf7727775473ffffffffffffffffffffffffffffffffffffffff163373ffffffffffffffffffffffffffffffffffffffff1614611829576040517f08c379a000000000000000000000000000000000000000000000000000000000815260206004820152601b60248201527f4552433732313a206f776e6572206f6e6c792066756e6374696f6e00000000006044820152606401610b0e565b600380547fffffffffffffffffffffffff00000000000000000000000000000000000000001673ffffffffffffffffffffffffffffffffffffffff84161790558051156118f5576040517f856a7ffa00000000000000000000000000000000000000000000000000000000815273ffffffffffffffffffffffffffffffffffffffff83169063856a7ffa906118c2908490600401615375565b600060405180830381600087803b1580156118dc57600080fd5b505af11580156118f0573d6000803e3d6000fd5b505050505b6040805133815273ffffffffffffffffffffffffffffffffffffffff841660208201527f046c5d913c35948c3e0e44c3599eb14bf33b73f141fa8bb282b300414998b868910160405180910390a15050565b7f04b524dd539523930d3901481aa9455d7752b49add99e1647adb8b09a3137279546002036119d2576040517f08c379a000000000000000000000000000000000000000000000000000000000815260206004820152601960248201527f484f4c4f47524150483a207265656e7472616e742063616c6c000000000000006044820152606401610b0e565b6119fb60027f04b524dd539523930d3901481aa9455d7752b49add99e1647adb8b09a313727955565b60045473ffffffffffffffffffffffffffffffffffffffff16611a7a576040517f08c379a000000000000000000000000000000000000000000000000000000000815260206004820152601f60248201527f46756e647320526563697069656e742061646472657373206e6f7420736574006044820152606401610b0e565b7fe9fcff60011c1a99f7b7244d1f2d9da93d79ea8ef3654ce590d775575255b2bd547fffffffffffffffffffffffffffffffffffffffffffffffffffffffffffffffe036013590479060009073ffffffffffffffffffffffffffffffffffffffff16633b19e84a6040518163ffffffff1660e01b8152600401602060405180830381865afa158015611b10573d6000803e3d6000fd5b505050506040513d601f19601f82011682018060405250810190611b34919061576a565b60045490915060009073ffffffffffffffffffffffffffffffffffffffff858116911614801590611bb257507fb56711ba6bd3ded7639fc335ee7524fe668a79d7558c85992e3f8494cf7727775473ffffffffffffffffffffffffffffffffffffffff168473ffffffffffffffffffffffffffffffffffffffff1614155b8015611bea57508173ffffffffffffffffffffffffffffffffffffffff168473ffffffffffffffffffffffffffffffffffffffff1614155b15611c21576040517f1dab829b00000000000000000000000000000000000000000000000000000000815260040160405180910390fd5b8015611cd55760008273ffffffffffffffffffffffffffffffffffffffff16826203345090604051600060405180830381858888f193505050503d8060008114611c87576040519150601f19603f3d011682016040523d82523d6000602084013e611c8c565b606091505b5050905080611cc7576040517f39debd5b00000000000000000000000000000000000000000000000000000000815260040160405180910390fd5b611cd18285615720565b9350505b60045460405160009173ffffffffffffffffffffffffffffffffffffffff16906203345090869084818181858888f193505050503d8060008114611d35576040519150601f19603f3d011682016040523d82523d6000602084013e611d3a565b606091505b5050905080611d75576040517f39debd5b00000000000000000000000000000000000000000000000000000000815260040160405180910390fd5b6004546040805186815273ffffffffffffffffffffffffffffffffffffffff868116602083015291810185905291811691908716907f8a95554e4c9dcaaf33f247387f2ee77390780487d3365e3a804788791a1df5009060600160405180910390a35050505050611e0560017f04b524dd539523930d3901481aa9455d7752b49add99e1647adb8b09a313727955565b565b7fe9fcff60011c1a99f7b7244d1f2d9da93d79ea8ef3654ce590d775575255b2bd5473ffffffffffffffffffffffffffffffffffffffff163303611f23577fb56711ba6bd3ded7639fc335ee7524fe668a79d7558c85992e3f8494cf7727775473ffffffffffffffffffffffffffffffffffffffff16367fffffffffffffffffffffffffffffffffffffffffffffffffffffffffffffffe0013573ffffffffffffffffffffffffffffffffffffffff1614611f1e576040517f08c379a000000000000000000000000000000000000000000000000000000000815260206004820152601b60248201527f4552433732313a206f776e6572206f6e6c792066756e6374696f6e00000000006044820152606401610b0e565b611fd9565b7fb56711ba6bd3ded7639fc335ee7524fe668a79d7558c85992e3f8494cf7727775473ffffffffffffffffffffffffffffffffffffffff163373ffffffffffffffffffffffffffffffffffffffff1614611fd9576040517f08c379a000000000000000000000000000000000000000000000000000000000815260206004820152601b60248201527f4552433732313a206f776e6572206f6e6c792066756e6374696f6e00000000006044820152606401610b0e565b60035474010000000000000000000000000000000000000000900467ffffffffffffffff90811614612037576040517fe742c08400000000000000000000000000000000000000000000000000000000815260040160405180910390fd5b6000546003805467ffffffffffffffff90921674010000000000000000000000000000000000000000027fffffffff0000000000000000ffffffffffffffffffffffffffffffffffffffff9092169190911790556120b57fffffffffffffffffffffffffffffffffffffffffffffffffffffffffffffffe036013590565b6003546040517401000000000000000000000000000000000000000090910467ffffffffffffffff16815273ffffffffffffffffffffffffffffffffffffffff91909116907fb6cc1e876b8d7479c8afe025a58658b0f3c3ec5bd0f28cb4261326b162069bf89060200160405180910390a2565b60006121537f4e5f991bca30eca2d4643aaefa807e88f96a4a97398933d572a3c0d973004a015490565b156121ba576040517f08c379a000000000000000000000000000000000000000000000000000000000815260206004820152601e60248201527f484f4c4f47524150483a20616c726561647920696e697469616c697a656400006044820152606401610b0e565b6000828060200190518101906121d091906158aa565b8051600180547fffffffffffffffffffffffff00000000000000000000000000000000000000001673ffffffffffffffffffffffffffffffffffffffff9283161790556020820151919250161561226b576020810151600280547fffffffffffffffffffffffff00000000000000000000000000000000000000001673ffffffffffffffffffffffffffffffffffffffff9092169190911790555b61229781604001517fb56711ba6bd3ded7639fc335ee7524fe668a79d7558c85992e3f8494cf77277755565b60408051608080820183526101008401805173ffffffffffffffffffffffffffffffffffffffff9081168085528684015167ffffffffffffffff908116602080880182905260a0808b015161ffff16898b018190526060808d015188169a81018b9052600380547c01000000000000000000000000000000000000000000000000000000009093027fffff0000ffffffffffffffffffffffffffffffffffffffffffffffffffffffff740100000000000000000000000000000000000000009097027fffffffff00000000000000000000000000000000000000000000000000000000909416909817929092179490941695909517909455600480547fffffffffffffffffffffffff00000000000000000000000000000000000000001690981790975560e0890151805160058054998301519a830151851671010000000000000000000000000000000000027fffffffffffffff0000000000000000ffffffffffffffffffffffffffffffffff63ffffffff909c166d0100000000000000000000000000027fffffffffffffffffffffffffffffff0000000000000000000000000000000000909b166cffffffffffffffffffffffffff90931692909217999099179990991698909817909655948601516006805495880151928801518716700100000000000000000000000000000000027fffffffffffffffff0000000000000000ffffffffffffffffffffffffffffffff93881668010000000000000000027fffffffffffffffffffffffffffffffff00000000000000000000000000000000909716929097169190911794909417169390931790915560c09092015160075590511615612592576101008101516101208201516040517f856a7ffa00000000000000000000000000000000000000000000000000000000815273ffffffffffffffffffffffffffffffffffffffff9092169163856a7ffa9161255f91600401615375565b600060405180830381600087803b15801561257957600080fd5b505af115801561258d573d6000803e3d6000fd5b505050505b8060c0015180156125b157506daaeb6d7670e522a718067333cd4e3b15155b1561270c5760025473ffffffffffffffffffffffffffffffffffffffff1661264f576040517f4420e4860000000000000000000000000000000000000000000000000000000081523060048201526daaeb6d7670e522a718067333cd4e90634420e48690602401600060405180830381600087803b15801561263257600080fd5b505af1158015612646573d6000803e3d6000fd5b505050506126e7565b6002546040517f7d3e3dbe00000000000000000000000000000000000000000000000000000000815230600482015273ffffffffffffffffffffffffffffffffffffffff90911660248201526daaeb6d7670e522a718067333cd4e90637d3e3dbe90604401600060405180830381600087803b1580156126ce57600080fd5b505af11580156126e2573d6000803e3d6000fd5b505050505b60017f5c835f3b6bd322d9a084ffdeac746df2b96cce308e7f0612f4ff4f9c490734cc555b61273560017f04b524dd539523930d3901481aa9455d7752b49add99e1647adb8b09a313727955565b6109f483614aa8565b7fe9fcff60011c1a99f7b7244d1f2d9da93d79ea8ef3654ce590d775575255b2bd5473ffffffffffffffffffffffffffffffffffffffff16330361285a577fb56711ba6bd3ded7639fc335ee7524fe668a79d7558c85992e3f8494cf7727775473ffffffffffffffffffffffffffffffffffffffff16367fffffffffffffffffffffffffffffffffffffffffffffffffffffffffffffffe0013573ffffffffffffffffffffffffffffffffffffffff1614612855576040517f08c379a000000000000000000000000000000000000000000000000000000000815260206004820152601b60248201527f4552433732313a206f776e6572206f6e6c792066756e6374696f6e00000000006044820152606401610b0e565b612910565b7fb56711ba6bd3ded7639fc335ee7524fe668a79d7558c85992e3f8494cf7727775473ffffffffffffffffffffffffffffffffffffffff163373ffffffffffffffffffffffffffffffffffffffff1614612910576040517f08c379a000000000000000000000000000000000000000000000000000000000815260206004820152601b60248201527f4552433732313a206f776e6572206f6e6c792066756e6374696f6e00000000006044820152606401610b0e565b600280547fffffffffffffffffffffffff00000000000000000000000000000000000000001673ffffffffffffffffffffffffffffffffffffffff92909216919091179055565b7fe9fcff60011c1a99f7b7244d1f2d9da93d79ea8ef3654ce590d775575255b2bd5473ffffffffffffffffffffffffffffffffffffffff163303612a73577fb56711ba6bd3ded7639fc335ee7524fe668a79d7558c85992e3f8494cf7727775473ffffffffffffffffffffffffffffffffffffffff16367fffffffffffffffffffffffffffffffffffffffffffffffffffffffffffffffe0013573ffffffffffffffffffffffffffffffffffffffff1614612a6e576040517f08c379a000000000000000000000000000000000000000000000000000000000815260206004820152601b60248201527f4552433732313a206f776e6572206f6e6c792066756e6374696f6e00000000006044820152606401610b0e565b612b29565b7fb56711ba6bd3ded7639fc335ee7524fe668a79d7558c85992e3f8494cf7727775473ffffffffffffffffffffffffffffffffffffffff163373ffffffffffffffffffffffffffffffffffffffff1614612b29576040517f08c379a000000000000000000000000000000000000000000000000000000000815260206004820152601b60248201527f4552433732313a206f776e6572206f6e6c792066756e6374696f6e00000000006044820152606401610b0e565b600254309073ffffffffffffffffffffffffffffffffffffffff16612b7a576040517f707ff7e900000000000000000000000000000000000000000000000000000000815260040160405180910390fd5b6040517fc3c5a54700000000000000000000000000000000000000000000000000000000815273ffffffffffffffffffffffffffffffffffffffff821660048201526daaeb6d7670e522a718067333cd4e9063c3c5a547906024016020604051808303816000875af1158015612bf4573d6000803e3d6000fd5b505050506040513d601f19601f82011682018060405250810190612c189190615742565b158015612c225750815b15612cc6576002546040517f7d3e3dbe00000000000000000000000000000000000000000000000000000000815273ffffffffffffffffffffffffffffffffffffffff808416600483015290911660248201526daaeb6d7670e522a718067333cd4e90637d3e3dbe906044015b600060405180830381600087803b158015612ca957600080fd5b505af1158015612cbd573d6000803e3d6000fd5b50505050612e5a565b8115612d38576002546040517fb314d41400000000000000000000000000000000000000000000000000000000815273ffffffffffffffffffffffffffffffffffffffff808416600483015290911660248201526daaeb6d7670e522a718067333cd4e9063b314d41490604401612c8f565b6040517f34a0dc1000000000000000000000000000000000000000000000000000000000815273ffffffffffffffffffffffffffffffffffffffff82166004820152600060248201526daaeb6d7670e522a718067333cd4e906334a0dc1090604401600060405180830381600087803b158015612db457600080fd5b505af1158015612dc8573d6000803e3d6000fd5b50506040517f2ec2c24600000000000000000000000000000000000000000000000000000000815273ffffffffffffffffffffffffffffffffffffffff841660048201526daaeb6d7670e522a718067333cd4e9250632ec2c2469150602401600060405180830381600087803b158015612e4157600080fd5b505af1158015612e55573d6000803e3d6000fd5b505050505b6040517fc3c5a5470000000000000000000000000000000000000000000000000000000081523060048201526000906daaeb6d7670e522a718067333cd4e9063c3c5a547906024016020604051808303816000875af1158015612ec1573d6000803e3d6000fd5b505050506040513d601f19601f82011682018060405250810190612ee59190615742565b7f5c835f3b6bd322d9a084ffdeac746df2b96cce308e7f0612f4ff4f9c490734cc55505050565b6000612f367fb56711ba6bd3ded7639fc335ee7524fe668a79d7558c85992e3f8494cf7727775490565b905090565b6000612f657fe9fcff60011c1a99f7b7244d1f2d9da93d79ea8ef3654ce590d775575255b2bd5490565b73ffffffffffffffffffffffffffffffffffffffff163303612ff9577fb56711ba6bd3ded7639fc335ee7524fe668a79d7558c85992e3f8494cf7727775473ffffffffffffffffffffffffffffffffffffffff16367fffffffffffffffffffffffffffffffffffffffffffffffffffffffffffffffe0013573ffffffffffffffffffffffffffffffffffffffff1614905090565b507fb56711ba6bd3ded7639fc335ee7524fe668a79d7558c85992e3f8494cf7727775473ffffffffffffffffffffffffffffffffffffffff16331490565b6060815167ffffffffffffffff81111561305357613053615132565b60405190808252806020026020018201604052801561308657816020015b60608152602001906001900390816130715790505b50905060005b825181101561313257613102308483815181106130ab576130ab6159b6565b60200260200101516130dd7fffffffffffffffffffffffffffffffffffffffffffffffffffffffffffffffe036013590565b6040516020016130ee9291906159e5565b604051602081830303815290604052614c4f565b828281518110613114576131146159b6565b6020026020010181905250808061312a90615a2f565b91505061308c565b50919050565b60006131627fe9fcff60011c1a99f7b7244d1f2d9da93d79ea8ef3654ce590d775575255b2bd5490565b73ffffffffffffffffffffffffffffffffffffffff16330361325c577fb56711ba6bd3ded7639fc335ee7524fe668a79d7558c85992e3f8494cf7727775473ffffffffffffffffffffffffffffffffffffffff16367fffffffffffffffffffffffffffffffffffffffffffffffffffffffffffffffe0013573ffffffffffffffffffffffffffffffffffffffff1614613257576040517f08c379a000000000000000000000000000000000000000000000000000000000815260206004820152601b60248201527f4552433732313a206f776e6572206f6e6c792066756e6374696f6e00000000006044820152606401610b0e565b613312565b7fb56711ba6bd3ded7639fc335ee7524fe668a79d7558c85992e3f8494cf7727775473ffffffffffffffffffffffffffffffffffffffff163373ffffffffffffffffffffffffffffffffffffffff1614613312576040517f08c379a000000000000000000000000000000000000000000000000000000000815260206004820152601b60248201527f4552433732313a206f776e6572206f6e6c792066756e6374696f6e00000000006044820152606401610b0e565b600354829074010000000000000000000000000000000000000000900467ffffffffffffffff161580159061339657506003546000547401000000000000000000000000000000000000000090910467ffffffffffffffff1690613394907bffffffffffffffffffffffffffffffffffffffffffffffffffffffff16836156b2565b115b156133cd576040517f717c513000000000000000000000000000000000000000000000000000000000815260040160405180910390fd5b60005b83811015613411576134098585838181106133ed576133ed6159b6565b90506020020160208101906134029190614ef9565b600161468c565b6001016133d0565b50506000547bffffffffffffffffffffffffffffffffffffffffffffffffffffffff169392505050565b60606134657fe9fcff60011c1a99f7b7244d1f2d9da93d79ea8ef3654ce590d775575255b2bd5490565b73ffffffffffffffffffffffffffffffffffffffff16330361355f577fb56711ba6bd3ded7639fc335ee7524fe668a79d7558c85992e3f8494cf7727775473ffffffffffffffffffffffffffffffffffffffff16367fffffffffffffffffffffffffffffffffffffffffffffffffffffffffffffffe0013573ffffffffffffffffffffffffffffffffffffffff161461355a576040517f08c379a000000000000000000000000000000000000000000000000000000000815260206004820152601b60248201527f4552433732313a206f776e6572206f6e6c792066756e6374696f6e00000000006044820152606401610b0e565b613615565b7fb56711ba6bd3ded7639fc335ee7524fe668a79d7558c85992e3f8494cf7727775473ffffffffffffffffffffffffffffffffffffffff163373ffffffffffffffffffffffffffffffffffffffff1614613615576040517f08c379a000000000000000000000000000000000000000000000000000000000815260206004820152601b60248201527f4552433732313a206f776e6572206f6e6c792066756e6374696f6e00000000006044820152606401610b0e565b6000806daaeb6d7670e522a718067333cd4e73ffffffffffffffffffffffffffffffffffffffff16858560405161364d929190615a67565b6000604051808303816000865af19150503d806000811461368a576040519150601f19603f3d011682016040523d82523d6000602084013e61368f565b606091505b5091509150816136cb576040517f25f3885400000000000000000000000000000000000000000000000000000000815260040160405180910390fd5b6040517fc3c5a5470000000000000000000000000000000000000000000000000000000081523060048201526000906daaeb6d7670e522a718067333cd4e9063c3c5a547906024016020604051808303816000875af1158015613732573d6000803e3d6000fd5b505050506040513d601f19601f820116820180604052508101906137569190615742565b7f5c835f3b6bd322d9a084ffdeac746df2b96cce308e7f0612f4ff4f9c490734cc5550949350505050565b606060006137ad7fe9fcff60011c1a99f7b7244d1f2d9da93d79ea8ef3654ce590d775575255b2bd5490565b6040517f4f558e790000000000000000000000000000000000000000000000000000000081526004810185905290915073ffffffffffffffffffffffffffffffffffffffff821690634f558e7990602401602060405180830381865afa15801561381b573d6000803e3d6000fd5b505050506040513d601f19601f8201168201806040525081019061383f9190615742565b6138a5576040517f08c379a000000000000000000000000000000000000000000000000000000000815260206004820152601c60248201527f4552433732313a20746f6b656e20646f6573206e6f74206578697374000000006044820152606401610b0e565b6003546040517fc87b56dd0000000000000000000000000000000000000000000000000000000081526004810185905273ffffffffffffffffffffffffffffffffffffffff9091169063c87b56dd90602401600060405180830381865afa158015613914573d6000803e3d6000fd5b505050506040513d6000823e601f3d9081017fffffffffffffffffffffffffffffffffffffffffffffffffffffffffffffffe01682016040526109f49190810190615a77565b61397e60405180606001604052806000815260200160008152602001600081525090565b6040805160608101825273ffffffffffffffffffffffffffffffffffffffff8416600081815260096020818152858320548086528484526008825286842054828701819052949093525291928301916139d79190615720565b905292915050565b6000613a097fe9fcff60011c1a99f7b7244d1f2d9da93d79ea8ef3654ce590d775575255b2bd5490565b73ffffffffffffffffffffffffffffffffffffffff163303613b03577fb56711ba6bd3ded7639fc335ee7524fe668a79d7558c85992e3f8494cf7727775473ffffffffffffffffffffffffffffffffffffffff16367fffffffffffffffffffffffffffffffffffffffffffffffffffffffffffffffe0013573ffffffffffffffffffffffffffffffffffffffff1614613afe576040517f08c379a000000000000000000000000000000000000000000000000000000000815260206004820152601b60248201527f4552433732313a206f776e6572206f6e6c792066756e6374696f6e00000000006044820152606401610b0e565b613bb9565b7fb56711ba6bd3ded7639fc335ee7524fe668a79d7558c85992e3f8494cf7727775473ffffffffffffffffffffffffffffffffffffffff163373ffffffffffffffffffffffffffffffffffffffff1614613bb9576040517f08c379a000000000000000000000000000000000000000000000000000000000815260206004820152601b60248201527f4552433732313a206f776e6572206f6e6c792066756e6374696f6e00000000006044820152606401610b0e565b600354829074010000000000000000000000000000000000000000900467ffffffffffffffff1615801590613c3d57506003546000547401000000000000000000000000000000000000000090910467ffffffffffffffff1690613c3b907bffffffffffffffffffffffffffffffffffffffffffffffffffffffff16836156b2565b115b15613c74576040517f717c513000000000000000000000000000000000000000000000000000000000815260040160405180910390fd5b613c7e848461468c565b50506000547bffffffffffffffffffffffffffffffffffffffffffffffffffffffff1692915050565b600354604080517fe8a3d485000000000000000000000000000000000000000000000000000000008152905160609273ffffffffffffffffffffffffffffffffffffffff169163e8a3d4859160048083019260009291908290030181865afa158015613d17573d6000803e3d6000fd5b505050506040513d6000823e601f3d9081017fffffffffffffffffffffffffffffffffffffffffffffffffffffffffffffffe0168201604052612f369190810190615a77565b6000613d877f04b524dd539523930d3901481aa9455d7752b49add99e1647adb8b09a31372795490565b600203613df0576040517f08c379a000000000000000000000000000000000000000000000000000000000815260206004820152601960248201527f484f4c4f47524150483a207265656e7472616e742063616c6c000000000000006044820152606401610b0e565b613e1960027f04b524dd539523930d3901481aa9455d7752b49add99e1647adb8b09a313727955565b600354829074010000000000000000000000000000000000000000900467ffffffffffffffff1615801590613e9d57506003546000547401000000000000000000000000000000000000000090910467ffffffffffffffff1690613e9b907bffffffffffffffffffffffffffffffffffffffffffffffffffffffff16836156b2565b115b15613ed4576040517f717c513000000000000000000000000000000000000000000000000000000000815260040160405180910390fd5b613edc614a63565b613f12576040517ff12dcc7f00000000000000000000000000000000000000000000000000000000815260040160405180910390fd5b600554600090613f30906cffffffffffffffffffffffffff166145ae565b9050613f3c84826156ca565b341015613f4d57610fac84826156ca565b6005546d0100000000000000000000000000900463ffffffff1615801590613ff85750600554367fffffffffffffffffffffffffffffffffffffffffffffffffffffffffffffffe0013573ffffffffffffffffffffffffffffffffffffffff166000908152600860209081526040808320546009909252909120546d010000000000000000000000000090920463ffffffff1691613fec9087906156b2565b613ff69190615720565b115b1561402f576040517f220ae94c00000000000000000000000000000000000000000000000000000000815260040160405180910390fd5b61405c367fffffffffffffffffffffffffffffffffffffffffffffffffffffffffffffffe001358561468c565b60006140867fe9fcff60011c1a99f7b7244d1f2d9da93d79ea8ef3654ce590d775575255b2bd5490565b905060008173ffffffffffffffffffffffffffffffffffffffff166377dbd8636040518163ffffffff1660e01b8152600401602060405180830381865afa1580156140d5573d6000803e3d6000fd5b505050506040513d601f19601f820116820180604052508101906140f99190615707565b600080549192509061412a9088907bffffffffffffffffffffffffffffffffffffffffffffffffffffffff16615720565b61413490836156b2565b61413f9060016156b2565b90508387367fffffffffffffffffffffffffffffffffffffffffffffffffffffffffffffffe0013573ffffffffffffffffffffffffffffffffffffffff167f4e26b0356a15833a75d497ecc40ebbb716b99466ed0dba9454f1fff451e25a90846040516141ae91815260200190565b60405180910390a49450505050506141e560017f04b524dd539523930d3901481aa9455d7752b49add99e1647adb8b09a313727955565b919050565b7fe9fcff60011c1a99f7b7244d1f2d9da93d79ea8ef3654ce590d775575255b2bd5473ffffffffffffffffffffffffffffffffffffffff163303614306577fb56711ba6bd3ded7639fc335ee7524fe668a79d7558c85992e3f8494cf7727775473ffffffffffffffffffffffffffffffffffffffff16367fffffffffffffffffffffffffffffffffffffffffffffffffffffffffffffffe0013573ffffffffffffffffffffffffffffffffffffffff1614614301576040517f08c379a000000000000000000000000000000000000000000000000000000000815260206004820152601b60248201527f4552433732313a206f776e6572206f6e6c792066756e6374696f6e00000000006044820152606401610b0e565b6143bc565b7fb56711ba6bd3ded7639fc335ee7524fe668a79d7558c85992e3f8494cf7727775473ffffffffffffffffffffffffffffffffffffffff163373ffffffffffffffffffffffffffffffffffffffff16146143bc576040517f08c379a000000000000000000000000000000000000000000000000000000000815260206004820152601b60248201527f4552433732313a206f776e6572206f6e6c792066756e6374696f6e00000000006044820152606401610b0e565b600580546cffffffffffffffffffffffffff89167fffffffffffffffffffffffffffffff0000000000000000000000000000000000909116176d010000000000000000000000000063ffffffff891602177fffffffffffffff0000000000000000ffffffffffffffffffffffffffffffffff167101000000000000000000000000000000000067ffffffffffffffff8881169190910291909117909155600680548683167fffffffffffffffffffffffffffffffff00000000000000000000000000000000909116176801000000000000000086841602177fffffffffffffffff0000000000000000ffffffffffffffffffffffffffffffff16700100000000000000000000000000000000928516929092029190911790556007819055367fffffffffffffffffffffffffffffffffffffffffffffffffffffffffffffffe0013573ffffffffffffffffffffffffffffffffffffffff167fc1ff5e4744ac8dd2b8027a10e3723b165975297501c71c4e7dcb8796d96375db60405160405180910390a250505050505050565b600654600090426801000000000000000090910467ffffffffffffffff1611801590612f365750506006544270010000000000000000000000000000000090910467ffffffffffffffff161190565b6000826145a58584614c74565b14949350505050565b7f26600f0171e5a2b86874be26285c66444b2a6fa5f62114757214d5e732aded365460009073ffffffffffffffffffffffffffffffffffffffff811615614685576040517ff5d781610000000000000000000000000000000000000000000000000000000081526004810184905273ffffffffffffffffffffffffffffffffffffffff82169063f5d7816190602401602060405180830381865afa15801561465a573d6000803e3d6000fd5b505050506040513d601f19601f8201168201806040525081019061467e9190615707565b9150613132565b5090919050565b60006146b67fe9fcff60011c1a99f7b7244d1f2d9da93d79ea8ef3654ce590d775575255b2bd5490565b905060008173ffffffffffffffffffffffffffffffffffffffff166377dbd8636040518163ffffffff1660e01b8152600401602060405180830381865afa158015614705573d6000803e3d6000fd5b505050506040513d601f19601f820116820180604052508101906147299190615707565b90506000805b84811015614a5b576000805460019190819061476a9084907bffffffffffffffffffffffffffffffffffffffffffffffffffffffff16615ac0565b92506101000a8154817bffffffffffffffffffffffffffffffffffffffffffffffffffffffff02191690837bffffffffffffffffffffffffffffffffffffffffffffffffffffffff1602179055505b60005473ffffffffffffffffffffffffffffffffffffffff851690634f558e7990614802907bffffffffffffffffffffffffffffffffffffffffffffffffffffffff16866156b2565b6040518263ffffffff1660e01b815260040161482091815260200190565b602060405180830381865afa15801561483d573d6000803e3d6000fd5b505050506040513d601f19601f820116820180604052508101906148619190615742565b8061490f575060005473ffffffffffffffffffffffffffffffffffffffff8516906323250cae906148b0907bffffffffffffffffffffffffffffffffffffffffffffffffffffffff16866156b2565b6040518263ffffffff1660e01b81526004016148ce91815260200190565b602060405180830381865afa1580156148eb573d6000803e3d6000fd5b505050506040513d601f19601f8201168201806040525081019061490f9190615742565b1561499a57600080546001919081906149479084907bffffffffffffffffffffffffffffffffffffffffffffffffffffffff16615ac0565b92506101000a8154817bffffffffffffffffffffffffffffffffffffffffffffffffffffffff02191690837bffffffffffffffffffffffffffffffffffffffffffffffffffffffff1602179055506147b9565b6000546040517f3b4f1b2600000000000000000000000000000000000000000000000000000000815273ffffffffffffffffffffffffffffffffffffffff88811660048301527bffffffffffffffffffffffffffffffffffffffffffffffffffffffff90921660248201819052935090851690633b4f1b2690604401600060405180830381600087803b158015614a3057600080fd5b505af1158015614a44573d6000803e3d6000fd5b505050508080614a5390615a2f565b91505061472f565b505050505050565b600554600090427101000000000000000000000000000000000090910467ffffffffffffffff1611801590612f365750506006544267ffffffffffffffff9091161190565b6000614ad27f4e5f991bca30eca2d4643aaefa807e88f96a4a97398933d572a3c0d973004a015490565b15614b39576040517f08c379a000000000000000000000000000000000000000000000000000000000815260206004820152601b60248201527f4552433732313a20616c726561647920696e697469616c697a656400000000006044820152606401610b0e565b337fe9fcff60011c1a99f7b7244d1f2d9da93d79ea8ef3654ce590d775575255b2bd8190557fb56711ba6bd3ded7639fc335ee7524fe668a79d7558c85992e3f8494cf7727775473ffffffffffffffffffffffffffffffffffffffff8116614bfd576040517f08c379a000000000000000000000000000000000000000000000000000000000815260206004820152601860248201527f484f4c4f47524150483a206f776e6572206e6f742073657400000000000000006044820152606401610b0e565b614c2660017f4e5f991bca30eca2d4643aaefa807e88f96a4a97398933d572a3c0d973004a0155565b507f4ddf47d4000000000000000000000000000000000000000000000000000000009392505050565b60606109f48383604051806060016040528060278152602001615b1d60279139614ce8565b600081815b8451811015614ce0576000858281518110614c9657614c966159b6565b60200260200101519050808311614cbc5760008381526020829052604090209250614ccd565b600081815260208490526040902092505b5080614cd881615a2f565b915050614c79565b509392505050565b60606000808573ffffffffffffffffffffffffffffffffffffffff1685604051614d129190615b00565b600060405180830381855af49150503d8060008114614d4d576040519150601f19603f3d011682016040523d82523d6000602084013e614d52565b606091505b5091509150614d6386838387614d6d565b9695505050505050565b60608315614e03578251600003614dfc5773ffffffffffffffffffffffffffffffffffffffff85163b614dfc576040517f08c379a000000000000000000000000000000000000000000000000000000000815260206004820152601d60248201527f416464726573733a2063616c6c20746f206e6f6e2d636f6e74726163740000006044820152606401610b0e565b5081614e0d565b614e0d8383614e15565b949350505050565b815115614e255781518083602001fd5b806040517f08c379a0000000000000000000000000000000000000000000000000000000008152600401610b0e9190615375565b73ffffffffffffffffffffffffffffffffffffffff81168114614e7b57600080fd5b50565b60008060408385031215614e9157600080fd5b8235614e9c81614e59565b91506020830135614eac81614e59565b809150509250929050565b600060208284031215614ec957600080fd5b81357fffffffff00000000000000000000000000000000000000000000000000000000811681146109f457600080fd5b600060208284031215614f0b57600080fd5b81356109f481614e59565b60008083601f840112614f2857600080fd5b50813567ffffffffffffffff811115614f4057600080fd5b6020830191508360208260051b8501011115614f5b57600080fd5b9250929050565b600080600080600060808688031215614f7a57600080fd5b853594506020860135935060408601359250606086013567ffffffffffffffff811115614fa657600080fd5b614fb288828901614f16565b969995985093965092949392505050565b60008083601f840112614fd557600080fd5b50813567ffffffffffffffff811115614fed57600080fd5b602083019150836020828501011115614f5b57600080fd5b60008060008060006080868803121561501d57600080fd5b853561502881614e59565b9450602086013561503881614e59565b935060408601359250606086013567ffffffffffffffff81111561505b57600080fd5b614fb288828901614fc3565b81511515815261016081016020830151615085602084018215159052565b506040830151604083015260608301516150ab606084018267ffffffffffffffff169052565b5060808301516150c7608084018267ffffffffffffffff169052565b5060a08301516150e360a084018267ffffffffffffffff169052565b5060c08301516150ff60c084018267ffffffffffffffff169052565b5060e083810151908301526101008084015190830152610120808401519083015261014092830151929091019190915290565b7f4e487b7100000000000000000000000000000000000000000000000000000000600052604160045260246000fd5b604051610140810167ffffffffffffffff8111828210171561518557615185615132565b60405290565b604051601f82017fffffffffffffffffffffffffffffffffffffffffffffffffffffffffffffffe016810167ffffffffffffffff811182821017156151d2576151d2615132565b604052919050565b600067ffffffffffffffff8211156151f4576151f4615132565b50601f017fffffffffffffffffffffffffffffffffffffffffffffffffffffffffffffffe01660200190565b600082601f83011261523157600080fd5b813561524461523f826151da565b61518b565b81815284602083860101111561525957600080fd5b816020850160208301376000918101602001919091529392505050565b6000806040838503121561528957600080fd5b823561529481614e59565b9150602083013567ffffffffffffffff8111156152b057600080fd5b6152bc85828601615220565b9150509250929050565b6000602082840312156152d857600080fd5b813567ffffffffffffffff8111156152ef57600080fd5b614e0d84828501615220565b60005b838110156153165781810151838201526020016152fe565b83811115615325576000848401525b50505050565b600081518084526153438160208601602086016152fb565b601f017fffffffffffffffffffffffffffffffffffffffffffffffffffffffffffffffe0169290920160200192915050565b6020815260006109f4602083018461532b565b8015158114614e7b57600080fd5b6000602082840312156153a857600080fd5b81356109f481615388565b600060208083850312156153c657600080fd5b823567ffffffffffffffff808211156153de57600080fd5b818501915085601f8301126153f257600080fd5b81358181111561540457615404615132565b8060051b61541385820161518b565b918252838101850191858101908984111561542d57600080fd5b86860192505b838310156154695782358581111561544b5760008081fd5b6154598b89838a0101615220565b8352509186019190860190615433565b9998505050505050505050565b6000602080830181845280855180835260408601915060408160051b870101925083870160005b828110156154e9577fffffffffffffffffffffffffffffffffffffffffffffffffffffffffffffffc08886030184526154d785835161532b565b9450928501929085019060010161549d565b5092979650505050505050565b6000806020838503121561550957600080fd5b823567ffffffffffffffff81111561552057600080fd5b61552c85828601614f16565b90969095509350505050565b6000806020838503121561554b57600080fd5b823567ffffffffffffffff81111561556257600080fd5b61552c85828601614fc3565b60006020828403121561558057600080fd5b5035919050565b6000806040838503121561559a57600080fd5b82356155a581614e59565b946020939093013593505050565b6cffffffffffffffffffffffffff81168114614e7b57600080fd5b63ffffffff81168114614e7b57600080fd5b67ffffffffffffffff81168114614e7b57600080fd5b600080600080600080600060e0888a03121561561157600080fd5b873561561c816155b3565b9650602088013561562c816155ce565b9550604088013561563c816155e0565b9450606088013561564c816155e0565b9350608088013561565c816155e0565b925060a088013561566c816155e0565b8092505060c0880135905092959891949750929550565b7f4e487b7100000000000000000000000000000000000000000000000000000000600052601160045260246000fd5b600082198211156156c5576156c5615683565b500190565b6000817fffffffffffffffffffffffffffffffffffffffffffffffffffffffffffffffff048311821515161561570257615702615683565b500290565b60006020828403121561571957600080fd5b5051919050565b60008282101561573257615732615683565b500390565b80516141e581615388565b60006020828403121561575457600080fd5b81516109f481615388565b80516141e581614e59565b60006020828403121561577c57600080fd5b81516109f481614e59565b80516141e5816155e0565b805161ffff811681146141e557600080fd5b600060e082840312156157b657600080fd5b60405160e0810181811067ffffffffffffffff821117156157d9576157d9615132565b806040525080915082516157ec816155b3565b815260208301516157fc816155ce565b6020820152604083015161580f816155e0565b60408201526060830151615822816155e0565b606082015261583360808401615787565b608082015261584460a08401615787565b60a082015260c083015160c08201525092915050565b600061586861523f846151da565b905082815283838301111561587c57600080fd5b6109f48360208301846152fb565b600082601f83011261589b57600080fd5b6109f48383516020850161585a565b6000602082840312156158bc57600080fd5b815167ffffffffffffffff808211156158d457600080fd5b9083019061020082860312156158e957600080fd5b6158f1615161565b6158fa8361575f565b81526159086020840161575f565b60208201526159196040840161575f565b604082015261592a6060840161575f565b606082015261593b60808401615787565b608082015261594c60a08401615792565b60a082015261595d60c08401615737565b60c082015261596f8660e085016157a4565b60e08201526159816101c0840161575f565b6101008201526101e08301518281111561599a57600080fd5b6159a68782860161588a565b6101208301525095945050505050565b7f4e487b7100000000000000000000000000000000000000000000000000000000600052603260045260246000fd5b600083516159f78184602088016152fb565b60609390931b7fffffffffffffffffffffffffffffffffffffffff000000000000000000000000169190920190815260140192915050565b60007fffffffffffffffffffffffffffffffffffffffffffffffffffffffffffffffff8203615a6057615a60615683565b5060010190565b8183823760009101908152919050565b600060208284031215615a8957600080fd5b815167ffffffffffffffff811115615aa057600080fd5b8201601f81018413615ab157600080fd5b614e0d8482516020840161585a565b60007bffffffffffffffffffffffffffffffffffffffffffffffffffffffff808316818516808303821115615af757615af7615683565b01949350505050565b60008251615b128184602087016152fb565b919091019291505056fe416464726573733a206c6f772d6c6576656c2064656c65676174652063616c6c206661696c6564a164736f6c634300080d000a",
  "deployedBytecode": "0x60806040526004361061032d5760003560e01c8063893d20e8116101a5578063bb20d857116100ec578063e58306f911610095578063eb66dbcf1161006f578063eb66dbcf14610d02578063efef39a114610d15578063f2fde38b14610d28578063ffdb716314610d4857610369565b8063e58306f914610cad578063e8a3d48514610ccd578063e985e9c514610ce257610369565b8063d5391393116100c6578063d539139314610c25578063d547741f14610c59578063e26bd34314610c7957610369565b8063bb20d85714610ba3578063c87b56dd14610bc3578063d445b97814610be357610369565b8063a22cb4651161014e578063b0ccc31e11610128578063b0ccc31e14610b36578063b88d4fde14610b63578063b8ae5a2c14610b8357610369565b8063a22cb46514610abc578063ac6be88014610adc578063ac9650d814610b0957610369565b806391d148541161017f57806391d1485414610a3f57806395d89b4114610a92578063a217fddf14610aa757610369565b8063893d20e8146109d65780638a1968de14610a0a5780638da5cb5b14610a2a57610369565b80632f2ff15d1161027457806342966c681161021d5780636352211e116101f75780636352211e146108a257806370319970146108c257806370a08231146108ed57806379502c551461090d57610369565b806342966c68146108045780634ddf47d41461082457806361fea7681461087557610369565b80633bcdcc871161024e5780633bcdcc87146107af57806341e96eb1146107cf57806342842e0e146107e457610369565b80632f2ff15d1461074d5780633474a4a61461076d57806336568abe1461078f57610369565b80631d2c0b38116102d657806324d7806c116102b057806324d7806c146106ed57806325024a2b1461070d5780632f0ae5fa1461072057610369565b80631d2c0b38146105b157806323b872dd1461069d578063248a9ca3146106bd57610369565b8063095ea7b311610307578063095ea7b31461052c57806313af40351461054c57806318160ddd1461056c57610369565b806301ffc9a71461049057806306fdde03146104c5578063081812fc146104e757610369565b366103695760405134815233907f8e47b87b0ef542cdfa1659c551d88bad38aa7f452d2bbb349ab7530dfec8be8f9060200160405180910390a2005b6000610373610d68565b73ffffffffffffffffffffffffffffffffffffffff16639fe7303f60046000357fffffffff00000000000000000000000000000000000000000000000000000000166040518363ffffffff1660e01b81526004016103d2929190614c9b565b602060405180830381865afa1580156103ef573d6000803e3d6000fd5b505050506040513d601f19601f820116820180604052508101906104139190614d20565b1561044657610420610e05565b90503660008037600080366000845af43d6000803e808015610441573d6000f35b3d6000fd5b60003681823733365280816020360183347f27d542086d1e831d40b749e7f5509a626c3047a36d160781c40d5acc83e5b074545af13d82833e80801561048a573d83f35b3d83fd5b005b34801561049c57600080fd5b506104b06104ab366004614d6b565b610f1b565b60405190151581526020015b60405180910390f35b3480156104d157600080fd5b506104da61114c565b6040516104bc9190614dfe565b3480156104f357600080fd5b50610507610502366004614e11565b6111de565b60405173ffffffffffffffffffffffffffffffffffffffff90911681526020016104bc565b34801561053857600080fd5b5061048e610547366004614e4c565b611248565b34801561055857600080fd5b5061048e610567366004614e78565b61132e565b34801561057857600080fd5b50600154600054037fffffffffffffffffffffffffffffffffffffffffffffffffffffffffffffffff015b6040519081526020016104bc565b3480156105bd57600080fd5b50600b54600c54600d54610644926cffffffffffffffffffffffffff8116926d0100000000000000000000000000820463ffffffff16927101000000000000000000000000000000000090920467ffffffffffffffff9081169281831692680100000000000000008104831692700100000000000000000000000000000000909104169087565b604080516cffffffffffffffffffffffffff909816885263ffffffff909616602088015267ffffffffffffffff948516958701959095529183166060860152821660808501521660a083015260c082015260e0016104bc565b3480156106a957600080fd5b5061048e6106b8366004614e95565b6113ba565b3480156106c957600080fd5b506105a36106d8366004614e11565b60009081526008602052604090206001015490565b3480156106f957600080fd5b506104b0610708366004614e78565b6113c5565b6105a361071b366004614f22565b611414565b34801561072c57600080fd5b506010546105079073ffffffffffffffffffffffffffffffffffffffff1681565b34801561075957600080fd5b5061048e610768366004614f83565b6117b2565b34801561077957600080fd5b506107826117d7565b6040516104bc9190614fb3565b34801561079b57600080fd5b5061048e6107aa366004614f83565b611952565b3480156107bb57600080fd5b5061048e6107ca3660046151c2565b611a05565b3480156107db57600080fd5b5061048e611b8b565b3480156107f057600080fd5b5061048e6107ff366004614e95565b611d51565b34801561081057600080fd5b5061048e61081f366004614e11565b611d6c565b34801561083057600080fd5b5061084461083f366004615212565b611d7a565b6040517fffffffff0000000000000000000000000000000000000000000000000000000090911681526020016104bc565b34801561088157600080fd5b506105a3610890366004614e78565b600e6020526000908152604090205481565b3480156108ae57600080fd5b506105076108bd366004614e11565b6123b8565b3480156108ce57600080fd5b5060095473ffffffffffffffffffffffffffffffffffffffff16610507565b3480156108f957600080fd5b506105a3610908366004614e78565b6123ca565b34801561091957600080fd5b50600954600a546109899173ffffffffffffffffffffffffffffffffffffffff8082169274010000000000000000000000000000000000000000830467ffffffffffffffff16927c0100000000000000000000000000000000000000000000000000000000900461ffff16911684565b6040805173ffffffffffffffffffffffffffffffffffffffff958616815267ffffffffffffffff909416602085015261ffff909216918301919091529190911660608201526080016104bc565b3480156109e257600080fd5b507fb56711ba6bd3ded7639fc335ee7524fe668a79d7558c85992e3f8494cf77277754610507565b348015610a1657600080fd5b5061048e610a25366004615247565b61244c565b348015610a3657600080fd5b5061050761278a565b348015610a4b57600080fd5b506104b0610a5a366004614f83565b600091825260086020908152604080842073ffffffffffffffffffffffffffffffffffffffff93909316845291905290205460ff1690565b348015610a9e57600080fd5b506104da6127b4565b348015610ab357600080fd5b506105a3600081565b348015610ac857600080fd5b5061048e610ad7366004615264565b6127c3565b348015610ae857600080fd5b50600f546105079073ffffffffffffffffffffffffffffffffffffffff1681565b348015610b1557600080fd5b50610b29610b243660046152b6565b6128a9565b6040516104bc9190615367565b348015610b4257600080fd5b506011546105079073ffffffffffffffffffffffffffffffffffffffff1681565b348015610b6f57600080fd5b5061048e610b7e3660046153e7565b612960565b348015610b8f57600080fd5b506105a3610b9e366004615453565b6129d7565b348015610baf57600080fd5b506104da610bbe3660046154d7565b612b82565b348015610bcf57600080fd5b506104da610bde366004614e11565b612ca4565b348015610bef57600080fd5b50610c03610bfe366004614e78565b612d9a565b60408051825181526020808401519082015291810151908201526060016104bc565b348015610c3157600080fd5b506105a37ff0887ba65ee2024ea881d91b74c2450ef19e1557f03bed3ea9f16b037cbe2dc981565b348015610c6557600080fd5b5061048e610c74366004614f83565b612e75565b348015610c8557600080fd5b506105a37f5ebbf78043a2215b522b1366a193ec74dd1f54e441e841a87b9653246a9c49a681565b348015610cb957600080fd5b506105a3610cc8366004614e4c565b612e9a565b348015610cd957600080fd5b506104da612ff5565b348015610cee57600080fd5b506104b0610cfd36600461550d565b6130ab565b61048e610d1036600461553b565b613117565b6105a3610d23366004614e11565b6131ed565b348015610d3457600080fd5b5061048e610d43366004614e78565b61350c565b348015610d5457600080fd5b5061048e610d633660046155a6565b61363f565b6000610d927fb4107f746e9496e8452accc7de63d1c5e14c19f510932daa04077cd49e8bd77a5490565b73ffffffffffffffffffffffffffffffffffffffff1663ebac15f96040518163ffffffff1660e01b8152600401602060405180830381865afa158015610ddc573d6000803e3d6000fd5b505050506040513d601f19601f82011682018060405250810190610e009190615659565b905090565b6000610e2f7fb4107f746e9496e8452accc7de63d1c5e14c19f510932daa04077cd49e8bd77a5490565b73ffffffffffffffffffffffffffffffffffffffff16635ab1bd536040518163ffffffff1660e01b8152600401602060405180830381865afa158015610e79573d6000803e3d6000fd5b505050506040513d601f19601f82011682018060405250810190610e9d9190615659565b6040517fcc2913f900000000000000000000000000000000000000000000000000000000815271486f6c6f6772617068526f79616c74696573600482015273ffffffffffffffffffffffffffffffffffffffff919091169063cc2913f990602401602060405180830381865afa158015610ddc573d6000803e3d6000fd5b600080610f26610d68565b7f27d542086d1e831d40b749e7f5509a626c3047a36d160781c40d5acc83e5b074546040517f9fe7303f0000000000000000000000000000000000000000000000000000000081529192509073ffffffffffffffffffffffffffffffffffffffff831690639fe7303f90610fa1906002908890600401614c9b565b602060405180830381865afa158015610fbe573d6000803e3d6000fd5b505050506040513d601f19601f82011682018060405250810190610fe29190614d20565b8061107d57506040517f9fe7303f00000000000000000000000000000000000000000000000000000000815273ffffffffffffffffffffffffffffffffffffffff831690639fe7303f9061103c9060049088908201614c9b565b602060405180830381865afa158015611059573d6000803e3d6000fd5b505050506040513d601f19601f8201168201806040525081019061107d9190614d20565b8061113357506040517f01ffc9a70000000000000000000000000000000000000000000000000000000081527fffffffff000000000000000000000000000000000000000000000000000000008516600482015273ffffffffffffffffffffffffffffffffffffffff8216906301ffc9a790602401602060405180830381865afa15801561110f573d6000803e3d6000fd5b505050506040513d601f19601f820116820180604052508101906111339190614d20565b15611142575060019392505050565b5060009392505050565b60606002805461115b90615676565b80601f016020809104026020016040519081016040528092919081815260200182805461118790615676565b80156111d45780601f106111a9576101008083540402835291602001916111d4565b820191906000526020600020905b8154815290600101906020018083116111b757829003601f168201915b5050505050905090565b60006111e982613847565b61121f576040517fcf4700e400000000000000000000000000000000000000000000000000000000815260040160405180910390fd5b5060009081526006602052604090205473ffffffffffffffffffffffffffffffffffffffff1690565b6000611253826123b8565b90508073ffffffffffffffffffffffffffffffffffffffff168373ffffffffffffffffffffffffffffffffffffffff16036112ba576040517f943f7b8c00000000000000000000000000000000000000000000000000000000815260040160405180910390fd5b3373ffffffffffffffffffffffffffffffffffffffff8216148015906112e757506112e581336130ab565b155b1561131e576040517fcfb3b94200000000000000000000000000000000000000000000000000000000815260040160405180910390fd5b611329838383613899565b505050565b3360009081527f5eff886ea0ce6ca488a3d6e336d6c0f75f46d19b42c06ce5ee98e42c96d256c7602052604090205460ff16611396576040517f02bd6bd100000000000000000000000000000000000000000000000000000000815260040160405180910390fd5b7fb56711ba6bd3ded7639fc335ee7524fe668a79d7558c85992e3f8494cf77277755565b61132983838361391a565b73ffffffffffffffffffffffffffffffffffffffff811660009081527f5eff886ea0ce6ca488a3d6e336d6c0f75f46d19b42c06ce5ee98e42c96d256c7602052604081205460ff165b92915050565b600061143e7f04b524dd539523930d3901481aa9455d7752b49add99e1647adb8b09a31372795490565b6002036114ac576040517f08c379a000000000000000000000000000000000000000000000000000000000815260206004820152601960248201527f484f4c4f47524150483a207265656e7472616e742063616c6c0000000000000060448201526064015b60405180910390fd5b6114d560027f04b524dd539523930d3901481aa9455d7752b49add99e1647adb8b09a313727955565b600954869074010000000000000000000000000000000000000000900467ffffffffffffffff166115276000547fffffffffffffffffffffffffffffffffffffffffffffffffffffffffffffffff0190565b61153190836156f2565b1115611569576040517f717c513000000000000000000000000000000000000000000000000000000000815260040160405180910390fd5b611571613c51565b6115a7576040517f95ed3c1a00000000000000000000000000000000000000000000000000000000815260040160405180910390fd5b61161884848080602002602001604051908101604052809392919081815260200183836020028082843760009201919091525050600d54604080513360208201529081018c9052606081018b9052909250608001905060405160208183030381529060405280519060200120613ca0565b61164e576040517f85b70e5200000000000000000000000000000000000000000000000000000000815260040160405180910390fd5b611658878661570a565b341461169d57611668878661570a565b6040517f6a1c179e0000000000000000000000000000000000000000000000000000000081526004016114a391815260200190565b336000908152600e6020526040812080548992906116bc9084906156f2565b9091555050336000908152600e602052604090205486101561170a576040517fa7b32bb100000000000000000000000000000000000000000000000000000000815260040160405180910390fd5b6117143388613cb6565b60008761171f613cee565b6117299190615747565b905085883373ffffffffffffffffffffffffffffffffffffffff167f4e26b0356a15833a75d497ecc40ebbb716b99466ed0dba9454f1fff451e25a908460405161177591815260200190565b60405180910390a49150506117a960017f04b524dd539523930d3901481aa9455d7752b49add99e1647adb8b09a313727955565b95945050505050565b6000828152600860205260409020600101546117cd81613cff565b6113298383613d09565b6040805161016081018252600080825260208201819052918101829052606081018290526080810182905260a0810182905260c0810182905260e0810182905261010081018290526101208101829052610140810191909152604051806101600160405280611844613dc6565b15158152602001611853613c51565b15158152600b546cffffffffffffffffffffffffff8116602083015267ffffffffffffffff71010000000000000000000000000000000000820481166040840152600c5480821660608501526801000000000000000081048216608085015270010000000000000000000000000000000090041660a0830152600d5460c083015263ffffffff6d01000000000000000000000000009091041660e0820152610100016119206000547fffffffffffffffffffffffffffffffffffffffffffffffffffffffffffffffff0190565b815260095474010000000000000000000000000000000000000000900467ffffffffffffffff16602090910152919050565b73ffffffffffffffffffffffffffffffffffffffff811633146119f7576040517f08c379a000000000000000000000000000000000000000000000000000000000815260206004820152602f60248201527f416363657373436f6e74726f6c3a2063616e206f6e6c792072656e6f756e636560448201527f20726f6c657320666f722073656c66000000000000000000000000000000000060648201526084016114a3565b611a018282613e0b565b5050565b3360009081527f5eff886ea0ce6ca488a3d6e336d6c0f75f46d19b42c06ce5ee98e42c96d256c7602052604090205460ff16611a6d576040517f02bd6bd100000000000000000000000000000000000000000000000000000000815260040160405180910390fd5b600980547fffffffffffffffffffffffff00000000000000000000000000000000000000001673ffffffffffffffffffffffffffffffffffffffff8416179055805115611b39576040517f856a7ffa00000000000000000000000000000000000000000000000000000000815273ffffffffffffffffffffffffffffffffffffffff83169063856a7ffa90611b06908490600401614dfe565b600060405180830381600087803b158015611b2057600080fd5b505af1158015611b34573d6000803e3d6000fd5b505050505b6040805133815273ffffffffffffffffffffffffffffffffffffffff841660208201527f046c5d913c35948c3e0e44c3599eb14bf33b73f141fa8bb282b300414998b868910160405180910390a15050565b3360009081527f5eff886ea0ce6ca488a3d6e336d6c0f75f46d19b42c06ce5ee98e42c96d256c760205260409020547f5ebbf78043a2215b522b1366a193ec74dd1f54e441e841a87b9653246a9c49a69060ff16158015611c065750600081815260086020908152604080832033845290915290205460ff16155b15611c40576040517fcee8157c000000000000000000000000000000000000000000000000000000008152600481018290526024016114a3565b60095474010000000000000000000000000000000000000000900467ffffffffffffffff90811614611c9e576040517fe742c08400000000000000000000000000000000000000000000000000000000815260040160405180910390fd5b6000547fffffffffffffffffffffffffffffffffffffffffffffffffffffffffffffffff01600980547fffffffff0000000000000000ffffffffffffffffffffffffffffffffffffffff167401000000000000000000000000000000000000000067ffffffffffffffff938416810291909117918290556040519104909116815233907fb6cc1e876b8d7479c8afe025a58658b0f3c3ec5bd0f28cb4261326b162069bf89060200160405180910390a250565b61132983838360405180602001604052806000815250612960565b611d77816001613ec6565b50565b6000611da47f4e5f991bca30eca2d4643aaefa807e88f96a4a97398933d572a3c0d973004a015490565b15611e0b576040517f08c379a000000000000000000000000000000000000000000000000000000000815260206004820152601e60248201527f484f4c4f47524150483a20616c726561647920696e697469616c697a6564000060448201526064016114a3565b60008083806020019051810190611e22919061584b565b602080830151600f805473ffffffffffffffffffffffffffffffffffffffff9283167fffffffffffffffffffffffff00000000000000000000000000000000000000009182161790915560408501516010805491909316911617905560608301518051939550919350611e9b9260029290910190614c02565b5060808201518051611eb591600391602090910190614c02565b506001600090815560a0830151611ecc91906141b6565b60a08201517fb56711ba6bd3ded7639fc335ee7524fe668a79d7558c85992e3f8494cf7727778190557f27d542086d1e831d40b749e7f5509a626c3047a36d160781c40d5acc83e5b074546101208401515115611f4857611f2e6000336141b6565b611f3c8461012001516128a9565b50611f48600033613e0b565b611f7160017f04b524dd539523930d3901481aa9455d7752b49add99e1647adb8b09a313727955565b826121f557604080516020810182526000815290517f4ddf47d4000000000000000000000000000000000000000000000000000000008082529173ffffffffffffffffffffffffffffffffffffffff841691634ddf47d491611fd591600401614dfe565b6020604051808303816000875af1158015611ff4573d6000803e3d6000fd5b505050506040513d601f19601f8201168201806040525081019061201891906159c6565b7fffffffff0000000000000000000000000000000000000000000000000000000016146120a1576040517f08c379a000000000000000000000000000000000000000000000000000000000815260206004820152601c60248201527f44524f50533a20636f756c64206e6f7420696e697420736f757263650000000060448201526064016114a3565b6120a9610e05565b73ffffffffffffffffffffffffffffffffffffffff16631aff107760e01b85610100015161ffff1660006040516020016120ed929190918252602082015260400190565b604080517fffffffffffffffffffffffffffffffffffffffffffffffffffffffffffffffe08184030181529082905261212891602401614dfe565b604080517fffffffffffffffffffffffffffffffffffffffffffffffffffffffffffffffe08184030181529181526020820180517bffffffffffffffffffffffffffffffffffffffffffffffffffffffff167fffffffff000000000000000000000000000000000000000000000000000000009094169390931790925290516121b191906159e3565b600060405180830381855af49150503d80600081146121ec576040519150601f19603f3d011682016040523d82523d6000602084013e6121f1565b606091505b5050505b6101008401516009805460c0870151600a805473ffffffffffffffffffffffffffffffffffffffff9283167fffffffffffffffffffffffff00000000000000000000000000000000000000009182161790915560e08901516101408a015190921667ffffffffffffffff90921674010000000000000000000000000000000000000000027fffffffff0000000000000000ffffffffffffffffffffffffffffffffffffffff61ffff9096167c010000000000000000000000000000000000000000000000000000000002959095167fffff00000000000000000000ffffffffffffffffffffffffffffffffffffffff909316929092179390931716821790556101608501516040517f856a7ffa00000000000000000000000000000000000000000000000000000000815263856a7ffa9161233291600401614dfe565b600060405180830381600087803b15801561234c57600080fd5b505af1158015612360573d6000803e3d6000fd5b5050505061238d60017f4e5f991bca30eca2d4643aaefa807e88f96a4a97398933d572a3c0d973004a0155565b507f4ddf47d40000000000000000000000000000000000000000000000000000000095945050505050565b60006123c3826141c0565b5192915050565b600073ffffffffffffffffffffffffffffffffffffffff8216612419576040517f8f4eb60400000000000000000000000000000000000000000000000000000000815260040160405180910390fd5b5073ffffffffffffffffffffffffffffffffffffffff1660009081526005602052604090205467ffffffffffffffff1690565b3360009081527f5eff886ea0ce6ca488a3d6e336d6c0f75f46d19b42c06ce5ee98e42c96d256c7602052604090205460ff166124b4576040517f02bd6bd100000000000000000000000000000000000000000000000000000000815260040160405180910390fd5b601054309073ffffffffffffffffffffffffffffffffffffffff16612505576040517f707ff7e900000000000000000000000000000000000000000000000000000000815260040160405180910390fd5b6011546040517fc3c5a54700000000000000000000000000000000000000000000000000000000815273ffffffffffffffffffffffffffffffffffffffff83811660048301529091169063c3c5a547906024016020604051808303816000875af1158015612577573d6000803e3d6000fd5b505050506040513d601f19601f8201168201806040525081019061259b9190614d20565b1580156125a55750815b1561263e576011546010546040517f7d3e3dbe00000000000000000000000000000000000000000000000000000000815273ffffffffffffffffffffffffffffffffffffffff84811660048301529182166024820152911690637d3e3dbe906044015b600060405180830381600087803b15801561262257600080fd5b505af1158015612636573d6000803e3d6000fd5b505050505050565b81156126a6576011546010546040517fb314d41400000000000000000000000000000000000000000000000000000000815273ffffffffffffffffffffffffffffffffffffffff8481166004830152918216602482015291169063b314d41490604401612608565b6011546040517f34a0dc1000000000000000000000000000000000000000000000000000000000815273ffffffffffffffffffffffffffffffffffffffff838116600483015260006024830152909116906334a0dc1090604401600060405180830381600087803b15801561271a57600080fd5b505af115801561272e573d6000803e3d6000fd5b50506011546040517f2ec2c24600000000000000000000000000000000000000000000000000000000815273ffffffffffffffffffffffffffffffffffffffff85811660048301529091169250632ec2c2469150602401612608565b6000610e007fb56711ba6bd3ded7639fc335ee7524fe668a79d7558c85992e3f8494cf7727775490565b60606003805461115b90615676565b3373ffffffffffffffffffffffffffffffffffffffff831603612812576040517fb06307db00000000000000000000000000000000000000000000000000000000815260040160405180910390fd5b33600081815260076020908152604080832073ffffffffffffffffffffffffffffffffffffffff87168085529083529281902080547fffffffffffffffffffffffffffffffffffffffffffffffffffffffffffffff001686151590811790915590519081529192917f17307eab39ab6107e8899845ad3d59bd9653f200f220920489ca2b5937696c31910160405180910390a35050565b6060815167ffffffffffffffff8111156128c5576128c561507e565b6040519080825280602002602001820160405280156128f857816020015b60608152602001906001900390816128e35790505b50905060005b825181101561295a5761292a3084838151811061291d5761291d6159ff565b602002602001015161439b565b82828151811061293c5761293c6159ff565b6020026020010181905250808061295290615a2e565b9150506128fe565b50919050565b61296b84848461391a565b73ffffffffffffffffffffffffffffffffffffffff83163b1515801561299a5750612998848484846143c0565b155b156129d1576040517fd1a57ed600000000000000000000000000000000000000000000000000000000815260040160405180910390fd5b50505050565b3360009081527f5eff886ea0ce6ca488a3d6e336d6c0f75f46d19b42c06ce5ee98e42c96d256c760205260408120547ff0887ba65ee2024ea881d91b74c2450ef19e1557f03bed3ea9f16b037cbe2dc99060ff16158015612a525750600081815260086020908152604080832033845290915290205460ff16155b15612a8c576040517fcee8157c000000000000000000000000000000000000000000000000000000008152600481018290526024016114a3565b600954839074010000000000000000000000000000000000000000900467ffffffffffffffff16612ade6000547fffffffffffffffffffffffffffffffffffffffffffffffffffffffffffffffff0190565b612ae890836156f2565b1115612b20576040517f717c513000000000000000000000000000000000000000000000000000000000815260040160405180910390fd5b600054808581015b80831015612b6e57612b638888848603818110612b4757612b476159ff565b9050602002016020810190612b5c9190614e78565b6001613cb6565b600190920191612b28565b50612b77613cee565b979650505050505050565b3360009081527f5eff886ea0ce6ca488a3d6e336d6c0f75f46d19b42c06ce5ee98e42c96d256c7602052604090205460609060ff16612bed576040517f02bd6bd100000000000000000000000000000000000000000000000000000000815260040160405180910390fd5b601154604051600091829173ffffffffffffffffffffffffffffffffffffffff90911690612c1e9087908790615a66565b6000604051808303816000865af19150503d8060008114612c5b576040519150601f19603f3d011682016040523d82523d6000602084013e612c60565b606091505b509150915081612c9c576040517f25f3885400000000000000000000000000000000000000000000000000000000815260040160405180910390fd5b949350505050565b6060612caf82613847565b612ce5576040517fa14c4b5000000000000000000000000000000000000000000000000000000000815260040160405180910390fd5b6009546040517fc87b56dd0000000000000000000000000000000000000000000000000000000081526004810184905273ffffffffffffffffffffffffffffffffffffffff9091169063c87b56dd90602401600060405180830381865afa158015612d54573d6000803e3d6000fd5b505050506040513d6000823e601f3d9081017fffffffffffffffffffffffffffffffffffffffffffffffffffffffffffffffe016820160405261140e9190810190615a76565b612dbe60405180606001604052806000815260200160008152602001600081525090565b6040518060600160405280612e0c8473ffffffffffffffffffffffffffffffffffffffff1660009081526005602052604090205467ffffffffffffffff680100000000000000009091041690565b815273ffffffffffffffffffffffffffffffffffffffff84166000818152600e60209081526040808320548286018190529383526005909152908190205492019168010000000000000000900467ffffffffffffffff16612e6d9190615747565b905292915050565b600082815260086020526040902060010154612e9081613cff565b6113298383613e0b565b3360009081527f5eff886ea0ce6ca488a3d6e336d6c0f75f46d19b42c06ce5ee98e42c96d256c760205260408120547ff0887ba65ee2024ea881d91b74c2450ef19e1557f03bed3ea9f16b037cbe2dc99060ff16158015612f155750600081815260086020908152604080832033845290915290205460ff16155b15612f4f576040517fcee8157c000000000000000000000000000000000000000000000000000000008152600481018290526024016114a3565b600954839074010000000000000000000000000000000000000000900467ffffffffffffffff16612fa16000547fffffffffffffffffffffffffffffffffffffffffffffffffffffffffffffffff0190565b612fab90836156f2565b1115612fe3576040517f717c513000000000000000000000000000000000000000000000000000000000815260040160405180910390fd5b612fed8585613cb6565b6117a9613cee565b600954604080517fe8a3d485000000000000000000000000000000000000000000000000000000008152905160609273ffffffffffffffffffffffffffffffffffffffff169163e8a3d4859160048083019260009291908290030181865afa158015613065573d6000803e3d6000fd5b505050506040513d6000823e601f3d9081017fffffffffffffffffffffffffffffffffffffffffffffffffffffffffffffffe0168201604052610e009190810190615a76565b600f5460009073ffffffffffffffffffffffffffffffffffffffff908116908316036130d95750600161140e565b73ffffffffffffffffffffffffffffffffffffffff80841660009081526007602090815260408083209386168352929052205460ff165b9392505050565b7fb56711ba6bd3ded7639fc335ee7524fe668a79d7558c85992e3f8494cf7727775473ffffffffffffffffffffffffffffffffffffffff163373ffffffffffffffffffffffffffffffffffffffff16146131cd576040517f08c379a000000000000000000000000000000000000000000000000000000000815260206004820152601e60248201527f484f4c4f47524150483a206f776e6572206f6e6c792066756e6374696f6e000060448201526064016114a3565b808260003760008082600034875af13d6000803e808015610441573d6000f35b60006132177f04b524dd539523930d3901481aa9455d7752b49add99e1647adb8b09a31372795490565b600203613280576040517f08c379a000000000000000000000000000000000000000000000000000000000815260206004820152601960248201527f484f4c4f47524150483a207265656e7472616e742063616c6c0000000000000060448201526064016114a3565b6132a960027f04b524dd539523930d3901481aa9455d7752b49add99e1647adb8b09a313727955565b600954829074010000000000000000000000000000000000000000900467ffffffffffffffff166132fb6000547fffffffffffffffffffffffffffffffffffffffffffffffffffffffffffffffff0190565b61330590836156f2565b111561333d576040517f717c513000000000000000000000000000000000000000000000000000000000815260040160405180910390fd5b613345613dc6565b61337b576040517ff12dcc7f00000000000000000000000000000000000000000000000000000000815260040160405180910390fd5b600b546cffffffffffffffffffffffffff16613397848261570a565b34146133a757611668848261570a565b600b546d0100000000000000000000000000900463ffffffff16158015906134305750600b54336000908152600e60209081526040808320546005909252909120546d010000000000000000000000000090920463ffffffff1691869068010000000000000000900467ffffffffffffffff1661342491906156f2565b61342e9190615747565b115b15613467576040517f220ae94c00000000000000000000000000000000000000000000000000000000815260040160405180910390fd5b6134713385613cb6565b60008461347c613cee565b6134869190615747565b905081853373ffffffffffffffffffffffffffffffffffffffff167f4e26b0356a15833a75d497ecc40ebbb716b99466ed0dba9454f1fff451e25a90846040516134d291815260200190565b60405180910390a49250505061350760017f04b524dd539523930d3901481aa9455d7752b49add99e1647adb8b09a313727955565b919050565b7fb56711ba6bd3ded7639fc335ee7524fe668a79d7558c85992e3f8494cf7727775473ffffffffffffffffffffffffffffffffffffffff163373ffffffffffffffffffffffffffffffffffffffff16146135c2576040517f08c379a000000000000000000000000000000000000000000000000000000000815260206004820152601e60248201527f484f4c4f47524150483a206f776e6572206f6e6c792066756e6374696f6e000060448201526064016114a3565b73ffffffffffffffffffffffffffffffffffffffff8116611396576040517f08c379a000000000000000000000000000000000000000000000000000000000815260206004820152601760248201527f484f4c4f47524150483a207a65726f206164647265737300000000000000000060448201526064016114a3565b3360009081527f5eff886ea0ce6ca488a3d6e336d6c0f75f46d19b42c06ce5ee98e42c96d256c760205260409020547f5ebbf78043a2215b522b1366a193ec74dd1f54e441e841a87b9653246a9c49a69060ff161580156136ba5750600081815260086020908152604080832033845290915290205460ff16155b156136f4576040517fcee8157c000000000000000000000000000000000000000000000000000000008152600481018290526024016114a3565b600b80546cffffffffffffffffffffffffff8a167fffffffffffffffffffffffffffffff0000000000000000000000000000000000909116176d010000000000000000000000000063ffffffff8a1602177fffffffffffffff0000000000000000ffffffffffffffffffffffffffffffffff167101000000000000000000000000000000000067ffffffffffffffff8981169190910291909117909155600c80548783167fffffffffffffffffffffffffffffffff00000000000000000000000000000000909116176801000000000000000087841602177fffffffffffffffff0000000000000000ffffffffffffffffffffffffffffffff1670010000000000000000000000000000000092861692909202919091179055600d82905560405133907fc1ff5e4744ac8dd2b8027a10e3723b165975297501c71c4e7dcb8796d96375db90600090a25050505050505050565b60008160011115801561385b575060005482105b801561140e5750506000908152600460205260409020547c0100000000000000000000000000000000000000000000000000000000900460ff161590565b60008281526006602052604080822080547fffffffffffffffffffffffff00000000000000000000000000000000000000001673ffffffffffffffffffffffffffffffffffffffff87811691821790925591518593918516917f8c5be1e5ebec7d5bd14f71427d1e84f3dd0314c0f7b2291e5b200ac8c7c3b92591a4505050565b6000613925826141c0565b90508373ffffffffffffffffffffffffffffffffffffffff16816000015173ffffffffffffffffffffffffffffffffffffffff1614613990576040517fa114810000000000000000000000000000000000000000000000000000000000815260040160405180910390fd5b60003373ffffffffffffffffffffffffffffffffffffffff861614806139bb57506139bb85336130ab565b806139e35750336139cb846111de565b73ffffffffffffffffffffffffffffffffffffffff16145b905080613a1c576040517f59c896be00000000000000000000000000000000000000000000000000000000815260040160405180910390fd5b73ffffffffffffffffffffffffffffffffffffffff8416613a69576040517fea553b3400000000000000000000000000000000000000000000000000000000815260040160405180910390fd5b613a7560008487613899565b73ffffffffffffffffffffffffffffffffffffffff858116600090815260056020908152604080832080547fffffffffffffffffffffffffffffffffffffffffffffffff000000000000000080821667ffffffffffffffff9283167fffffffffffffffffffffffffffffffffffffffffffffffffffffffffffffffff01831617909255898616808652838620805493841693831660019081018416949094179055898652600490945282852080547fffffffff00000000000000000000000000000000000000000000000000000000169094177401000000000000000000000000000000000000000042909216919091021783558701808452922080549193909116613bec576000548214613bec578054602086015167ffffffffffffffff1674010000000000000000000000000000000000000000027fffffffff0000000000000000000000000000000000000000000000000000000090911673ffffffffffffffffffffffffffffffffffffffff8a16171781555b505050828473ffffffffffffffffffffffffffffffffffffffff168673ffffffffffffffffffffffffffffffffffffffff167fddf252ad1be2c89b69c2b068fc378daa952ba7f163c4a11628f55a4df523b3ef60405160405180910390a45050505050565b600c54600090426801000000000000000090910467ffffffffffffffff1611801590610e00575050600c544270010000000000000000000000000000000090910467ffffffffffffffff161190565b600082613cad8584614539565b14949350505050565b600060088211613cc65781613cc9565b60085b9050613cd583826145ad565b613cdf8183615747565b91505060008111613cb6575050565b60006001600054610e009190615747565b611d778133614789565b600082815260086020908152604080832073ffffffffffffffffffffffffffffffffffffffff8516845290915290205460ff16611a0157600082815260086020908152604080832073ffffffffffffffffffffffffffffffffffffffff8516808552925280832080547fffffffffffffffffffffffffffffffffffffffffffffffffffffffffffffff0016600117905551339285917f2f8788117e7eff1d82e926ec794901d17c78024a50270940304540a733656f0d9190a45050565b600b54600090427101000000000000000000000000000000000090910467ffffffffffffffff1611801590610e00575050600c544267ffffffffffffffff9091161190565b600082815260086020908152604080832073ffffffffffffffffffffffffffffffffffffffff8516845290915290205460ff1615611a0157600082815260086020908152604080832073ffffffffffffffffffffffffffffffffffffffff8516808552925280832080547fffffffffffffffffffffffffffffffffffffffffffffffffffffffffffffff0016905551339285917ff6391f5c32d9c69d2a47ea670b442974b53935d1edc7fd64eb21e047a839171b9190a45050565b6000613ed1836141c0565b80519091508215613f6a5760003373ffffffffffffffffffffffffffffffffffffffff83161480613f075750613f0782336130ab565b80613f2f575033613f17866111de565b73ffffffffffffffffffffffffffffffffffffffff16145b905080613f68576040517f59c896be00000000000000000000000000000000000000000000000000000000815260040160405180910390fd5b505b613f7660008583613899565b73ffffffffffffffffffffffffffffffffffffffff808216600081815260056020908152604080832080547001000000000000000000000000000000007fffffffffffffffffffffffffffffffffffffffffffffffffffffffffffffffff67ffffffffffffffff8084169190910181167fffffffffffffffffffffffffffffffffffffffffffffffff0000000000000000841681178390048216600190810183169093027fffffffffffffffff0000000000000000ffffffffffffffff0000000000000000909416179290921783558b8652600490945282852080547fffffff00ffffffffffffffffffffffffffffffffffffffffffffffffffffffff4290931674010000000000000000000000000000000000000000027fffffffff0000000000000000000000000000000000000000000000000000000090911690971796909617167c010000000000000000000000000000000000000000000000000000000017855591890180845292208054919490911661415f57600054821461415f578054602087015167ffffffffffffffff1674010000000000000000000000000000000000000000027fffffffff0000000000000000000000000000000000000000000000000000000090911673ffffffffffffffffffffffffffffffffffffffff8716171781555b50506040518692506000915073ffffffffffffffffffffffffffffffffffffffff8416907fddf252ad1be2c89b69c2b068fc378daa952ba7f163c4a11628f55a4df523b3ef908390a4505060018054810190555050565b611a018282613d09565b604080516060810182526000808252602082018190529181019190915281806001111580156141f0575060005481105b15614369576000818152600460209081526040918290208251606081018452905473ffffffffffffffffffffffffffffffffffffffff8116825274010000000000000000000000000000000000000000810467ffffffffffffffff16928201929092527c010000000000000000000000000000000000000000000000000000000090910460ff1615159181018290529061436757805173ffffffffffffffffffffffffffffffffffffffff16156142a8579392505050565b507fffffffffffffffffffffffffffffffffffffffffffffffffffffffffffffffff016000818152600460209081526040918290208251606081018452905473ffffffffffffffffffffffffffffffffffffffff811680835274010000000000000000000000000000000000000000820467ffffffffffffffff16938301939093527c0100000000000000000000000000000000000000000000000000000000900460ff1615159281019290925215614362579392505050565b6142a8565b505b6040517fdf2d9b4200000000000000000000000000000000000000000000000000000000815260040160405180910390fd5b60606131108383604051806060016040528060278152602001615ba16027913961485b565b6040517f150b7a0200000000000000000000000000000000000000000000000000000000815260009073ffffffffffffffffffffffffffffffffffffffff85169063150b7a029061441b903390899088908890600401615aab565b6020604051808303816000875af1925050508015614474575060408051601f3d9081017fffffffffffffffffffffffffffffffffffffffffffffffffffffffffffffffe0168201909252614471918101906159c6565b60015b6144eb573d8080156144a2576040519150601f19603f3d011682016040523d82523d6000602084013e6144a7565b606091505b5080516000036144e3576040517fd1a57ed600000000000000000000000000000000000000000000000000000000815260040160405180910390fd5b805181602001fd5b7fffffffff00000000000000000000000000000000000000000000000000000000167f150b7a0200000000000000000000000000000000000000000000000000000000149050949350505050565b600081815b84518110156145a557600085828151811061455b5761455b6159ff565b602002602001015190508083116145815760008381526020829052604090209250614592565b600081815260208490526040902092505b508061459d81615a2e565b91505061453e565b509392505050565b60005473ffffffffffffffffffffffffffffffffffffffff83166145fd576040517f2e07630000000000000000000000000000000000000000000000000000000000815260040160405180910390fd5b81600003614637576040517fb562e8dd00000000000000000000000000000000000000000000000000000000815260040160405180910390fd5b73ffffffffffffffffffffffffffffffffffffffff8316600081815260056020908152604080832080547fffffffffffffffffffffffffffffffff00000000000000000000000000000000811667ffffffffffffffff8083168a018116918217680100000000000000007fffffffffffffffffffffffffffffffffffffffffffffffff000000000000000090941690921783900481168a01811690920217909155858452600490925290912080547fffffffff0000000000000000000000000000000000000000000000000000000016909217740100000000000000000000000000000000000000004290921691909102179055808083015b60405160018301929073ffffffffffffffffffffffffffffffffffffffff8716906000907fddf252ad1be2c89b69c2b068fc378daa952ba7f163c4a11628f55a4df523b3ef908290a48082036147305750600055505050565b600082815260086020908152604080832073ffffffffffffffffffffffffffffffffffffffff8516845290915290205460ff16611a01576147e18173ffffffffffffffffffffffffffffffffffffffff1660146148e0565b6147ec8360206148e0565b6040516020016147fd929190615aea565b604080517fffffffffffffffffffffffffffffffffffffffffffffffffffffffffffffffe0818403018152908290527f08c379a00000000000000000000000000000000000000000000000000000000082526114a391600401614dfe565b60606000808573ffffffffffffffffffffffffffffffffffffffff168560405161488591906159e3565b600060405180830381855af49150503d80600081146148c0576040519150601f19603f3d011682016040523d82523d6000602084013e6148c5565b606091505b50915091506148d686838387614b23565b9695505050505050565b606060006148ef83600261570a565b6148fa9060026156f2565b67ffffffffffffffff8111156149125761491261507e565b6040519080825280601f01601f19166020018201604052801561493c576020820181803683370190505b5090507f300000000000000000000000000000000000000000000000000000000000000081600081518110614973576149736159ff565b60200101907effffffffffffffffffffffffffffffffffffffffffffffffffffffffffffff1916908160001a9053507f7800000000000000000000000000000000000000000000000000000000000000816001815181106149d6576149d66159ff565b60200101907effffffffffffffffffffffffffffffffffffffffffffffffffffffffffffff1916908160001a9053506000614a1284600261570a565b614a1d9060016156f2565b90505b6001811115614aba577f303132333435363738396162636465660000000000000000000000000000000085600f1660108110614a5e57614a5e6159ff565b1a60f81b828281518110614a7457614a746159ff565b60200101907effffffffffffffffffffffffffffffffffffffffffffffffffffffffffffff1916908160001a90535060049490941c93614ab381615b6b565b9050614a20565b508315613110576040517f08c379a000000000000000000000000000000000000000000000000000000000815260206004820181905260248201527f537472696e67733a20686578206c656e67746820696e73756666696369656e7460448201526064016114a3565b60608315614bb9578251600003614bb25773ffffffffffffffffffffffffffffffffffffffff85163b614bb2576040517f08c379a000000000000000000000000000000000000000000000000000000000815260206004820152601d60248201527f416464726573733a2063616c6c20746f206e6f6e2d636f6e747261637400000060448201526064016114a3565b5081612c9c565b612c9c8383815115614bce5781518083602001fd5b806040517f08c379a00000000000000000000000000000000000000000000000000000000081526004016114a39190614dfe565b828054614c0e90615676565b90600052602060002090601f016020900481019282614c305760008555614c76565b82601f10614c4957805160ff1916838001178555614c76565b82800160010185558215614c76579182015b82811115614c76578251825591602001919060010190614c5b565b50614c82929150614c86565b5090565b5b80821115614c825760008155600101614c87565b6040810160068410614cd6577f4e487b7100000000000000000000000000000000000000000000000000000000600052602160045260246000fd5b9281527fffffffff000000000000000000000000000000000000000000000000000000009190911660209091015290565b8015158114611d7757600080fd5b805161350781614d07565b600060208284031215614d3257600080fd5b815161311081614d07565b7fffffffff0000000000000000000000000000000000000000000000000000000081168114611d7757600080fd5b600060208284031215614d7d57600080fd5b813561311081614d3d565b60005b83811015614da3578181015183820152602001614d8b565b838111156129d15750506000910152565b60008151808452614dcc816020860160208601614d88565b601f017fffffffffffffffffffffffffffffffffffffffffffffffffffffffffffffffe0169290920160200192915050565b6020815260006131106020830184614db4565b600060208284031215614e2357600080fd5b5035919050565b73ffffffffffffffffffffffffffffffffffffffff81168114611d7757600080fd5b60008060408385031215614e5f57600080fd5b8235614e6a81614e2a565b946020939093013593505050565b600060208284031215614e8a57600080fd5b813561311081614e2a565b600080600060608486031215614eaa57600080fd5b8335614eb581614e2a565b92506020840135614ec581614e2a565b929592945050506040919091013590565b60008083601f840112614ee857600080fd5b50813567ffffffffffffffff811115614f0057600080fd5b6020830191508360208260051b8501011115614f1b57600080fd5b9250929050565b600080600080600060808688031215614f3a57600080fd5b853594506020860135935060408601359250606086013567ffffffffffffffff811115614f6657600080fd5b614f7288828901614ed6565b969995985093965092949392505050565b60008060408385031215614f9657600080fd5b823591506020830135614fa881614e2a565b809150509250929050565b81511515815261016081016020830151614fd1602084018215159052565b50604083015160408301526060830151614ff7606084018267ffffffffffffffff169052565b506080830151615013608084018267ffffffffffffffff169052565b5060a083015161502f60a084018267ffffffffffffffff169052565b5060c083015161504b60c084018267ffffffffffffffff169052565b5060e083810151908301526101008084015190830152610120808401519083015261014092830151929091019190915290565b7f4e487b7100000000000000000000000000000000000000000000000000000000600052604160045260246000fd5b604051610180810167ffffffffffffffff811182821017156150d1576150d161507e565b60405290565b604051601f82017fffffffffffffffffffffffffffffffffffffffffffffffffffffffffffffffe016810167ffffffffffffffff8111828210171561511e5761511e61507e565b604052919050565b600067ffffffffffffffff8211156151405761514061507e565b50601f017fffffffffffffffffffffffffffffffffffffffffffffffffffffffffffffffe01660200190565b600082601f83011261517d57600080fd5b813561519061518b82615126565b6150d7565b8181528460208386010111156151a557600080fd5b816020850160208301376000918101602001919091529392505050565b600080604083850312156151d557600080fd5b82356151e081614e2a565b9150602083013567ffffffffffffffff8111156151fc57600080fd5b6152088582860161516c565b9150509250929050565b60006020828403121561522457600080fd5b813567ffffffffffffffff81111561523b57600080fd5b612c9c8482850161516c565b60006020828403121561525957600080fd5b813561311081614d07565b6000806040838503121561527757600080fd5b823561528281614e2a565b91506020830135614fa881614d07565b600067ffffffffffffffff8211156152ac576152ac61507e565b5060051b60200190565b600060208083850312156152c957600080fd5b823567ffffffffffffffff808211156152e157600080fd5b818501915085601f8301126152f557600080fd5b813561530361518b82615292565b81815260059190911b8301840190848101908883111561532257600080fd5b8585015b8381101561535a5780358581111561533e5760008081fd5b61534c8b89838a010161516c565b845250918601918601615326565b5098975050505050505050565b6000602080830181845280855180835260408601915060408160051b870101925083870160005b828110156153da577fffffffffffffffffffffffffffffffffffffffffffffffffffffffffffffffc08886030184526153c8858351614db4565b9450928501929085019060010161538e565b5092979650505050505050565b600080600080608085870312156153fd57600080fd5b843561540881614e2a565b9350602085013561541881614e2a565b925060408501359150606085013567ffffffffffffffff81111561543b57600080fd5b6154478782880161516c565b91505092959194509250565b6000806020838503121561546657600080fd5b823567ffffffffffffffff81111561547d57600080fd5b61548985828601614ed6565b90969095509350505050565b60008083601f8401126154a757600080fd5b50813567ffffffffffffffff8111156154bf57600080fd5b602083019150836020828501011115614f1b57600080fd5b600080602083850312156154ea57600080fd5b823567ffffffffffffffff81111561550157600080fd5b61548985828601615495565b6000806040838503121561552057600080fd5b823561552b81614e2a565b91506020830135614fa881614e2a565b60008060006040848603121561555057600080fd5b833561555b81614e2a565b9250602084013567ffffffffffffffff81111561557757600080fd5b61558386828701615495565b9497909650939450505050565b67ffffffffffffffff81168114611d7757600080fd5b600080600080600080600060e0888a0312156155c157600080fd5b87356cffffffffffffffffffffffffff811681146155de57600080fd5b9650602088013563ffffffff811681146155f757600080fd5b9550604088013561560781615590565b9450606088013561561781615590565b9350608088013561562781615590565b925060a088013561563781615590565b8092505060c0880135905092959891949750929550565b805161350781614e2a565b60006020828403121561566b57600080fd5b815161311081614e2a565b600181811c9082168061568a57607f821691505b60208210810361295a577f4e487b7100000000000000000000000000000000000000000000000000000000600052602260045260246000fd5b7f4e487b7100000000000000000000000000000000000000000000000000000000600052601160045260246000fd5b60008219821115615705576157056156c3565b500190565b6000817fffffffffffffffffffffffffffffffffffffffffffffffffffffffffffffffff0483118215151615615742576157426156c3565b500290565b600082821015615759576157596156c3565b500390565b600082601f83011261576f57600080fd5b815161577d61518b82615126565b81815284602083860101111561579257600080fd5b612c9c826020830160208701614d88565b805161350781615590565b805161ffff8116811461350757600080fd5b600082601f8301126157d157600080fd5b815160206157e161518b83615292565b82815260059290921b8401810191818101908684111561580057600080fd5b8286015b8481101561584057805167ffffffffffffffff8111156158245760008081fd5b6158328986838b010161575e565b845250918301918301615804565b509695505050505050565b6000806040838503121561585e57600080fd5b825167ffffffffffffffff8082111561587657600080fd5b90840190610180828703121561588b57600080fd5b6158936150ad565b61589c8361564e565b81526158aa6020840161564e565b60208201526158bb6040840161564e565b60408201526060830151828111156158d257600080fd5b6158de8882860161575e565b6060830152506080830151828111156158f657600080fd5b6159028882860161575e565b60808301525061591460a0840161564e565b60a082015261592560c0840161564e565b60c082015261593660e084016157a3565b60e08201526101006159498185016157ae565b90820152610120838101518381111561596157600080fd5b61596d898287016157c0565b82840152505061014061598181850161564e565b90820152610160838101518381111561599957600080fd5b6159a58982870161575e565b8284015250508094505050506159bd60208401614d15565b90509250929050565b6000602082840312156159d857600080fd5b815161311081614d3d565b600082516159f5818460208701614d88565b9190910192915050565b7f4e487b7100000000000000000000000000000000000000000000000000000000600052603260045260246000fd5b60007fffffffffffffffffffffffffffffffffffffffffffffffffffffffffffffffff8203615a5f57615a5f6156c3565b5060010190565b8183823760009101908152919050565b600060208284031215615a8857600080fd5b815167ffffffffffffffff811115615a9f57600080fd5b612c9c8482850161575e565b600073ffffffffffffffffffffffffffffffffffffffff8087168352808616602084015250836040830152608060608301526148d66080830184614db4565b7f416363657373436f6e74726f6c3a206163636f756e7420000000000000000000815260008351615b22816017850160208801614d88565b7f206973206d697373696e6720726f6c65200000000000000000000000000000006017918401918201528351615b5f816028840160208801614d88565b01602801949350505050565b600081615b7a57615b7a6156c3565b507fffffffffffffffffffffffffffffffffffffffffffffffffffffffffffffffff019056fe416464726573733a206c6f772d6c6576656c2064656c65676174652063616c6c206661696c6564a164736f6c634300080d000a",
  "devdoc": {
    "details": "This contract subscribes to the following HolographERC721 events:       - beforeSafeTransfer       - beforeTransfer       - onIsApprovedForAll       - customContractURI       Do not enable or subscribe to any other events unless you modified your source code for them.",
    "errors": {
      "MarketFilterAddressNotSupportedForChain()": [
        {
          "details": "Used for enabling and disabling filter for the given chain."
        }
      ],
      "MarketFilterDAOAddressNotSupportedForChain()": [
        {
          "details": "Used for enabling and disabling filter for the given chain."
        }
      ],
      "OperatorNotAllowed(address)": [
        {
          "details": "Used when strict enforcement of marketplaces for creator royalties is desired."
        }
      ],
      "RemoteOperatorFilterRegistryCallFailed()": [
        {
          "details": "Used for bubbling error up to clients."
        }
      ]
    },
    "kind": "dev",
    "methods": {
      "adminMint(address,uint256)": {
        "params": {
          "quantity": "quantity to mint",
          "recipient": "recipient to mint to"
        }
      },
      "adminMintAirdrop(address[])": {
        "details": "Mints multiple editions to the given list of addresses.",
        "params": {
          "recipients": "list of addresses to send the newly minted editions to"
        }
      },
      "constructor": {
        "details": "Constructor is left empty and init is used instead"
      },
      "contractURI()": {
        "returns": {
          "_0": "Contract URI"
        }
      },
      "init(bytes)": {
        "details": "This function is called by the deployer/factory when creating a contract",
        "params": {
          "initPayload": "abi encoded payload to use for contract initilaization"
        }
      },
      "isAdmin(address)": {
        "details": "Getter for admin role associated with the contract to handle metadata",
        "returns": {
          "_0": "boolean if address is admin"
        }
      },
      "manageMarketFilterSubscription(bool)": {
        "params": {
          "enable": "Enable filtering to non-royalty payout marketplaces"
        }
      },
      "mintedPerAddress(address)": {
        "details": "Number of NFTs the user has minted per address",
        "params": {
          "minter": "to get counts for"
        }
      },
      "purchase(uint256)": {
        "details": "This allows the user to purchase/mint a edition at the given price in the contract."
      },
      "purchasePresale(uint256,uint256,uint256,bytes32[])": {
        "params": {
          "maxQuantity": "max quantity that can be purchased via merkle proof #",
          "merkleProof": "proof for presale mint",
          "pricePerToken": "price that each token is purchased at",
          "quantity": "quantity to purchase"
        }
      },
      "saleDetails()": {
        "returns": {
          "_0": "SaleDetails sale information details"
        }
      },
      "setFundsRecipient(address)": {
        "params": {
          "newRecipientAddress": "new funds recipient address"
        }
      },
      "setMetadataRenderer(address,bytes)": {
        "params": {
          "newRenderer": "new renderer address to use",
          "setupRenderer": "data to setup new renderer with"
        }
      },
      "setSaleConfiguration(uint104,uint32,uint64,uint64,uint64,uint64,bytes32)": {
        "details": "This sets the sales configuration",
        "params": {
          "maxSalePurchasePerAddress": "Max # of purchases (public) per address allowed",
          "presaleEnd": "unix timestamp when the presale ends",
          "presaleMerkleRoot": "merkle root for the presale information",
          "presaleStart": "unix timestamp when the presale starts",
          "publicSaleEnd": "unix timestamp when the public sale ends (set to 0 to disable)",
          "publicSalePrice": "New public sale price",
          "publicSaleStart": "unix timestamp when the public sale starts"
        }
      },
      "tokenURI(uint256)": {
        "params": {
          "tokenId": "id of token to get URI for"
        },
        "returns": {
          "_0": "Token URI"
        }
      },
      "updateMarketFilterSettings(bytes)": {
        "params": {
          "args": "Calldata args to pass to the registry"
        }
      },
      "version()": {
        "details": "Used for contract versioning and validation",
        "returns": {
          "_0": "version string representing the version of the contract"
        }
      }
    },
    "stateVariables": {
      "_currentTokenId": {
        "details": "Internal reference used for minting incremental token ids."
      },
      "_dropsPriceOracleSlot": {
        "details": "bytes32(uint256(keccak256('eip1967.Holograph.dropsPriceOracle')) - 1)"
      },
      "_osRegistryEnabledSlot": {
        "details": "bytes32(uint256(keccak256('eip1967.Holograph.osRegistryEnabled')) - 1)"
      },
      "erc721TransferHelper": {
        "details": "HOLOGRAPH transfer helper address for auto-approval"
      },
      "marketFilterAddress": {
        "details": "Address of the market filter registry"
      },
      "openseaOperatorFilterRegistry": {
        "details": "Address of the operator filter registry"
      },
      "presaleMintsByAddress": {
        "details": "Mapping for presale mint counts by address to allow public mint limit"
      },
      "totalMintsByAddress": {
        "details": "Mapping for presale mint counts by address to allow public mint limit"
      }
    },
    "version": 1
  },
  "userdoc": {
    "errors": {
      "Access_MissingRoleOrAdmin(bytes32)": [
        {
          "notice": "Missing the given role or admin access"
        }
      ],
      "Access_OnlyAdmin()": [
        {
          "notice": "Only admin can access this function"
        }
      ],
      "Access_WithdrawNotAllowed()": [
        {
          "notice": "Withdraw is not allowed by this user"
        }
      ],
      "Admin_InvalidUpgradeAddress(address)": [
        {
          "notice": "Invalid admin upgrade address"
        }
      ],
      "Admin_UnableToFinalizeNotOpenEdition()": [
        {
          "notice": "Unable to finalize an edition not marked as open (size set to uint64_max_value)"
        }
      ],
      "ExternalMetadataRenderer_CallFailed()": [
        {
          "notice": "Call to external metadata renderer failed."
        }
      ],
      "MarketFilterAddressNotSupportedForChain()": [
        {
          "notice": "Thrown when there is no active market filter address supported for the current chain"
        }
      ],
      "MarketFilterDAOAddressNotSupportedForChain()": [
        {
          "notice": "Thrown when there is no active market filter DAO address supported for the current chain"
        }
      ],
      "MintFee_FundsSendFailure()": [
        {
          "notice": "Mint fee send failure"
        }
      ],
      "Mint_SoldOut()": [
        {
          "notice": "NFT sold out"
        }
      ],
      "OperatorNotAllowed(address)": [
        {
          "notice": "Thrown when the operator for the contract is not allowed"
        }
      ],
      "Presale_Inactive()": [
        {
          "notice": "Presale is inactive"
        }
      ],
      "Presale_MerkleNotApproved()": [
        {
          "notice": "Presale merkle root is invalid"
        }
      ],
      "Presale_TooManyForAddress()": [
        {
          "notice": "Too many presale for address"
        }
      ],
      "Purchase_TooManyForAddress()": [
        {
          "notice": "Too many purchase for address"
        }
      ],
      "Purchase_WrongPrice(uint256)": [
        {
          "notice": "Wrong price for purchase"
        }
      ],
      "RemoteOperatorFilterRegistryCallFailed()": [
        {
          "notice": "Used when the operator filter registry external call fails"
        }
      ],
      "Sale_Inactive()": [
        {
          "notice": "Sale is inactive"
        }
      ],
      "Setup_RoyaltyPercentageTooHigh(uint16)": [
        {
          "notice": "Royalty percentage too high"
        }
      ],
      "Withdraw_FundsSendFailure()": [
        {
          "notice": "Cannot withdraw funds due to ETH send failure."
        }
      ]
    },
    "events": {
      "FundsRecipientChanged(address,address)": {
        "notice": "Event emitted when the funds recipient is changed"
      },
      "FundsWithdrawn(address,address,uint256,address,uint256)": {
        "notice": "Event emitted when the funds are withdrawn from the minting contract"
      },
      "MintFeePayout(uint256,address,bool)": {
        "notice": "Event emitted for mint fee payout"
      },
      "OpenMintFinalized(address,uint256)": {
        "notice": "Event emitted when an open mint is finalized and further minting is closed forever on the contract."
      },
      "Sale(address,uint256,uint256,uint256)": {
        "notice": "Event emitted for each sale"
      },
      "SalesConfigChanged(address)": {
        "notice": "Sales configuration has been changed"
      },
      "UpdatedMetadataRenderer(address,address)": {
        "notice": "Event emitted when metadata renderer is updated."
      }
    },
    "kind": "user",
    "methods": {
      "adminMint(address,uint256)": {
        "notice": "Admin mint tokens to a recipient for free"
      },
      "config()": {
        "notice": "Configuration for NFT minting contract storage"
      },
      "contractURI()": {
        "notice": "Contract URI Getter, proxies to metadataRenderer"
      },
      "finalizeOpenEdition()": {
        "notice": "Admin function to finalize and open edition sale"
      },
      "init(bytes)": {
        "notice": "Used internally to initialize the contract instead of through a constructor"
      },
      "manageMarketFilterSubscription(bool)": {
        "notice": "Manage subscription for marketplace filtering based off royalty payouts."
      },
      "metadataRenderer()": {
        "notice": "Getter for metadataRenderer contract"
      },
      "multicall(bytes[])": {
        "notice": "PUBLIC STATE CHANGING FUNCTIONS available to all"
      },
      "owner()": {
        "notice": "PUBLIC NON STATE CHANGING FUNCTIONS dynamic"
      },
      "purchasePresale(uint256,uint256,uint256,bytes32[])": {
        "notice": "Merkle-tree based presale purchase function"
      },
      "saleDetails()": {
        "notice": "Sale details"
      },
      "salesConfig()": {
        "notice": "Sales configuration"
      },
      "setFundsRecipient(address)": {
        "notice": "Set a different funds recipient"
      },
      "setMetadataRenderer(address,bytes)": {
        "notice": "Set a new metadata renderer"
      },
      "tokenURI(uint256)": {
        "notice": "Token URI Getter, proxies to metadataRenderer"
      },
      "updateMarketFilterSettings(bytes)": {
        "notice": "Proxy to update market filter settings in the main registry contractsRequires admin permissions"
      },
      "version()": {
        "notice": "Returns the version of the contract"
      },
      "withdraw()": {
        "notice": "This withdraws ETH from the contract to the contract owner."
      }
    },
    "version": 1
  },
  "storageLayout": {
    "storage": [
      {
        "astId": 9350,
        "contract": "contracts/drops/token/HolographDropERC721.sol:HolographDropERC721",
        "label": "_currentTokenId",
        "offset": 0,
        "slot": "0",
        "type": "t_uint224"
      },
      {
        "astId": 9353,
        "contract": "contracts/drops/token/HolographDropERC721.sol:HolographDropERC721",
        "label": "erc721TransferHelper",
        "offset": 0,
        "slot": "1",
        "type": "t_address"
      },
      {
        "astId": 9356,
        "contract": "contracts/drops/token/HolographDropERC721.sol:HolographDropERC721",
        "label": "marketFilterAddress",
        "offset": 0,
        "slot": "2",
        "type": "t_address"
      },
      {
        "astId": 9367,
        "contract": "contracts/drops/token/HolographDropERC721.sol:HolographDropERC721",
        "label": "config",
        "offset": 0,
        "slot": "3",
        "type": "t_struct(Configuration)9225_storage"
      },
      {
        "astId": 9371,
        "contract": "contracts/drops/token/HolographDropERC721.sol:HolographDropERC721",
        "label": "salesConfig",
        "offset": 0,
        "slot": "5",
        "type": "t_struct(SalesConfiguration)9300_storage"
      },
      {
        "astId": 9376,
        "contract": "contracts/drops/token/HolographDropERC721.sol:HolographDropERC721",
        "label": "presaleMintsByAddress",
        "offset": 0,
        "slot": "8",
        "type": "t_mapping(t_address,t_uint256)"
      },
      {
        "astId": 9381,
        "contract": "contracts/drops/token/HolographDropERC721.sol:HolographDropERC721",
        "label": "totalMintsByAddress",
        "offset": 0,
        "slot": "9",
        "type": "t_mapping(t_address,t_uint256)"
      }
    ],
    "types": {
      "t_address": {
        "encoding": "inplace",
        "label": "address",
        "numberOfBytes": "20"
      },
      "t_address_payable": {
        "encoding": "inplace",
        "label": "address payable",
        "numberOfBytes": "20"
      },
      "t_bytes32": {
        "encoding": "inplace",
        "label": "bytes32",
        "numberOfBytes": "32"
      },
      "t_contract(IMetadataRenderer)7413": {
        "encoding": "inplace",
        "label": "contract IMetadataRenderer",
        "numberOfBytes": "20"
      },
      "t_mapping(t_address,t_uint256)": {
        "encoding": "mapping",
        "key": "t_address",
        "label": "mapping(address => uint256)",
        "numberOfBytes": "32",
        "value": "t_uint256"
      },
      "t_struct(Configuration)9225_storage": {
        "encoding": "inplace",
        "label": "struct Configuration",
        "members": [
          {
            "astId": 9215,
            "contract": "contracts/drops/token/HolographDropERC721.sol:HolographDropERC721",
            "label": "metadataRenderer",
            "offset": 0,
            "slot": "0",
            "type": "t_contract(IMetadataRenderer)7413"
          },
          {
            "astId": 9218,
            "contract": "contracts/drops/token/HolographDropERC721.sol:HolographDropERC721",
            "label": "editionSize",
            "offset": 20,
            "slot": "0",
            "type": "t_uint64"
          },
          {
            "astId": 9221,
            "contract": "contracts/drops/token/HolographDropERC721.sol:HolographDropERC721",
            "label": "royaltyBPS",
            "offset": 28,
            "slot": "0",
            "type": "t_uint16"
          },
          {
            "astId": 9224,
            "contract": "contracts/drops/token/HolographDropERC721.sol:HolographDropERC721",
            "label": "fundsRecipient",
            "offset": 0,
            "slot": "1",
            "type": "t_address_payable"
          }
        ],
        "numberOfBytes": "64"
      },
      "t_struct(SalesConfiguration)9300_storage": {
        "encoding": "inplace",
        "label": "struct SalesConfiguration",
        "members": [
          {
            "astId": 9281,
            "contract": "contracts/drops/token/HolographDropERC721.sol:HolographDropERC721",
            "label": "publicSalePrice",
            "offset": 0,
            "slot": "0",
            "type": "t_uint104"
          },
          {
            "astId": 9284,
            "contract": "contracts/drops/token/HolographDropERC721.sol:HolographDropERC721",
            "label": "maxSalePurchasePerAddress",
            "offset": 13,
            "slot": "0",
            "type": "t_uint32"
          },
          {
            "astId": 9287,
            "contract": "contracts/drops/token/HolographDropERC721.sol:HolographDropERC721",
            "label": "publicSaleStart",
            "offset": 17,
            "slot": "0",
            "type": "t_uint64"
          },
          {
            "astId": 9290,
            "contract": "contracts/drops/token/HolographDropERC721.sol:HolographDropERC721",
            "label": "publicSaleEnd",
            "offset": 0,
            "slot": "1",
            "type": "t_uint64"
          },
          {
            "astId": 9293,
            "contract": "contracts/drops/token/HolographDropERC721.sol:HolographDropERC721",
            "label": "presaleStart",
            "offset": 8,
            "slot": "1",
            "type": "t_uint64"
          },
          {
            "astId": 9296,
            "contract": "contracts/drops/token/HolographDropERC721.sol:HolographDropERC721",
            "label": "presaleEnd",
            "offset": 16,
            "slot": "1",
            "type": "t_uint64"
          },
          {
            "astId": 9299,
            "contract": "contracts/drops/token/HolographDropERC721.sol:HolographDropERC721",
            "label": "presaleMerkleRoot",
            "offset": 0,
            "slot": "2",
            "type": "t_bytes32"
          }
        ],
        "numberOfBytes": "96"
      },
      "t_uint104": {
        "encoding": "inplace",
        "label": "uint104",
        "numberOfBytes": "13"
      },
      "t_uint16": {
        "encoding": "inplace",
        "label": "uint16",
        "numberOfBytes": "2"
      },
      "t_uint224": {
        "encoding": "inplace",
        "label": "uint224",
        "numberOfBytes": "28"
      },
      "t_uint256": {
        "encoding": "inplace",
        "label": "uint256",
        "numberOfBytes": "32"
      },
      "t_uint32": {
        "encoding": "inplace",
        "label": "uint32",
        "numberOfBytes": "4"
      },
      "t_uint64": {
        "encoding": "inplace",
        "label": "uint64",
        "numberOfBytes": "8"
      }
    }
  }
}