{
  "address": "0x87291ef821dc20e6F43Caa03ddAC13279630899D",
  "abi": [
    {
      "inputs": [],
      "stateMutability": "nonpayable",
      "type": "constructor"
    },
    {
      "anonymous": false,
      "inputs": [
        {
          "indexed": true,
          "internalType": "address",
          "name": "from",
          "type": "address"
        },
        {
          "indexed": false,
          "internalType": "uint256",
          "name": "amount",
          "type": "uint256"
        }
      ],
      "name": "Deposit",
      "type": "event"
    },
    {
      "anonymous": false,
      "inputs": [
        {
          "indexed": true,
          "internalType": "address",
          "name": "token",
          "type": "address"
        },
        {
          "indexed": true,
          "internalType": "address",
          "name": "from",
          "type": "address"
        },
        {
          "indexed": false,
          "internalType": "uint256",
          "name": "amount",
          "type": "uint256"
        }
      ],
      "name": "TokenDeposit",
      "type": "event"
    },
    {
      "anonymous": false,
      "inputs": [
        {
          "indexed": true,
          "internalType": "address",
          "name": "token",
          "type": "address"
        },
        {
          "indexed": true,
          "internalType": "address",
          "name": "to",
          "type": "address"
        },
        {
          "indexed": false,
          "internalType": "uint256",
          "name": "amount",
          "type": "uint256"
        }
      ],
      "name": "TokenWithdrawal",
      "type": "event"
    },
    {
      "anonymous": false,
      "inputs": [
        {
          "indexed": true,
          "internalType": "address",
          "name": "to",
          "type": "address"
        },
        {
          "indexed": false,
          "internalType": "uint256",
          "name": "amount",
          "type": "uint256"
        }
      ],
      "name": "Withdrawal",
      "type": "event"
    },
    {
      "stateMutability": "payable",
      "type": "fallback"
    },
    {
      "inputs": [],
      "name": "availableNativeTokens",
      "outputs": [
        {
          "internalType": "uint256",
          "name": "",
          "type": "uint256"
        }
      ],
      "stateMutability": "view",
      "type": "function"
    },
    {
      "inputs": [
        {
          "internalType": "address",
          "name": "token",
          "type": "address"
        }
      ],
      "name": "availableWrappedTokens",
      "outputs": [
        {
          "internalType": "uint256",
          "name": "",
          "type": "uint256"
        }
      ],
      "stateMutability": "view",
      "type": "function"
    },
    {
      "inputs": [
        {
          "internalType": "address payable",
          "name": "recipient",
          "type": "address"
        },
        {
          "internalType": "uint256",
          "name": "amount",
          "type": "uint256"
        }
      ],
      "name": "extractNativeToken",
      "outputs": [],
      "stateMutability": "nonpayable",
      "type": "function"
    },
    {
      "inputs": [
        {
          "internalType": "address",
          "name": "token",
          "type": "address"
        },
        {
          "internalType": "address payable",
          "name": "recipient",
          "type": "address"
        },
        {
          "internalType": "uint256",
          "name": "amount",
          "type": "uint256"
        }
      ],
      "name": "extractWrappedToken",
      "outputs": [],
      "stateMutability": "nonpayable",
      "type": "function"
    },
    {
      "inputs": [
        {
          "internalType": "address",
          "name": "recipient",
          "type": "address"
        }
      ],
      "name": "holographNativeToken",
      "outputs": [],
      "stateMutability": "payable",
      "type": "function"
    },
    {
      "inputs": [
        {
          "internalType": "address",
          "name": "token",
          "type": "address"
        },
        {
          "internalType": "address",
          "name": "recipient",
          "type": "address"
        },
        {
          "internalType": "uint256",
          "name": "amount",
          "type": "uint256"
        }
      ],
      "name": "holographWrappedToken",
      "outputs": [],
      "stateMutability": "nonpayable",
      "type": "function"
    },
    {
      "inputs": [
        {
          "internalType": "bytes",
          "name": "initPayload",
          "type": "bytes"
        }
      ],
      "name": "init",
      "outputs": [
        {
          "internalType": "bytes4",
          "name": "",
          "type": "bytes4"
        }
      ],
      "stateMutability": "nonpayable",
      "type": "function"
    },
    {
      "inputs": [],
      "name": "isHToken",
      "outputs": [
        {
          "internalType": "bool",
          "name": "",
          "type": "bool"
        }
      ],
      "stateMutability": "pure",
      "type": "function"
    },
    {
      "inputs": [
        {
          "internalType": "address",
          "name": "wallet",
          "type": "address"
        }
      ],
      "name": "isOwner",
      "outputs": [
        {
          "internalType": "bool",
          "name": "",
          "type": "bool"
        }
      ],
      "stateMutability": "view",
      "type": "function"
    },
    {
      "inputs": [],
      "name": "isOwner",
      "outputs": [
        {
          "internalType": "bool",
          "name": "",
          "type": "bool"
        }
      ],
      "stateMutability": "view",
      "type": "function"
    },
    {
      "inputs": [],
      "name": "owner",
      "outputs": [
        {
          "internalType": "address",
          "name": "",
          "type": "address"
        }
      ],
      "stateMutability": "view",
      "type": "function"
    },
    {
      "inputs": [
        {
          "internalType": "bytes4",
          "name": "",
          "type": "bytes4"
        }
      ],
      "name": "supportsInterface",
      "outputs": [
        {
          "internalType": "bool",
          "name": "",
          "type": "bool"
        }
      ],
      "stateMutability": "pure",
      "type": "function"
    },
    {
      "inputs": [
        {
          "internalType": "address",
          "name": "token",
          "type": "address"
        },
        {
          "internalType": "bool",
          "name": "supported",
          "type": "bool"
        }
      ],
      "name": "updateSupportedWrapper",
      "outputs": [],
      "stateMutability": "nonpayable",
      "type": "function"
    },
    {
      "inputs": [],
      "name": "withdraw",
      "outputs": [],
      "stateMutability": "nonpayable",
      "type": "function"
    },
    {
      "stateMutability": "payable",
      "type": "receive"
    }
  ],
  "transactionHash": "0x55384424259fa52607eba8c7b9ae7f6cca335e44fd8be5fcc58eb9b01bfbe424",
  "args": [],
  "numDeployments": 1,
  "solcInputHash": "54b10fd6f662640484b44fadba56effc",
  "bytecode": "0x608060405234801561001057600080fd5b50612ada806100206000396000f3fe6080604052600436106100e15760003560e01c8063779744861161007f5780638f32d59b116100595780638f32d59b14610317578063c40ac4a41461032c578063c7c5d63514610340578063d9bca88a146103605761014d565b806377974486146102aa5780637f4d680b146102bd5780638da5cb5b146102dd5761014d565b80634ddf47d4116100bb5780634ddf47d4146101f65780635284d9cd1461024757806355df9ae4146102675780636a1118481461028a5761014d565b806301ffc9a71461018b5780632f54bf6e146101c15780633ccfd60b146101e15761014d565b3661014d576040517f08c379a000000000000000000000000000000000000000000000000000000000815260206004820152601760248201527f45524332303a20756e726561636861626c6520636f646500000000000000000060448201526064015b60405180910390fd5b337fe9fcff60011c1a99f7b7244d1f2d9da93d79ea8ef3654ce590d775575255b2bd54146001811461017e57600080fd5b600160805260206080f35b005b34801561019757600080fd5b506101ac6101a6366004612726565b50600090565b60405190151581526020015b60405180910390f35b3480156101cd57600080fd5b506101ac6101dc366004612791565b610380565b3480156101ed57600080fd5b506101896103df565b34801561020257600080fd5b506102166102113660046127dd565b610619565b6040517fffffffff0000000000000000000000000000000000000000000000000000000090911681526020016101b8565b34801561025357600080fd5b506101896102623660046128ac565b61069d565b34801561027357600080fd5b5061027c610c5b565b6040519081526020016101b8565b34801561029657600080fd5b5061027c6102a5366004612791565b610ec3565b6101896102b8366004612791565b6110a4565b3480156102c957600080fd5b506101896102d83660046128e6565b61150d565b3480156102e957600080fd5b506102f26117eb565b60405173ffffffffffffffffffffffffffffffffffffffff90911681526020016101b8565b34801561032357600080fd5b506101ac61181a565b34801561033857600080fd5b5060016101ac565b34801561034c57600080fd5b5061018961035b36600461291f565b611916565b34801561036c57600080fd5b5061018961037b36600461291f565b611f08565b60006103aa7fb56711ba6bd3ded7639fc335ee7524fe668a79d7558c85992e3f8494cf7727775490565b73ffffffffffffffffffffffffffffffffffffffff168273ffffffffffffffffffffffffffffffffffffffff16149050919050565b7fe9fcff60011c1a99f7b7244d1f2d9da93d79ea8ef3654ce590d775575255b2bd5473ffffffffffffffffffffffffffffffffffffffff1633036104fb577fb56711ba6bd3ded7639fc335ee7524fe668a79d7558c85992e3f8494cf7727775473ffffffffffffffffffffffffffffffffffffffff16367fffffffffffffffffffffffffffffffffffffffffffffffffffffffffffffffe0013573ffffffffffffffffffffffffffffffffffffffff16146104f6576040517f08c379a000000000000000000000000000000000000000000000000000000000815260206004820152601a60248201527f45524332303a206f776e6572206f6e6c792066756e6374696f6e0000000000006044820152606401610144565b6105b1565b7fb56711ba6bd3ded7639fc335ee7524fe668a79d7558c85992e3f8494cf7727775473ffffffffffffffffffffffffffffffffffffffff163373ffffffffffffffffffffffffffffffffffffffff16146105b1576040517f08c379a000000000000000000000000000000000000000000000000000000000815260206004820152601a60248201527f45524332303a206f776e6572206f6e6c792066756e6374696f6e0000000000006044820152606401610144565b7fb56711ba6bd3ded7639fc335ee7524fe668a79d7558c85992e3f8494cf7727775460405173ffffffffffffffffffffffffffffffffffffffff909116904780156108fc02916000818181858888f19350505050158015610616573d6000803e3d6000fd5b50565b6000806000838060200190518101906106329190612960565b9150915061065e827fb56711ba6bd3ded7639fc335ee7524fe668a79d7558c85992e3f8494cf77277755565b600080547fffffffffffffffffffffffffffffffffffffffffffffffffffffffffffff00001661ffff83161790556106958461257f565b949350505050565b7fe9fcff60011c1a99f7b7244d1f2d9da93d79ea8ef3654ce590d775575255b2bd5473ffffffffffffffffffffffffffffffffffffffff163373ffffffffffffffffffffffffffffffffffffffff1614610753576040517f08c379a000000000000000000000000000000000000000000000000000000000815260206004820152601760248201527f45524332303a20686f6c6f67726170686572206f6e6c790000000000000000006044820152606401610144565b6000367fffffffffffffffffffffffffffffffffffffffffffffffffffffffffffffffe001356040517f70a0823100000000000000000000000000000000000000000000000000000000815273ffffffffffffffffffffffffffffffffffffffff82166004820152909150829030906370a0823190602401602060405180830381865afa1580156107e8573d6000803e3d6000fd5b505050506040513d601f19601f8201168201806040525081019061080c9190612996565b1015610874576040517f08c379a000000000000000000000000000000000000000000000000000000000815260206004820152601c60248201527f68546f6b656e3a206e6f7420656e6f7567682068546f6b656e287329000000006044820152606401610144565b7fe9fcff60011c1a99f7b7244d1f2d9da93d79ea8ef3654ce590d775575255b2bd5473ffffffffffffffffffffffffffffffffffffffff16634827ae0c6040518163ffffffff1660e01b8152600401602060405180830381865afa1580156108e0573d6000803e3d6000fd5b505050506040513d601f19601f8201168201806040525081019061090491906129af565b73ffffffffffffffffffffffffffffffffffffffff1663381b5f466040518163ffffffff1660e01b8152600401602060405180830381865afa15801561094e573d6000803e3d6000fd5b505050506040513d601f19601f8201168201806040525081019061097291906129cc565b63ffffffff166109a07fe9fcff60011c1a99f7b7244d1f2d9da93d79ea8ef3654ce590d775575255b2bd5490565b73ffffffffffffffffffffffffffffffffffffffff1663913a0ef26040518163ffffffff1660e01b8152600401602060405180830381865afa1580156109ea573d6000803e3d6000fd5b505050506040513d601f19601f82011682018060405250810190610a0e91906129cc565b63ffffffff1614610a7b576040517f08c379a000000000000000000000000000000000000000000000000000000000815260206004820152601b60248201527f68546f6b656e3a206e6f74206f6e206e617469766520636861696e00000000006044820152606401610144565b81471015610ae5576040517f08c379a000000000000000000000000000000000000000000000000000000000815260206004820181905260248201527f68546f6b656e3a206e6f7420656e6f756768206e617469766520746f6b656e736044820152606401610144565b7fe9fcff60011c1a99f7b7244d1f2d9da93d79ea8ef3654ce590d775575255b2bd546040517f0d5e2c1d00000000000000000000000000000000000000000000000000000000815273ffffffffffffffffffffffffffffffffffffffff8381166004830152602482018590529190911690630d5e2c1d90604401600060405180830381600087803b158015610b7957600080fd5b505af1158015610b8d573d6000803e3d6000fd5b50506000805490925061ffff169050610ba861271085612a21565b610bb29190612a5c565b9050610bbe8184612a99565b60405190935073ffffffffffffffffffffffffffffffffffffffff85169084156108fc029085906000818181858888f19350505050158015610c04573d6000803e3d6000fd5b508373ffffffffffffffffffffffffffffffffffffffff167f7fcf532c15f0a6db0bd6d0e038bea71d30d808c7d98cb3bf7268a95bf5081b6584604051610c4d91815260200190565b60405180910390a250505050565b6000610c857fe9fcff60011c1a99f7b7244d1f2d9da93d79ea8ef3654ce590d775575255b2bd5490565b73ffffffffffffffffffffffffffffffffffffffff163373ffffffffffffffffffffffffffffffffffffffff1614610d19576040517f08c379a000000000000000000000000000000000000000000000000000000000815260206004820152601760248201527f45524332303a20686f6c6f67726170686572206f6e6c790000000000000000006044820152606401610144565b7fe9fcff60011c1a99f7b7244d1f2d9da93d79ea8ef3654ce590d775575255b2bd5473ffffffffffffffffffffffffffffffffffffffff16634827ae0c6040518163ffffffff1660e01b8152600401602060405180830381865afa158015610d85573d6000803e3d6000fd5b505050506040513d601f19601f82011682018060405250810190610da991906129af565b73ffffffffffffffffffffffffffffffffffffffff1663381b5f466040518163ffffffff1660e01b8152600401602060405180830381865afa158015610df3573d6000803e3d6000fd5b505050506040513d601f19601f82011682018060405250810190610e1791906129cc565b63ffffffff16610e457fe9fcff60011c1a99f7b7244d1f2d9da93d79ea8ef3654ce590d775575255b2bd5490565b73ffffffffffffffffffffffffffffffffffffffff1663913a0ef26040518163ffffffff1660e01b8152600401602060405180830381865afa158015610e8f573d6000803e3d6000fd5b505050506040513d601f19601f82011682018060405250810190610eb391906129cc565b63ffffffff16036101a657504790565b6000610eed7fe9fcff60011c1a99f7b7244d1f2d9da93d79ea8ef3654ce590d775575255b2bd5490565b73ffffffffffffffffffffffffffffffffffffffff163373ffffffffffffffffffffffffffffffffffffffff1614610f81576040517f08c379a000000000000000000000000000000000000000000000000000000000815260206004820152601760248201527f45524332303a20686f6c6f67726170686572206f6e6c790000000000000000006044820152606401610144565b73ffffffffffffffffffffffffffffffffffffffff821660009081526001602052604090205460ff16611010576040517f08c379a000000000000000000000000000000000000000000000000000000000815260206004820152601e60248201527f68546f6b656e3a20756e737570706f7274656420746f6b656e207479706500006044820152606401610144565b6040517f70a0823100000000000000000000000000000000000000000000000000000000815230600482015273ffffffffffffffffffffffffffffffffffffffff8316906370a0823190602401602060405180830381865afa15801561107a573d6000803e3d6000fd5b505050506040513d601f19601f8201168201806040525081019061109e9190612996565b92915050565b7fe9fcff60011c1a99f7b7244d1f2d9da93d79ea8ef3654ce590d775575255b2bd5473ffffffffffffffffffffffffffffffffffffffff163373ffffffffffffffffffffffffffffffffffffffff161461115a576040517f08c379a000000000000000000000000000000000000000000000000000000000815260206004820152601760248201527f45524332303a20686f6c6f67726170686572206f6e6c790000000000000000006044820152606401610144565b7fe9fcff60011c1a99f7b7244d1f2d9da93d79ea8ef3654ce590d775575255b2bd5473ffffffffffffffffffffffffffffffffffffffff16634827ae0c6040518163ffffffff1660e01b8152600401602060405180830381865afa1580156111c6573d6000803e3d6000fd5b505050506040513d601f19601f820116820180604052508101906111ea91906129af565b73ffffffffffffffffffffffffffffffffffffffff1663381b5f466040518163ffffffff1660e01b8152600401602060405180830381865afa158015611234573d6000803e3d6000fd5b505050506040513d601f19601f8201168201806040525081019061125891906129cc565b63ffffffff166112867fe9fcff60011c1a99f7b7244d1f2d9da93d79ea8ef3654ce590d775575255b2bd5490565b73ffffffffffffffffffffffffffffffffffffffff1663913a0ef26040518163ffffffff1660e01b8152600401602060405180830381865afa1580156112d0573d6000803e3d6000fd5b505050506040513d601f19601f820116820180604052508101906112f491906129cc565b63ffffffff1614611361576040517f08c379a000000000000000000000000000000000000000000000000000000000815260206004820152601860248201527f68546f6b656e3a206e6f74206e617469766520746f6b656e00000000000000006044820152606401610144565b600034116113cb576040517f08c379a000000000000000000000000000000000000000000000000000000000815260206004820152601960248201527f68546f6b656e3a206e6f2076616c7565207265636569766564000000000000006044820152606401610144565b7fffffffffffffffffffffffffffffffffffffffffffffffffffffffffffffffe036013573ffffffffffffffffffffffffffffffffffffffff821661140e578091505b7fe9fcff60011c1a99f7b7244d1f2d9da93d79ea8ef3654ce590d775575255b2bd546040517f66bd3d4500000000000000000000000000000000000000000000000000000000815273ffffffffffffffffffffffffffffffffffffffff848116600483015234602483015291909116906366bd3d4590604401600060405180830381600087803b1580156114a157600080fd5b505af11580156114b5573d6000803e3d6000fd5b505050508073ffffffffffffffffffffffffffffffffffffffff167fe1fffcc4923d04b559f4d29a8bfc6cda04eb5b0d3c460751c2402c5c5cc9109c3460405161150191815260200190565b60405180910390a25050565b7fe9fcff60011c1a99f7b7244d1f2d9da93d79ea8ef3654ce590d775575255b2bd5473ffffffffffffffffffffffffffffffffffffffff163373ffffffffffffffffffffffffffffffffffffffff16146115c3576040517f08c379a000000000000000000000000000000000000000000000000000000000815260206004820152601760248201527f45524332303a20686f6c6f67726170686572206f6e6c790000000000000000006044820152606401610144565b7fe9fcff60011c1a99f7b7244d1f2d9da93d79ea8ef3654ce590d775575255b2bd5473ffffffffffffffffffffffffffffffffffffffff1633036116df577fb56711ba6bd3ded7639fc335ee7524fe668a79d7558c85992e3f8494cf7727775473ffffffffffffffffffffffffffffffffffffffff16367fffffffffffffffffffffffffffffffffffffffffffffffffffffffffffffffe0013573ffffffffffffffffffffffffffffffffffffffff16146116da576040517f08c379a000000000000000000000000000000000000000000000000000000000815260206004820152601a60248201527f45524332303a206f776e6572206f6e6c792066756e6374696f6e0000000000006044820152606401610144565b611795565b7fb56711ba6bd3ded7639fc335ee7524fe668a79d7558c85992e3f8494cf7727775473ffffffffffffffffffffffffffffffffffffffff163373ffffffffffffffffffffffffffffffffffffffff1614611795576040517f08c379a000000000000000000000000000000000000000000000000000000000815260206004820152601a60248201527f45524332303a206f776e6572206f6e6c792066756e6374696f6e0000000000006044820152606401610144565b73ffffffffffffffffffffffffffffffffffffffff91909116600090815260016020526040902080547fffffffffffffffffffffffffffffffffffffffffffffffffffffffffffffff0016911515919091179055565b60006118157fb56711ba6bd3ded7639fc335ee7524fe668a79d7558c85992e3f8494cf7727775490565b905090565b60006118447fe9fcff60011c1a99f7b7244d1f2d9da93d79ea8ef3654ce590d775575255b2bd5490565b73ffffffffffffffffffffffffffffffffffffffff1633036118d8577fb56711ba6bd3ded7639fc335ee7524fe668a79d7558c85992e3f8494cf7727775473ffffffffffffffffffffffffffffffffffffffff16367fffffffffffffffffffffffffffffffffffffffffffffffffffffffffffffffe0013573ffffffffffffffffffffffffffffffffffffffff1614905090565b507fb56711ba6bd3ded7639fc335ee7524fe668a79d7558c85992e3f8494cf7727775473ffffffffffffffffffffffffffffffffffffffff16331490565b7fe9fcff60011c1a99f7b7244d1f2d9da93d79ea8ef3654ce590d775575255b2bd5473ffffffffffffffffffffffffffffffffffffffff163373ffffffffffffffffffffffffffffffffffffffff16146119cc576040517f08c379a000000000000000000000000000000000000000000000000000000000815260206004820152601760248201527f45524332303a20686f6c6f67726170686572206f6e6c790000000000000000006044820152606401610144565b73ffffffffffffffffffffffffffffffffffffffff831660009081526001602052604090205460ff16611a5b576040517f08c379a000000000000000000000000000000000000000000000000000000000815260206004820152601e60248201527f68546f6b656e3a20756e737570706f7274656420746f6b656e207479706500006044820152606401610144565b826000367fffffffffffffffffffffffffffffffffffffffffffffffffffffffffffffffe001356040517fdd62ed3e00000000000000000000000000000000000000000000000000000000815273ffffffffffffffffffffffffffffffffffffffff8083166004830152306024830152919250849184169063dd62ed3e90604401602060405180830381865afa158015611af9573d6000803e3d6000fd5b505050506040513d601f19601f82011682018060405250810190611b1d9190612996565b1015611b85576040517f08c379a000000000000000000000000000000000000000000000000000000000815260206004820152601960248201527f68546f6b656e3a20616c6c6f77616e636520746f6f206c6f77000000000000006044820152606401610144565b6040517f70a0823100000000000000000000000000000000000000000000000000000000815230600482015260009073ffffffffffffffffffffffffffffffffffffffff8416906370a0823190602401602060405180830381865afa158015611bf2573d6000803e3d6000fd5b505050506040513d601f19601f82011682018060405250810190611c169190612996565b6040517f23b872dd00000000000000000000000000000000000000000000000000000000815273ffffffffffffffffffffffffffffffffffffffff848116600483015230602483015260448201879052919250908416906323b872dd906064016020604051808303816000875af1158015611c95573d6000803e3d6000fd5b505050506040513d601f19601f82011682018060405250810190611cb99190612ab0565b611d1f576040517f08c379a000000000000000000000000000000000000000000000000000000000815260206004820152601d60248201527f68546f6b656e3a204552433230207472616e73666572206661696c65640000006044820152606401610144565b6040517f70a0823100000000000000000000000000000000000000000000000000000000815230600482015260009073ffffffffffffffffffffffffffffffffffffffff8516906370a0823190602401602060405180830381865afa158015611d8c573d6000803e3d6000fd5b505050506040513d601f19601f82011682018060405250810190611db09190612996565b90506000611dbe8383612a99565b905085811015611dcc578095505b73ffffffffffffffffffffffffffffffffffffffff8716611deb578396505b7fe9fcff60011c1a99f7b7244d1f2d9da93d79ea8ef3654ce590d775575255b2bd546040517f66bd3d4500000000000000000000000000000000000000000000000000000000815273ffffffffffffffffffffffffffffffffffffffff89811660048301526024820189905291909116906366bd3d4590604401600060405180830381600087803b158015611e7f57600080fd5b505af1158015611e93573d6000803e3d6000fd5b505050508373ffffffffffffffffffffffffffffffffffffffff168873ffffffffffffffffffffffffffffffffffffffff167f98c09d9949722bae4bd0d988d4050091c3ae7ec6d51d3c6bbfe4233593944e9e88604051611ef691815260200190565b60405180910390a35050505050505050565b7fe9fcff60011c1a99f7b7244d1f2d9da93d79ea8ef3654ce590d775575255b2bd5473ffffffffffffffffffffffffffffffffffffffff163373ffffffffffffffffffffffffffffffffffffffff1614611fbe576040517f08c379a000000000000000000000000000000000000000000000000000000000815260206004820152601760248201527f45524332303a20686f6c6f67726170686572206f6e6c790000000000000000006044820152606401610144565b73ffffffffffffffffffffffffffffffffffffffff831660009081526001602052604090205460ff1661204d576040517f08c379a000000000000000000000000000000000000000000000000000000000815260206004820152601e60248201527f68546f6b656e3a20756e737570706f7274656420746f6b656e207479706500006044820152606401610144565b6000367fffffffffffffffffffffffffffffffffffffffffffffffffffffffffffffffe001356040517f70a0823100000000000000000000000000000000000000000000000000000000815273ffffffffffffffffffffffffffffffffffffffff82166004820152909150829030906370a0823190602401602060405180830381865afa1580156120e2573d6000803e3d6000fd5b505050506040513d601f19601f820116820180604052508101906121069190612996565b101561216e576040517f08c379a000000000000000000000000000000000000000000000000000000000815260206004820152601c60248201527f68546f6b656e3a206e6f7420656e6f7567682068546f6b656e287329000000006044820152606401610144565b6040517f70a08231000000000000000000000000000000000000000000000000000000008152306004820152849060009073ffffffffffffffffffffffffffffffffffffffff8316906370a0823190602401602060405180830381865afa1580156121dd573d6000803e3d6000fd5b505050506040513d601f19601f820116820180604052508101906122019190612996565b90508381101561226d576040517f08c379a000000000000000000000000000000000000000000000000000000000815260206004820152601f60248201527f68546f6b656e3a206e6f7420656e6f75676820455243323020746f6b656e73006044820152606401610144565b73ffffffffffffffffffffffffffffffffffffffff851661228c578294505b6000805461ffff166122a061271087612a21565b6122aa9190612a5c565b905060006122b88287612a99565b6040517fa9059cbb00000000000000000000000000000000000000000000000000000000815273ffffffffffffffffffffffffffffffffffffffff8981166004830152602482018390529192509085169063a9059cbb906044016020604051808303816000875af1158015612331573d6000803e3d6000fd5b505050506040513d601f19601f820116820180604052508101906123559190612ab0565b506040517f70a0823100000000000000000000000000000000000000000000000000000000815230600482015260009073ffffffffffffffffffffffffffffffffffffffff8616906370a0823190602401602060405180830381865afa1580156123c3573d6000803e3d6000fd5b505050506040513d601f19601f820116820180604052508101906123e79190612996565b905060006123f58583612a99565b9050828114612460576040517f08c379a000000000000000000000000000000000000000000000000000000000815260206004820152601d60248201527f68546f6b656e3a20696e636f7272656374206e65772062616c616e63650000006044820152606401610144565b7fe9fcff60011c1a99f7b7244d1f2d9da93d79ea8ef3654ce590d775575255b2bd546040517f0d5e2c1d00000000000000000000000000000000000000000000000000000000815273ffffffffffffffffffffffffffffffffffffffff8981166004830152602482018b90529190911690630d5e2c1d90604401600060405180830381600087803b1580156124f457600080fd5b505af1158015612508573d6000803e3d6000fd5b505050508873ffffffffffffffffffffffffffffffffffffffff168a73ffffffffffffffffffffffffffffffffffffffff167f42856d0378dde02337bb59ae41747abc77ded8ebdbbc5cbdd1e53693b75549388560405161256b91815260200190565b60405180910390a350505050505050505050565b60006125a97f4e5f991bca30eca2d4643aaefa807e88f96a4a97398933d572a3c0d973004a015490565b15612610576040517f08c379a000000000000000000000000000000000000000000000000000000000815260206004820152601a60248201527f45524332303a20616c726561647920696e697469616c697a65640000000000006044820152606401610144565b337fe9fcff60011c1a99f7b7244d1f2d9da93d79ea8ef3654ce590d775575255b2bd8190557fb56711ba6bd3ded7639fc335ee7524fe668a79d7558c85992e3f8494cf7727775473ffffffffffffffffffffffffffffffffffffffff81166126d4576040517f08c379a000000000000000000000000000000000000000000000000000000000815260206004820152601860248201527f484f4c4f47524150483a206f776e6572206e6f742073657400000000000000006044820152606401610144565b6126fd60017f4e5f991bca30eca2d4643aaefa807e88f96a4a97398933d572a3c0d973004a0155565b507f4ddf47d4000000000000000000000000000000000000000000000000000000009392505050565b60006020828403121561273857600080fd5b81357fffffffff000000000000000000000000000000000000000000000000000000008116811461276857600080fd5b9392505050565b73ffffffffffffffffffffffffffffffffffffffff8116811461061657600080fd5b6000602082840312156127a357600080fd5b81356127688161276f565b7f4e487b7100000000000000000000000000000000000000000000000000000000600052604160045260246000fd5b6000602082840312156127ef57600080fd5b813567ffffffffffffffff8082111561280757600080fd5b818401915084601f83011261281b57600080fd5b81358181111561282d5761282d6127ae565b604051601f82017fffffffffffffffffffffffffffffffffffffffffffffffffffffffffffffffe0908116603f01168101908382118183101715612873576128736127ae565b8160405282815287602084870101111561288c57600080fd5b826020860160208301376000928101602001929092525095945050505050565b600080604083850312156128bf57600080fd5b82356128ca8161276f565b946020939093013593505050565b801515811461061657600080fd5b600080604083850312156128f957600080fd5b82356129048161276f565b91506020830135612914816128d8565b809150509250929050565b60008060006060848603121561293457600080fd5b833561293f8161276f565b9250602084013561294f8161276f565b929592945050506040919091013590565b6000806040838503121561297357600080fd5b825161297e8161276f565b602084015190925061ffff8116811461291457600080fd5b6000602082840312156129a857600080fd5b5051919050565b6000602082840312156129c157600080fd5b81516127688161276f565b6000602082840312156129de57600080fd5b815163ffffffff8116811461276857600080fd5b7f4e487b7100000000000000000000000000000000000000000000000000000000600052601160045260246000fd5b600082612a57577f4e487b7100000000000000000000000000000000000000000000000000000000600052601260045260246000fd5b500490565b6000817fffffffffffffffffffffffffffffffffffffffffffffffffffffffffffffffff0483118215151615612a9457612a946129f2565b500290565b600082821015612aab57612aab6129f2565b500390565b600060208284031215612ac257600080fd5b8151612768816128d856fea164736f6c634300080d000a",
  "devdoc": {
    "author": "CXIP-Labs",
    "details": "The entire logic and functionality of the smart contract is self-contained.",
    "events": {
      "Deposit(address,uint256)": {
        "details": "Event that is triggered when native token is converted into hToken."
      },
      "TokenDeposit(address,address,uint256)": {
        "details": "Event that is triggered when ERC20 token is converted into hToken."
      },
      "TokenWithdrawal(address,address,uint256)": {
        "details": "Event that is triggered when hToken is converted into ERC20 token."
      },
      "Withdrawal(address,uint256)": {
        "details": "Event that is triggered when hToken is converted into native token."
      }
    },
    "kind": "dev",
    "methods": {
      "constructor": {
        "details": "Constructor is left empty and init is used instead"
      },
      "extractNativeToken(address,uint256)": {
        "details": "Send hToken, get back native token value equivalent.",
        "params": {
          "recipient": "Address of where to send the native token(s) to."
        }
      },
      "extractWrappedToken(address,address,uint256)": {
        "details": "Send hToken, get back native token value equivalent.",
        "params": {
          "recipient": "Address of where to send the native token(s) to."
        }
      },
      "holographNativeToken(address)": {
        "details": "Send native token value, get back hToken equivalent.",
        "params": {
          "recipient": "Address of where to send the hToken(s) to."
        }
      },
      "holographWrappedToken(address,address,uint256)": {
        "details": "Send supported wrapped token, get back hToken equivalent.",
        "params": {
          "recipient": "Address of where to send the hToken(s) to."
        }
      },
      "init(bytes)": {
        "details": "This function is called by the deployer/factory when creating a contract",
        "params": {
          "initPayload": "abi encoded payload to use for contract initilaization"
        }
      },
      "isHToken()": {
        "details": "Temporarily placed to bypass bytecode conflicts"
      },
      "owner()": {
        "details": "Address of initial creator/owner of the token contract."
      }
    },
    "stateVariables": {
      "_feeBp": {
        "details": "Sample fee for unwrapping."
      },
      "_supportedWrappers": {
        "details": "List of supported Wrapped Tokens (equivalent), on current-chain."
      }
    },
    "title": "Holograph token (aka hToken), used to wrap and bridge native tokens across blockchains.",
    "version": 1
  },
  "userdoc": {
    "kind": "user",
    "methods": {
      "init(bytes)": {
        "notice": "Used internally to initialize the contract instead of through a constructor"
      }
    },
    "notice": "A smart contract for minting and managing Holograph's Bridgeable ERC20 Tokens.",
    "version": 1
  },
  "storageLayout": {
    "storage": [
      {
        "astId": 23512,
        "contract": "contracts/token/hToken.sol:hToken",
        "label": "_feeBp",
        "offset": 0,
        "slot": "0",
        "type": "t_uint16"
      },
      {
        "astId": 23517,
        "contract": "contracts/token/hToken.sol:hToken",
        "label": "_supportedWrappers",
        "offset": 0,
        "slot": "1",
        "type": "t_mapping(t_address,t_bool)"
      }
    ],
    "types": {
      "t_address": {
        "encoding": "inplace",
        "label": "address",
        "numberOfBytes": "20"
      },
      "t_bool": {
        "encoding": "inplace",
        "label": "bool",
        "numberOfBytes": "1"
      },
      "t_mapping(t_address,t_bool)": {
        "encoding": "mapping",
        "key": "t_address",
        "label": "mapping(address => bool)",
        "numberOfBytes": "32",
        "value": "t_bool"
      },
      "t_uint16": {
        "encoding": "inplace",
        "label": "uint16",
        "numberOfBytes": "2"
      }
    }
  }
}