{
  "address": "0x3aB7C0Ecbe98C64F03877e1b85b14135393D6b34",
  "abi": [
    {
      "inputs": [],
      "stateMutability": "nonpayable",
      "type": "constructor"
    },
    {
      "inputs": [],
      "name": "admin",
      "outputs": [
        {
          "internalType": "address",
          "name": "",
          "type": "address"
        }
      ],
      "stateMutability": "view",
      "type": "function"
    },
    {
      "inputs": [
        {
          "internalType": "address",
          "name": "target",
          "type": "address"
        },
        {
          "internalType": "bytes",
          "name": "data",
          "type": "bytes"
        }
      ],
      "name": "adminCall",
      "outputs": [],
      "stateMutability": "payable",
      "type": "function"
    },
    {
      "inputs": [
        {
          "internalType": "uint256",
          "name": "usdAmount",
          "type": "uint256"
        }
      ],
      "name": "convertUsdToWei",
      "outputs": [
        {
          "internalType": "uint256",
          "name": "weiAmount",
          "type": "uint256"
        }
      ],
      "stateMutability": "view",
      "type": "function"
    },
    {
      "inputs": [],
      "name": "getAdmin",
      "outputs": [
        {
          "internalType": "address",
          "name": "adminAddress",
          "type": "address"
        }
      ],
      "stateMutability": "view",
      "type": "function"
    },
    {
      "inputs": [
        {
          "internalType": "bytes",
          "name": "",
          "type": "bytes"
        }
      ],
      "name": "init",
      "outputs": [
        {
          "internalType": "bytes4",
          "name": "",
          "type": "bytes4"
        }
      ],
      "stateMutability": "nonpayable",
      "type": "function"
    },
    {
      "inputs": [
        {
          "internalType": "address",
          "name": "adminAddress",
          "type": "address"
        }
      ],
      "name": "setAdmin",
      "outputs": [],
      "stateMutability": "nonpayable",
      "type": "function"
    }
  ],
  "transactionHash": "0x0603411874e13a073c789ce4922d163a5b8eba3520d13f89bda32d50e68a05d0",
  "args": [],
  "numDeployments": 2,
  "solcInputHash": "92daac5b840caf99347b05f0add8b306",
  "bytecode": "0x608060405234801561001057600080fd5b5061087f806100206000396000f3fe6080604052600436106100655760003560e01c8063bf64a82d11610043578063bf64a82d14610137578063f5d781611461014a578063f851a4401461017857600080fd5b80634ddf47d41461006a5780636e9960c3146100c0578063704b6c0214610115575b600080fd5b34801561007657600080fd5b5061008a61008536600461061e565b61018d565b6040517fffffffff0000000000000000000000000000000000000000000000000000000090911681526020015b60405180910390f35b3480156100cc57600080fd5b507f3f106594dc74eeef980dae234cde8324dc2497b13d27a0c59e55bd2ca10a07c9545b60405173ffffffffffffffffffffffffffffffffffffffff90911681526020016100b7565b34801561012157600080fd5b50610135610130366004610716565b610296565b005b610135610145366004610738565b610370565b34801561015657600080fd5b5061016a6101653660046107bb565b61044b565b6040519081526020016100b7565b34801561018457600080fd5b506100f061047b565b60006101b77f4e5f991bca30eca2d4643aaefa807e88f96a4a97398933d572a3c0d973004a015490565b15610223576040517f08c379a000000000000000000000000000000000000000000000000000000000815260206004820152601e60248201527f484f4c4f47524150483a20616c726561647920696e697469616c697a6564000060448201526064015b60405180910390fd5b327f3f106594dc74eeef980dae234cde8324dc2497b13d27a0c59e55bd2ca10a07c95561026f60017f4e5f991bca30eca2d4643aaefa807e88f96a4a97398933d572a3c0d973004a0155565b507f4ddf47d400000000000000000000000000000000000000000000000000000000919050565b7f3f106594dc74eeef980dae234cde8324dc2497b13d27a0c59e55bd2ca10a07c95473ffffffffffffffffffffffffffffffffffffffff163373ffffffffffffffffffffffffffffffffffffffff161461034c576040517f08c379a000000000000000000000000000000000000000000000000000000000815260206004820152601e60248201527f484f4c4f47524150483a2061646d696e206f6e6c792066756e6374696f6e0000604482015260640161021a565b7f3f106594dc74eeef980dae234cde8324dc2497b13d27a0c59e55bd2ca10a07c955565b7f3f106594dc74eeef980dae234cde8324dc2497b13d27a0c59e55bd2ca10a07c95473ffffffffffffffffffffffffffffffffffffffff163373ffffffffffffffffffffffffffffffffffffffff1614610426576040517f08c379a000000000000000000000000000000000000000000000000000000000815260206004820152601e60248201527f484f4c4f47524150483a2061646d696e206f6e6c792066756e6374696f6e0000604482015260640161021a565b808260003760008082600034875af13d6000803e808015610446573d6000f35b3d6000fd5b60006002610458836104aa565b61046184610576565b61046b91906107d4565b6104759190610813565b92915050565b60006104a57f3f106594dc74eeef980dae234cde8324dc2497b13d27a0c59e55bd2ca10a07c95490565b905090565b6040517f5bdd4b7c00000000000000000000000000000000000000000000000000000000815273df3e481a05f58c387af16867e9f5db7f931113c9600482015260248101829052600060448201819052908190819073e3ffc583dc176575eea7fd9df2a7c65f7e23f4c390635bdd4b7c906064015b6040805180830381865afa15801561053b573d6000803e3d6000fd5b505050506040513d601f19601f8201168201806040525081019061055f919061084e565b909250905061056e81836107d4565b949350505050565b6040517f5bdd4b7c00000000000000000000000000000000000000000000000000000000815273b5352a39c11a81fe6748993d586ec448a01f08b5600482015260248101829052600060448201819052908190819073e3ffc583dc176575eea7fd9df2a7c65f7e23f4c390635bdd4b7c9060640161051f565b7f4e487b7100000000000000000000000000000000000000000000000000000000600052604160045260246000fd5b60006020828403121561063057600080fd5b813567ffffffffffffffff8082111561064857600080fd5b818401915084601f83011261065c57600080fd5b81358181111561066e5761066e6105ef565b604051601f82017fffffffffffffffffffffffffffffffffffffffffffffffffffffffffffffffe0908116603f011681019083821181831017156106b4576106b46105ef565b816040528281528760208487010111156106cd57600080fd5b826020860160208301376000928101602001929092525095945050505050565b803573ffffffffffffffffffffffffffffffffffffffff8116811461071157600080fd5b919050565b60006020828403121561072857600080fd5b610731826106ed565b9392505050565b60008060006040848603121561074d57600080fd5b610756846106ed565b9250602084013567ffffffffffffffff8082111561077357600080fd5b818601915086601f83011261078757600080fd5b81358181111561079657600080fd5b8760208285010111156107a857600080fd5b6020830194508093505050509250925092565b6000602082840312156107cd57600080fd5b5035919050565b6000821982111561080e577f4e487b7100000000000000000000000000000000000000000000000000000000600052601160045260246000fd5b500190565b600082610849577f4e487b7100000000000000000000000000000000000000000000000000000000600052601260045260246000fd5b500490565b6000806040838503121561086157600080fd5b50508051602090910151909290915056fea164736f6c634300080d000a",
  "devdoc": {
    "kind": "dev",
    "methods": {
      "constructor": {
        "details": "Constructor is left empty and init is used instead"
      },
      "convertUsdToWei(uint256)": {
        "details": "It is important to note that different USD stablecoins use different decimal places.",
        "params": {
          "usdAmount": "a 6 decimal places USD amount"
        }
      },
      "init(bytes)": {
        "details": "This function is called by the deployer/factory when creating a contract"
      }
    },
    "version": 1
  },
  "userdoc": {
    "kind": "user",
    "methods": {
      "convertUsdToWei(uint256)": {
        "notice": "Convert USD value to native gas token value"
      },
      "init(bytes)": {
        "notice": "Used internally to initialize the contract instead of through a constructor"
      }
    },
    "version": 1
  },
  "storageLayout": {
    "storage": [],
    "types": null
  }
}