{
  "address": "0xd7Ab9082D9339aa3F5A405E68C49d346AD535408",
  "abi": [
    {
      "inputs": [],
      "stateMutability": "nonpayable",
      "type": "constructor"
    },
    {
      "inputs": [
        {
          "internalType": "bytes",
          "name": "",
          "type": "bytes"
        }
      ],
      "name": "init",
      "outputs": [
        {
          "internalType": "bytes4",
          "name": "",
          "type": "bytes4"
        }
      ],
      "stateMutability": "nonpayable",
      "type": "function"
    },
    {
      "inputs": [],
      "name": "withdraw",
      "outputs": [],
      "stateMutability": "nonpayable",
      "type": "function"
    }
  ],
  "transactionHash": "0xffa7e0a1d3a4457e6754303679a4a28197dac1c4adca97a208d5c8e238b82d90",
  "args": [],
  "numDeployments": 1,
  "solcInputHash": "3377f99df4c4df41ea2d5191435a70a1",
  "bytecode": "0x608060405234801561001057600080fd5b506101fb806100206000396000f3fe608060405234801561001057600080fd5b50600436106100365760003560e01c80633ccfd60b1461003b5780634ddf47d414610045575b600080fd5b6100436100ad565b005b61007861005336600461011f565b507f4ddf47d40000000000000000000000000000000000000000000000000000000090565b6040517fffffffff00000000000000000000000000000000000000000000000000000000909116815260200160405180910390f35b60405173c0ffee78121f208475abdd2cf0853a7afed64749904780156108fc02916000818181858888f193505050501580156100ed573d6000803e3d6000fd5b50565b7f4e487b7100000000000000000000000000000000000000000000000000000000600052604160045260246000fd5b60006020828403121561013157600080fd5b813567ffffffffffffffff8082111561014957600080fd5b818401915084601f83011261015d57600080fd5b81358181111561016f5761016f6100f0565b604051601f82017fffffffffffffffffffffffffffffffffffffffffffffffffffffffffffffffe0908116603f011681019083821181831017156101b5576101b56100f0565b816040528281528760208487010111156101ce57600080fd5b82602086016020830137600092810160200192909252509594505050505056fea164736f6c634300080d000a",
  "devdoc": {
    "kind": "dev",
    "methods": {},
    "version": 1
  },
  "userdoc": {
    "kind": "user",
    "methods": {},
    "version": 1
  },
  "storageLayout": {
    "storage": [],
    "types": null
  }
}