{
  "address": "0xB0eFe2aDcA7F58c9fD5F9A689E37b9f9277d31EA",
  "abi": [
    {
      "inputs": [],
      "stateMutability": "nonpayable",
      "type": "constructor"
    },
    {
      "inputs": [
        {
          "internalType": "bytes32",
          "name": "role",
          "type": "bytes32"
        }
      ],
      "name": "Access_MissingRoleOrAdmin",
      "type": "error"
    },
    {
      "inputs": [],
      "name": "Access_OnlyAdmin",
      "type": "error"
    },
    {
      "inputs": [],
      "name": "Access_WithdrawNotAllowed",
      "type": "error"
    },
    {
      "inputs": [
        {
          "internalType": "address",
          "name": "proposedAddress",
          "type": "address"
        }
      ],
      "name": "Admin_InvalidUpgradeAddress",
      "type": "error"
    },
    {
      "inputs": [],
      "name": "Admin_UnableToFinalizeNotOpenEdition",
      "type": "error"
    },
    {
      "inputs": [],
      "name": "ExternalMetadataRenderer_CallFailed",
      "type": "error"
    },
    {
      "inputs": [],
      "name": "MarketFilterAddressNotSupportedForChain",
      "type": "error"
    },
    {
      "inputs": [],
      "name": "MarketFilterDAOAddressNotSupportedForChain",
      "type": "error"
    },
    {
      "inputs": [],
      "name": "MintFee_FundsSendFailure",
      "type": "error"
    },
    {
      "inputs": [],
      "name": "Mint_SoldOut",
      "type": "error"
    },
    {
      "inputs": [
        {
          "internalType": "address",
          "name": "operator",
          "type": "address"
        }
      ],
      "name": "OperatorNotAllowed",
      "type": "error"
    },
    {
      "inputs": [],
      "name": "Presale_Inactive",
      "type": "error"
    },
    {
      "inputs": [],
      "name": "Presale_MerkleNotApproved",
      "type": "error"
    },
    {
      "inputs": [],
      "name": "Presale_TooManyForAddress",
      "type": "error"
    },
    {
      "inputs": [],
      "name": "Purchase_TooManyForAddress",
      "type": "error"
    },
    {
      "inputs": [
        {
          "internalType": "uint256",
          "name": "correctPrice",
          "type": "uint256"
        }
      ],
      "name": "Purchase_WrongPrice",
      "type": "error"
    },
    {
      "inputs": [],
      "name": "RemoteOperatorFilterRegistryCallFailed",
      "type": "error"
    },
    {
      "inputs": [],
      "name": "Sale_Inactive",
      "type": "error"
    },
    {
      "inputs": [
        {
          "internalType": "uint16",
          "name": "maxRoyaltyBPS",
          "type": "uint16"
        }
      ],
      "name": "Setup_RoyaltyPercentageTooHigh",
      "type": "error"
    },
    {
      "inputs": [],
      "name": "Withdraw_FundsSendFailure",
      "type": "error"
    },
    {
      "anonymous": false,
      "inputs": [
        {
          "indexed": true,
          "internalType": "address",
          "name": "source",
          "type": "address"
        },
        {
          "indexed": false,
          "internalType": "uint256",
          "name": "amount",
          "type": "uint256"
        }
      ],
      "name": "FundsReceived",
      "type": "event"
    },
    {
      "anonymous": false,
      "inputs": [
        {
          "indexed": true,
          "internalType": "address",
          "name": "newAddress",
          "type": "address"
        },
        {
          "indexed": true,
          "internalType": "address",
          "name": "changedBy",
          "type": "address"
        }
      ],
      "name": "FundsRecipientChanged",
      "type": "event"
    },
    {
      "anonymous": false,
      "inputs": [
        {
          "indexed": true,
          "internalType": "address",
          "name": "withdrawnBy",
          "type": "address"
        },
        {
          "indexed": true,
          "internalType": "address",
          "name": "withdrawnTo",
          "type": "address"
        },
        {
          "indexed": false,
          "internalType": "uint256",
          "name": "amount",
          "type": "uint256"
        },
        {
          "indexed": false,
          "internalType": "address",
          "name": "feeRecipient",
          "type": "address"
        },
        {
          "indexed": false,
          "internalType": "uint256",
          "name": "feeAmount",
          "type": "uint256"
        }
      ],
      "name": "FundsWithdrawn",
      "type": "event"
    },
    {
      "anonymous": false,
      "inputs": [
        {
          "indexed": false,
          "internalType": "uint256",
          "name": "mintFeeAmount",
          "type": "uint256"
        },
        {
          "indexed": false,
          "internalType": "address",
          "name": "mintFeeRecipient",
          "type": "address"
        },
        {
          "indexed": false,
          "internalType": "bool",
          "name": "success",
          "type": "bool"
        }
      ],
      "name": "MintFeePayout",
      "type": "event"
    },
    {
      "anonymous": false,
      "inputs": [
        {
          "indexed": true,
          "internalType": "address",
          "name": "sender",
          "type": "address"
        },
        {
          "indexed": false,
          "internalType": "uint256",
          "name": "numberOfMints",
          "type": "uint256"
        }
      ],
      "name": "OpenMintFinalized",
      "type": "event"
    },
    {
      "anonymous": false,
      "inputs": [
        {
          "indexed": true,
          "internalType": "address",
          "name": "to",
          "type": "address"
        },
        {
          "indexed": true,
          "internalType": "uint256",
          "name": "quantity",
          "type": "uint256"
        },
        {
          "indexed": true,
          "internalType": "uint256",
          "name": "pricePerToken",
          "type": "uint256"
        },
        {
          "indexed": false,
          "internalType": "uint256",
          "name": "firstPurchasedTokenId",
          "type": "uint256"
        }
      ],
      "name": "Sale",
      "type": "event"
    },
    {
      "anonymous": false,
      "inputs": [
        {
          "indexed": true,
          "internalType": "address",
          "name": "changedBy",
          "type": "address"
        }
      ],
      "name": "SalesConfigChanged",
      "type": "event"
    },
    {
      "anonymous": false,
      "inputs": [
        {
          "indexed": false,
          "internalType": "address",
          "name": "sender",
          "type": "address"
        },
        {
          "indexed": false,
          "internalType": "contract IMetadataRenderer",
          "name": "renderer",
          "type": "address"
        }
      ],
      "name": "UpdatedMetadataRenderer",
      "type": "event"
    },
    {
      "stateMutability": "payable",
      "type": "fallback"
    },
    {
      "inputs": [
        {
          "internalType": "address",
          "name": "recipient",
          "type": "address"
        },
        {
          "internalType": "uint256",
          "name": "quantity",
          "type": "uint256"
        }
      ],
      "name": "adminMint",
      "outputs": [
        {
          "internalType": "uint256",
          "name": "",
          "type": "uint256"
        }
      ],
      "stateMutability": "nonpayable",
      "type": "function"
    },
    {
      "inputs": [
        {
          "internalType": "address[]",
          "name": "recipients",
          "type": "address[]"
        }
      ],
      "name": "adminMintAirdrop",
      "outputs": [
        {
          "internalType": "uint256",
          "name": "",
          "type": "uint256"
        }
      ],
      "stateMutability": "nonpayable",
      "type": "function"
    },
    {
      "inputs": [
        {
          "internalType": "address",
          "name": "_from",
          "type": "address"
        },
        {
          "internalType": "address",
          "name": "",
          "type": "address"
        },
        {
          "internalType": "uint256",
          "name": "",
          "type": "uint256"
        },
        {
          "internalType": "bytes",
          "name": "",
          "type": "bytes"
        }
      ],
      "name": "beforeSafeTransfer",
      "outputs": [
        {
          "internalType": "bool",
          "name": "success",
          "type": "bool"
        }
      ],
      "stateMutability": "view",
      "type": "function"
    },
    {
      "inputs": [
        {
          "internalType": "address",
          "name": "_from",
          "type": "address"
        },
        {
          "internalType": "address",
          "name": "",
          "type": "address"
        },
        {
          "internalType": "uint256",
          "name": "",
          "type": "uint256"
        },
        {
          "internalType": "bytes",
          "name": "",
          "type": "bytes"
        }
      ],
      "name": "beforeTransfer",
      "outputs": [
        {
          "internalType": "bool",
          "name": "success",
          "type": "bool"
        }
      ],
      "stateMutability": "view",
      "type": "function"
    },
    {
      "inputs": [],
      "name": "config",
      "outputs": [
        {
          "internalType": "contract IMetadataRenderer",
          "name": "metadataRenderer",
          "type": "address"
        },
        {
          "internalType": "uint64",
          "name": "editionSize",
          "type": "uint64"
        },
        {
          "internalType": "uint16",
          "name": "royaltyBPS",
          "type": "uint16"
        },
        {
          "internalType": "address payable",
          "name": "fundsRecipient",
          "type": "address"
        }
      ],
      "stateMutability": "view",
      "type": "function"
    },
    {
      "inputs": [],
      "name": "contractURI",
      "outputs": [
        {
          "internalType": "string",
          "name": "",
          "type": "string"
        }
      ],
      "stateMutability": "view",
      "type": "function"
    },
    {
      "inputs": [],
      "name": "erc721TransferHelper",
      "outputs": [
        {
          "internalType": "address",
          "name": "",
          "type": "address"
        }
      ],
      "stateMutability": "view",
      "type": "function"
    },
    {
      "inputs": [],
      "name": "finalizeOpenEdition",
      "outputs": [],
      "stateMutability": "nonpayable",
      "type": "function"
    },
    {
      "inputs": [
        {
          "internalType": "bytes",
          "name": "initPayload",
          "type": "bytes"
        }
      ],
      "name": "init",
      "outputs": [
        {
          "internalType": "bytes4",
          "name": "",
          "type": "bytes4"
        }
      ],
      "stateMutability": "nonpayable",
      "type": "function"
    },
    {
      "inputs": [
        {
          "internalType": "address",
          "name": "user",
          "type": "address"
        }
      ],
      "name": "isAdmin",
      "outputs": [
        {
          "internalType": "bool",
          "name": "",
          "type": "bool"
        }
      ],
      "stateMutability": "view",
      "type": "function"
    },
    {
      "inputs": [
        {
          "internalType": "address",
          "name": "wallet",
          "type": "address"
        }
      ],
      "name": "isOwner",
      "outputs": [
        {
          "internalType": "bool",
          "name": "",
          "type": "bool"
        }
      ],
      "stateMutability": "view",
      "type": "function"
    },
    {
      "inputs": [],
      "name": "isOwner",
      "outputs": [
        {
          "internalType": "bool",
          "name": "",
          "type": "bool"
        }
      ],
      "stateMutability": "view",
      "type": "function"
    },
    {
      "inputs": [
        {
          "internalType": "bool",
          "name": "enable",
          "type": "bool"
        }
      ],
      "name": "manageMarketFilterSubscription",
      "outputs": [],
      "stateMutability": "nonpayable",
      "type": "function"
    },
    {
      "inputs": [],
      "name": "marketFilterAddress",
      "outputs": [
        {
          "internalType": "address",
          "name": "",
          "type": "address"
        }
      ],
      "stateMutability": "view",
      "type": "function"
    },
    {
      "inputs": [],
      "name": "metadataRenderer",
      "outputs": [
        {
          "internalType": "contract IMetadataRenderer",
          "name": "",
          "type": "address"
        }
      ],
      "stateMutability": "view",
      "type": "function"
    },
    {
      "inputs": [
        {
          "internalType": "address",
          "name": "minter",
          "type": "address"
        }
      ],
      "name": "mintedPerAddress",
      "outputs": [
        {
          "components": [
            {
              "internalType": "uint256",
              "name": "totalMints",
              "type": "uint256"
            },
            {
              "internalType": "uint256",
              "name": "presaleMints",
              "type": "uint256"
            },
            {
              "internalType": "uint256",
              "name": "publicMints",
              "type": "uint256"
            }
          ],
          "internalType": "struct AddressMintDetails",
          "name": "",
          "type": "tuple"
        }
      ],
      "stateMutability": "view",
      "type": "function"
    },
    {
      "inputs": [
        {
          "internalType": "address",
          "name": "newMarketFilterAddress",
          "type": "address"
        }
      ],
      "name": "modifyMarketFilterAddress",
      "outputs": [],
      "stateMutability": "nonpayable",
      "type": "function"
    },
    {
      "inputs": [
        {
          "internalType": "bytes[]",
          "name": "data",
          "type": "bytes[]"
        }
      ],
      "name": "multicall",
      "outputs": [
        {
          "internalType": "bytes[]",
          "name": "results",
          "type": "bytes[]"
        }
      ],
      "stateMutability": "nonpayable",
      "type": "function"
    },
    {
      "inputs": [
        {
          "internalType": "address",
          "name": "",
          "type": "address"
        },
        {
          "internalType": "address",
          "name": "_operator",
          "type": "address"
        }
      ],
      "name": "onIsApprovedForAll",
      "outputs": [
        {
          "internalType": "bool",
          "name": "approved",
          "type": "bool"
        }
      ],
      "stateMutability": "view",
      "type": "function"
    },
    {
      "inputs": [],
      "name": "operatorFilterRegistry",
      "outputs": [
        {
          "internalType": "contract IOperatorFilterRegistry",
          "name": "",
          "type": "address"
        }
      ],
      "stateMutability": "view",
      "type": "function"
    },
    {
      "inputs": [],
      "name": "owner",
      "outputs": [
        {
          "internalType": "address",
          "name": "",
          "type": "address"
        }
      ],
      "stateMutability": "view",
      "type": "function"
    },
    {
      "inputs": [
        {
          "internalType": "address",
          "name": "",
          "type": "address"
        }
      ],
      "name": "presaleMintsByAddress",
      "outputs": [
        {
          "internalType": "uint256",
          "name": "",
          "type": "uint256"
        }
      ],
      "stateMutability": "view",
      "type": "function"
    },
    {
      "inputs": [
        {
          "internalType": "uint256",
          "name": "quantity",
          "type": "uint256"
        }
      ],
      "name": "purchase",
      "outputs": [
        {
          "internalType": "uint256",
          "name": "",
          "type": "uint256"
        }
      ],
      "stateMutability": "payable",
      "type": "function"
    },
    {
      "inputs": [
        {
          "internalType": "uint256",
          "name": "quantity",
          "type": "uint256"
        },
        {
          "internalType": "uint256",
          "name": "maxQuantity",
          "type": "uint256"
        },
        {
          "internalType": "uint256",
          "name": "pricePerToken",
          "type": "uint256"
        },
        {
          "internalType": "bytes32[]",
          "name": "merkleProof",
          "type": "bytes32[]"
        }
      ],
      "name": "purchasePresale",
      "outputs": [
        {
          "internalType": "uint256",
          "name": "",
          "type": "uint256"
        }
      ],
      "stateMutability": "payable",
      "type": "function"
    },
    {
      "inputs": [],
      "name": "saleDetails",
      "outputs": [
        {
          "components": [
            {
              "internalType": "bool",
              "name": "publicSaleActive",
              "type": "bool"
            },
            {
              "internalType": "bool",
              "name": "presaleActive",
              "type": "bool"
            },
            {
              "internalType": "uint256",
              "name": "publicSalePrice",
              "type": "uint256"
            },
            {
              "internalType": "uint64",
              "name": "publicSaleStart",
              "type": "uint64"
            },
            {
              "internalType": "uint64",
              "name": "publicSaleEnd",
              "type": "uint64"
            },
            {
              "internalType": "uint64",
              "name": "presaleStart",
              "type": "uint64"
            },
            {
              "internalType": "uint64",
              "name": "presaleEnd",
              "type": "uint64"
            },
            {
              "internalType": "bytes32",
              "name": "presaleMerkleRoot",
              "type": "bytes32"
            },
            {
              "internalType": "uint256",
              "name": "maxSalePurchasePerAddress",
              "type": "uint256"
            },
            {
              "internalType": "uint256",
              "name": "totalMinted",
              "type": "uint256"
            },
            {
              "internalType": "uint256",
              "name": "maxSupply",
              "type": "uint256"
            }
          ],
          "internalType": "struct SaleDetails",
          "name": "",
          "type": "tuple"
        }
      ],
      "stateMutability": "view",
      "type": "function"
    },
    {
      "inputs": [],
      "name": "salesConfig",
      "outputs": [
        {
          "internalType": "uint104",
          "name": "publicSalePrice",
          "type": "uint104"
        },
        {
          "internalType": "uint32",
          "name": "maxSalePurchasePerAddress",
          "type": "uint32"
        },
        {
          "internalType": "uint64",
          "name": "publicSaleStart",
          "type": "uint64"
        },
        {
          "internalType": "uint64",
          "name": "publicSaleEnd",
          "type": "uint64"
        },
        {
          "internalType": "uint64",
          "name": "presaleStart",
          "type": "uint64"
        },
        {
          "internalType": "uint64",
          "name": "presaleEnd",
          "type": "uint64"
        },
        {
          "internalType": "bytes32",
          "name": "presaleMerkleRoot",
          "type": "bytes32"
        }
      ],
      "stateMutability": "view",
      "type": "function"
    },
    {
      "inputs": [
        {
          "internalType": "address payable",
          "name": "newRecipientAddress",
          "type": "address"
        }
      ],
      "name": "setFundsRecipient",
      "outputs": [],
      "stateMutability": "nonpayable",
      "type": "function"
    },
    {
      "inputs": [
        {
          "internalType": "contract IMetadataRenderer",
          "name": "newRenderer",
          "type": "address"
        },
        {
          "internalType": "bytes",
          "name": "setupRenderer",
          "type": "bytes"
        }
      ],
      "name": "setMetadataRenderer",
      "outputs": [],
      "stateMutability": "nonpayable",
      "type": "function"
    },
    {
      "inputs": [
        {
          "internalType": "uint104",
          "name": "publicSalePrice",
          "type": "uint104"
        },
        {
          "internalType": "uint32",
          "name": "maxSalePurchasePerAddress",
          "type": "uint32"
        },
        {
          "internalType": "uint64",
          "name": "publicSaleStart",
          "type": "uint64"
        },
        {
          "internalType": "uint64",
          "name": "publicSaleEnd",
          "type": "uint64"
        },
        {
          "internalType": "uint64",
          "name": "presaleStart",
          "type": "uint64"
        },
        {
          "internalType": "uint64",
          "name": "presaleEnd",
          "type": "uint64"
        },
        {
          "internalType": "bytes32",
          "name": "presaleMerkleRoot",
          "type": "bytes32"
        }
      ],
      "name": "setSaleConfiguration",
      "outputs": [],
      "stateMutability": "nonpayable",
      "type": "function"
    },
    {
      "inputs": [
        {
          "internalType": "bytes4",
          "name": "interfaceId",
          "type": "bytes4"
        }
      ],
      "name": "supportsInterface",
      "outputs": [
        {
          "internalType": "bool",
          "name": "",
          "type": "bool"
        }
      ],
      "stateMutability": "pure",
      "type": "function"
    },
    {
      "inputs": [
        {
          "internalType": "uint256",
          "name": "tokenId",
          "type": "uint256"
        }
      ],
      "name": "tokenURI",
      "outputs": [
        {
          "internalType": "string",
          "name": "",
          "type": "string"
        }
      ],
      "stateMutability": "view",
      "type": "function"
    },
    {
      "inputs": [
        {
          "internalType": "address",
          "name": "",
          "type": "address"
        }
      ],
      "name": "totalMintsByAddress",
      "outputs": [
        {
          "internalType": "uint256",
          "name": "",
          "type": "uint256"
        }
      ],
      "stateMutability": "view",
      "type": "function"
    },
    {
      "inputs": [
        {
          "internalType": "bytes",
          "name": "args",
          "type": "bytes"
        }
      ],
      "name": "updateMarketFilterSettings",
      "outputs": [
        {
          "internalType": "bytes",
          "name": "",
          "type": "bytes"
        }
      ],
      "stateMutability": "nonpayable",
      "type": "function"
    },
    {
      "inputs": [],
      "name": "withdraw",
      "outputs": [],
      "stateMutability": "nonpayable",
      "type": "function"
    },
    {
      "stateMutability": "payable",
      "type": "receive"
    }
  ],
  "transactionHash": "0xb161c13ed05e74d61bb6d3a9cb20ee0ccbf20a9736f33d1f3711ae09525d7d13",
  "args": [],
  "numDeployments": 1,
  "solcInputHash": "d59a718925c0a146f07bafbe0b57c234",
  "bytecode": "0x608060405234801561001057600080fd5b5061591b80620000216000396000f3fe60806040526004361061021d5760003560e01c806379502c551161011d578063b8ae5a2c116100b0578063e58306f91161007f578063efef39a111610064578063efef39a1146108fe578063f7cd1d9b14610911578063ffdb71631461093e57610297565b8063e58306f9146108c9578063e8a3d485146108e957610297565b8063b8ae5a2c1461081a578063bb20d8571461083a578063c87b56dd14610867578063d445b9781461088757610297565b80638f32d59b116100ec5780638f32d59b1461077e5780639123f01e14610793578063ac9650d8146107c0578063b0ccc31e146107ed57610297565b806379502c551461066057806384816f2a146107295780638a1968de146107495780638da5cb5b1461076957610297565b80632f54bf6e116101b05780633ccfd60b1161017f5780634ddf47d4116101645780634ddf47d4146105b757806361fea76814610608578063703199701461063557610297565b80633ccfd60b1461058d57806341e96eb1146105a257610297565b80632f54bf6e1461052b578063343b278f146104b95780633474a4a61461054b5780633bcdcc871461056d57610297565b806324d7806c116101ec57806324d7806c1461047857806325024a2b146104985780632ca16676146104b95780632f0ae5fa146104d957610297565b8063015eaa7a146102d557806301ffc9a71461030a57806310a7eb5d1461036c5780631d2c0b381461038c57610297565b3661029757367fffffffffffffffffffffffffffffffffffffffffffffffffffffffffffffffe0013573ffffffffffffffffffffffffffffffffffffffff167f8e47b87b0ef542cdfa1659c551d88bad38aa7f452d2bbb349ab7530dfec8be8f3460405161028d91815260200190565b60405180910390a2005b337fe9fcff60011c1a99f7b7244d1f2d9da93d79ea8ef3654ce590d775575255b2bd5414600181146102c857600080fd5b600160805260206080f35b005b3480156102e157600080fd5b506102f56102f0366004614c66565b61095e565b60405190151581526020015b60405180910390f35b34801561031657600080fd5b506102f5610325366004614c9f565b7fffffffff00000000000000000000000000000000000000000000000000000000167f1a95c452000000000000000000000000000000000000000000000000000000001490565b34801561037857600080fd5b506102d3610387366004614ce1565b6109a9565b34801561039857600080fd5b5060065460075460085461041f926cffffffffffffffffffffffffff8116926d0100000000000000000000000000820463ffffffff16927101000000000000000000000000000000000090920467ffffffffffffffff9081169281831692680100000000000000008104831692700100000000000000000000000000000000909104169087565b604080516cffffffffffffffffffffffffff909816885263ffffffff909616602088015267ffffffffffffffff948516958701959095529183166060860152821660808501521660a083015260c082015260e001610301565b34801561048457600080fd5b506102f5610493366004614ce1565b610c40565b6104ab6104a6366004614d4a565b610c9e565b604051908152602001610301565b3480156104c557600080fd5b506102f56104d4366004614ded565b61122d565b3480156104e557600080fd5b506002546105069073ffffffffffffffffffffffffffffffffffffffff1681565b60405173ffffffffffffffffffffffffffffffffffffffff9091168152602001610301565b34801561053757600080fd5b506102f5610546366004614ce1565b611441565b34801561055757600080fd5b506105606114a0565b6040516103019190614e4f565b34801561057957600080fd5b506102d361058836600461505e565b61160b565b34801561059957600080fd5b506102d36118fb565b3480156105ae57600080fd5b506102d3611dbb565b3480156105c357600080fd5b506105d76105d23660046150ae565b6120dd565b6040517fffffffff000000000000000000000000000000000000000000000000000000009091168152602001610301565b34801561061457600080fd5b506104ab610623366004614ce1565b60096020526000908152604090205481565b34801561064157600080fd5b5060045473ffffffffffffffffffffffffffffffffffffffff16610506565b34801561066c57600080fd5b506004546005546106dc9173ffffffffffffffffffffffffffffffffffffffff8082169274010000000000000000000000000000000000000000830467ffffffffffffffff16927c0100000000000000000000000000000000000000000000000000000000900461ffff16911684565b6040805173ffffffffffffffffffffffffffffffffffffffff958616815267ffffffffffffffff909416602085015261ffff90921691830191909152919091166060820152608001610301565b34801561073557600080fd5b506102d3610744366004614ce1565b6126e9565b34801561075557600080fd5b506102d36107643660046150f1565b612902565b34801561077557600080fd5b50610506612dbf565b34801561078a57600080fd5b506102f5612dee565b34801561079f57600080fd5b506104ab6107ae366004614ce1565b600a6020526000908152604090205481565b3480156107cc57600080fd5b506107e06107db36600461510e565b612eea565b604051610301919061524b565b3480156107f957600080fd5b506003546105069073ffffffffffffffffffffffffffffffffffffffff1681565b34801561082657600080fd5b506104ab6108353660046152cb565b612feb565b34801561084657600080fd5b5061085a61085536600461530d565b6132ee565b6040516103019190615343565b34801561087357600080fd5b5061085a610882366004615356565b61357f565b34801561089357600080fd5b506108a76108a2366004614ce1565b613756565b6040805182518152602080840151908201529181015190820152606001610301565b3480156108d557600080fd5b506104ab6108e436600461536f565b6137db565b3480156108f557600080fd5b5061085a613aa3565b6104ab61090c366004615356565b613b5a565b34801561091d57600080fd5b506001546105069073ffffffffffffffffffffffffffffffffffffffff1681565b34801561094a57600080fd5b506102d36109593660046153de565b613fe7565b60015460009073ffffffffffffffffffffffffffffffffffffffff16158015906109a2575060015473ffffffffffffffffffffffffffffffffffffffff8381169116145b9392505050565b7fe9fcff60011c1a99f7b7244d1f2d9da93d79ea8ef3654ce590d775575255b2bd5473ffffffffffffffffffffffffffffffffffffffff163303610aca577fb56711ba6bd3ded7639fc335ee7524fe668a79d7558c85992e3f8494cf7727775473ffffffffffffffffffffffffffffffffffffffff16367fffffffffffffffffffffffffffffffffffffffffffffffffffffffffffffffe0013573ffffffffffffffffffffffffffffffffffffffff1614610ac5576040517f08c379a000000000000000000000000000000000000000000000000000000000815260206004820152601b60248201527f4552433732313a206f776e6572206f6e6c792066756e6374696f6e000000000060448201526064015b60405180910390fd5b610b80565b7fb56711ba6bd3ded7639fc335ee7524fe668a79d7558c85992e3f8494cf7727775473ffffffffffffffffffffffffffffffffffffffff163373ffffffffffffffffffffffffffffffffffffffff1614610b80576040517f08c379a000000000000000000000000000000000000000000000000000000000815260206004820152601b60248201527f4552433732313a206f776e6572206f6e6c792066756e6374696f6e00000000006044820152606401610abc565b600580547fffffffffffffffffffffffff00000000000000000000000000000000000000001673ffffffffffffffffffffffffffffffffffffffff8316179055367fffffffffffffffffffffffffffffffffffffffffffffffffffffffffffffffe0013573ffffffffffffffffffffffffffffffffffffffff168173ffffffffffffffffffffffffffffffffffffffff167f70a7ea5c664ab9c21baf3da59bb2f1e1ca33557b08a0031fab4f17076744995160405160405180910390a350565b60008173ffffffffffffffffffffffffffffffffffffffff16610c817fb56711ba6bd3ded7639fc335ee7524fe668a79d7558c85992e3f8494cf7727775490565b73ffffffffffffffffffffffffffffffffffffffff161492915050565b6000610cc87f04b524dd539523930d3901481aa9455d7752b49add99e1647adb8b09a31372795490565b600203610d31576040517f08c379a000000000000000000000000000000000000000000000000000000000815260206004820152601960248201527f484f4c4f47524150483a207265656e7472616e742063616c6c000000000000006044820152606401610abc565b610d5a60027f04b524dd539523930d3901481aa9455d7752b49add99e1647adb8b09a313727955565b600454869074010000000000000000000000000000000000000000900467ffffffffffffffff1615801590610dde57506004546000547401000000000000000000000000000000000000000090910467ffffffffffffffff1690610ddc907bffffffffffffffffffffffffffffffffffffffffffffffffffffffff168361549a565b115b15610e15576040517f717c513000000000000000000000000000000000000000000000000000000000815260040160405180910390fd5b610e1d614346565b610e53576040517f95ed3c1a00000000000000000000000000000000000000000000000000000000815260040160405180910390fd5b610efc84848080602002602001604051908101604052809392919081815260200183836020028082843760009201919091525050600854915050367fffffffffffffffffffffffffffffffffffffffffffffffffffffffffffffffe001356040805173ffffffffffffffffffffffffffffffffffffffff909216602083015281018a90526060810189905260800160405160208183030381529060405280519060200120614395565b610f32576040517f85b70e5200000000000000000000000000000000000000000000000000000000815260040160405180910390fd5b6000610f3d866143ab565b9050610f4988826154b2565b341015610f8f57610f5a88826154b2565b6040517f6a1c179e000000000000000000000000000000000000000000000000000000008152600401610abc91815260200190565b73ffffffffffffffffffffffffffffffffffffffff7fffffffffffffffffffffffffffffffffffffffffffffffffffffffffffffffe036013516600090815260096020526040812080548a9290610fe790849061549a565b909155505073ffffffffffffffffffffffffffffffffffffffff7fffffffffffffffffffffffffffffffffffffffffffffffffffffffffffffffe03601351660009081526009602052604090205487101561106e576040517fa7b32bb100000000000000000000000000000000000000000000000000000000815260040160405180910390fd5b61109b367fffffffffffffffffffffffffffffffffffffffffffffffffffffffffffffffe0013589614489565b60006110c57fe9fcff60011c1a99f7b7244d1f2d9da93d79ea8ef3654ce590d775575255b2bd5490565b905060008173ffffffffffffffffffffffffffffffffffffffff166377dbd8636040518163ffffffff1660e01b8152600401602060405180830381865afa158015611114573d6000803e3d6000fd5b505050506040513d601f19601f8201168201806040525081019061113891906154ef565b6000805491925090611169908c907bffffffffffffffffffffffffffffffffffffffffffffffffffffffff16615508565b611173908361549a565b61117e90600161549a565b9050838b367fffffffffffffffffffffffffffffffffffffffffffffffffffffffffffffffe0013573ffffffffffffffffffffffffffffffffffffffff167f4e26b0356a15833a75d497ecc40ebbb716b99466ed0dba9454f1fff451e25a90846040516111ed91815260200190565b60405180910390a494505050505061122460017f04b524dd539523930d3901481aa9455d7752b49add99e1647adb8b09a313727955565b95945050505050565b600073ffffffffffffffffffffffffffffffffffffffff8616158015906112a35750367fffffffffffffffffffffffffffffffffffffffffffffffffffffffffffffffe0013573ffffffffffffffffffffffffffffffffffffffff168673ffffffffffffffffffffffffffffffffffffffff1614155b80156112c7575060035473ffffffffffffffffffffffffffffffffffffffff163b15155b156114355760035473ffffffffffffffffffffffffffffffffffffffff1663c617113430367fffffffffffffffffffffffffffffffffffffffffffffffffffffffffffffffe001356040517fffffffff0000000000000000000000000000000000000000000000000000000060e085901b16815273ffffffffffffffffffffffffffffffffffffffff928316600482015291166024820152604401602060405180830381865afa9250505080156113b9575060408051601f3d9081017fffffffffffffffffffffffffffffffffffffffffffffffffffffffffffffffe01682019092526113b69181019061551f565b60015b61142e57506040517fede71dcc00000000000000000000000000000000000000000000000000000000815273ffffffffffffffffffffffffffffffffffffffff7fffffffffffffffffffffffffffffffffffffffffffffffffffffffffffffffe0360135166004820152600090602401610abc565b9050611224565b50600195945050505050565b600061146b7fb56711ba6bd3ded7639fc335ee7524fe668a79d7558c85992e3f8494cf7727775490565b73ffffffffffffffffffffffffffffffffffffffff168273ffffffffffffffffffffffffffffffffffffffff16149050919050565b6040805161016081018252600080825260208201819052918101829052606081018290526080810182905260a0810182905260c0810182905260e081018290526101008101829052610120810182905261014081019190915260405180610160016040528061150d614858565b1515815260200161151c614346565b151581526006546cffffffffffffffffffffffffff8116602083015271010000000000000000000000000000000000810467ffffffffffffffff90811660408401526007548082166060850152680100000000000000008104821660808501527001000000000000000000000000000000009004811660a084015260085460c08401526d010000000000000000000000000090910463ffffffff1660e08301526000547bffffffffffffffffffffffffffffffffffffffffffffffffffffffff166101008301526004547401000000000000000000000000000000000000000090041661012090910152919050565b7fe9fcff60011c1a99f7b7244d1f2d9da93d79ea8ef3654ce590d775575255b2bd5473ffffffffffffffffffffffffffffffffffffffff163303611727577fb56711ba6bd3ded7639fc335ee7524fe668a79d7558c85992e3f8494cf7727775473ffffffffffffffffffffffffffffffffffffffff16367fffffffffffffffffffffffffffffffffffffffffffffffffffffffffffffffe0013573ffffffffffffffffffffffffffffffffffffffff1614611722576040517f08c379a000000000000000000000000000000000000000000000000000000000815260206004820152601b60248201527f4552433732313a206f776e6572206f6e6c792066756e6374696f6e00000000006044820152606401610abc565b6117dd565b7fb56711ba6bd3ded7639fc335ee7524fe668a79d7558c85992e3f8494cf7727775473ffffffffffffffffffffffffffffffffffffffff163373ffffffffffffffffffffffffffffffffffffffff16146117dd576040517f08c379a000000000000000000000000000000000000000000000000000000000815260206004820152601b60248201527f4552433732313a206f776e6572206f6e6c792066756e6374696f6e00000000006044820152606401610abc565b600480547fffffffffffffffffffffffff00000000000000000000000000000000000000001673ffffffffffffffffffffffffffffffffffffffff84161790558051156118a9576040517f856a7ffa00000000000000000000000000000000000000000000000000000000815273ffffffffffffffffffffffffffffffffffffffff83169063856a7ffa90611876908490600401615343565b600060405180830381600087803b15801561189057600080fd5b505af11580156118a4573d6000803e3d6000fd5b505050505b6040805133815273ffffffffffffffffffffffffffffffffffffffff841660208201527f046c5d913c35948c3e0e44c3599eb14bf33b73f141fa8bb282b300414998b868910160405180910390a15050565b7f04b524dd539523930d3901481aa9455d7752b49add99e1647adb8b09a313727954600203611986576040517f08c379a000000000000000000000000000000000000000000000000000000000815260206004820152601960248201527f484f4c4f47524150483a207265656e7472616e742063616c6c000000000000006044820152606401610abc565b6119af60027f04b524dd539523930d3901481aa9455d7752b49add99e1647adb8b09a313727955565b60055473ffffffffffffffffffffffffffffffffffffffff16611a2e576040517f08c379a000000000000000000000000000000000000000000000000000000000815260206004820152601f60248201527f46756e647320526563697069656e742061646472657373206e6f7420736574006044820152606401610abc565b7fe9fcff60011c1a99f7b7244d1f2d9da93d79ea8ef3654ce590d775575255b2bd547fffffffffffffffffffffffffffffffffffffffffffffffffffffffffffffffe036013590479060009073ffffffffffffffffffffffffffffffffffffffff16633b19e84a6040518163ffffffff1660e01b8152600401602060405180830381865afa158015611ac4573d6000803e3d6000fd5b505050506040513d601f19601f82011682018060405250810190611ae89190615547565b60055490915060009073ffffffffffffffffffffffffffffffffffffffff858116911614801590611b6657507fb56711ba6bd3ded7639fc335ee7524fe668a79d7558c85992e3f8494cf7727775473ffffffffffffffffffffffffffffffffffffffff168473ffffffffffffffffffffffffffffffffffffffff1614155b8015611b9e57508173ffffffffffffffffffffffffffffffffffffffff168473ffffffffffffffffffffffffffffffffffffffff1614155b15611bd5576040517f1dab829b00000000000000000000000000000000000000000000000000000000815260040160405180910390fd5b8015611c895760008273ffffffffffffffffffffffffffffffffffffffff16826203345090604051600060405180830381858888f193505050503d8060008114611c3b576040519150601f19603f3d011682016040523d82523d6000602084013e611c40565b606091505b5050905080611c7b576040517f39debd5b00000000000000000000000000000000000000000000000000000000815260040160405180910390fd5b611c858285615508565b9350505b60055460405160009173ffffffffffffffffffffffffffffffffffffffff16906203345090869084818181858888f193505050503d8060008114611ce9576040519150601f19603f3d011682016040523d82523d6000602084013e611cee565b606091505b5050905080611d29576040517f39debd5b00000000000000000000000000000000000000000000000000000000815260040160405180910390fd5b6005546040805186815273ffffffffffffffffffffffffffffffffffffffff868116602083015291810185905291811691908716907f8a95554e4c9dcaaf33f247387f2ee77390780487d3365e3a804788791a1df5009060600160405180910390a35050505050611db960017f04b524dd539523930d3901481aa9455d7752b49add99e1647adb8b09a313727955565b565b7fe9fcff60011c1a99f7b7244d1f2d9da93d79ea8ef3654ce590d775575255b2bd5473ffffffffffffffffffffffffffffffffffffffff163303611ed7577fb56711ba6bd3ded7639fc335ee7524fe668a79d7558c85992e3f8494cf7727775473ffffffffffffffffffffffffffffffffffffffff16367fffffffffffffffffffffffffffffffffffffffffffffffffffffffffffffffe0013573ffffffffffffffffffffffffffffffffffffffff1614611ed2576040517f08c379a000000000000000000000000000000000000000000000000000000000815260206004820152601b60248201527f4552433732313a206f776e6572206f6e6c792066756e6374696f6e00000000006044820152606401610abc565b611f8d565b7fb56711ba6bd3ded7639fc335ee7524fe668a79d7558c85992e3f8494cf7727775473ffffffffffffffffffffffffffffffffffffffff163373ffffffffffffffffffffffffffffffffffffffff1614611f8d576040517f08c379a000000000000000000000000000000000000000000000000000000000815260206004820152601b60248201527f4552433732313a206f776e6572206f6e6c792066756e6374696f6e00000000006044820152606401610abc565b60045474010000000000000000000000000000000000000000900467ffffffffffffffff90811614611feb576040517fe742c08400000000000000000000000000000000000000000000000000000000815260040160405180910390fd5b6000546004805467ffffffffffffffff90921674010000000000000000000000000000000000000000027fffffffff0000000000000000ffffffffffffffffffffffffffffffffffffffff9092169190911790556120697fffffffffffffffffffffffffffffffffffffffffffffffffffffffffffffffe036013590565b6004546040517401000000000000000000000000000000000000000090910467ffffffffffffffff16815273ffffffffffffffffffffffffffffffffffffffff91909116907fb6cc1e876b8d7479c8afe025a58658b0f3c3ec5bd0f28cb4261326b162069bf89060200160405180910390a2565b60006121077f4e5f991bca30eca2d4643aaefa807e88f96a4a97398933d572a3c0d973004a015490565b1561216e576040517f08c379a000000000000000000000000000000000000000000000000000000000815260206004820152601e60248201527f484f4c4f47524150483a20616c726561647920696e697469616c697a656400006044820152606401610abc565b6000828060200190518101906121849190615687565b8051600180547fffffffffffffffffffffffff00000000000000000000000000000000000000001673ffffffffffffffffffffffffffffffffffffffff9283161790556020820151919250161561221f576020810151600280547fffffffffffffffffffffffff00000000000000000000000000000000000000001673ffffffffffffffffffffffffffffffffffffffff9092169190911790555b61224b81604001517fb56711ba6bd3ded7639fc335ee7524fe668a79d7558c85992e3f8494cf77277755565b604080516080808201835260e08401805173ffffffffffffffffffffffffffffffffffffffff9081168085528684015167ffffffffffffffff908116602080880182905260a0808b015161ffff16898b018190526060808d015188169a81018b9052600480547c01000000000000000000000000000000000000000000000000000000009093027fffff0000ffffffffffffffffffffffffffffffffffffffffffffffffffffffff740100000000000000000000000000000000000000009097027fffffffff00000000000000000000000000000000000000000000000000000000909416909817929092179490941695909517909455600580547fffffffffffffffffffffffff00000000000000000000000000000000000000001690981790975560c0808a01518051600680549a8301519b830151861671010000000000000000000000000000000000027fffffffffffffff0000000000000000ffffffffffffffffffffffffffffffffff63ffffffff909d166d0100000000000000000000000000027fffffffffffffffffffffffffffffff0000000000000000000000000000000000909c166cffffffffffffffffffffffffff909316929092179a909a179a909a16999099179097558701516007805496890151938901518316700100000000000000000000000000000000027fffffffffffffffff0000000000000000ffffffffffffffffffffffffffffffff94841668010000000000000000027fffffffffffffffffffffffffffffffff0000000000000000000000000000000090981692909316919091179590951791909116179092559290910151600855905116156125435760e08101516101008201516040517f856a7ffa00000000000000000000000000000000000000000000000000000000815273ffffffffffffffffffffffffffffffffffffffff9092169163856a7ffa9161251091600401615343565b600060405180830381600087803b15801561252a57600080fd5b505af115801561253e573d6000803e3d6000fd5b505050505b600380547fffffffffffffffffffffffff0000000000000000000000000000000000000000166daaeb6d7670e522a718067333cd4e9081179091553b156126b75760025473ffffffffffffffffffffffffffffffffffffffff16612629576003546040517f4420e48600000000000000000000000000000000000000000000000000000000815230600482015273ffffffffffffffffffffffffffffffffffffffff90911690634420e48690602401600060405180830381600087803b15801561260c57600080fd5b505af1158015612620573d6000803e3d6000fd5b505050506126b7565b6003546002546040517f7d3e3dbe00000000000000000000000000000000000000000000000000000000815230600482015273ffffffffffffffffffffffffffffffffffffffff9182166024820152911690637d3e3dbe90604401600060405180830381600087803b15801561269e57600080fd5b505af11580156126b2573d6000803e3d6000fd5b505050505b6126e060017f04b524dd539523930d3901481aa9455d7752b49add99e1647adb8b09a313727955565b6109a28361489d565b7fe9fcff60011c1a99f7b7244d1f2d9da93d79ea8ef3654ce590d775575255b2bd5473ffffffffffffffffffffffffffffffffffffffff163303612805577fb56711ba6bd3ded7639fc335ee7524fe668a79d7558c85992e3f8494cf7727775473ffffffffffffffffffffffffffffffffffffffff16367fffffffffffffffffffffffffffffffffffffffffffffffffffffffffffffffe0013573ffffffffffffffffffffffffffffffffffffffff1614612800576040517f08c379a000000000000000000000000000000000000000000000000000000000815260206004820152601b60248201527f4552433732313a206f776e6572206f6e6c792066756e6374696f6e00000000006044820152606401610abc565b6128bb565b7fb56711ba6bd3ded7639fc335ee7524fe668a79d7558c85992e3f8494cf7727775473ffffffffffffffffffffffffffffffffffffffff163373ffffffffffffffffffffffffffffffffffffffff16146128bb576040517f08c379a000000000000000000000000000000000000000000000000000000000815260206004820152601b60248201527f4552433732313a206f776e6572206f6e6c792066756e6374696f6e00000000006044820152606401610abc565b600280547fffffffffffffffffffffffff00000000000000000000000000000000000000001673ffffffffffffffffffffffffffffffffffffffff92909216919091179055565b7fe9fcff60011c1a99f7b7244d1f2d9da93d79ea8ef3654ce590d775575255b2bd5473ffffffffffffffffffffffffffffffffffffffff163303612a1e577fb56711ba6bd3ded7639fc335ee7524fe668a79d7558c85992e3f8494cf7727775473ffffffffffffffffffffffffffffffffffffffff16367fffffffffffffffffffffffffffffffffffffffffffffffffffffffffffffffe0013573ffffffffffffffffffffffffffffffffffffffff1614612a19576040517f08c379a000000000000000000000000000000000000000000000000000000000815260206004820152601b60248201527f4552433732313a206f776e6572206f6e6c792066756e6374696f6e00000000006044820152606401610abc565b612ad4565b7fb56711ba6bd3ded7639fc335ee7524fe668a79d7558c85992e3f8494cf7727775473ffffffffffffffffffffffffffffffffffffffff163373ffffffffffffffffffffffffffffffffffffffff1614612ad4576040517f08c379a000000000000000000000000000000000000000000000000000000000815260206004820152601b60248201527f4552433732313a206f776e6572206f6e6c792066756e6374696f6e00000000006044820152606401610abc565b600254309073ffffffffffffffffffffffffffffffffffffffff16612b25576040517f707ff7e900000000000000000000000000000000000000000000000000000000815260040160405180910390fd5b6003546040517fc3c5a54700000000000000000000000000000000000000000000000000000000815273ffffffffffffffffffffffffffffffffffffffff83811660048301529091169063c3c5a547906024016020604051808303816000875af1158015612b97573d6000803e3d6000fd5b505050506040513d601f19601f82011682018060405250810190612bbb919061551f565b158015612bc55750815b15612c5e576003546002546040517f7d3e3dbe00000000000000000000000000000000000000000000000000000000815273ffffffffffffffffffffffffffffffffffffffff84811660048301529182166024820152911690637d3e3dbe906044015b600060405180830381600087803b158015612c4257600080fd5b505af1158015612c56573d6000803e3d6000fd5b505050505050565b8115612cc6576003546002546040517fb314d41400000000000000000000000000000000000000000000000000000000815273ffffffffffffffffffffffffffffffffffffffff8481166004830152918216602482015291169063b314d41490604401612c28565b6003546040517f34a0dc1000000000000000000000000000000000000000000000000000000000815273ffffffffffffffffffffffffffffffffffffffff838116600483015260006024830152909116906334a0dc1090604401600060405180830381600087803b158015612d3a57600080fd5b505af1158015612d4e573d6000803e3d6000fd5b50506003546040517f2ec2c24600000000000000000000000000000000000000000000000000000000815273ffffffffffffffffffffffffffffffffffffffff85811660048301529091169250632ec2c2469150602401600060405180830381600087803b158015612c4257600080fd5b6000612de97fb56711ba6bd3ded7639fc335ee7524fe668a79d7558c85992e3f8494cf7727775490565b905090565b6000612e187fe9fcff60011c1a99f7b7244d1f2d9da93d79ea8ef3654ce590d775575255b2bd5490565b73ffffffffffffffffffffffffffffffffffffffff163303612eac577fb56711ba6bd3ded7639fc335ee7524fe668a79d7558c85992e3f8494cf7727775473ffffffffffffffffffffffffffffffffffffffff16367fffffffffffffffffffffffffffffffffffffffffffffffffffffffffffffffe0013573ffffffffffffffffffffffffffffffffffffffff1614905090565b507fb56711ba6bd3ded7639fc335ee7524fe668a79d7558c85992e3f8494cf7727775473ffffffffffffffffffffffffffffffffffffffff16331490565b6060815167ffffffffffffffff811115612f0657612f06614f1a565b604051908082528060200260200182016040528015612f3957816020015b6060815260200190600190039081612f245790505b50905060005b8251811015612fe557612fb530848381518110612f5e57612f5e615781565b6020026020010151612f907fffffffffffffffffffffffffffffffffffffffffffffffffffffffffffffffe036013590565b604051602001612fa19291906157b0565b604051602081830303815290604052614a44565b828281518110612fc757612fc7615781565b60200260200101819052508080612fdd906157fa565b915050612f3f565b50919050565b60006130157fe9fcff60011c1a99f7b7244d1f2d9da93d79ea8ef3654ce590d775575255b2bd5490565b73ffffffffffffffffffffffffffffffffffffffff16330361310f577fb56711ba6bd3ded7639fc335ee7524fe668a79d7558c85992e3f8494cf7727775473ffffffffffffffffffffffffffffffffffffffff16367fffffffffffffffffffffffffffffffffffffffffffffffffffffffffffffffe0013573ffffffffffffffffffffffffffffffffffffffff161461310a576040517f08c379a000000000000000000000000000000000000000000000000000000000815260206004820152601b60248201527f4552433732313a206f776e6572206f6e6c792066756e6374696f6e00000000006044820152606401610abc565b6131c5565b7fb56711ba6bd3ded7639fc335ee7524fe668a79d7558c85992e3f8494cf7727775473ffffffffffffffffffffffffffffffffffffffff163373ffffffffffffffffffffffffffffffffffffffff16146131c5576040517f08c379a000000000000000000000000000000000000000000000000000000000815260206004820152601b60248201527f4552433732313a206f776e6572206f6e6c792066756e6374696f6e00000000006044820152606401610abc565b600454829074010000000000000000000000000000000000000000900467ffffffffffffffff161580159061324957506004546000547401000000000000000000000000000000000000000090910467ffffffffffffffff1690613247907bffffffffffffffffffffffffffffffffffffffffffffffffffffffff168361549a565b115b15613280576040517f717c513000000000000000000000000000000000000000000000000000000000815260040160405180910390fd5b60005b838110156132c4576132bc8585838181106132a0576132a0615781565b90506020020160208101906132b59190614ce1565b6001614489565b600101613283565b50506000547bffffffffffffffffffffffffffffffffffffffffffffffffffffffff169392505050565b60606133187fe9fcff60011c1a99f7b7244d1f2d9da93d79ea8ef3654ce590d775575255b2bd5490565b73ffffffffffffffffffffffffffffffffffffffff163303613412577fb56711ba6bd3ded7639fc335ee7524fe668a79d7558c85992e3f8494cf7727775473ffffffffffffffffffffffffffffffffffffffff16367fffffffffffffffffffffffffffffffffffffffffffffffffffffffffffffffe0013573ffffffffffffffffffffffffffffffffffffffff161461340d576040517f08c379a000000000000000000000000000000000000000000000000000000000815260206004820152601b60248201527f4552433732313a206f776e6572206f6e6c792066756e6374696f6e00000000006044820152606401610abc565b6134c8565b7fb56711ba6bd3ded7639fc335ee7524fe668a79d7558c85992e3f8494cf7727775473ffffffffffffffffffffffffffffffffffffffff163373ffffffffffffffffffffffffffffffffffffffff16146134c8576040517f08c379a000000000000000000000000000000000000000000000000000000000815260206004820152601b60248201527f4552433732313a206f776e6572206f6e6c792066756e6374696f6e00000000006044820152606401610abc565b600354604051600091829173ffffffffffffffffffffffffffffffffffffffff909116906134f99087908790615832565b6000604051808303816000865af19150503d8060008114613536576040519150601f19603f3d011682016040523d82523d6000602084013e61353b565b606091505b509150915081613577576040517f25f3885400000000000000000000000000000000000000000000000000000000815260040160405180910390fd5b949350505050565b606060006135ab7fe9fcff60011c1a99f7b7244d1f2d9da93d79ea8ef3654ce590d775575255b2bd5490565b6040517f4f558e790000000000000000000000000000000000000000000000000000000081526004810185905290915073ffffffffffffffffffffffffffffffffffffffff821690634f558e7990602401602060405180830381865afa158015613619573d6000803e3d6000fd5b505050506040513d601f19601f8201168201806040525081019061363d919061551f565b6136a3576040517f08c379a000000000000000000000000000000000000000000000000000000000815260206004820152601c60248201527f4552433732313a20746f6b656e20646f6573206e6f74206578697374000000006044820152606401610abc565b600480546040517fc87b56dd00000000000000000000000000000000000000000000000000000000815291820185905273ffffffffffffffffffffffffffffffffffffffff169063c87b56dd90602401600060405180830381865afa158015613710573d6000803e3d6000fd5b505050506040513d6000823e601f3d9081017fffffffffffffffffffffffffffffffffffffffffffffffffffffffffffffffe01682016040526109a29190810190615842565b61377a60405180606001604052806000815260200160008152602001600081525090565b6040805160608101825273ffffffffffffffffffffffffffffffffffffffff84166000818152600a6020818152858320548086528484526009825286842054828701819052949093525291928301916137d39190615508565b905292915050565b60006138057fe9fcff60011c1a99f7b7244d1f2d9da93d79ea8ef3654ce590d775575255b2bd5490565b73ffffffffffffffffffffffffffffffffffffffff1633036138ff577fb56711ba6bd3ded7639fc335ee7524fe668a79d7558c85992e3f8494cf7727775473ffffffffffffffffffffffffffffffffffffffff16367fffffffffffffffffffffffffffffffffffffffffffffffffffffffffffffffe0013573ffffffffffffffffffffffffffffffffffffffff16146138fa576040517f08c379a000000000000000000000000000000000000000000000000000000000815260206004820152601b60248201527f4552433732313a206f776e6572206f6e6c792066756e6374696f6e00000000006044820152606401610abc565b6139b5565b7fb56711ba6bd3ded7639fc335ee7524fe668a79d7558c85992e3f8494cf7727775473ffffffffffffffffffffffffffffffffffffffff163373ffffffffffffffffffffffffffffffffffffffff16146139b5576040517f08c379a000000000000000000000000000000000000000000000000000000000815260206004820152601b60248201527f4552433732313a206f776e6572206f6e6c792066756e6374696f6e00000000006044820152606401610abc565b600454829074010000000000000000000000000000000000000000900467ffffffffffffffff1615801590613a3957506004546000547401000000000000000000000000000000000000000090910467ffffffffffffffff1690613a37907bffffffffffffffffffffffffffffffffffffffffffffffffffffffff168361549a565b115b15613a70576040517f717c513000000000000000000000000000000000000000000000000000000000815260040160405180910390fd5b613a7a8484614489565b50506000547bffffffffffffffffffffffffffffffffffffffffffffffffffffffff1692915050565b60048054604080517fe8a3d485000000000000000000000000000000000000000000000000000000008152905160609373ffffffffffffffffffffffffffffffffffffffff9093169263e8a3d485928082019260009290918290030181865afa158015613b14573d6000803e3d6000fd5b505050506040513d6000823e601f3d9081017fffffffffffffffffffffffffffffffffffffffffffffffffffffffffffffffe0168201604052612de99190810190615842565b6000613b847f04b524dd539523930d3901481aa9455d7752b49add99e1647adb8b09a31372795490565b600203613bed576040517f08c379a000000000000000000000000000000000000000000000000000000000815260206004820152601960248201527f484f4c4f47524150483a207265656e7472616e742063616c6c000000000000006044820152606401610abc565b613c1660027f04b524dd539523930d3901481aa9455d7752b49add99e1647adb8b09a313727955565b600454829074010000000000000000000000000000000000000000900467ffffffffffffffff1615801590613c9a57506004546000547401000000000000000000000000000000000000000090910467ffffffffffffffff1690613c98907bffffffffffffffffffffffffffffffffffffffffffffffffffffffff168361549a565b115b15613cd1576040517f717c513000000000000000000000000000000000000000000000000000000000815260040160405180910390fd5b613cd9614858565b613d0f576040517ff12dcc7f00000000000000000000000000000000000000000000000000000000815260040160405180910390fd5b600654600090613d2d906cffffffffffffffffffffffffff166143ab565b9050613d3984826154b2565b341015613d4a57610f5a84826154b2565b6006546d0100000000000000000000000000900463ffffffff1615801590613df55750600654367fffffffffffffffffffffffffffffffffffffffffffffffffffffffffffffffe0013573ffffffffffffffffffffffffffffffffffffffff16600090815260096020908152604080832054600a909252909120546d010000000000000000000000000090920463ffffffff1691613de990879061549a565b613df39190615508565b115b15613e2c576040517f220ae94c00000000000000000000000000000000000000000000000000000000815260040160405180910390fd5b613e59367fffffffffffffffffffffffffffffffffffffffffffffffffffffffffffffffe0013585614489565b6000613e837fe9fcff60011c1a99f7b7244d1f2d9da93d79ea8ef3654ce590d775575255b2bd5490565b905060008173ffffffffffffffffffffffffffffffffffffffff166377dbd8636040518163ffffffff1660e01b8152600401602060405180830381865afa158015613ed2573d6000803e3d6000fd5b505050506040513d601f19601f82011682018060405250810190613ef691906154ef565b6000805491925090613f279088907bffffffffffffffffffffffffffffffffffffffffffffffffffffffff16615508565b613f31908361549a565b613f3c90600161549a565b90508387367fffffffffffffffffffffffffffffffffffffffffffffffffffffffffffffffe0013573ffffffffffffffffffffffffffffffffffffffff167f4e26b0356a15833a75d497ecc40ebbb716b99466ed0dba9454f1fff451e25a9084604051613fab91815260200190565b60405180910390a4945050505050613fe260017f04b524dd539523930d3901481aa9455d7752b49add99e1647adb8b09a313727955565b919050565b7fe9fcff60011c1a99f7b7244d1f2d9da93d79ea8ef3654ce590d775575255b2bd5473ffffffffffffffffffffffffffffffffffffffff163303614103577fb56711ba6bd3ded7639fc335ee7524fe668a79d7558c85992e3f8494cf7727775473ffffffffffffffffffffffffffffffffffffffff16367fffffffffffffffffffffffffffffffffffffffffffffffffffffffffffffffe0013573ffffffffffffffffffffffffffffffffffffffff16146140fe576040517f08c379a000000000000000000000000000000000000000000000000000000000815260206004820152601b60248201527f4552433732313a206f776e6572206f6e6c792066756e6374696f6e00000000006044820152606401610abc565b6141b9565b7fb56711ba6bd3ded7639fc335ee7524fe668a79d7558c85992e3f8494cf7727775473ffffffffffffffffffffffffffffffffffffffff163373ffffffffffffffffffffffffffffffffffffffff16146141b9576040517f08c379a000000000000000000000000000000000000000000000000000000000815260206004820152601b60248201527f4552433732313a206f776e6572206f6e6c792066756e6374696f6e00000000006044820152606401610abc565b600680546cffffffffffffffffffffffffff89167fffffffffffffffffffffffffffffff0000000000000000000000000000000000909116176d010000000000000000000000000063ffffffff891602177fffffffffffffff0000000000000000ffffffffffffffffffffffffffffffffff167101000000000000000000000000000000000067ffffffffffffffff8881169190910291909117909155600780548683167fffffffffffffffffffffffffffffffff00000000000000000000000000000000909116176801000000000000000086841602177fffffffffffffffff0000000000000000ffffffffffffffffffffffffffffffff16700100000000000000000000000000000000928516929092029190911790556008819055367fffffffffffffffffffffffffffffffffffffffffffffffffffffffffffffffe0013573ffffffffffffffffffffffffffffffffffffffff167fc1ff5e4744ac8dd2b8027a10e3723b165975297501c71c4e7dcb8796d96375db60405160405180910390a250505050505050565b600754600090426801000000000000000090910467ffffffffffffffff1611801590612de95750506007544270010000000000000000000000000000000090910467ffffffffffffffff161190565b6000826143a28584614a69565b14949350505050565b7f26600f0171e5a2b86874be26285c66444b2a6fa5f62114757214d5e732aded365460009073ffffffffffffffffffffffffffffffffffffffff811615614482576040517ff5d781610000000000000000000000000000000000000000000000000000000081526004810184905273ffffffffffffffffffffffffffffffffffffffff82169063f5d7816190602401602060405180830381865afa158015614457573d6000803e3d6000fd5b505050506040513d601f19601f8201168201806040525081019061447b91906154ef565b9150612fe5565b5090919050565b60006144b37fe9fcff60011c1a99f7b7244d1f2d9da93d79ea8ef3654ce590d775575255b2bd5490565b905060008173ffffffffffffffffffffffffffffffffffffffff166377dbd8636040518163ffffffff1660e01b8152600401602060405180830381865afa158015614502573d6000803e3d6000fd5b505050506040513d601f19601f8201168201806040525081019061452691906154ef565b90506000805b84811015612c5657600080546001919081906145679084907bffffffffffffffffffffffffffffffffffffffffffffffffffffffff1661588b565b92506101000a8154817bffffffffffffffffffffffffffffffffffffffffffffffffffffffff02191690837bffffffffffffffffffffffffffffffffffffffffffffffffffffffff1602179055505b60005473ffffffffffffffffffffffffffffffffffffffff851690634f558e79906145ff907bffffffffffffffffffffffffffffffffffffffffffffffffffffffff168661549a565b6040518263ffffffff1660e01b815260040161461d91815260200190565b602060405180830381865afa15801561463a573d6000803e3d6000fd5b505050506040513d601f19601f8201168201806040525081019061465e919061551f565b8061470c575060005473ffffffffffffffffffffffffffffffffffffffff8516906323250cae906146ad907bffffffffffffffffffffffffffffffffffffffffffffffffffffffff168661549a565b6040518263ffffffff1660e01b81526004016146cb91815260200190565b602060405180830381865afa1580156146e8573d6000803e3d6000fd5b505050506040513d601f19601f8201168201806040525081019061470c919061551f565b1561479757600080546001919081906147449084907bffffffffffffffffffffffffffffffffffffffffffffffffffffffff1661588b565b92506101000a8154817bffffffffffffffffffffffffffffffffffffffffffffffffffffffff02191690837bffffffffffffffffffffffffffffffffffffffffffffffffffffffff1602179055506145b6565b6000546040517f3b4f1b2600000000000000000000000000000000000000000000000000000000815273ffffffffffffffffffffffffffffffffffffffff88811660048301527bffffffffffffffffffffffffffffffffffffffffffffffffffffffff90921660248201819052935090851690633b4f1b2690604401600060405180830381600087803b15801561482d57600080fd5b505af1158015614841573d6000803e3d6000fd5b505050508080614850906157fa565b91505061452c565b600654600090427101000000000000000000000000000000000090910467ffffffffffffffff1611801590612de95750506007544267ffffffffffffffff9091161190565b60006148c77f4e5f991bca30eca2d4643aaefa807e88f96a4a97398933d572a3c0d973004a015490565b1561492e576040517f08c379a000000000000000000000000000000000000000000000000000000000815260206004820152601b60248201527f4552433732313a20616c726561647920696e697469616c697a656400000000006044820152606401610abc565b337fe9fcff60011c1a99f7b7244d1f2d9da93d79ea8ef3654ce590d775575255b2bd8190557fb56711ba6bd3ded7639fc335ee7524fe668a79d7558c85992e3f8494cf7727775473ffffffffffffffffffffffffffffffffffffffff81166149f2576040517f08c379a000000000000000000000000000000000000000000000000000000000815260206004820152601860248201527f484f4c4f47524150483a206f776e6572206e6f742073657400000000000000006044820152606401610abc565b614a1b60017f4e5f991bca30eca2d4643aaefa807e88f96a4a97398933d572a3c0d973004a0155565b507f4ddf47d4000000000000000000000000000000000000000000000000000000009392505050565b60606109a283836040518060600160405280602781526020016158e860279139614add565b600081815b8451811015614ad5576000858281518110614a8b57614a8b615781565b60200260200101519050808311614ab15760008381526020829052604090209250614ac2565b600081815260208490526040902092505b5080614acd816157fa565b915050614a6e565b509392505050565b60606000808573ffffffffffffffffffffffffffffffffffffffff1685604051614b0791906158cb565b600060405180830381855af49150503d8060008114614b42576040519150601f19603f3d011682016040523d82523d6000602084013e614b47565b606091505b5091509150614b5886838387614b62565b9695505050505050565b60608315614bf8578251600003614bf15773ffffffffffffffffffffffffffffffffffffffff85163b614bf1576040517f08c379a000000000000000000000000000000000000000000000000000000000815260206004820152601d60248201527f416464726573733a2063616c6c20746f206e6f6e2d636f6e74726163740000006044820152606401610abc565b5081613577565b6135778383815115614c0d5781518083602001fd5b806040517f08c379a0000000000000000000000000000000000000000000000000000000008152600401610abc9190615343565b73ffffffffffffffffffffffffffffffffffffffff81168114614c6357600080fd5b50565b60008060408385031215614c7957600080fd5b8235614c8481614c41565b91506020830135614c9481614c41565b809150509250929050565b600060208284031215614cb157600080fd5b81357fffffffff00000000000000000000000000000000000000000000000000000000811681146109a257600080fd5b600060208284031215614cf357600080fd5b81356109a281614c41565b60008083601f840112614d1057600080fd5b50813567ffffffffffffffff811115614d2857600080fd5b6020830191508360208260051b8501011115614d4357600080fd5b9250929050565b600080600080600060808688031215614d6257600080fd5b853594506020860135935060408601359250606086013567ffffffffffffffff811115614d8e57600080fd5b614d9a88828901614cfe565b969995985093965092949392505050565b60008083601f840112614dbd57600080fd5b50813567ffffffffffffffff811115614dd557600080fd5b602083019150836020828501011115614d4357600080fd5b600080600080600060808688031215614e0557600080fd5b8535614e1081614c41565b94506020860135614e2081614c41565b935060408601359250606086013567ffffffffffffffff811115614e4357600080fd5b614d9a88828901614dab565b81511515815261016081016020830151614e6d602084018215159052565b50604083015160408301526060830151614e93606084018267ffffffffffffffff169052565b506080830151614eaf608084018267ffffffffffffffff169052565b5060a0830151614ecb60a084018267ffffffffffffffff169052565b5060c0830151614ee760c084018267ffffffffffffffff169052565b5060e083810151908301526101008084015190830152610120808401519083015261014092830151929091019190915290565b7f4e487b7100000000000000000000000000000000000000000000000000000000600052604160045260246000fd5b604051610120810167ffffffffffffffff81118282101715614f6d57614f6d614f1a565b60405290565b604051601f82017fffffffffffffffffffffffffffffffffffffffffffffffffffffffffffffffe016810167ffffffffffffffff81118282101715614fba57614fba614f1a565b604052919050565b600067ffffffffffffffff821115614fdc57614fdc614f1a565b50601f017fffffffffffffffffffffffffffffffffffffffffffffffffffffffffffffffe01660200190565b600082601f83011261501957600080fd5b813561502c61502782614fc2565b614f73565b81815284602083860101111561504157600080fd5b816020850160208301376000918101602001919091529392505050565b6000806040838503121561507157600080fd5b823561507c81614c41565b9150602083013567ffffffffffffffff81111561509857600080fd5b6150a485828601615008565b9150509250929050565b6000602082840312156150c057600080fd5b813567ffffffffffffffff8111156150d757600080fd5b61357784828501615008565b8015158114614c6357600080fd5b60006020828403121561510357600080fd5b81356109a2816150e3565b6000602080838503121561512157600080fd5b823567ffffffffffffffff8082111561513957600080fd5b818501915085601f83011261514d57600080fd5b81358181111561515f5761515f614f1a565b8060051b61516e858201614f73565b918252838101850191858101908984111561518857600080fd5b86860192505b838310156151c4578235858111156151a65760008081fd5b6151b48b89838a0101615008565b835250918601919086019061518e565b9998505050505050505050565b60005b838110156151ec5781810151838201526020016151d4565b838111156151fb576000848401525b50505050565b600081518084526152198160208601602086016151d1565b601f017fffffffffffffffffffffffffffffffffffffffffffffffffffffffffffffffe0169290920160200192915050565b6000602080830181845280855180835260408601915060408160051b870101925083870160005b828110156152be577fffffffffffffffffffffffffffffffffffffffffffffffffffffffffffffffc08886030184526152ac858351615201565b94509285019290850190600101615272565b5092979650505050505050565b600080602083850312156152de57600080fd5b823567ffffffffffffffff8111156152f557600080fd5b61530185828601614cfe565b90969095509350505050565b6000806020838503121561532057600080fd5b823567ffffffffffffffff81111561533757600080fd5b61530185828601614dab565b6020815260006109a26020830184615201565b60006020828403121561536857600080fd5b5035919050565b6000806040838503121561538257600080fd5b823561538d81614c41565b946020939093013593505050565b6cffffffffffffffffffffffffff81168114614c6357600080fd5b63ffffffff81168114614c6357600080fd5b67ffffffffffffffff81168114614c6357600080fd5b600080600080600080600060e0888a0312156153f957600080fd5b87356154048161539b565b96506020880135615414816153b6565b95506040880135615424816153c8565b94506060880135615434816153c8565b93506080880135615444816153c8565b925060a0880135615454816153c8565b8092505060c0880135905092959891949750929550565b7f4e487b7100000000000000000000000000000000000000000000000000000000600052601160045260246000fd5b600082198211156154ad576154ad61546b565b500190565b6000817fffffffffffffffffffffffffffffffffffffffffffffffffffffffffffffffff04831182151516156154ea576154ea61546b565b500290565b60006020828403121561550157600080fd5b5051919050565b60008282101561551a5761551a61546b565b500390565b60006020828403121561553157600080fd5b81516109a2816150e3565b8051613fe281614c41565b60006020828403121561555957600080fd5b81516109a281614c41565b8051613fe2816153c8565b805161ffff81168114613fe257600080fd5b600060e0828403121561559357600080fd5b60405160e0810181811067ffffffffffffffff821117156155b6576155b6614f1a565b806040525080915082516155c98161539b565b815260208301516155d9816153b6565b602082015260408301516155ec816153c8565b604082015260608301516155ff816153c8565b606082015261561060808401615564565b608082015261562160a08401615564565b60a082015260c083015160c08201525092915050565b600061564561502784614fc2565b905082815283838301111561565957600080fd5b6109a28360208301846151d1565b600082601f83011261567857600080fd5b6109a283835160208501615637565b60006020828403121561569957600080fd5b815167ffffffffffffffff808211156156b157600080fd5b908301906101e082860312156156c657600080fd5b6156ce614f49565b6156d78361553c565b81526156e56020840161553c565b60208201526156f66040840161553c565b60408201526157076060840161553c565b606082015261571860808401615564565b608082015261572960a0840161556f565b60a082015261573b8660c08501615581565b60c082015261574d6101a0840161553c565b60e08201526101c08301518281111561576557600080fd5b61577187828601615667565b6101008301525095945050505050565b7f4e487b7100000000000000000000000000000000000000000000000000000000600052603260045260246000fd5b600083516157c28184602088016151d1565b60609390931b7fffffffffffffffffffffffffffffffffffffffff000000000000000000000000169190920190815260140192915050565b60007fffffffffffffffffffffffffffffffffffffffffffffffffffffffffffffffff820361582b5761582b61546b565b5060010190565b8183823760009101908152919050565b60006020828403121561585457600080fd5b815167ffffffffffffffff81111561586b57600080fd5b8201601f8101841361587c57600080fd5b61357784825160208401615637565b60007bffffffffffffffffffffffffffffffffffffffffffffffffffffffff8083168185168083038211156158c2576158c261546b565b01949350505050565b600082516158dd8184602087016151d1565b919091019291505056fe416464726573733a206c6f772d6c6576656c2064656c65676174652063616c6c206661696c6564a164736f6c634300080d000a",
  "devdoc": {
    "details": "This contract subscribes to the following HolographERC721 events:       - beforeSafeTransfer       - beforeTransfer       - onIsApprovedForAll       - customContractURI       Do not enable or subscribe to any other events unless you modified your source code for them.",
    "errors": {
      "MarketFilterAddressNotSupportedForChain()": [
        {
          "details": "Used for enabling and disabling filter for the given chain."
        }
      ],
      "MarketFilterDAOAddressNotSupportedForChain()": [
        {
          "details": "Used for enabling and disabling filter for the given chain."
        }
      ],
      "OperatorNotAllowed(address)": [
        {
          "details": "Used when strict enforcement of marketplaces for creator royalties is desired."
        }
      ],
      "RemoteOperatorFilterRegistryCallFailed()": [
        {
          "details": "Used for bubbling error up to clients."
        }
      ]
    },
    "kind": "dev",
    "methods": {
      "adminMint(address,uint256)": {
        "params": {
          "quantity": "quantity to mint",
          "recipient": "recipient to mint to"
        }
      },
      "adminMintAirdrop(address[])": {
        "details": "Mints multiple editions to the given list of addresses.",
        "params": {
          "recipients": "list of addresses to send the newly minted editions to"
        }
      },
      "constructor": {
        "details": "Constructor is left empty and init is used instead"
      },
      "contractURI()": {
        "returns": {
          "_0": "Contract URI"
        }
      },
      "init(bytes)": {
        "details": "This function is called by the deployer/factory when creating a contract",
        "params": {
          "initPayload": "abi encoded payload to use for contract initilaization"
        }
      },
      "isAdmin(address)": {
        "details": "Getter for admin role associated with the contract to handle metadata",
        "returns": {
          "_0": "boolean if address is admin"
        }
      },
      "manageMarketFilterSubscription(bool)": {
        "params": {
          "enable": "Enable filtering to non-royalty payout marketplaces"
        }
      },
      "mintedPerAddress(address)": {
        "details": "Number of NFTs the user has minted per address",
        "params": {
          "minter": "to get counts for"
        }
      },
      "purchase(uint256)": {
        "details": "This allows the user to purchase/mint a edition at the given price in the contract."
      },
      "purchasePresale(uint256,uint256,uint256,bytes32[])": {
        "params": {
          "maxQuantity": "max quantity that can be purchased via merkle proof #",
          "merkleProof": "proof for presale mint",
          "pricePerToken": "price that each token is purchased at",
          "quantity": "quantity to purchase"
        }
      },
      "saleDetails()": {
        "returns": {
          "_0": "SaleDetails sale information details"
        }
      },
      "setFundsRecipient(address)": {
        "params": {
          "newRecipientAddress": "new funds recipient address"
        }
      },
      "setMetadataRenderer(address,bytes)": {
        "params": {
          "newRenderer": "new renderer address to use",
          "setupRenderer": "data to setup new renderer with"
        }
      },
      "setSaleConfiguration(uint104,uint32,uint64,uint64,uint64,uint64,bytes32)": {
        "details": "This sets the sales configuration",
        "params": {
          "maxSalePurchasePerAddress": "Max # of purchases (public) per address allowed",
          "presaleEnd": "unix timestamp when the presale ends",
          "presaleMerkleRoot": "merkle root for the presale information",
          "presaleStart": "unix timestamp when the presale starts",
          "publicSaleEnd": "unix timestamp when the public sale ends (set to 0 to disable)",
          "publicSalePrice": "New public sale price",
          "publicSaleStart": "unix timestamp when the public sale starts"
        }
      },
      "tokenURI(uint256)": {
        "params": {
          "tokenId": "id of token to get URI for"
        },
        "returns": {
          "_0": "Token URI"
        }
      },
      "updateMarketFilterSettings(bytes)": {
        "params": {
          "args": "Calldata args to pass to the registry"
        }
      }
    },
    "stateVariables": {
      "_currentTokenId": {
        "details": "Internal reference used for minting incremental token ids."
      },
      "_dropsPriceOracleSlot": {
        "details": "bytes32(uint256(keccak256('eip1967.Holograph.dropsPriceOracle')) - 1)"
      },
      "erc721TransferHelper": {
        "details": "HOLOGRAPH transfer helper address for auto-approval"
      },
      "marketFilterAddress": {
        "details": "Address of the market filter registry"
      },
      "operatorFilterRegistry": {
        "details": "Address of the operator filter registry"
      },
      "presaleMintsByAddress": {
        "details": "Mapping for presale mint counts by address to allow public mint limit"
      },
      "totalMintsByAddress": {
        "details": "Mapping for presale mint counts by address to allow public mint limit"
      }
    },
    "version": 1
  },
  "userdoc": {
    "errors": {
      "Access_MissingRoleOrAdmin(bytes32)": [
        {
          "notice": "Missing the given role or admin access"
        }
      ],
      "Access_OnlyAdmin()": [
        {
          "notice": "Only admin can access this function"
        }
      ],
      "Access_WithdrawNotAllowed()": [
        {
          "notice": "Withdraw is not allowed by this user"
        }
      ],
      "Admin_InvalidUpgradeAddress(address)": [
        {
          "notice": "Invalid admin upgrade address"
        }
      ],
      "Admin_UnableToFinalizeNotOpenEdition()": [
        {
          "notice": "Unable to finalize an edition not marked as open (size set to uint64_max_value)"
        }
      ],
      "ExternalMetadataRenderer_CallFailed()": [
        {
          "notice": "Call to external metadata renderer failed."
        }
      ],
      "MarketFilterAddressNotSupportedForChain()": [
        {
          "notice": "Thrown when there is no active market filter address supported for the current chain"
        }
      ],
      "MarketFilterDAOAddressNotSupportedForChain()": [
        {
          "notice": "Thrown when there is no active market filter DAO address supported for the current chain"
        }
      ],
      "MintFee_FundsSendFailure()": [
        {
          "notice": "Mint fee send failure"
        }
      ],
      "Mint_SoldOut()": [
        {
          "notice": "NFT sold out"
        }
      ],
      "OperatorNotAllowed(address)": [
        {
          "notice": "Thrown when the operator for the contract is not allowed"
        }
      ],
      "Presale_Inactive()": [
        {
          "notice": "Presale is inactive"
        }
      ],
      "Presale_MerkleNotApproved()": [
        {
          "notice": "Presale merkle root is invalid"
        }
      ],
      "Presale_TooManyForAddress()": [
        {
          "notice": "Too many presale for address"
        }
      ],
      "Purchase_TooManyForAddress()": [
        {
          "notice": "Too many purchase for address"
        }
      ],
      "Purchase_WrongPrice(uint256)": [
        {
          "notice": "Wrong price for purchase"
        }
      ],
      "RemoteOperatorFilterRegistryCallFailed()": [
        {
          "notice": "Used when the operator filter registry external call fails"
        }
      ],
      "Sale_Inactive()": [
        {
          "notice": "Sale is inactive"
        }
      ],
      "Setup_RoyaltyPercentageTooHigh(uint16)": [
        {
          "notice": "Royalty percentage too high"
        }
      ],
      "Withdraw_FundsSendFailure()": [
        {
          "notice": "Cannot withdraw funds due to ETH send failure."
        }
      ]
    },
    "events": {
      "FundsRecipientChanged(address,address)": {
        "notice": "Event emitted when the funds recipient is changed"
      },
      "FundsWithdrawn(address,address,uint256,address,uint256)": {
        "notice": "Event emitted when the funds are withdrawn from the minting contract"
      },
      "MintFeePayout(uint256,address,bool)": {
        "notice": "Event emitted for mint fee payout"
      },
      "OpenMintFinalized(address,uint256)": {
        "notice": "Event emitted when an open mint is finalized and further minting is closed forever on the contract."
      },
      "Sale(address,uint256,uint256,uint256)": {
        "notice": "Event emitted for each sale"
      },
      "SalesConfigChanged(address)": {
        "notice": "Sales configuration has been changed"
      },
      "UpdatedMetadataRenderer(address,address)": {
        "notice": "Event emitted when metadata renderer is updated."
      }
    },
    "kind": "user",
    "methods": {
      "adminMint(address,uint256)": {
        "notice": "Admin mint tokens to a recipient for free"
      },
      "config()": {
        "notice": "Configuration for NFT minting contract storage"
      },
      "contractURI()": {
        "notice": "Contract URI Getter, proxies to metadataRenderer"
      },
      "finalizeOpenEdition()": {
        "notice": "Admin function to finalize and open edition sale"
      },
      "init(bytes)": {
        "notice": "Used internally to initialize the contract instead of through a constructor"
      },
      "manageMarketFilterSubscription(bool)": {
        "notice": "Manage subscription for marketplace filtering based off royalty payouts."
      },
      "metadataRenderer()": {
        "notice": "Getter for metadataRenderer contract"
      },
      "multicall(bytes[])": {
        "notice": "PUBLIC STATE CHANGING FUNCTIONS available to all"
      },
      "owner()": {
        "notice": "PUBLIC NON STATE CHANGING FUNCTIONS dynamic"
      },
      "purchasePresale(uint256,uint256,uint256,bytes32[])": {
        "notice": "Merkle-tree based presale purchase function"
      },
      "saleDetails()": {
        "notice": "Sale details"
      },
      "salesConfig()": {
        "notice": "Sales configuration"
      },
      "setFundsRecipient(address)": {
        "notice": "Set a different funds recipient"
      },
      "setMetadataRenderer(address,bytes)": {
        "notice": "Set a new metadata renderer"
      },
      "supportsInterface(bytes4)": {
        "notice": "PUBLIC NON STATE CHANGING FUNCTIONS static"
      },
      "tokenURI(uint256)": {
        "notice": "Token URI Getter, proxies to metadataRenderer"
      },
      "updateMarketFilterSettings(bytes)": {
        "notice": "Proxy to update market filter settings in the main registry contractsRequires admin permissions"
      },
      "withdraw()": {
        "notice": "This withdraws ETH from the contract to the contract owner."
      }
    },
    "version": 1
  },
  "storageLayout": {
    "storage": [
      {
        "astId": 9409,
        "contract": "contracts/drops/token/HolographDropsEditionsV1.sol:HolographDropsEditionsV1",
        "label": "_currentTokenId",
        "offset": 0,
        "slot": "0",
        "type": "t_uint224"
      },
      {
        "astId": 9412,
        "contract": "contracts/drops/token/HolographDropsEditionsV1.sol:HolographDropsEditionsV1",
        "label": "erc721TransferHelper",
        "offset": 0,
        "slot": "1",
        "type": "t_address"
      },
      {
        "astId": 9415,
        "contract": "contracts/drops/token/HolographDropsEditionsV1.sol:HolographDropsEditionsV1",
        "label": "marketFilterAddress",
        "offset": 0,
        "slot": "2",
        "type": "t_address"
      },
      {
        "astId": 9419,
        "contract": "contracts/drops/token/HolographDropsEditionsV1.sol:HolographDropsEditionsV1",
        "label": "operatorFilterRegistry",
        "offset": 0,
        "slot": "3",
        "type": "t_contract(IOperatorFilterRegistry)7640"
      },
      {
        "astId": 9423,
        "contract": "contracts/drops/token/HolographDropsEditionsV1.sol:HolographDropsEditionsV1",
        "label": "config",
        "offset": 0,
        "slot": "4",
        "type": "t_struct(Configuration)9290_storage"
      },
      {
        "astId": 9427,
        "contract": "contracts/drops/token/HolographDropsEditionsV1.sol:HolographDropsEditionsV1",
        "label": "salesConfig",
        "offset": 0,
        "slot": "6",
        "type": "t_struct(SalesConfiguration)9363_storage"
      },
      {
        "astId": 9432,
        "contract": "contracts/drops/token/HolographDropsEditionsV1.sol:HolographDropsEditionsV1",
        "label": "presaleMintsByAddress",
        "offset": 0,
        "slot": "9",
        "type": "t_mapping(t_address,t_uint256)"
      },
      {
        "astId": 9437,
        "contract": "contracts/drops/token/HolographDropsEditionsV1.sol:HolographDropsEditionsV1",
        "label": "totalMintsByAddress",
        "offset": 0,
        "slot": "10",
        "type": "t_mapping(t_address,t_uint256)"
      }
    ],
    "types": {
      "t_address": {
        "encoding": "inplace",
        "label": "address",
        "numberOfBytes": "20"
      },
      "t_address_payable": {
        "encoding": "inplace",
        "label": "address payable",
        "numberOfBytes": "20"
      },
      "t_bytes32": {
        "encoding": "inplace",
        "label": "bytes32",
        "numberOfBytes": "32"
      },
      "t_contract(IMetadataRenderer)7446": {
        "encoding": "inplace",
        "label": "contract IMetadataRenderer",
        "numberOfBytes": "20"
      },
      "t_contract(IOperatorFilterRegistry)7640": {
        "encoding": "inplace",
        "label": "contract IOperatorFilterRegistry",
        "numberOfBytes": "20"
      },
      "t_mapping(t_address,t_uint256)": {
        "encoding": "mapping",
        "key": "t_address",
        "label": "mapping(address => uint256)",
        "numberOfBytes": "32",
        "value": "t_uint256"
      },
      "t_struct(Configuration)9290_storage": {
        "encoding": "inplace",
        "label": "struct Configuration",
        "members": [
          {
            "astId": 9280,
            "contract": "contracts/drops/token/HolographDropsEditionsV1.sol:HolographDropsEditionsV1",
            "label": "metadataRenderer",
            "offset": 0,
            "slot": "0",
            "type": "t_contract(IMetadataRenderer)7446"
          },
          {
            "astId": 9283,
            "contract": "contracts/drops/token/HolographDropsEditionsV1.sol:HolographDropsEditionsV1",
            "label": "editionSize",
            "offset": 20,
            "slot": "0",
            "type": "t_uint64"
          },
          {
            "astId": 9286,
            "contract": "contracts/drops/token/HolographDropsEditionsV1.sol:HolographDropsEditionsV1",
            "label": "royaltyBPS",
            "offset": 28,
            "slot": "0",
            "type": "t_uint16"
          },
          {
            "astId": 9289,
            "contract": "contracts/drops/token/HolographDropsEditionsV1.sol:HolographDropsEditionsV1",
            "label": "fundsRecipient",
            "offset": 0,
            "slot": "1",
            "type": "t_address_payable"
          }
        ],
        "numberOfBytes": "64"
      },
      "t_struct(SalesConfiguration)9363_storage": {
        "encoding": "inplace",
        "label": "struct SalesConfiguration",
        "members": [
          {
            "astId": 9344,
            "contract": "contracts/drops/token/HolographDropsEditionsV1.sol:HolographDropsEditionsV1",
            "label": "publicSalePrice",
            "offset": 0,
            "slot": "0",
            "type": "t_uint104"
          },
          {
            "astId": 9347,
            "contract": "contracts/drops/token/HolographDropsEditionsV1.sol:HolographDropsEditionsV1",
            "label": "maxSalePurchasePerAddress",
            "offset": 13,
            "slot": "0",
            "type": "t_uint32"
          },
          {
            "astId": 9350,
            "contract": "contracts/drops/token/HolographDropsEditionsV1.sol:HolographDropsEditionsV1",
            "label": "publicSaleStart",
            "offset": 17,
            "slot": "0",
            "type": "t_uint64"
          },
          {
            "astId": 9353,
            "contract": "contracts/drops/token/HolographDropsEditionsV1.sol:HolographDropsEditionsV1",
            "label": "publicSaleEnd",
            "offset": 0,
            "slot": "1",
            "type": "t_uint64"
          },
          {
            "astId": 9356,
            "contract": "contracts/drops/token/HolographDropsEditionsV1.sol:HolographDropsEditionsV1",
            "label": "presaleStart",
            "offset": 8,
            "slot": "1",
            "type": "t_uint64"
          },
          {
            "astId": 9359,
            "contract": "contracts/drops/token/HolographDropsEditionsV1.sol:HolographDropsEditionsV1",
            "label": "presaleEnd",
            "offset": 16,
            "slot": "1",
            "type": "t_uint64"
          },
          {
            "astId": 9362,
            "contract": "contracts/drops/token/HolographDropsEditionsV1.sol:HolographDropsEditionsV1",
            "label": "presaleMerkleRoot",
            "offset": 0,
            "slot": "2",
            "type": "t_bytes32"
          }
        ],
        "numberOfBytes": "96"
      },
      "t_uint104": {
        "encoding": "inplace",
        "label": "uint104",
        "numberOfBytes": "13"
      },
      "t_uint16": {
        "encoding": "inplace",
        "label": "uint16",
        "numberOfBytes": "2"
      },
      "t_uint224": {
        "encoding": "inplace",
        "label": "uint224",
        "numberOfBytes": "28"
      },
      "t_uint256": {
        "encoding": "inplace",
        "label": "uint256",
        "numberOfBytes": "32"
      },
      "t_uint32": {
        "encoding": "inplace",
        "label": "uint32",
        "numberOfBytes": "4"
      },
      "t_uint64": {
        "encoding": "inplace",
        "label": "uint64",
        "numberOfBytes": "8"
      }
    }
  }
}