{
  "address": "0xA86598A789D0B6D1991e9ed5354F8db3Ab692904",
  "abi": [
    {
      "inputs": [],
      "name": "Access_OnlyAdmin",
      "type": "error"
    },
    {
      "anonymous": false,
      "inputs": [
        {
          "indexed": true,
          "internalType": "address",
          "name": "target",
          "type": "address"
        },
        {
          "indexed": false,
          "internalType": "address",
          "name": "sender",
          "type": "address"
        },
        {
          "indexed": false,
          "internalType": "string",
          "name": "newDescription",
          "type": "string"
        }
      ],
      "name": "DescriptionUpdated",
      "type": "event"
    },
    {
      "anonymous": false,
      "inputs": [
        {
          "indexed": true,
          "internalType": "address",
          "name": "target",
          "type": "address"
        },
        {
          "indexed": false,
          "internalType": "string",
          "name": "description",
          "type": "string"
        },
        {
          "indexed": false,
          "internalType": "string",
          "name": "imageURI",
          "type": "string"
        },
        {
          "indexed": false,
          "internalType": "string",
          "name": "animationURI",
          "type": "string"
        }
      ],
      "name": "EditionInitialized",
      "type": "event"
    },
    {
      "anonymous": false,
      "inputs": [
        {
          "indexed": true,
          "internalType": "address",
          "name": "target",
          "type": "address"
        },
        {
          "indexed": false,
          "internalType": "address",
          "name": "sender",
          "type": "address"
        },
        {
          "indexed": false,
          "internalType": "string",
          "name": "imageURI",
          "type": "string"
        },
        {
          "indexed": false,
          "internalType": "string",
          "name": "animationURI",
          "type": "string"
        }
      ],
      "name": "MediaURIsUpdated",
      "type": "event"
    },
    {
      "inputs": [],
      "name": "contractURI",
      "outputs": [
        {
          "internalType": "string",
          "name": "",
          "type": "string"
        }
      ],
      "stateMutability": "view",
      "type": "function"
    },
    {
      "inputs": [
        {
          "internalType": "bytes",
          "name": "",
          "type": "bytes"
        }
      ],
      "name": "init",
      "outputs": [
        {
          "internalType": "bytes4",
          "name": "",
          "type": "bytes4"
        }
      ],
      "stateMutability": "pure",
      "type": "function"
    },
    {
      "inputs": [
        {
          "internalType": "bytes",
          "name": "data",
          "type": "bytes"
        }
      ],
      "name": "initializeWithData",
      "outputs": [],
      "stateMutability": "nonpayable",
      "type": "function"
    },
    {
      "inputs": [
        {
          "internalType": "address",
          "name": "target",
          "type": "address"
        },
        {
          "internalType": "string",
          "name": "imageURI",
          "type": "string"
        },
        {
          "internalType": "string",
          "name": "animationURI",
          "type": "string"
        }
      ],
      "name": "tempUpdateMediaURIs",
      "outputs": [],
      "stateMutability": "nonpayable",
      "type": "function"
    },
    {
      "inputs": [
        {
          "internalType": "address",
          "name": "",
          "type": "address"
        }
      ],
      "name": "tokenInfos",
      "outputs": [
        {
          "internalType": "string",
          "name": "description",
          "type": "string"
        },
        {
          "internalType": "string",
          "name": "imageURI",
          "type": "string"
        },
        {
          "internalType": "string",
          "name": "animationURI",
          "type": "string"
        }
      ],
      "stateMutability": "view",
      "type": "function"
    },
    {
      "inputs": [
        {
          "internalType": "uint256",
          "name": "tokenId",
          "type": "uint256"
        }
      ],
      "name": "tokenURI",
      "outputs": [
        {
          "internalType": "string",
          "name": "",
          "type": "string"
        }
      ],
      "stateMutability": "view",
      "type": "function"
    },
    {
      "inputs": [
        {
          "internalType": "address",
          "name": "target",
          "type": "address"
        },
        {
          "internalType": "string",
          "name": "newDescription",
          "type": "string"
        }
      ],
      "name": "updateDescription",
      "outputs": [],
      "stateMutability": "nonpayable",
      "type": "function"
    },
    {
      "inputs": [
        {
          "internalType": "address",
          "name": "target",
          "type": "address"
        },
        {
          "internalType": "string",
          "name": "imageURI",
          "type": "string"
        },
        {
          "internalType": "string",
          "name": "animationURI",
          "type": "string"
        }
      ],
      "name": "updateMediaURIs",
      "outputs": [],
      "stateMutability": "nonpayable",
      "type": "function"
    }
  ],
  "transactionHash": "0xfb2e95c17d050eb56dc592eb5b00ce7b7194f324f162240909a2f37bba689a38",
  "args": [],
  "numDeployments": 2,
  "solcInputHash": "4611dbaf9f58601d850f4310f3f71864",
  "bytecode": "0x608060405234801561001057600080fd5b506124a4806100206000396000f3fe608060405234801561001057600080fd5b50600436106100885760003560e01c80638bbb2cf21161005b5780638bbb2cf214610131578063ba46ae7214610144578063c87b56dd14610166578063e8a3d4851461018657600080fd5b806318227ddf1461008d5780632f17b8f0146100a25780634ddf47d4146100b5578063856a7ffa1461011e575b600080fd5b6100a061009b366004611824565b61018e565b005b6100a06100b0366004611824565b6102dd565b6100e86100c336600461189a565b507f4ddf47d40000000000000000000000000000000000000000000000000000000090565b6040517fffffffff0000000000000000000000000000000000000000000000000000000090911681526020015b60405180910390f35b6100a061012c36600461189a565b610494565b6100a061013f3660046118eb565b610563565b61015761015236600461193b565b6106c9565b604051610115939291906119d2565b610179610174366004611a0b565b610883565b6040516101159190611a24565b610179610bb5565b73c0ffee78121f208475abdd2cf0853a7afed647493314610210576040517f08c379a000000000000000000000000000000000000000000000000000000000815260206004820152600b60248201527f4f4e4c592043304646454500000000000000000000000000000000000000000060448201526064015b60405180910390fd5b73ffffffffffffffffffffffffffffffffffffffff8316600090815260208181526040909120835161024a9260019092019185019061161a565b5073ffffffffffffffffffffffffffffffffffffffff831660009081526020818152604090912082516102859260029092019184019061161a565b508273ffffffffffffffffffffffffffffffffffffffff167fc4c1b9223fcebe5f35b9030d3df655018c40e88d70b8a3c63ed851c5d972210f3384846040516102d093929190611a37565b60405180910390a2505050565b8273ffffffffffffffffffffffffffffffffffffffff8116331480159061038f57506040517f24d7806c00000000000000000000000000000000000000000000000000000000815233600482015273ffffffffffffffffffffffffffffffffffffffff8216906324d7806c90602401602060405180830381865afa158015610369573d6000803e3d6000fd5b505050506040513d601f19601f8201168201806040525081019061038d9190611a8d565b155b156103c6576040517f02bd6bd100000000000000000000000000000000000000000000000000000000815260040160405180910390fd5b73ffffffffffffffffffffffffffffffffffffffff841660009081526020818152604090912084516104009260019092019186019061161a565b5073ffffffffffffffffffffffffffffffffffffffff8416600090815260208181526040909120835161043b9260029092019185019061161a565b508373ffffffffffffffffffffffffffffffffffffffff167fc4c1b9223fcebe5f35b9030d3df655018c40e88d70b8a3c63ed851c5d972210f33858560405161048693929190611a37565b60405180910390a250505050565b6000806000838060200190518101906104ad9190611aed565b60408051606081018252848152602080820185905281830184905233600090815280825292909220815180519699509497509295509391926104f5928492919091019061161a565b50602082810151805161050e926001850192019061161a565b506040820151805161052a91600284019160209091019061161a565b50506040513391507ff889a5cdc62274389379cbfade0f225b1d30b7395177fd6aeaab61662b1c6edf90610486908690869086906119d2565b8173ffffffffffffffffffffffffffffffffffffffff8116331480159061061557506040517f24d7806c00000000000000000000000000000000000000000000000000000000815233600482015273ffffffffffffffffffffffffffffffffffffffff8216906324d7806c90602401602060405180830381865afa1580156105ef573d6000803e3d6000fd5b505050506040513d601f19601f820116820180604052508101906106139190611a8d565b155b1561064c576040517f02bd6bd100000000000000000000000000000000000000000000000000000000815260040160405180910390fd5b73ffffffffffffffffffffffffffffffffffffffff831660009081526020818152604090912083516106809285019061161a565b508273ffffffffffffffffffffffffffffffffffffffff167f36195b44a3184513e02477929207751ea9d67026b917ed74d374a7f9e8c5e4d133846040516102d0929190611b6b565b6000602081905290815260409020805481906106e490611b9a565b80601f016020809104026020016040519081016040528092919081815260200182805461071090611b9a565b801561075d5780601f106107325761010080835404028352916020019161075d565b820191906000526020600020905b81548152906001019060200180831161074057829003601f168201915b50505050509080600101805461077290611b9a565b80601f016020809104026020016040519081016040528092919081815260200182805461079e90611b9a565b80156107eb5780601f106107c0576101008083540402835291602001916107eb565b820191906000526020600020905b8154815290600101906020018083116107ce57829003601f168201915b50505050509080600201805461080090611b9a565b80601f016020809104026020016040519081016040528092919081815260200182805461082c90611b9a565b80156108795780601f1061084e57610100808354040283529160200191610879565b820191906000526020600020905b81548152906001019060200180831161085c57829003601f168201915b5050505050905083565b3360008181526020819052604080822081516060818101909352815492949392909190829082906108b390611b9a565b80601f01602080910402602001604051908101604052809291908181526020018280546108df90611b9a565b801561092c5780601f106109015761010080835404028352916020019161092c565b820191906000526020600020905b81548152906001019060200180831161090f57829003601f168201915b5050505050815260200160018201805461094590611b9a565b80601f016020809104026020016040519081016040528092919081815260200182805461097190611b9a565b80156109be5780601f10610993576101008083540402835291602001916109be565b820191906000526020600020905b8154815290600101906020018083116109a157829003601f168201915b505050505081526020016002820180546109d790611b9a565b80601f0160208091040260200160405190810160405280929190818152602001828054610a0390611b9a565b8015610a505780601f10610a2557610100808354040283529160200191610a50565b820191906000526020600020905b815481529060010190602001808311610a3357829003601f168201915b5050505050815250509050600082905060008173ffffffffffffffffffffffffffffffffffffffff16633474a4a66040518163ffffffff1660e01b815260040161016060405180830381865afa158015610aae573d6000803e3d6000fd5b505050506040513d601f19601f82011682018060405250810190610ad29190611c05565b610140015190507fffffffffffffffffffffffffffffffffffffffffffffffff00000000000000018101610b04575060005b610bab8473ffffffffffffffffffffffffffffffffffffffff166306fdde036040518163ffffffff1660e01b8152600401600060405180830381865afa158015610b52573d6000803e3d6000fd5b505050506040513d6000823e601f3d9081017fffffffffffffffffffffffffffffffffffffffffffffffffffffffffffffffe0168201604052610b989190810190611cbe565b8451602086015160408701518a86610e99565b9695505050505050565b3360008181526020819052604080822081517f79502c55000000000000000000000000000000000000000000000000000000008152915160609493919284916379502c55916004808201926080929091908290030181865afa158015610c1f573d6000803e3d6000fd5b505050506040513d601f19601f82011682018060405250810190610c439190611cf3565b9050610e918373ffffffffffffffffffffffffffffffffffffffff166306fdde036040518163ffffffff1660e01b8152600401600060405180830381865afa158015610c93573d6000803e3d6000fd5b505050506040513d6000823e601f3d9081017fffffffffffffffffffffffffffffffffffffffffffffffffffffffffffffffe0168201604052610cd99190810190611cbe565b83548490610ce690611b9a565b80601f0160208091040260200160405190810160405280929190818152602001828054610d1290611b9a565b8015610d5f5780601f10610d3457610100808354040283529160200191610d5f565b820191906000526020600020905b815481529060010190602001808311610d4257829003601f168201915b5050505050846001018054610d7390611b9a565b80601f0160208091040260200160405190810160405280929190818152602001828054610d9f90611b9a565b8015610dec5780601f10610dc157610100808354040283529160200191610dec565b820191906000526020600020905b815481529060010190602001808311610dcf57829003601f168201915b5050505050856002018054610e0090611b9a565b80601f0160208091040260200160405190810160405280929190818152602001828054610e2c90611b9a565b8015610e795780601f10610e4e57610100808354040283529160200191610e79565b820191906000526020600020905b815481529060010190602001808311610e5c57829003601f168201915b5050505050856040015161ffff168660600151610ed0565b935050505090565b60606000610ea78686610fa0565b90506000610eb88989848888611030565b9050610ec3816110ac565b9998505050505050505050565b60408051602081019091526000815284516060919015610f0d5785604051602001610efb9190611d99565b60405160208183030381529060405290505b604080516020810190915260008152855115610f465785604051602001610f349190611dde565b60405160208183030381529060405290505b610ec38989610f54886110dd565b610f758873ffffffffffffffffffffffffffffffffffffffff16601461119b565b8686604051602001610f8c96959493929190611e23565b6040516020818303038152906040526110ac565b81518151606091158015911515908290610fb75750805b15610fe7578484604051602001610fcf929190611f7d565b6040516020818303038152906040529250505061102a565b8115610ffe5784604051602001610fcf9190612028565b80156110155783604051602001610fcf9190612094565b60405180602001604052806000815250925050505b92915050565b606080821561106457611042836110dd565b6040516020016110529190612100565b60405160208183030381529060405290505b8661106e856110dd565b82888861107a896110dd565b8c6040516020016110919796959493929190612145565b60405160208183030381529060405291505095945050505050565b60606110b7826113e5565b6040516020016110c791906122ef565b6040516020818303038152906040529050919050565b606060006110ea83611538565b600101905060008167ffffffffffffffff81111561110a5761110a6116d8565b6040519080825280601f01601f191660200182016040528015611134576020820181803683370190505b5090508181016020015b7fffffffffffffffffffffffffffffffffffffffffffffffffffffffffffffffff017f3031323334353637383961626364656600000000000000000000000000000000600a86061a8153600a850494508461113e57509392505050565b606060006111aa836002612363565b6111b59060026123a0565b67ffffffffffffffff8111156111cd576111cd6116d8565b6040519080825280601f01601f1916602001820160405280156111f7576020820181803683370190505b5090507f30000000000000000000000000000000000000000000000000000000000000008160008151811061122e5761122e6123b8565b60200101907effffffffffffffffffffffffffffffffffffffffffffffffffffffffffffff1916908160001a9053507f780000000000000000000000000000000000000000000000000000000000000081600181518110611291576112916123b8565b60200101907effffffffffffffffffffffffffffffffffffffffffffffffffffffffffffff1916908160001a90535060006112cd846002612363565b6112d89060016123a0565b90505b6001811115611375577f303132333435363738396162636465660000000000000000000000000000000085600f1660108110611319576113196123b8565b1a60f81b82828151811061132f5761132f6123b8565b60200101907effffffffffffffffffffffffffffffffffffffffffffffffffffffffffffff1916908160001a90535060049490941c9361136e816123e7565b90506112db565b5083156113de576040517f08c379a000000000000000000000000000000000000000000000000000000000815260206004820181905260248201527f537472696e67733a20686578206c656e67746820696e73756666696369656e746044820152606401610207565b9392505050565b6060815160000361140457505060408051602081019091526000815290565b6000604051806060016040528060408152602001612458604091399050600060038451600261143391906123a0565b61143d919061241c565b611448906004612363565b67ffffffffffffffff811115611460576114606116d8565b6040519080825280601f01601f19166020018201604052801561148a576020820181803683370190505b509050600182016020820185865187015b808210156114f6576003820191508151603f8160121c168501518453600184019350603f81600c1c168501518453600184019350603f8160061c168501518453600184019350603f811685015184535060018301925061149b565b505060038651066001811461151257600281146115255761152d565b603d6001830353603d600283035361152d565b603d60018303535b509195945050505050565b6000807a184f03e93ff9f4daa797ed6e38ed64bf6a1f0100000000000000008310611581577a184f03e93ff9f4daa797ed6e38ed64bf6a1f010000000000000000830492506040015b6d04ee2d6d415b85acef810000000083106115ad576d04ee2d6d415b85acef8100000000830492506020015b662386f26fc1000083106115cb57662386f26fc10000830492506010015b6305f5e10083106115e3576305f5e100830492506008015b61271083106115f757612710830492506004015b60648310611609576064830492506002015b600a831061102a5760010192915050565b82805461162690611b9a565b90600052602060002090601f016020900481019282611648576000855561168e565b82601f1061166157805160ff191683800117855561168e565b8280016001018555821561168e579182015b8281111561168e578251825591602001919060010190611673565b5061169a92915061169e565b5090565b5b8082111561169a576000815560010161169f565b73ffffffffffffffffffffffffffffffffffffffff811681146116d557600080fd5b50565b7f4e487b7100000000000000000000000000000000000000000000000000000000600052604160045260246000fd5b604051610160810167ffffffffffffffff8111828210171561172b5761172b6116d8565b60405290565b604051601f82017fffffffffffffffffffffffffffffffffffffffffffffffffffffffffffffffe016810167ffffffffffffffff81118282101715611778576117786116d8565b604052919050565b600067ffffffffffffffff82111561179a5761179a6116d8565b50601f017fffffffffffffffffffffffffffffffffffffffffffffffffffffffffffffffe01660200190565b60006117d96117d484611780565b611731565b90508281528383830111156117ed57600080fd5b828260208301376000602084830101529392505050565b600082601f83011261181557600080fd5b6113de838335602085016117c6565b60008060006060848603121561183957600080fd5b8335611844816116b3565b9250602084013567ffffffffffffffff8082111561186157600080fd5b61186d87838801611804565b9350604086013591508082111561188357600080fd5b5061189086828701611804565b9150509250925092565b6000602082840312156118ac57600080fd5b813567ffffffffffffffff8111156118c357600080fd5b8201601f810184136118d457600080fd5b6118e3848235602084016117c6565b949350505050565b600080604083850312156118fe57600080fd5b8235611909816116b3565b9150602083013567ffffffffffffffff81111561192557600080fd5b61193185828601611804565b9150509250929050565b60006020828403121561194d57600080fd5b81356113de816116b3565b60005b8381101561197357818101518382015260200161195b565b83811115611982576000848401525b50505050565b600081518084526119a0816020860160208601611958565b601f017fffffffffffffffffffffffffffffffffffffffffffffffffffffffffffffffe0169290920160200192915050565b6060815260006119e56060830186611988565b82810360208401526119f78186611988565b90508281036040840152610bab8185611988565b600060208284031215611a1d57600080fd5b5035919050565b6020815260006113de6020830184611988565b73ffffffffffffffffffffffffffffffffffffffff84168152606060208201526000611a666060830185611988565b8281036040840152610bab8185611988565b80518015158114611a8857600080fd5b919050565b600060208284031215611a9f57600080fd5b6113de82611a78565b600082601f830112611ab957600080fd5b8151611ac76117d482611780565b818152846020838601011115611adc57600080fd5b6118e3826020830160208701611958565b600080600060608486031215611b0257600080fd5b835167ffffffffffffffff80821115611b1a57600080fd5b611b2687838801611aa8565b94506020860151915080821115611b3c57600080fd5b611b4887838801611aa8565b93506040860151915080821115611b5e57600080fd5b5061189086828701611aa8565b73ffffffffffffffffffffffffffffffffffffffff831681526040602082015260006118e36040830184611988565b600181811c90821680611bae57607f821691505b602082108103611be7577f4e487b7100000000000000000000000000000000000000000000000000000000600052602260045260246000fd5b50919050565b805167ffffffffffffffff81168114611a8857600080fd5b60006101608284031215611c1857600080fd5b611c20611707565b611c2983611a78565b8152611c3760208401611a78565b602082015260408301516040820152611c5260608401611bed565b6060820152611c6360808401611bed565b6080820152611c7460a08401611bed565b60a0820152611c8560c08401611bed565b60c082015260e0838101519082015261010080840151908201526101208084015190820152610140928301519281019290925250919050565b600060208284031215611cd057600080fd5b815167ffffffffffffffff811115611ce757600080fd5b6118e384828501611aa8565b600060808284031215611d0557600080fd5b6040516080810181811067ffffffffffffffff82111715611d2857611d286116d8565b6040528251611d36816116b3565b8152611d4460208401611bed565b6020820152604083015161ffff81168114611d5e57600080fd5b60408201526060830151611d71816116b3565b60608201529392505050565b60008151611d8f818560208601611958565b9290920192915050565b7f222c2022696d616765223a202200000000000000000000000000000000000000815260008251611dd181600d850160208701611958565b91909101600d0192915050565b7f222c2022616e696d6174696f6e5f75726c223a20220000000000000000000000815260008251611e16816015850160208701611958565b9190910160150192915050565b7f7b226e616d65223a2022000000000000000000000000000000000000000000008152600087516020611e5c82600a8601838d01611958565b7f222c20226465736372697074696f6e223a202200000000000000000000000000600a928501928301528851611e9881601d8501848d01611958565b7f222c202273656c6c65725f6665655f62617369735f706f696e7473223a200000601d93909101928301528751611ed581603b8501848c01611958565b7f2c20226665655f726563697069656e74223a2022000000000000000000000000603b93909101928301528651611f1281604f8501848b01611958565b8651920191611f2781604f8501848a01611958565b8551920191611f3c81604f8501848901611958565b611f6e604f828501017f227d000000000000000000000000000000000000000000000000000000000000815260020190565b9b9a5050505050505050505050565b7f696d616765223a20220000000000000000000000000000000000000000000000815260008351611fb5816009850160208801611958565b7f222c2022616e696d6174696f6e5f75726c223a202200000000000000000000006009918401918201528351611ff281601e840160208801611958565b7f222c202200000000000000000000000000000000000000000000000000000000601e9290910191820152602201949350505050565b7f696d616765223a20220000000000000000000000000000000000000000000000815260008251612060816009850160208701611958565b7f222c2022000000000000000000000000000000000000000000000000000000006009939091019283015250600d01919050565b7f616e696d6174696f6e5f75726c223a20220000000000000000000000000000008152600082516120cc816011850160208701611958565b7f222c2022000000000000000000000000000000000000000000000000000000006011939091019283015250601501919050565b7f2f00000000000000000000000000000000000000000000000000000000000000815260008251612138816001850160208701611958565b9190910160010192915050565b7f7b226e616d65223a20220000000000000000000000000000000000000000000081526000885161217d81600a850160208d01611958565b7f2000000000000000000000000000000000000000000000000000000000000000600a9184019182015288516121ba81600b840160208d01611958565b88519101906121d081600b840160208c01611958565b8082019150507f222c20220000000000000000000000000000000000000000000000000000000080600b8301527f6465736372697074696f6e223a20220000000000000000000000000000000000600f830152875161223681601e850160208c01611958565b601e9201918201526122e16122b86122b261228961228361225a602287018c611d7d565b7f70726f70657274696573223a207b226e756d626572223a200000000000000000815260180190565b89611d7d565b7f2c20226e616d65223a20220000000000000000000000000000000000000000008152600b0190565b86611d7d565b7f227d7d0000000000000000000000000000000000000000000000000000000000815260030190565b9a9950505050505050505050565b7f646174613a6170706c69636174696f6e2f6a736f6e3b6261736536342c00000081526000825161232781601d850160208701611958565b91909101601d0192915050565b7f4e487b7100000000000000000000000000000000000000000000000000000000600052601160045260246000fd5b6000817fffffffffffffffffffffffffffffffffffffffffffffffffffffffffffffffff048311821515161561239b5761239b612334565b500290565b600082198211156123b3576123b3612334565b500190565b7f4e487b7100000000000000000000000000000000000000000000000000000000600052603260045260246000fd5b6000816123f6576123f6612334565b507fffffffffffffffffffffffffffffffffffffffffffffffffffffffffffffffff0190565b600082612452577f4e487b7100000000000000000000000000000000000000000000000000000000600052601260045260246000fd5b50049056fe4142434445464748494a4b4c4d4e4f505152535455565758595a6162636465666768696a6b6c6d6e6f707172737475767778797a303132333435363738392b2fa164736f6c634300080d000a",
  "devdoc": {
    "events": {
      "DescriptionUpdated(address,address,string)": {
        "details": "admin function indexer feedback"
      },
      "EditionInitialized(address,string,string,string)": {
        "details": "admin function indexer feedback"
      }
    },
    "kind": "dev",
    "methods": {
      "contractURI()": {
        "returns": {
          "_0": "contract uri (if set)"
        }
      },
      "init(bytes)": {
        "details": "This function is called by the deployer/factory when creating a contractA blank init function is required to be able to call genesisDeriveFutureAddress to get the deterministic addressSince no data is required to be intialized the selector is just returned and _setInitialized() does not need to be called"
      },
      "initializeWithData(bytes)": {
        "params": {
          "data": "data to init with"
        }
      },
      "tokenURI(uint256)": {
        "params": {
          "tokenId": "to get uri for"
        },
        "returns": {
          "_0": "contract uri (if set)"
        }
      },
      "updateDescription(address,string)": {
        "params": {
          "newDescription": "new description",
          "target": "target description"
        }
      },
      "updateMediaURIs(address,string,string)": {
        "params": {
          "animationURI": "new animation uri address",
          "imageURI": "new image uri address",
          "target": "target for contract to update metadata for"
        }
      }
    },
    "version": 1
  },
  "userdoc": {
    "events": {
      "DescriptionUpdated(address,address,string)": {
        "notice": "Description updated for this edition"
      },
      "EditionInitialized(address,string,string,string)": {
        "notice": "Event for a new edition initialized"
      },
      "MediaURIsUpdated(address,address,string,string)": {
        "notice": "Event for updated Media URIs"
      }
    },
    "kind": "user",
    "methods": {
      "contractURI()": {
        "notice": "Contract URI information getter"
      },
      "init(bytes)": {
        "notice": "Used internally to initialize the contract instead of through a constructor"
      },
      "initializeWithData(bytes)": {
        "notice": "Default initializer for edition data from a specific contract"
      },
      "tokenInfos(address)": {
        "notice": "Token information mapping storage"
      },
      "tokenURI(uint256)": {
        "notice": "Token URI information getter"
      },
      "updateDescription(address,string)": {
        "notice": "Admin function to update description"
      },
      "updateMediaURIs(address,string,string)": {
        "notice": "Update media URIs"
      }
    },
    "notice": "EditionsMetadataRenderer for editions support",
    "version": 1
  },
  "storageLayout": {
    "storage": [
      {
        "astId": 364,
        "contract": "contracts/drops/metadata/EditionsMetadataRenderer.sol:EditionsMetadataRenderer",
        "label": "tokenInfos",
        "offset": 0,
        "slot": "0",
        "type": "t_mapping(t_address,t_struct(TokenEditionInfo)327_storage)"
      }
    ],
    "types": {
      "t_address": {
        "encoding": "inplace",
        "label": "address",
        "numberOfBytes": "20"
      },
      "t_mapping(t_address,t_struct(TokenEditionInfo)327_storage)": {
        "encoding": "mapping",
        "key": "t_address",
        "label": "mapping(address => struct EditionsMetadataRenderer.TokenEditionInfo)",
        "numberOfBytes": "32",
        "value": "t_struct(TokenEditionInfo)327_storage"
      },
      "t_string_storage": {
        "encoding": "bytes",
        "label": "string",
        "numberOfBytes": "32"
      },
      "t_struct(TokenEditionInfo)327_storage": {
        "encoding": "inplace",
        "label": "struct EditionsMetadataRenderer.TokenEditionInfo",
        "members": [
          {
            "astId": 322,
            "contract": "contracts/drops/metadata/EditionsMetadataRenderer.sol:EditionsMetadataRenderer",
            "label": "description",
            "offset": 0,
            "slot": "0",
            "type": "t_string_storage"
          },
          {
            "astId": 324,
            "contract": "contracts/drops/metadata/EditionsMetadataRenderer.sol:EditionsMetadataRenderer",
            "label": "imageURI",
            "offset": 0,
            "slot": "1",
            "type": "t_string_storage"
          },
          {
            "astId": 326,
            "contract": "contracts/drops/metadata/EditionsMetadataRenderer.sol:EditionsMetadataRenderer",
            "label": "animationURI",
            "offset": 0,
            "slot": "2",
            "type": "t_string_storage"
          }
        ],
        "numberOfBytes": "96"
      }
    }
  }
}