{
  "address": "0xB460907559dD1a0EE4f89643beE0820068300eCf",
  "abi": [
    {
      "inputs": [],
      "stateMutability": "nonpayable",
      "type": "constructor"
    },
    {
      "anonymous": false,
      "inputs": [
        {
          "indexed": true,
          "internalType": "address",
          "name": "previousOwner",
          "type": "address"
        },
        {
          "indexed": true,
          "internalType": "address",
          "name": "newOwner",
          "type": "address"
        }
      ],
      "name": "OwnershipTransferred",
      "type": "event"
    },
    {
      "stateMutability": "payable",
      "type": "fallback"
    },
    {
      "inputs": [],
      "name": "admin",
      "outputs": [
        {
          "internalType": "address",
          "name": "",
          "type": "address"
        }
      ],
      "stateMutability": "view",
      "type": "function"
    },
    {
      "inputs": [
        {
          "internalType": "address",
          "name": "target",
          "type": "address"
        },
        {
          "internalType": "bytes",
          "name": "data",
          "type": "bytes"
        }
      ],
      "name": "adminCall",
      "outputs": [],
      "stateMutability": "payable",
      "type": "function"
    },
    {
      "inputs": [
        {
          "internalType": "uint32",
          "name": "fromChain",
          "type": "uint32"
        },
        {
          "internalType": "bytes",
          "name": "payload",
          "type": "bytes"
        }
      ],
      "name": "bridgeIn",
      "outputs": [
        {
          "internalType": "bytes4",
          "name": "",
          "type": "bytes4"
        }
      ],
      "stateMutability": "nonpayable",
      "type": "function"
    },
    {
      "inputs": [
        {
          "internalType": "uint32",
          "name": "toChain",
          "type": "uint32"
        },
        {
          "internalType": "address",
          "name": "sender",
          "type": "address"
        },
        {
          "internalType": "bytes",
          "name": "payload",
          "type": "bytes"
        }
      ],
      "name": "bridgeOut",
      "outputs": [
        {
          "internalType": "bytes4",
          "name": "selector",
          "type": "bytes4"
        },
        {
          "internalType": "bytes",
          "name": "data",
          "type": "bytes"
        }
      ],
      "stateMutability": "nonpayable",
      "type": "function"
    },
    {
      "inputs": [],
      "name": "getAdmin",
      "outputs": [
        {
          "internalType": "address",
          "name": "adminAddress",
          "type": "address"
        }
      ],
      "stateMutability": "view",
      "type": "function"
    },
    {
      "inputs": [],
      "name": "getOwner",
      "outputs": [
        {
          "internalType": "address",
          "name": "ownerAddress",
          "type": "address"
        }
      ],
      "stateMutability": "view",
      "type": "function"
    },
    {
      "inputs": [
        {
          "internalType": "bytes",
          "name": "initPayload",
          "type": "bytes"
        }
      ],
      "name": "init",
      "outputs": [
        {
          "internalType": "bytes4",
          "name": "",
          "type": "bytes4"
        }
      ],
      "stateMutability": "nonpayable",
      "type": "function"
    },
    {
      "inputs": [],
      "name": "owner",
      "outputs": [
        {
          "internalType": "address",
          "name": "",
          "type": "address"
        }
      ],
      "stateMutability": "view",
      "type": "function"
    },
    {
      "inputs": [
        {
          "internalType": "address",
          "name": "target",
          "type": "address"
        },
        {
          "internalType": "bytes",
          "name": "data",
          "type": "bytes"
        }
      ],
      "name": "ownerCall",
      "outputs": [],
      "stateMutability": "payable",
      "type": "function"
    },
    {
      "inputs": [
        {
          "internalType": "address",
          "name": "adminAddress",
          "type": "address"
        }
      ],
      "name": "setAdmin",
      "outputs": [],
      "stateMutability": "nonpayable",
      "type": "function"
    },
    {
      "inputs": [
        {
          "internalType": "address",
          "name": "ownerAddress",
          "type": "address"
        }
      ],
      "name": "setOwner",
      "outputs": [],
      "stateMutability": "nonpayable",
      "type": "function"
    },
    {
      "inputs": [
        {
          "internalType": "bytes32",
          "name": "eventId",
          "type": "bytes32"
        },
        {
          "internalType": "bytes",
          "name": "eventData",
          "type": "bytes"
        }
      ],
      "name": "sourceEmit",
      "outputs": [],
      "stateMutability": "nonpayable",
      "type": "function"
    },
    {
      "inputs": [
        {
          "internalType": "bytes",
          "name": "eventData",
          "type": "bytes"
        }
      ],
      "name": "sourceEmit",
      "outputs": [],
      "stateMutability": "nonpayable",
      "type": "function"
    },
    {
      "inputs": [
        {
          "internalType": "bytes32",
          "name": "eventId",
          "type": "bytes32"
        },
        {
          "internalType": "bytes32",
          "name": "topic1",
          "type": "bytes32"
        },
        {
          "internalType": "bytes32",
          "name": "topic2",
          "type": "bytes32"
        },
        {
          "internalType": "bytes32",
          "name": "topic3",
          "type": "bytes32"
        },
        {
          "internalType": "bytes",
          "name": "eventData",
          "type": "bytes"
        }
      ],
      "name": "sourceEmit",
      "outputs": [],
      "stateMutability": "nonpayable",
      "type": "function"
    },
    {
      "inputs": [
        {
          "internalType": "bytes32",
          "name": "eventId",
          "type": "bytes32"
        },
        {
          "internalType": "bytes32",
          "name": "topic1",
          "type": "bytes32"
        },
        {
          "internalType": "bytes",
          "name": "eventData",
          "type": "bytes"
        }
      ],
      "name": "sourceEmit",
      "outputs": [],
      "stateMutability": "nonpayable",
      "type": "function"
    },
    {
      "inputs": [
        {
          "internalType": "bytes32",
          "name": "eventId",
          "type": "bytes32"
        },
        {
          "internalType": "bytes32",
          "name": "topic1",
          "type": "bytes32"
        },
        {
          "internalType": "bytes32",
          "name": "topic2",
          "type": "bytes32"
        },
        {
          "internalType": "bytes",
          "name": "eventData",
          "type": "bytes"
        }
      ],
      "name": "sourceEmit",
      "outputs": [],
      "stateMutability": "nonpayable",
      "type": "function"
    },
    {
      "inputs": [
        {
          "internalType": "address payable",
          "name": "destination",
          "type": "address"
        },
        {
          "internalType": "uint256",
          "name": "amount",
          "type": "uint256"
        }
      ],
      "name": "sourceTransfer",
      "outputs": [],
      "stateMutability": "nonpayable",
      "type": "function"
    },
    {
      "inputs": [
        {
          "internalType": "address payable",
          "name": "destination",
          "type": "address"
        }
      ],
      "name": "sourceWithdraw",
      "outputs": [],
      "stateMutability": "nonpayable",
      "type": "function"
    },
    {
      "inputs": [
        {
          "internalType": "bytes4",
          "name": "interfaceId",
          "type": "bytes4"
        }
      ],
      "name": "supportsInterface",
      "outputs": [
        {
          "internalType": "bool",
          "name": "",
          "type": "bool"
        }
      ],
      "stateMutability": "view",
      "type": "function"
    },
    {
      "inputs": [
        {
          "internalType": "address",
          "name": "newOwner",
          "type": "address"
        }
      ],
      "name": "transferOwnership",
      "outputs": [],
      "stateMutability": "nonpayable",
      "type": "function"
    },
    {
      "stateMutability": "payable",
      "type": "receive"
    }
  ],
  "transactionHash": "0x34173bd97297423a3cfb66129bc0b0eb96d107f46366116a3419c70f45032b65",
  "args": [],
  "numDeployments": 5,
  "solcInputHash": "fd89093dad9042bdcfdb9d304a130dd5",
  "bytecode": "0x608060405234801561001057600080fd5b5061219f806100206000396000f3fe6080604052600436106101635760003560e01c8063704b6c02116100c0578063c5655fce11610074578063ebad1ffe11610059578063ebad1ffe14610450578063f2fde38b14610470578063f851a440146104905761016a565b8063c5655fce1461041d578063eb66dbcf1461043d5761016a565b80638da5cb5b116100a55780638da5cb5b146103c7578063b7e03661146103dc578063bf64a82d1461040a5761016a565b8063704b6c0214610373578063893d20e8146103935761016a565b8063207e69a8116101175780634ddf47d4116100fc5780634ddf47d4146102de57806360795403146102fe5780636e9960c31461031e5761016a565b8063207e69a81461029e5780632711dbd6146102be5761016a565b8063035c5c6511610148578063035c5c651461020d57806308a1eb201461022d57806313af40351461027e5761016a565b806301ffc9a7146101b8578063023db0cd146101ed5761016a565b3661016a57005b3660008037333652600080602036016000347f27d542086d1e831d40b749e7f5509a626c3047a36d160781c40d5acc83e5b074545af13d6000803e8080156101b1573d6000f35b3d6000fd5b005b3480156101c457600080fd5b506101d86101d33660046119f5565b6104a5565b60405190151581526020015b60405180910390f35b3480156101f957600080fd5b506101b6610208366004611a62565b61063b565b34801561021957600080fd5b506101b6610228366004611aae565b6106f1565b34801561023957600080fd5b5061024d610248366004611b09565b6107a0565b6040517fffffffff0000000000000000000000000000000000000000000000000000000090911681526020016101e4565b34801561028a57600080fd5b506101b6610299366004611b65565b610a0c565b3480156102aa57600080fd5b506101b66102b9366004611b82565b610b6f565b3480156102ca57600080fd5b506101b66102d9366004611b65565b610c26565b3480156102ea57600080fd5b5061024d6102f9366004611cb0565b610d0e565b34801561030a57600080fd5b506101b6610319366004611d30565b610f86565b34801561032a57600080fd5b507f3f106594dc74eeef980dae234cde8324dc2497b13d27a0c59e55bd2ca10a07c9545b60405173ffffffffffffffffffffffffffffffffffffffff90911681526020016101e4565b34801561037f57600080fd5b506101b661038e366004611b65565b611039565b34801561039f57600080fd5b507fb56711ba6bd3ded7639fc335ee7524fe668a79d7558c85992e3f8494cf7727775461034e565b3480156103d357600080fd5b5061034e611113565b3480156103e857600080fd5b506103fc6103f7366004611d83565b6111af565b6040516101e4929190611e44565b6101b6610418366004611e87565b6113e9565b34801561042957600080fd5b506101b6610438366004611ea7565b6114bf565b6101b661044b366004611e87565b6115a9565b34801561045c57600080fd5b506101b661046b366004611ed3565b61165f565b34801561047c57600080fd5b506101b661048b366004611b65565b611714565b34801561049c57600080fd5b5061034e61186b565b6000806104b061189a565b7f27d542086d1e831d40b749e7f5509a626c3047a36d160781c40d5acc83e5b074546040517f9fe7303f0000000000000000000000000000000000000000000000000000000081529192509073ffffffffffffffffffffffffffffffffffffffff831690639fe7303f9061052b906005908890600401611f63565b602060405180830381865afa158015610548573d6000803e3d6000fd5b505050506040513d601f19601f8201168201806040525081019061056c9190611fdf565b8061062257506040517f01ffc9a70000000000000000000000000000000000000000000000000000000081527fffffffff000000000000000000000000000000000000000000000000000000008516600482015273ffffffffffffffffffffffffffffffffffffffff8216906301ffc9a790602401602060405180830381865afa1580156105fe573d6000803e3d6000fd5b505050506040513d601f19601f820116820180604052508101906106229190611fdf565b15610631575060019392505050565b5060009392505050565b7f27d542086d1e831d40b749e7f5509a626c3047a36d160781c40d5acc83e5b074543373ffffffffffffffffffffffffffffffffffffffff8216146106e1576040517f08c379a000000000000000000000000000000000000000000000000000000000815260206004820152601960248201527f47454e455249433a20736f75726365206f6e6c792063616c6c0000000000000060448201526064015b60405180910390fd5b818360003783826000a150505050565b7f27d542086d1e831d40b749e7f5509a626c3047a36d160781c40d5acc83e5b074543373ffffffffffffffffffffffffffffffffffffffff821614610792576040517f08c379a000000000000000000000000000000000000000000000000000000000815260206004820152601960248201527f47454e455249433a20736f75726365206f6e6c792063616c6c0000000000000060448201526064016106d8565b8183600037816000a0505050565b60006107ca7fb4107f746e9496e8452accc7de63d1c5e14c19f510932daa04077cd49e8bd77a5490565b73ffffffffffffffffffffffffffffffffffffffff16630fffbaf36040518163ffffffff1660e01b8152600401602060405180830381865afa158015610814573d6000803e3d6000fd5b505050506040513d601f19601f820116820180604052508101906108389190611ffa565b73ffffffffffffffffffffffffffffffffffffffff163373ffffffffffffffffffffffffffffffffffffffff16146108cc576040517f08c379a000000000000000000000000000000000000000000000000000000000815260206004820152601960248201527f47454e455249433a20627269646765206f6e6c792063616c6c0000000000000060448201526064016106d8565b6108d66001611932565b156109e35761097d6308a1eb2060e01b8585856040516024016108fb93929190612060565b604080517fffffffffffffffffffffffffffffffffffffffffffffffffffffffffffffffe08184030181529190526020810180517bffffffffffffffffffffffffffffffffffffffffffffffffffffffff167fffffffff0000000000000000000000000000000000000000000000000000000090931692909217909152611965565b6109e3576040517f08c379a000000000000000000000000000000000000000000000000000000000815260206004820152601b60248201527f484f4c4f47524150483a2062726964676520696e206661696c6564000000000060448201526064016106d8565b507f08a1eb20000000000000000000000000000000000000000000000000000000009392505050565b7fb56711ba6bd3ded7639fc335ee7524fe668a79d7558c85992e3f8494cf7727775473ffffffffffffffffffffffffffffffffffffffff163373ffffffffffffffffffffffffffffffffffffffff1614610ac2576040517f08c379a000000000000000000000000000000000000000000000000000000000815260206004820152601e60248201527f484f4c4f47524150483a206f776e6572206f6e6c792066756e6374696f6e000060448201526064016106d8565b6000610aec7fb56711ba6bd3ded7639fc335ee7524fe668a79d7558c85992e3f8494cf7727775490565b9050817fb56711ba6bd3ded7639fc335ee7524fe668a79d7558c85992e3f8494cf772777558173ffffffffffffffffffffffffffffffffffffffff168173ffffffffffffffffffffffffffffffffffffffff167f8be0079c531659141344cd1fd0a4f28419497f9722a3daafe3b4186f6b6457e060405160405180910390a35050565b7f27d542086d1e831d40b749e7f5509a626c3047a36d160781c40d5acc83e5b074543373ffffffffffffffffffffffffffffffffffffffff821614610c10576040517f08c379a000000000000000000000000000000000000000000000000000000000815260206004820152601960248201527f47454e455249433a20736f75726365206f6e6c792063616c6c0000000000000060448201526064016106d8565b818360003783858789856000a450505050505050565b7f27d542086d1e831d40b749e7f5509a626c3047a36d160781c40d5acc83e5b074543373ffffffffffffffffffffffffffffffffffffffff821614610cc7576040517f08c379a000000000000000000000000000000000000000000000000000000000815260206004820152601960248201527f47454e455249433a20736f75726365206f6e6c792063616c6c0000000000000060448201526064016106d8565b60405173ffffffffffffffffffffffffffffffffffffffff8316904780156108fc02916000818181858888f19350505050158015610d09573d6000803e3d6000fd5b505050565b6000610d387f4e5f991bca30eca2d4643aaefa807e88f96a4a97398933d572a3c0d973004a015490565b15610d9f576040517f08c379a000000000000000000000000000000000000000000000000000000000815260206004820152601c60248201527f47454e455249433a20616c726561647920696e697469616c697a65640000000060448201526064016106d8565b6000337fb56711ba6bd3ded7639fc335ee7524fe668a79d7558c85992e3f8494cf772777557f27d542086d1e831d40b749e7f5509a626c3047a36d160781c40d5acc83e5b074549050600080600085806020019051810190610e019190612089565b60008390559194509250905081610f32576040517f4ddf47d4000000000000000000000000000000000000000000000000000000008082529073ffffffffffffffffffffffffffffffffffffffff861690634ddf47d490610e6690859060040161211c565b6020604051808303816000875af1158015610e85573d6000803e3d6000fd5b505050506040513d601f19601f82011682018060405250810190610ea9919061212f565b7fffffffff000000000000000000000000000000000000000000000000000000001614610f32576040517f08c379a000000000000000000000000000000000000000000000000000000000815260206004820152601e60248201527f47454e455249433a20636f756c64206e6f7420696e697420736f75726365000060448201526064016106d8565b610f5b60017f4e5f991bca30eca2d4643aaefa807e88f96a4a97398933d572a3c0d973004a0155565b507f4ddf47d40000000000000000000000000000000000000000000000000000000095945050505050565b7f27d542086d1e831d40b749e7f5509a626c3047a36d160781c40d5acc83e5b074543373ffffffffffffffffffffffffffffffffffffffff821614611027576040517f08c379a000000000000000000000000000000000000000000000000000000000815260206004820152601960248201527f47454e455249433a20736f75726365206f6e6c792063616c6c0000000000000060448201526064016106d8565b81836000378385836000a25050505050565b7f3f106594dc74eeef980dae234cde8324dc2497b13d27a0c59e55bd2ca10a07c95473ffffffffffffffffffffffffffffffffffffffff163373ffffffffffffffffffffffffffffffffffffffff16146110ef576040517f08c379a000000000000000000000000000000000000000000000000000000000815260206004820152601e60248201527f484f4c4f47524150483a2061646d696e206f6e6c792066756e6374696f6e000060448201526064016106d8565b7f3f106594dc74eeef980dae234cde8324dc2497b13d27a0c59e55bd2ca10a07c955565b6000807f27d542086d1e831d40b749e7f5509a626c3047a36d160781c40d5acc83e5b0745490508073ffffffffffffffffffffffffffffffffffffffff16638da5cb5b6040518163ffffffff1660e01b8152600401602060405180830381865afa158015611185573d6000803e3d6000fd5b505050506040513d601f19601f820116820180604052508101906111a99190611ffa565b91505090565b600060606111db7fb4107f746e9496e8452accc7de63d1c5e14c19f510932daa04077cd49e8bd77a5490565b73ffffffffffffffffffffffffffffffffffffffff16630fffbaf36040518163ffffffff1660e01b8152600401602060405180830381865afa158015611225573d6000803e3d6000fd5b505050506040513d601f19601f820116820180604052508101906112499190611ffa565b73ffffffffffffffffffffffffffffffffffffffff163373ffffffffffffffffffffffffffffffffffffffff16146112dd576040517f08c379a000000000000000000000000000000000000000000000000000000000815260206004820152601960248201527f47454e455249433a20627269646765206f6e6c792063616c6c0000000000000060448201526064016106d8565b6112e76002611932565b156113bd57600063b7e0366160e01b8787878760405160240161130d949392919061214c565b604051602081830303815290604052907bffffffffffffffffffffffffffffffffffffffffffffffffffffffff19166020820180517bffffffffffffffffffffffffffffffffffffffffffffffffffffffff83818316178352505050509050336020825101820152600080602083510160208401347f27d542086d1e831d40b749e7f5509a626c3047a36d160781c40d5acc83e5b074545af160203d036020843e80806113b9573d6000fd5b5050505b7fb7e0366100000000000000000000000000000000000000000000000000000000915094509492505050565b7f3f106594dc74eeef980dae234cde8324dc2497b13d27a0c59e55bd2ca10a07c95473ffffffffffffffffffffffffffffffffffffffff163373ffffffffffffffffffffffffffffffffffffffff161461149f576040517f08c379a000000000000000000000000000000000000000000000000000000000815260206004820152601e60248201527f484f4c4f47524150483a2061646d696e206f6e6c792066756e6374696f6e000060448201526064016106d8565b808260003760008082600034875af13d6000803e8080156101b1573d6000f35b7f27d542086d1e831d40b749e7f5509a626c3047a36d160781c40d5acc83e5b074543373ffffffffffffffffffffffffffffffffffffffff821614611560576040517f08c379a000000000000000000000000000000000000000000000000000000000815260206004820152601960248201527f47454e455249433a20736f75726365206f6e6c792063616c6c0000000000000060448201526064016106d8565b60405173ffffffffffffffffffffffffffffffffffffffff84169083156108fc029084906000818181858888f193505050501580156115a3573d6000803e3d6000fd5b50505050565b7fb56711ba6bd3ded7639fc335ee7524fe668a79d7558c85992e3f8494cf7727775473ffffffffffffffffffffffffffffffffffffffff163373ffffffffffffffffffffffffffffffffffffffff161461149f576040517f08c379a000000000000000000000000000000000000000000000000000000000815260206004820152601e60248201527f484f4c4f47524150483a206f776e6572206f6e6c792066756e6374696f6e000060448201526064016106d8565b7f27d542086d1e831d40b749e7f5509a626c3047a36d160781c40d5acc83e5b074543373ffffffffffffffffffffffffffffffffffffffff821614611700576040517f08c379a000000000000000000000000000000000000000000000000000000000815260206004820152601960248201527f47454e455249433a20736f75726365206f6e6c792063616c6c0000000000000060448201526064016106d8565b8183600037838587846000a3505050505050565b7fb56711ba6bd3ded7639fc335ee7524fe668a79d7558c85992e3f8494cf7727775473ffffffffffffffffffffffffffffffffffffffff163373ffffffffffffffffffffffffffffffffffffffff16146117ca576040517f08c379a000000000000000000000000000000000000000000000000000000000815260206004820152601e60248201527f484f4c4f47524150483a206f776e6572206f6e6c792066756e6374696f6e000060448201526064016106d8565b73ffffffffffffffffffffffffffffffffffffffff8116611847576040517f08c379a000000000000000000000000000000000000000000000000000000000815260206004820152601760248201527f484f4c4f47524150483a207a65726f206164647265737300000000000000000060448201526064016106d8565b7fb56711ba6bd3ded7639fc335ee7524fe668a79d7558c85992e3f8494cf77277755565b60006118957f3f106594dc74eeef980dae234cde8324dc2497b13d27a0c59e55bd2ca10a07c95490565b905090565b60006118c47fb4107f746e9496e8452accc7de63d1c5e14c19f510932daa04077cd49e8bd77a5490565b73ffffffffffffffffffffffffffffffffffffffff1663ebac15f96040518163ffffffff1660e01b8152600401602060405180830381865afa15801561190e573d6000803e3d6000fd5b505050506040513d601f19601f820116820180604052508101906118959190611ffa565b6000600182600281111561194857611948611f34565b600054901c1660011461195c57600061195f565b60015b92915050565b600060405160208101604052336020845101840152600080602085510160208601347f27d542086d1e831d40b749e7f5509a626c3047a36d160781c40d5acc83e5b074545af13d6000833e80806119bb573d6000fd5b50505192915050565b7fffffffff00000000000000000000000000000000000000000000000000000000811681146119f257600080fd5b50565b600060208284031215611a0757600080fd5b8135611a12816119c4565b9392505050565b60008083601f840112611a2b57600080fd5b50813567ffffffffffffffff811115611a4357600080fd5b602083019150836020828501011115611a5b57600080fd5b9250929050565b600080600060408486031215611a7757600080fd5b83359250602084013567ffffffffffffffff811115611a9557600080fd5b611aa186828701611a19565b9497909650939450505050565b60008060208385031215611ac157600080fd5b823567ffffffffffffffff811115611ad857600080fd5b611ae485828601611a19565b90969095509350505050565b803563ffffffff81168114611b0457600080fd5b919050565b600080600060408486031215611b1e57600080fd5b611b2784611af0565b9250602084013567ffffffffffffffff811115611a9557600080fd5b73ffffffffffffffffffffffffffffffffffffffff811681146119f257600080fd5b600060208284031215611b7757600080fd5b8135611a1281611b43565b60008060008060008060a08789031215611b9b57600080fd5b86359550602087013594506040870135935060608701359250608087013567ffffffffffffffff811115611bce57600080fd5b611bda89828a01611a19565b979a9699509497509295939492505050565b7f4e487b7100000000000000000000000000000000000000000000000000000000600052604160045260246000fd5b604051601f82017fffffffffffffffffffffffffffffffffffffffffffffffffffffffffffffffe016810167ffffffffffffffff81118282101715611c6257611c62611bec565b604052919050565b600067ffffffffffffffff821115611c8457611c84611bec565b50601f017fffffffffffffffffffffffffffffffffffffffffffffffffffffffffffffffe01660200190565b600060208284031215611cc257600080fd5b813567ffffffffffffffff811115611cd957600080fd5b8201601f81018413611cea57600080fd5b8035611cfd611cf882611c6a565b611c1b565b818152856020838501011115611d1257600080fd5b81602084016020830137600091810160200191909152949350505050565b60008060008060608587031215611d4657600080fd5b8435935060208501359250604085013567ffffffffffffffff811115611d6b57600080fd5b611d7787828801611a19565b95989497509550505050565b60008060008060608587031215611d9957600080fd5b611da285611af0565b93506020850135611db281611b43565b9250604085013567ffffffffffffffff811115611d6b57600080fd5b60005b83811015611de9578181015183820152602001611dd1565b838111156115a35750506000910152565b60008151808452611e12816020860160208601611dce565b601f017fffffffffffffffffffffffffffffffffffffffffffffffffffffffffffffffe0169290920160200192915050565b7fffffffff0000000000000000000000000000000000000000000000000000000083168152604060208201526000611e7f6040830184611dfa565b949350505050565b600080600060408486031215611e9c57600080fd5b8335611b2781611b43565b60008060408385031215611eba57600080fd5b8235611ec581611b43565b946020939093013593505050565b600080600080600060808688031215611eeb57600080fd5b853594506020860135935060408601359250606086013567ffffffffffffffff811115611f1757600080fd5b611f2388828901611a19565b969995985093965092949392505050565b7f4e487b7100000000000000000000000000000000000000000000000000000000600052602160045260246000fd5b6040810160068410611f9e577f4e487b7100000000000000000000000000000000000000000000000000000000600052602160045260246000fd5b9281527fffffffff000000000000000000000000000000000000000000000000000000009190911660209091015290565b80518015158114611b0457600080fd5b600060208284031215611ff157600080fd5b611a1282611fcf565b60006020828403121561200c57600080fd5b8151611a1281611b43565b8183528181602085013750600060208284010152600060207fffffffffffffffffffffffffffffffffffffffffffffffffffffffffffffffe0601f840116840101905092915050565b63ffffffff84168152604060208201526000612080604083018486612017565b95945050505050565b60008060006060848603121561209e57600080fd5b835192506120ae60208501611fcf565b9150604084015167ffffffffffffffff8111156120ca57600080fd5b8401601f810186136120db57600080fd5b80516120e9611cf882611c6a565b8181528760208385010111156120fe57600080fd5b61210f826020830160208601611dce565b8093505050509250925092565b602081526000611a126020830184611dfa565b60006020828403121561214157600080fd5b8151611a12816119c4565b63ffffffff8516815273ffffffffffffffffffffffffffffffffffffffff84166020820152606060408201526000612188606083018486612017565b969550505050505056fea164736f6c634300080d000a",
  "devdoc": {
    "author": "Holograph Foundation",
    "details": "The entire logic and functionality of the smart contract is self-contained.",
    "kind": "dev",
    "methods": {
      "constructor": {
        "details": "Constructor is left empty and init is used instead"
      },
      "init(bytes)": {
        "details": "This function is called by the deployer/factory when creating a contract",
        "params": {
          "initPayload": "abi encoded payload to use for contract initilaization"
        }
      },
      "sourceEmit(bytes)": {
        "details": "Allows for source smart contract to emit events."
      },
      "sourceTransfer(address,uint256)": {
        "details": "Allows for source smart contract to withdraw contract balance."
      },
      "sourceWithdraw(address)": {
        "details": "Allows for source smart contract to withdraw contract balance."
      },
      "supportsInterface(bytes4)": {
        "details": "Although EIP-165 is not required for ERC20 contracts, we still decided to implement it. This makes it easier for external smart contracts to easily identify a valid ERC20 token contract."
      }
    },
    "stateVariables": {
      "_eventConfig": {
        "details": "Configuration for events to trigger for source smart contract."
      },
      "_holographSlot": {
        "details": "bytes32(uint256(keccak256('eip1967.Holograph.holograph')) - 1)"
      },
      "_sourceContractSlot": {
        "details": "bytes32(uint256(keccak256('eip1967.Holograph.sourceContract')) - 1)"
      }
    },
    "title": "Holograph Bridgeable Generic Contract",
    "version": 1
  },
  "userdoc": {
    "kind": "user",
    "methods": {
      "init(bytes)": {
        "notice": "Used internally to initialize the contract instead of through a constructor"
      }
    },
    "notice": "A smart contract for creating custom bridgeable logic.",
    "version": 1
  },
  "storageLayout": {
    "storage": [
      {
        "astId": 21056,
        "contract": "contracts/enforcer/HolographGeneric.sol:HolographGeneric",
        "label": "_eventConfig",
        "offset": 0,
        "slot": "0",
        "type": "t_uint256"
      }
    ],
    "types": {
      "t_uint256": {
        "encoding": "inplace",
        "label": "uint256",
        "numberOfBytes": "32"
      }
    }
  }
}